{
  "_format": "hh-sol-artifact-1",
  "contractName": "TestLibrary",
  "sourceName": "contracts/MockTest/TestLibrary.sol",
  "abi": [
    {
      "inputs": [
        {
          "internalType": "uint256",
          "name": "_nonce",
          "type": "uint256"
        },
        {
          "internalType": "address",
          "name": "_sender",
          "type": "address"
        },
        {
          "internalType": "address",
          "name": "_target",
          "type": "address"
        },
        {
          "internalType": "uint256",
          "name": "_value",
          "type": "uint256"
        },
        {
          "internalType": "uint256",
          "name": "_minGasLimit",
          "type": "uint256"
        },
        {
          "internalType": "bytes",
          "name": "_message",
          "type": "bytes"
        }
      ],
      "name": "hashCrossDomainMessageV1",
      "outputs": [
        {
          "internalType": "bytes32",
          "name": "",
          "type": "bytes32"
        }
      ],
      "stateMutability": "pure",
      "type": "function"
    },
    {
      "inputs": [
        {
          "components": [
            {
              "internalType": "uint64",
              "name": "queueIndex",
              "type": "uint64"
            },
            {
              "internalType": "uint64",
              "name": "gas",
              "type": "uint64"
            },
            {
              "internalType": "address",
              "name": "to",
              "type": "address"
            },
            {
              "internalType": "uint256",
              "name": "value",
              "type": "uint256"
            },
            {
              "internalType": "bytes",
              "name": "data",
              "type": "bytes"
            },
            {
              "internalType": "address",
              "name": "sender",
              "type": "address"
            }
          ],
          "internalType": "struct Types.L1MessageTx",
          "name": "_tx",
          "type": "tuple"
        }
      ],
      "name": "hashL1MessageTx",
      "outputs": [
        {
          "internalType": "bytes32",
          "name": "",
          "type": "bytes32"
        }
      ],
      "stateMutability": "pure",
      "type": "function"
    },
    {
      "inputs": [
        {
          "components": [
            {
              "internalType": "uint256",
              "name": "nonce",
              "type": "uint256"
            },
            {
              "internalType": "address",
              "name": "sender",
              "type": "address"
            },
            {
              "internalType": "address",
              "name": "target",
              "type": "address"
            },
            {
              "internalType": "uint256",
              "name": "value",
              "type": "uint256"
            },
            {
              "internalType": "uint256",
              "name": "gasLimit",
              "type": "uint256"
            },
            {
              "internalType": "bytes",
              "name": "data",
              "type": "bytes"
            }
          ],
          "internalType": "struct Types.WithdrawalTransaction",
          "name": "_tx",
          "type": "tuple"
        }
      ],
      "name": "hashWithdrawal",
      "outputs": [
        {
          "internalType": "bytes32",
          "name": "",
          "type": "bytes32"
        }
      ],
      "stateMutability": "pure",
      "type": "function"
    }
  ],
  "bytecode": "0x608060405234801561001057600080fd5b506111e8806100206000396000f3fe608060405234801561001057600080fd5b50600436106100415760003560e01c80632aaac004146100465780637d4395ac1461006b578063b9fb9f7e1461007e575b600080fd5b610059610054366004610be0565b610091565b60405190815260200160405180910390f35b610059610079366004610c9b565b610128565b61005961008c366004610d48565b6101a4565b6000806101216040518060c00160405280856000015167ffffffffffffffff168152602001856020015167ffffffffffffffff168152602001856040015173ffffffffffffffffffffffffffffffffffffffff16815260200185606001518152602001856080015181526020018560a0015173ffffffffffffffffffffffffffffffffffffffff168152506101f6565b9392505050565b6000806101216040518060c0016040528085600001518152602001856020015173ffffffffffffffffffffffffffffffffffffffff168152602001856040015173ffffffffffffffffffffffffffffffffffffffff16815260200185606001518152602001856080015181526020018560a0015181525061020f565b60006101ea888888888888888080601f01602080910402602001604051908101604052809392919081815260200183838082843760009201919091525061025c92505050565b98975050505050505050565b60006102018261027f565b805190602001209050919050565b80516020808301516040808501516060860151608087015160a0880151935160009761023f979096959101610e29565b604051602081830303815290604052805190602001209050919050565b600061026c8787878787876103f9565b8051906020012090509695505050505050565b60408051600680825260e0820190925260609160009190816020015b606081526020019060019003908161029b57505083519091506102c79067ffffffffffffffff16610498565b816000815181106102da576102da610eb7565b60200260200101819052506102fc836020015167ffffffffffffffff16610498565b8160018151811061030f5761030f610eb7565b602002602001018190525061032783604001516104b1565b8160028151811061033a5761033a610eb7565b60200260200101819052506103528360600151610498565b8160038151811061036557610365610eb7565b602002602001018190525061037d83608001516104f8565b8160048151811061039057610390610eb7565b60200260200101819052506103a88360a001516104b1565b816005815181106103bb576103bb610eb7565b6020026020010181905250607e6103d182610567565b6040516020016103e2929190610ee6565b604051602081830303815290604052915050919050565b606086868686868660405160240161041696959493929190610e29565b604080517fffffffffffffffffffffffffffffffffffffffffffffffffffffffffffffffe08184030181529190526020810180517bffffffffffffffffffffffffffffffffffffffffffffffffffffffff167fd764ad0b0000000000000000000000000000000000000000000000000000000017905290509695505050505050565b60606104ab6104a683610594565b6104f8565b92915050565b604051606082811b7fffffffffffffffffffffffffffffffffffffffff000000000000000000000000166020830152906104ab906034016040516020818303038152906040525b60608082516001148015610526575060808360008151811061051c5761051c610eb7565b016020015160f81c105b156105325750816104ab565b61053e835160806106fc565b83604051602001610550929190610f31565b604051602081830303815290604052905092915050565b60606000610574836108f2565b9050610582815160c06106fc565b816040516020016103e2929190610f31565b60606000826040516020016105ab91815260200190565b604051602081830303815290604052905060005b602081101561061a578181815181106105da576105da610eb7565b01602001517fff000000000000000000000000000000000000000000000000000000000000001660000361061a578061061281610f8f565b9150506105bf565b6000610627826020610fc7565b67ffffffffffffffff81111561063f5761063f610a9c565b6040519080825280601f01601f191660200182016040528015610669576020820181803683370190505b50905060005b81518110156106f357838361068381610f8f565b94508151811061069557610695610eb7565b602001015160f81c60f81b8282815181106106b2576106b2610eb7565b60200101907effffffffffffffffffffffffffffffffffffffffffffffffffffffffffffff1916908160001a905350806106eb81610f8f565b91505061066f565b50949350505050565b606080603884101561077b57604080516001808252818301909252906020820181803683370190505090506107318385610fde565b60f81b8160008151811061074757610747610eb7565b60200101907effffffffffffffffffffffffffffffffffffffffffffffffffffffffffffff1916908160001a905350610121565b600060015b61078a8187611032565b156107b0578161079981610f8f565b92506107a9905061010082611046565b9050610780565b6107bb826001611083565b67ffffffffffffffff8111156107d3576107d3610a9c565b6040519080825280601f01601f1916602001820160405280156107fd576020820181803683370190505b50925061080a8583610fde565b610815906037610fde565b60f81b8360008151811061082b5761082b610eb7565b60200101907effffffffffffffffffffffffffffffffffffffffffffffffffffffffffffff1916908160001a905350600190505b8181116108e9576101006108738284610fc7565b61087f906101006111bb565b6108899088611032565b61089391906111c7565b60f81b8382815181106108a8576108a8610eb7565b60200101907effffffffffffffffffffffffffffffffffffffffffffffffffffffffffffff1916908160001a905350806108e181610f8f565b91505061085f565b50509392505050565b6060815160000361091157505060408051600081526020810190915290565b6000805b83518110156109585783818151811061093057610930610eb7565b602002602001015151826109449190611083565b91508061095081610f8f565b915050610915565b60008267ffffffffffffffff81111561097357610973610a9c565b6040519080825280601f01601f19166020018201604052801561099d576020820181803683370190505b50600092509050602081015b85518310156106f35760008684815181106109c6576109c6610eb7565b6020026020010151905060006020820190506109e483828451610a21565b8785815181106109f6576109f6610eb7565b60200260200101515183610a0a9190611083565b925050508280610a1990610f8f565b9350506109a9565b8282825b60208110610a5d5781518352610a3c602084611083565b9250610a49602083611083565b9150610a56602082610fc7565b9050610a25565b905182516020929092036101000a7fffffffffffffffffffffffffffffffffffffffffffffffffffffffffffffffff0180199091169116179052505050565b7f4e487b7100000000000000000000000000000000000000000000000000000000600052604160045260246000fd5b60405160c0810167ffffffffffffffff81118282101715610aee57610aee610a9c565b60405290565b803567ffffffffffffffff81168114610b0c57600080fd5b919050565b803573ffffffffffffffffffffffffffffffffffffffff81168114610b0c57600080fd5b600082601f830112610b4657600080fd5b813567ffffffffffffffff80821115610b6157610b61610a9c565b604051601f83017fffffffffffffffffffffffffffffffffffffffffffffffffffffffffffffffe0908116603f01168101908282118183101715610ba757610ba7610a9c565b81604052838152866020858801011115610bc057600080fd5b836020870160208301376000602085830101528094505050505092915050565b600060208284031215610bf257600080fd5b813567ffffffffffffffff80821115610c0a57600080fd5b9083019060c08286031215610c1e57600080fd5b610c26610acb565b610c2f83610af4565b8152610c3d60208401610af4565b6020820152610c4e60408401610b11565b604082015260608301356060820152608083013582811115610c6f57600080fd5b610c7b87828601610b35565b608083015250610c8d60a08401610b11565b60a082015295945050505050565b600060208284031215610cad57600080fd5b813567ffffffffffffffff80821115610cc557600080fd5b9083019060c08286031215610cd957600080fd5b610ce1610acb565b82358152610cf160208401610b11565b6020820152610d0260408401610b11565b6040820152606083013560608201526080830135608082015260a083013582811115610d2d57600080fd5b610d3987828601610b35565b60a08301525095945050505050565b600080600080600080600060c0888a031215610d6357600080fd5b87359650610d7360208901610b11565b9550610d8160408901610b11565b9450606088013593506080880135925060a088013567ffffffffffffffff80821115610dac57600080fd5b818a0191508a601f830112610dc057600080fd5b813581811115610dcf57600080fd5b8b6020828501011115610de157600080fd5b60208301945080935050505092959891949750929550565b60005b83811015610e14578181015183820152602001610dfc565b83811115610e23576000848401525b50505050565b868152600073ffffffffffffffffffffffffffffffffffffffff808816602084015280871660408401525084606083015283608083015260c060a083015282518060c0840152610e808160e0850160208701610df9565b601f017fffffffffffffffffffffffffffffffffffffffffffffffffffffffffffffffe0169190910160e001979650505050505050565b7f4e487b7100000000000000000000000000000000000000000000000000000000600052603260045260246000fd5b7fff000000000000000000000000000000000000000000000000000000000000008360f81b16815260008251610f23816001850160208701610df9565b919091016001019392505050565b60008351610f43818460208801610df9565b835190830190610f57818360208801610df9565b01949350505050565b7f4e487b7100000000000000000000000000000000000000000000000000000000600052601160045260246000fd5b60007fffffffffffffffffffffffffffffffffffffffffffffffffffffffffffffffff8203610fc057610fc0610f60565b5060010190565b600082821015610fd957610fd9610f60565b500390565b600060ff821660ff84168060ff03821115610ffb57610ffb610f60565b019392505050565b7f4e487b7100000000000000000000000000000000000000000000000000000000600052601260045260246000fd5b60008261104157611041611003565b500490565b6000817fffffffffffffffffffffffffffffffffffffffffffffffffffffffffffffffff048311821515161561107e5761107e610f60565b500290565b6000821982111561109657611096610f60565b500190565b600181815b808511156110f457817fffffffffffffffffffffffffffffffffffffffffffffffffffffffffffffffff048211156110da576110da610f60565b808516156110e757918102915b93841c93908002906110a0565b509250929050565b60008261110b575060016104ab565b81611118575060006104ab565b816001811461112e576002811461113857611154565b60019150506104ab565b60ff84111561114957611149610f60565b50506001821b6104ab565b5060208310610133831016604e8410600b8410161715611177575081810a6104ab565b611181838361109b565b807fffffffffffffffffffffffffffffffffffffffffffffffffffffffffffffffff048211156111b3576111b3610f60565b029392505050565b600061012183836110fc565b6000826111d6576111d6611003565b50069056fea164736f6c634300080f000a",
  "linkReferences": {},
  "deployedLinkReferences": {}
}