{
  "_format": "hh-sol-artifact-1",
  "contractName": "L1CustomERC20Gateway",
  "sourceName": "contracts/L1/gateways/L1CustomERC20Gateway.sol",
  "abi": [
    {
      "inputs": [],
      "stateMutability": "nonpayable",
      "type": "constructor"
    },
    {
      "anonymous": false,
      "inputs": [
        {
          "indexed": true,
          "internalType": "address",
          "name": "l1Token",
          "type": "address"
        },
        {
          "indexed": true,
          "internalType": "address",
          "name": "l2Token",
          "type": "address"
        },
        {
          "indexed": true,
          "internalType": "address",
          "name": "from",
          "type": "address"
        },
        {
          "indexed": false,
          "internalType": "address",
          "name": "to",
          "type": "address"
        },
        {
          "indexed": false,
          "internalType": "uint256",
          "name": "amount",
          "type": "uint256"
        },
        {
          "indexed": false,
          "internalType": "bytes",
          "name": "data",
          "type": "bytes"
        }
      ],
      "name": "DepositERC20",
      "type": "event"
    },
    {
      "anonymous": false,
      "inputs": [
        {
          "indexed": true,
          "internalType": "address",
          "name": "l1Token",
          "type": "address"
        },
        {
          "indexed": true,
          "internalType": "address",
          "name": "l2Token",
          "type": "address"
        },
        {
          "indexed": true,
          "internalType": "address",
          "name": "from",
          "type": "address"
        },
        {
          "indexed": false,
          "internalType": "address",
          "name": "to",
          "type": "address"
        },
        {
          "indexed": false,
          "internalType": "uint256",
          "name": "amount",
          "type": "uint256"
        },
        {
          "indexed": false,
          "internalType": "bytes",
          "name": "data",
          "type": "bytes"
        }
      ],
      "name": "FinalizeWithdrawERC20",
      "type": "event"
    },
    {
      "anonymous": false,
      "inputs": [
        {
          "indexed": false,
          "internalType": "uint8",
          "name": "version",
          "type": "uint8"
        }
      ],
      "name": "Initialized",
      "type": "event"
    },
    {
      "anonymous": false,
      "inputs": [
        {
          "indexed": true,
          "internalType": "address",
          "name": "previousOwner",
          "type": "address"
        },
        {
          "indexed": true,
          "internalType": "address",
          "name": "newOwner",
          "type": "address"
        }
      ],
      "name": "OwnershipTransferred",
      "type": "event"
    },
    {
      "anonymous": false,
      "inputs": [
        {
          "indexed": true,
          "internalType": "address",
          "name": "token",
          "type": "address"
        },
        {
          "indexed": true,
          "internalType": "address",
          "name": "recipient",
          "type": "address"
        },
        {
          "indexed": false,
          "internalType": "uint256",
          "name": "amount",
          "type": "uint256"
        }
      ],
      "name": "RefundERC20",
      "type": "event"
    },
    {
      "anonymous": false,
      "inputs": [
        {
          "indexed": true,
          "internalType": "address",
          "name": "l1Token",
          "type": "address"
        },
        {
          "indexed": true,
          "internalType": "address",
          "name": "oldL2Token",
          "type": "address"
        },
        {
          "indexed": true,
          "internalType": "address",
          "name": "newL2Token",
          "type": "address"
        }
      ],
      "name": "UpdateTokenMapping",
      "type": "event"
    },
    {
      "inputs": [],
      "name": "counterpart",
      "outputs": [
        {
          "internalType": "address",
          "name": "",
          "type": "address"
        }
      ],
      "stateMutability": "view",
      "type": "function"
    },
    {
      "inputs": [
        {
          "internalType": "address",
          "name": "_token",
          "type": "address"
        },
        {
          "internalType": "uint256",
          "name": "_amount",
          "type": "uint256"
        },
        {
          "internalType": "uint256",
          "name": "_gasLimit",
          "type": "uint256"
        }
      ],
      "name": "depositERC20",
      "outputs": [],
      "stateMutability": "payable",
      "type": "function"
    },
    {
      "inputs": [
        {
          "internalType": "address",
          "name": "_token",
          "type": "address"
        },
        {
          "internalType": "address",
          "name": "_to",
          "type": "address"
        },
        {
          "internalType": "uint256",
          "name": "_amount",
          "type": "uint256"
        },
        {
          "internalType": "uint256",
          "name": "_gasLimit",
          "type": "uint256"
        }
      ],
      "name": "depositERC20",
      "outputs": [],
      "stateMutability": "payable",
      "type": "function"
    },
    {
      "inputs": [
        {
          "internalType": "address",
          "name": "_token",
          "type": "address"
        },
        {
          "internalType": "address",
          "name": "_to",
          "type": "address"
        },
        {
          "internalType": "uint256",
          "name": "_amount",
          "type": "uint256"
        },
        {
          "internalType": "bytes",
          "name": "_data",
          "type": "bytes"
        },
        {
          "internalType": "uint256",
          "name": "_gasLimit",
          "type": "uint256"
        }
      ],
      "name": "depositERC20AndCall",
      "outputs": [],
      "stateMutability": "payable",
      "type": "function"
    },
    {
      "inputs": [
        {
          "internalType": "address",
          "name": "_l1Token",
          "type": "address"
        },
        {
          "internalType": "address",
          "name": "_l2Token",
          "type": "address"
        },
        {
          "internalType": "address",
          "name": "_from",
          "type": "address"
        },
        {
          "internalType": "address",
          "name": "_to",
          "type": "address"
        },
        {
          "internalType": "uint256",
          "name": "_amount",
          "type": "uint256"
        },
        {
          "internalType": "bytes",
          "name": "_data",
          "type": "bytes"
        }
      ],
      "name": "finalizeWithdrawERC20",
      "outputs": [],
      "stateMutability": "payable",
      "type": "function"
    },
    {
      "inputs": [
        {
          "internalType": "address",
          "name": "_l1Token",
          "type": "address"
        }
      ],
      "name": "getL2ERC20Address",
      "outputs": [
        {
          "internalType": "address",
          "name": "",
          "type": "address"
        }
      ],
      "stateMutability": "view",
      "type": "function"
    },
    {
      "inputs": [
        {
          "internalType": "address",
          "name": "_counterpart",
          "type": "address"
        },
        {
          "internalType": "address",
          "name": "_router",
          "type": "address"
        },
        {
          "internalType": "address",
          "name": "_messenger",
          "type": "address"
        }
      ],
      "name": "initialize",
      "outputs": [],
      "stateMutability": "nonpayable",
      "type": "function"
    },
    {
      "inputs": [],
      "name": "messenger",
      "outputs": [
        {
          "internalType": "address",
          "name": "",
          "type": "address"
        }
      ],
      "stateMutability": "view",
      "type": "function"
    },
    {
      "inputs": [
        {
          "internalType": "bytes",
          "name": "_message",
          "type": "bytes"
        }
      ],
      "name": "onDropMessage",
      "outputs": [],
      "stateMutability": "payable",
      "type": "function"
    },
    {
      "inputs": [],
      "name": "owner",
      "outputs": [
        {
          "internalType": "address",
          "name": "",
          "type": "address"
        }
      ],
      "stateMutability": "view",
      "type": "function"
    },
    {
      "inputs": [],
      "name": "renounceOwnership",
      "outputs": [],
      "stateMutability": "nonpayable",
      "type": "function"
    },
    {
      "inputs": [],
      "name": "router",
      "outputs": [
        {
          "internalType": "address",
          "name": "",
          "type": "address"
        }
      ],
      "stateMutability": "view",
      "type": "function"
    },
    {
      "inputs": [
        {
          "internalType": "address",
          "name": "",
          "type": "address"
        }
      ],
      "name": "tokenMapping",
      "outputs": [
        {
          "internalType": "address",
          "name": "",
          "type": "address"
        }
      ],
      "stateMutability": "view",
      "type": "function"
    },
    {
      "inputs": [
        {
          "internalType": "address",
          "name": "newOwner",
          "type": "address"
        }
      ],
      "name": "transferOwnership",
      "outputs": [],
      "stateMutability": "nonpayable",
      "type": "function"
    },
    {
      "inputs": [
        {
          "internalType": "address",
          "name": "_l1Token",
          "type": "address"
        },
        {
          "internalType": "address",
          "name": "_l2Token",
          "type": "address"
        }
      ],
      "name": "updateTokenMapping",
      "outputs": [],
      "stateMutability": "nonpayable",
      "type": "function"
    }
  ],
  "bytecode": "0x608060405234801561000f575f80fd5b5061001861001d565b6100d9565b5f54610100900460ff16156100885760405162461bcd60e51b815260206004820152602760248201527f496e697469616c697a61626c653a20636f6e747261637420697320696e697469604482015266616c697a696e6760c81b606482015260840160405180910390fd5b5f5460ff908116146100d7575f805460ff191660ff9081179091556040519081527f7f26b83ff96e1f2b6a682f133852f6798a09c465da95921460cefb38474024989060200160405180910390a15b565b61204280620000e75f395ff3fe6080604052600436106100e4575f3560e01c80638da5cb5b11610087578063f219fa6611610057578063f219fa661461024b578063f2fde38b1461025e578063f887ea401461027d578063fac752eb1461029c575f80fd5b80638da5cb5b146101a4578063ba27f50b146101c1578063c0c53b8b146101f5578063c676ad2914610214575f80fd5b80633cb747bf116100c25780633cb747bf14610123578063715018a61461015e578063797594b01461017257806384bd13b014610191575f80fd5b80630aea8c26146100e857806314298c51146100fd57806321425ee014610110575b5f80fd5b6100fb6100f63660046119e2565b6102bb565b005b6100fb61010b366004611a96565b6102cf565b6100fb61011e366004611ad5565b610554565b34801561012e575f80fd5b50609954610142906001600160a01b031681565b6040516001600160a01b03909116815260200160405180910390f35b348015610169575f80fd5b506100fb61058d565b34801561017d575f80fd5b50609754610142906001600160a01b031681565b6100fb61019f366004611b07565b6105a0565b3480156101af575f80fd5b506065546001600160a01b0316610142565b3480156101cc575f80fd5b506101426101db366004611b99565b60fb6020525f90815260409020546001600160a01b031681565b348015610200575f80fd5b506100fb61020f366004611bbb565b610790565b34801561021f575f80fd5b5061014261022e366004611b99565b6001600160a01b039081165f90815260fb60205260409020541690565b6100fb610259366004611c03565b61095e565b348015610269575f80fd5b506100fb610278366004611b99565b61096a565b348015610288575f80fd5b50609854610142906001600160a01b031681565b3480156102a7575f80fd5b506100fb6102b6366004611c46565b6109fa565b6102c88585858585610ad3565b5050505050565b6099546001600160a01b031633811461032f5760405162461bcd60e51b815260206004820152601760248201527f6f6e6c79206d657373656e6765722063616e2063616c6c00000000000000000060448201526064015b60405180910390fd5b806001600160a01b0316636e296e456040518163ffffffff1660e01b8152600401602060405180830381865afa15801561036b573d5f803e3d5ffd5b505050506040513d601f19601f8201168201806040525081019061038f9190611c7d565b6001600160a01b0316736f297c61b5c92ef107ffd30cd56affe5a273e8416001600160a01b0316146104035760405162461bcd60e51b815260206004820152601b60248201527f6f6e6c792063616c6c656420696e2064726f7020636f6e7465787400000000006044820152606401610326565b61040b610cb7565b7f8431f5c10000000000000000000000000000000000000000000000000000000061043960045f8587611c98565b61044291611cbf565b7fffffffff0000000000000000000000000000000000000000000000000000000016146104b15760405162461bcd60e51b815260206004820152601060248201527f696e76616c69642073656c6563746f72000000000000000000000000000000006044820152606401610326565b5f80806104c18560048189611c98565b8101906104ce9190611d07565b5094505093505092506104e2838383610d10565b6104f66001600160a01b0384168383610d5e565b816001600160a01b0316836001600160a01b03167fdbdf8eb487847e4c0f22847f5dac07f2d3690f96f581a6ae4b102769917645a88360405161053b91815260200190565b60405180910390a350505061054f60018055565b505050565b61054f8333845f5b6040519080825280601f01601f191660200182016040528015610586576020820181803683370190505b5085610ad3565b610595610e0d565b61059e5f610e67565b565b6099546001600160a01b03163381146105fb5760405162461bcd60e51b815260206004820152601760248201527f6f6e6c79206d657373656e6765722063616e2063616c6c0000000000000000006044820152606401610326565b806001600160a01b0316636e296e456040518163ffffffff1660e01b8152600401602060405180830381865afa158015610637573d5f803e3d5ffd5b505050506040513d601f19601f8201168201806040525081019061065b9190611c7d565b6097546001600160a01b039081169116146106b85760405162461bcd60e51b815260206004820152601860248201527f6f6e6c792063616c6c20627920636f756e7465727061727400000000000000006044820152606401610326565b6106c0610cb7565b6106cf88888888888888610ed0565b6106e36001600160a01b0389168686610d5e565b6107228584848080601f0160208091040260200160405190810160405280939291908181526020018383808284375f92019190915250610fe892505050565b856001600160a01b0316876001600160a01b0316896001600160a01b03167fc6f985873b37805705f6bce756dce3d1ff4b603e298d506288cce499926846a7888888886040516107759493929190611d92565b60405180910390a461078660018055565b5050505050505050565b5f54610100900460ff16158080156107ae57505f54600160ff909116105b806107c75750303b1580156107c757505f5460ff166001145b6108395760405162461bcd60e51b815260206004820152602e60248201527f496e697469616c697a61626c653a20636f6e747261637420697320616c72656160448201527f647920696e697469616c697a65640000000000000000000000000000000000006064820152608401610326565b5f80547fffffffffffffffffffffffffffffffffffffffffffffffffffffffffffffff001660011790558015610895575f80547fffffffffffffffffffffffffffffffffffffffffffffffffffffffffffff00ff166101001790555b6001600160a01b0383166108eb5760405162461bcd60e51b815260206004820152601360248201527f7a65726f20726f757465722061646472657373000000000000000000000000006044820152606401610326565b6108f684848461107d565b8015610958575f80547fffffffffffffffffffffffffffffffffffffffffffffffffffffffffffff00ff169055604051600181527f7f26b83ff96e1f2b6a682f133852f6798a09c465da95921460cefb38474024989060200160405180910390a15b50505050565b6109588484845f61055c565b610972610e0d565b6001600160a01b0381166109ee5760405162461bcd60e51b815260206004820152602660248201527f4f776e61626c653a206e6577206f776e657220697320746865207a65726f206160448201527f64647265737300000000000000000000000000000000000000000000000000006064820152608401610326565b6109f781610e67565b50565b610a02610e0d565b6001600160a01b038116610a585760405162461bcd60e51b815260206004820152601960248201527f746f6b656e20616464726573732063616e6e6f742062652030000000000000006044820152606401610326565b6001600160a01b038083165f81815260fb602052604080822080548686167fffffffffffffffffffffffff0000000000000000000000000000000000000000821681179092559151919094169392849290917f2069a26c43c36ffaabe0c2d19bf65e55dd03abecdc449f5cc9663491e97f709d9190a4505050565b610adb610cb7565b6001600160a01b038086165f90815260fb60205260409020541680610b425760405162461bcd60e51b815260206004820152601960248201527f6e6f20636f72726573706f6e64696e67206c3220746f6b656e000000000000006044820152606401610326565b5f610b4e8786866111c0565b60405191975095509091505f90610b73908990859085908b908b908b90602401611e24565b60408051601f198184030181529181526020820180517bffffffffffffffffffffffffffffffffffffffffffffffffffffffff167f8431f5c10000000000000000000000000000000000000000000000000000000017905260995460975491517f5f7b15770000000000000000000000000000000000000000000000000000000081529293506001600160a01b0390811692635f7b1577923492610c24929116905f9087908b908a90600401611e71565b5f604051808303818588803b158015610c3b575f80fd5b505af1158015610c4d573d5f803e3d5ffd5b5050505050816001600160a01b0316836001600160a01b0316896001600160a01b03167f31cd3b976e4d654022bf95c68a2ce53f1d5d94afabe0454d2832208eeb40af258a8a8a604051610ca393929190611eb3565b60405180910390a45050506102c860018055565b600260015403610d095760405162461bcd60e51b815260206004820152601f60248201527f5265656e7472616e637947756172643a207265656e7472616e742063616c6c006044820152606401610326565b6002600155565b341561054f5760405162461bcd60e51b815260206004820152601160248201527f6e6f6e7a65726f206d73672e76616c75650000000000000000000000000000006044820152606401610326565b6040516001600160a01b03831660248201526044810182905261054f9084907fa9059cbb00000000000000000000000000000000000000000000000000000000906064015b60408051601f198184030181529190526020810180517bffffffffffffffffffffffffffffffffffffffffffffffffffffffff167fffffffff0000000000000000000000000000000000000000000000000000000090931692909217909152611416565b60018055565b6065546001600160a01b0316331461059e5760405162461bcd60e51b815260206004820181905260248201527f4f776e61626c653a2063616c6c6572206973206e6f7420746865206f776e65726044820152606401610326565b606580546001600160a01b038381167fffffffffffffffffffffffff0000000000000000000000000000000000000000831681179093556040519116919082907f8be0079c531659141344cd1fd0a4f28419497f9722a3daafe3b4186f6b6457e0905f90a35050565b3415610f1e5760405162461bcd60e51b815260206004820152601160248201527f6e6f6e7a65726f206d73672e76616c75650000000000000000000000000000006044820152606401610326565b6001600160a01b038616610f745760405162461bcd60e51b815260206004820152601960248201527f746f6b656e20616464726573732063616e6e6f742062652030000000000000006044820152606401610326565b6001600160a01b038088165f90815260fb6020526040902054878216911614610fdf5760405162461bcd60e51b815260206004820152601160248201527f6c3220746f6b656e206d69736d617463680000000000000000000000000000006044820152606401610326565b50505050505050565b5f815111801561100157505f826001600160a01b03163b115b15611079576040517f444b281f0000000000000000000000000000000000000000000000000000000081526001600160a01b0383169063444b281f9061104b908490600401611ee3565b5f604051808303815f87803b158015611062575f80fd5b505af1158015611074573d5f803e3d5ffd5b505050505b5050565b6001600160a01b0383166110d35760405162461bcd60e51b815260206004820152601860248201527f7a65726f20636f756e74657270617274206164647265737300000000000000006044820152606401610326565b6001600160a01b0381166111295760405162461bcd60e51b815260206004820152601660248201527f7a65726f206d657373656e6765722061646472657373000000000000000000006044820152606401610326565b6111316114fc565b611139611580565b609780546001600160a01b038086167fffffffffffffffffffffffff00000000000000000000000000000000000000009283161790925560998054848416921691909117905582161561054f57609880546001600160a01b0384167fffffffffffffffffffffffff0000000000000000000000000000000000000000909116179055505050565b6098545f908190606090339081906001600160a01b031681900361129057858060200190518101906111f29190611ef5565b6040517fc52a3bbc0000000000000000000000000000000000000000000000000000000081526001600160a01b0380841660048301528b81166024830152604482018b905291985091925083169063c52a3bbc906064016020604051808303815f875af1158015611265573d5f803e3d5ffd5b505050506040513d601f19601f820116820180604052508101906112899190611f7d565b96506113ba565b6040517f70a082310000000000000000000000000000000000000000000000000000000081523060048201525f906001600160a01b038a16906370a0823190602401602060405180830381865afa1580156112ed573d5f803e3d5ffd5b505050506040513d601f19601f820116820180604052508101906113119190611f7d565b90506113286001600160a01b038a1683308b611604565b6040517f70a082310000000000000000000000000000000000000000000000000000000081523060048201525f906001600160a01b038b16906370a0823190602401602060405180830381865afa158015611385573d5f803e3d5ffd5b505050506040513d601f19601f820116820180604052508101906113a99190611f7d565b90506113b58282611f94565b985050505b5f87116114095760405162461bcd60e51b815260206004820152601360248201527f6465706f736974207a65726f20616d6f756e74000000000000000000000000006044820152606401610326565b9795965093949350505050565b5f61146a826040518060400160405280602081526020017f5361666545524332303a206c6f772d6c6576656c2063616c6c206661696c6564815250856001600160a01b03166116559092919063ffffffff16565b905080515f148061148a57508080602001905181019061148a9190611fd2565b61054f5760405162461bcd60e51b815260206004820152602a60248201527f5361666545524332303a204552433230206f7065726174696f6e20646964206e60448201527f6f742073756363656564000000000000000000000000000000000000000000006064820152608401610326565b5f54610100900460ff166115785760405162461bcd60e51b815260206004820152602b60248201527f496e697469616c697a61626c653a20636f6e7472616374206973206e6f74206960448201527f6e697469616c697a696e670000000000000000000000000000000000000000006064820152608401610326565b61059e61166b565b5f54610100900460ff166115fc5760405162461bcd60e51b815260206004820152602b60248201527f496e697469616c697a61626c653a20636f6e7472616374206973206e6f74206960448201527f6e697469616c697a696e670000000000000000000000000000000000000000006064820152608401610326565b61059e6116e7565b6040516001600160a01b03808516602483015283166044820152606481018290526109589085907f23b872dd0000000000000000000000000000000000000000000000000000000090608401610da3565b606061166384845f8561176c565b949350505050565b5f54610100900460ff16610e075760405162461bcd60e51b815260206004820152602b60248201527f496e697469616c697a61626c653a20636f6e7472616374206973206e6f74206960448201527f6e697469616c697a696e670000000000000000000000000000000000000000006064820152608401610326565b5f54610100900460ff166117635760405162461bcd60e51b815260206004820152602b60248201527f496e697469616c697a61626c653a20636f6e7472616374206973206e6f74206960448201527f6e697469616c697a696e670000000000000000000000000000000000000000006064820152608401610326565b61059e33610e67565b6060824710156117e45760405162461bcd60e51b815260206004820152602660248201527f416464726573733a20696e73756666696369656e742062616c616e636520666f60448201527f722063616c6c00000000000000000000000000000000000000000000000000006064820152608401610326565b5f80866001600160a01b031685876040516117ff9190611ff1565b5f6040518083038185875af1925050503d805f8114611839576040519150601f19603f3d011682016040523d82523d5f602084013e61183e565b606091505b509150915061184f8783838761185a565b979650505050505050565b606083156118c85782515f036118c1576001600160a01b0385163b6118c15760405162461bcd60e51b815260206004820152601d60248201527f416464726573733a2063616c6c20746f206e6f6e2d636f6e74726163740000006044820152606401610326565b5081611663565b61166383838151156118dd5781518083602001fd5b8060405162461bcd60e51b81526004016103269190611ee3565b6001600160a01b03811681146109f7575f80fd5b7f4e487b71000000000000000000000000000000000000000000000000000000005f52604160045260245ffd5b604051601f8201601f1916810167ffffffffffffffff811182821017156119615761196161190b565b604052919050565b5f67ffffffffffffffff8211156119825761198261190b565b50601f01601f191660200190565b5f82601f83011261199f575f80fd5b81356119b26119ad82611969565b611938565b8181528460208386010111156119c6575f80fd5b816020850160208301375f918101602001919091529392505050565b5f805f805f60a086880312156119f6575f80fd5b8535611a01816118f7565b94506020860135611a11816118f7565b935060408601359250606086013567ffffffffffffffff811115611a33575f80fd5b611a3f88828901611990565b95989497509295608001359392505050565b5f8083601f840112611a61575f80fd5b50813567ffffffffffffffff811115611a78575f80fd5b602083019150836020828501011115611a8f575f80fd5b9250929050565b5f8060208385031215611aa7575f80fd5b823567ffffffffffffffff811115611abd575f80fd5b611ac985828601611a51565b90969095509350505050565b5f805f60608486031215611ae7575f80fd5b8335611af2816118f7565b95602085013595506040909401359392505050565b5f805f805f805f60c0888a031215611b1d575f80fd5b8735611b28816118f7565b96506020880135611b38816118f7565b95506040880135611b48816118f7565b94506060880135611b58816118f7565b93506080880135925060a088013567ffffffffffffffff811115611b7a575f80fd5b611b868a828b01611a51565b989b979a50959850939692959293505050565b5f60208284031215611ba9575f80fd5b8135611bb4816118f7565b9392505050565b5f805f60608486031215611bcd575f80fd5b8335611bd8816118f7565b92506020840135611be8816118f7565b91506040840135611bf8816118f7565b809150509250925092565b5f805f8060808587031215611c16575f80fd5b8435611c21816118f7565b93506020850135611c31816118f7565b93969395505050506040820135916060013590565b5f8060408385031215611c57575f80fd5b8235611c62816118f7565b91506020830135611c72816118f7565b809150509250929050565b5f60208284031215611c8d575f80fd5b8151611bb4816118f7565b5f8085851115611ca6575f80fd5b83861115611cb2575f80fd5b5050820193919092039150565b7fffffffff000000000000000000000000000000000000000000000000000000008135818116916004851015611cff5780818660040360031b1b83161692505b505092915050565b5f805f805f8060c08789031215611d1c575f80fd5b8635611d27816118f7565b95506020870135611d37816118f7565b94506040870135611d47816118f7565b93506060870135611d57816118f7565b92506080870135915060a087013567ffffffffffffffff811115611d79575f80fd5b611d8589828a01611990565b9150509295509295509295565b6001600160a01b038516815283602082015260606040820152816060820152818360808301375f818301608090810191909152601f909201601f191601019392505050565b5f5b83811015611df1578181015183820152602001611dd9565b50505f910152565b5f8151808452611e10816020860160208601611dd7565b601f01601f19169290920160200192915050565b5f6001600160a01b0380891683528088166020840152808716604084015280861660608401525083608083015260c060a0830152611e6560c0830184611df9565b98975050505050505050565b5f6001600160a01b03808816835286602084015260a06040840152611e9960a0840187611df9565b606084019590955292909216608090910152509392505050565b6001600160a01b0384168152826020820152606060408201525f611eda6060830184611df9565b95945050505050565b602081525f611bb46020830184611df9565b5f8060408385031215611f06575f80fd5b8251611f11816118f7565b602084015190925067ffffffffffffffff811115611f2d575f80fd5b8301601f81018513611f3d575f80fd5b8051611f4b6119ad82611969565b818152866020838501011115611f5f575f80fd5b611f70826020830160208601611dd7565b8093505050509250929050565b5f60208284031215611f8d575f80fd5b5051919050565b81810381811115611fcc577f4e487b71000000000000000000000000000000000000000000000000000000005f52601160045260245ffd5b92915050565b5f60208284031215611fe2575f80fd5b81518015158114611bb4575f80fd5b5f8251612002818460208701611dd7565b919091019291505056fea26469706673582212201b57a365466bfe60657b69527ea063c707c431bdcf917f51f6db9f178072978064736f6c63430008180033",
  "linkReferences": {},
  "deployedLinkReferences": {}
}