{
  "_format": "hh-sol-artifact-1",
  "contractName": "L1MessageStorage",
  "sourceName": "contracts/L1/L1MessageStorage.sol",
  "abi": [
    {
      "inputs": [],
      "stateMutability": "nonpayable",
      "type": "constructor"
    },
    {
      "anonymous": false,
      "inputs": [
        {
          "indexed": false,
          "internalType": "uint256",
          "name": "startIndex",
          "type": "uint256"
        },
        {
          "indexed": false,
          "internalType": "uint256",
          "name": "count",
          "type": "uint256"
        },
        {
          "indexed": false,
          "internalType": "uint256",
          "name": "skippedBitmap",
          "type": "uint256"
        }
      ],
      "name": "DequeueTransaction",
      "type": "event"
    },
    {
      "anonymous": false,
      "inputs": [
        {
          "indexed": false,
          "internalType": "uint256",
          "name": "index",
          "type": "uint256"
        }
      ],
      "name": "DropTransaction",
      "type": "event"
    },
    {
      "anonymous": false,
      "inputs": [
        {
          "indexed": true,
          "internalType": "address",
          "name": "sender",
          "type": "address"
        },
        {
          "indexed": true,
          "internalType": "address",
          "name": "target",
          "type": "address"
        },
        {
          "indexed": false,
          "internalType": "uint256",
          "name": "value",
          "type": "uint256"
        },
        {
          "indexed": false,
          "internalType": "uint64",
          "name": "queueIndex",
          "type": "uint64"
        },
        {
          "indexed": false,
          "internalType": "uint256",
          "name": "gasLimit",
          "type": "uint256"
        },
        {
          "indexed": false,
          "internalType": "bytes",
          "name": "data",
          "type": "bytes"
        }
      ],
      "name": "QueueTransaction",
      "type": "event"
    },
    {
      "inputs": [
        {
          "internalType": "address",
          "name": "_sender",
          "type": "address"
        },
        {
          "internalType": "uint256",
          "name": "_queueIndex",
          "type": "uint256"
        },
        {
          "internalType": "uint256",
          "name": "_value",
          "type": "uint256"
        },
        {
          "internalType": "address",
          "name": "_target",
          "type": "address"
        },
        {
          "internalType": "uint256",
          "name": "_gasLimit",
          "type": "uint256"
        },
        {
          "internalType": "bytes",
          "name": "_data",
          "type": "bytes"
        }
      ],
      "name": "computeTransactionHash",
      "outputs": [
        {
          "internalType": "bytes32",
          "name": "",
          "type": "bytes32"
        }
      ],
      "stateMutability": "pure",
      "type": "function"
    },
    {
      "inputs": [
        {
          "internalType": "uint256",
          "name": "_queueIndex",
          "type": "uint256"
        }
      ],
      "name": "getCrossDomainMessage",
      "outputs": [
        {
          "internalType": "bytes32",
          "name": "",
          "type": "bytes32"
        }
      ],
      "stateMutability": "view",
      "type": "function"
    },
    {
      "inputs": [
        {
          "internalType": "uint256",
          "name": "_queueIndex",
          "type": "uint256"
        }
      ],
      "name": "isMessageDropped",
      "outputs": [
        {
          "internalType": "bool",
          "name": "",
          "type": "bool"
        }
      ],
      "stateMutability": "view",
      "type": "function"
    },
    {
      "inputs": [
        {
          "internalType": "uint256",
          "name": "_queueIndex",
          "type": "uint256"
        }
      ],
      "name": "isMessageSkipped",
      "outputs": [
        {
          "internalType": "bool",
          "name": "",
          "type": "bool"
        }
      ],
      "stateMutability": "view",
      "type": "function"
    },
    {
      "inputs": [
        {
          "internalType": "uint256",
          "name": "",
          "type": "uint256"
        }
      ],
      "name": "messageQueue",
      "outputs": [
        {
          "internalType": "bytes32",
          "name": "",
          "type": "bytes32"
        }
      ],
      "stateMutability": "view",
      "type": "function"
    },
    {
      "inputs": [],
      "name": "nextCrossDomainMessageIndex",
      "outputs": [
        {
          "internalType": "uint256",
          "name": "",
          "type": "uint256"
        }
      ],
      "stateMutability": "view",
      "type": "function"
    },
    {
      "inputs": [],
      "name": "pendingQueueIndex",
      "outputs": [
        {
          "internalType": "uint256",
          "name": "",
          "type": "uint256"
        }
      ],
      "stateMutability": "view",
      "type": "function"
    }
  ],
  "bytecode": "0x608060405234801561001057600080fd5b506104fb806100206000396000f3fe608060405234801561001057600080fd5b506004361061007d5760003560e01c80637d82191a1161005b5780637d82191a146100de578063a85006ca146100f1578063ae453cd5146100fa578063fd0ad31e1461010d57600080fd5b806329aa604b146100825780633e6dada1146100a85780635ad9945a146100cb575b600080fd5b6100956100903660046103d1565b610115565b6040519081526020015b60405180910390f35b6100bb6100b63660046103d1565b610136565b604051901515815260200161009f565b6100956100d936600461040e565b610180565b6100bb6100ec3660046103d1565b610375565b61009560015481565b6100956101083660046103d1565b6103ab565b600054610095565b6000818154811061012557600080fd5b600091825260209091200154905081565b600881901c600090815260036020526040812054600160ff84161b161515801561017a5750600882901c600090815260026020526040902054600160ff84161b1615155b92915050565b6000607e8161022c565b60008161019957506001919050565b5b81156101af5760089190911c9060010161019a565b919050565b8060808310600181146101ec576101ca8461018a565b60808101835360018301925084816020036008021b835280830192505061020d565b848415166001811461020057848353610205565b608083535b506001820191505b509392505050565b806094815360609290921b60018301525060150190565b6005604051018061023f60018c836101b4565b905061024d600189836101b4565b90506102598982610215565b905061026760018b836101b4565b905060018614600181146102cf5760388710600181146102b45761028a8861018a565b8060b701845360018401935088816020036008021b845280840193505087898437918701916102c9565b87608001835360018301925087898437918701915b506102e2565b6102df6000893560001a846101b4565b91505b506102ed8c82610215565b905081810360008060388310600181146103215761030a8461018a565b60f78101600882021b85179350600101915061032c565b8360c0019250600191505b5086816008021b821791506001810190508060080292508451831c8284610100031b17915080850394505080845250508181038220925050508092505050979650505050505050565b6000600154821061038857506000919050565b600882901c600090815260036020526040902054600160ff84161b16151561017a565b60008082815481106103bf576103bf6104bf565b90600052602060002001549050919050565b6000602082840312156103e357600080fd5b5035919050565b803573ffffffffffffffffffffffffffffffffffffffff811681146101af57600080fd5b600080600080600080600060c0888a03121561042957600080fd5b610432886103ea565b9650602088013595506040880135945061044e606089016103ea565b93506080880135925060a088013567ffffffffffffffff8082111561047257600080fd5b818a0191508a601f83011261048657600080fd5b81358181111561049557600080fd5b8b60208285010111156104a757600080fd5b60208301945080935050505092959891949750929550565b7f4e487b7100000000000000000000000000000000000000000000000000000000600052603260045260246000fdfea164736f6c634300080f000a",
  "linkReferences": {},
  "deployedLinkReferences": {}
}