{
  "_format": "hh-sol-artifact-1",
  "contractName": "L2ToL1MessagePasser",
  "sourceName": "contracts/L2/L2ToL1MessagePasser.sol",
  "abi": [
    {
      "inputs": [
        {
          "internalType": "address",
          "name": "_l1CrossDomainMessenger",
          "type": "address"
        }
      ],
      "stateMutability": "nonpayable",
      "type": "constructor"
    },
    {
      "inputs": [],
      "name": "MerkleTreeFull",
      "type": "error"
    },
    {
      "anonymous": false,
      "inputs": [
        {
          "indexed": true,
          "internalType": "uint256",
          "name": "nonce",
          "type": "uint256"
        },
        {
          "indexed": true,
          "internalType": "address",
          "name": "sender",
          "type": "address"
        },
        {
          "indexed": true,
          "internalType": "address",
          "name": "target",
          "type": "address"
        },
        {
          "indexed": false,
          "internalType": "uint256",
          "name": "value",
          "type": "uint256"
        },
        {
          "indexed": false,
          "internalType": "uint256",
          "name": "gasLimit",
          "type": "uint256"
        },
        {
          "indexed": false,
          "internalType": "bytes",
          "name": "data",
          "type": "bytes"
        },
        {
          "indexed": false,
          "internalType": "bytes32",
          "name": "withdrawalHash",
          "type": "bytes32"
        },
        {
          "indexed": false,
          "internalType": "bytes32",
          "name": "rootHash",
          "type": "bytes32"
        }
      ],
      "name": "MessagePassed",
      "type": "event"
    },
    {
      "anonymous": false,
      "inputs": [
        {
          "indexed": true,
          "internalType": "uint256",
          "name": "amount",
          "type": "uint256"
        }
      ],
      "name": "WithdrawerBalanceBurnt",
      "type": "event"
    },
    {
      "inputs": [],
      "name": "MESSAGE_VERSION",
      "outputs": [
        {
          "internalType": "uint16",
          "name": "",
          "type": "uint16"
        }
      ],
      "stateMutability": "view",
      "type": "function"
    },
    {
      "inputs": [],
      "name": "getTreeRoot",
      "outputs": [
        {
          "internalType": "bytes32",
          "name": "",
          "type": "bytes32"
        }
      ],
      "stateMutability": "view",
      "type": "function"
    },
    {
      "inputs": [
        {
          "internalType": "address",
          "name": "_target",
          "type": "address"
        },
        {
          "internalType": "uint256",
          "name": "_gasLimit",
          "type": "uint256"
        },
        {
          "internalType": "bytes",
          "name": "_data",
          "type": "bytes"
        }
      ],
      "name": "initiateWithdrawal",
      "outputs": [],
      "stateMutability": "payable",
      "type": "function"
    },
    {
      "inputs": [],
      "name": "leafNodesCount",
      "outputs": [
        {
          "internalType": "uint256",
          "name": "",
          "type": "uint256"
        }
      ],
      "stateMutability": "view",
      "type": "function"
    },
    {
      "inputs": [],
      "name": "messageNonce",
      "outputs": [
        {
          "internalType": "uint256",
          "name": "",
          "type": "uint256"
        }
      ],
      "stateMutability": "view",
      "type": "function"
    },
    {
      "inputs": [],
      "name": "messageRoot",
      "outputs": [
        {
          "internalType": "bytes32",
          "name": "",
          "type": "bytes32"
        }
      ],
      "stateMutability": "view",
      "type": "function"
    },
    {
      "inputs": [],
      "name": "recAddr",
      "outputs": [
        {
          "internalType": "address",
          "name": "",
          "type": "address"
        }
      ],
      "stateMutability": "view",
      "type": "function"
    },
    {
      "inputs": [
        {
          "internalType": "bytes32",
          "name": "",
          "type": "bytes32"
        }
      ],
      "name": "sentMessages",
      "outputs": [
        {
          "internalType": "bool",
          "name": "",
          "type": "bool"
        }
      ],
      "stateMutability": "view",
      "type": "function"
    },
    {
      "inputs": [
        {
          "internalType": "bytes32",
          "name": "leafHash",
          "type": "bytes32"
        },
        {
          "internalType": "bytes32[32]",
          "name": "smtProof",
          "type": "bytes32[32]"
        },
        {
          "internalType": "uint256",
          "name": "index",
          "type": "uint256"
        },
        {
          "internalType": "bytes32",
          "name": "root",
          "type": "bytes32"
        }
      ],
      "name": "verifyMerkleProof",
      "outputs": [
        {
          "internalType": "bool",
          "name": "",
          "type": "bool"
        }
      ],
      "stateMutability": "pure",
      "type": "function"
    },
    {
      "inputs": [],
      "name": "version",
      "outputs": [
        {
          "internalType": "string",
          "name": "",
          "type": "string"
        }
      ],
      "stateMutability": "view",
      "type": "function"
    },
    {
      "stateMutability": "payable",
      "type": "receive"
    }
  ],
  "bytecode": "0x6101006040523480156200001257600080fd5b50604051620012243803806200122483398101604081905262000035916200017a565b6001608052600060a081905260c0526200005b816200007b602090811b6200070c17901c565b6001600160a01b031660e0526200007162000094565b602d5550620001ea565b7311110000000000000000000000000000000011110190565b602054600090819081805b602081101562000171578083901c600116600103620001025760008160208110620000ce57620000ce620001ac565b015460408051602081019290925281018590526060016040516020818303038152906040528051906020012093506200012f565b60408051602081018690529081018390526060016040516020818303038152906040528051906020012093505b604080516020810184905290810183905260600160405160208183030381529060405280519060200120915080806200016890620001c2565b9150506200009f565b50919392505050565b6000602082840312156200018d57600080fd5b81516001600160a01b0381168114620001a557600080fd5b9392505050565b634e487b7160e01b600052603260045260246000fd5b600060018201620001e357634e487b7160e01b600052601160045260246000fd5b5060010190565b60805160a05160c05160e051610ff96200022b600039600081816102010152610386015260006105af015260006105860152600061055d0152610ff96000f3fe6080604052600436106100b55760003560e01c8063b58343bb11610069578063d4b9f4fa1161004e578063d4b9f4fa146101d9578063e77c99a9146101ef578063ecc704281461024857600080fd5b8063b58343bb146101b0578063c2b3e5ac146101c657600080fd5b806354fd4d501161009a57806354fd4d501461013b57806382e3702d1461015d57806389c09d381461018d57600080fd5b8063340735f7146100de5780633f827a5a1461011357600080fd5b366100d9576100d733620186a06040518060200160405280600081525061025d565b005b600080fd5b3480156100ea57600080fd5b506100fe6100f9366004610abb565b610482565b60405190151581526020015b60405180910390f35b34801561011f57600080fd5b50610128600181565b60405161ffff909116815260200161010a565b34801561014757600080fd5b50610150610556565b60405161010a9190610bc9565b34801561016957600080fd5b506100fe610178366004610be3565b602b6020526000908152604090205460ff1681565b34801561019957600080fd5b506101a26105f9565b60405190815260200161010a565b3480156101bc57600080fd5b506101a260205481565b6100d76101d4366004610bfc565b61025d565b3480156101e557600080fd5b506101a2602d5481565b3480156101fb57600080fd5b506102237f000000000000000000000000000000000000000000000000000000000000000081565b60405173ffffffffffffffffffffffffffffffffffffffff909116815260200161010a565b34801561025457600080fd5b506101a26106d6565b60006102b16040518060c001604052806102756106d6565b815233602082015273ffffffffffffffffffffffffffffffffffffffff871660408201523460608201526080810186905260a001849052610725565b90506102bc81610772565b6102c46105f9565b602d5573ffffffffffffffffffffffffffffffffffffffff8416336102e76106d6565b7f3034a173cd04c8b47937b2f95d00794df516ce57df60210b71de7ecf6d2fe4f334878787602d54604051610320959493929190610ce4565b60405180910390a4602c80547dffffffffffffffffffffffffffffffffffffffffffffffffffffffffffff808216600101167fffff000000000000000000000000000000000000000000000000000000000000909116179055341561047c5760006103bc7f00000000000000000000000000000000000000000000000000000000000000005a3460405180602001604052806000815250610875565b90508061044f576040517f08c379a000000000000000000000000000000000000000000000000000000000815260206004820152602860248201527f4c32546f4c314d6573736167655061737365723a20455448207472616e73666560448201527f72206661696c6564000000000000000000000000000000000000000000000000606482015260840160405180910390fd5b60405134907f7967de617a5ac1cc7eba2d6f37570a0135afa950d8bb77cdd35f0d0b4e85a16f90600090a2505b50505050565b600084815b602081101561054a578085901c6001166001036104ed578581602081106104b0576104b0610d17565b6020020151826040516020016104d0929190918252602082015260400190565b604051602081830303815290604052805190602001209150610538565b8186826020811061050057610500610d17565b602002015160405160200161051f929190918252602082015260400190565b6040516020818303038152906040528051906020012091505b8061054281610d75565b915050610487565b50909114949350505050565b60606105817f000000000000000000000000000000000000000000000000000000000000000061088f565b6105aa7f000000000000000000000000000000000000000000000000000000000000000061088f565b6105d37f000000000000000000000000000000000000000000000000000000000000000061088f565b6040516020016105e593929190610dad565b604051602081830303815290604052905090565b602054600090819081805b60208110156106cd578083901c600116600103610661576000816020811061062e5761062e610d17565b0154604080516020810192909252810185905260600160405160208183030381529060405280519060200120935061068e565b60408051602081018690529081018390526060016040516020818303038152906040528051906020012093505b604080516020810184905290810183905260600160405160208183030381529060405280519060200120915080806106c590610d75565b915050610604565b50919392505050565b602c54600090610707907dffffffffffffffffffffffffffffffffffffffffffffffffffffffffffff16600161094d565b905090565b7311110000000000000000000000000000000011110190565b80516020808301516040808501516060860151608087015160a08801519351600097610755979096959101610e23565b604051602081830303815290604052805190602001209050919050565b80600161078160206002610f9a565b61078b9190610fa6565b602054106107c5576040517fef5ccf6600000000000000000000000000000000000000000000000000000000815260040160405180910390fd5b60006020600081546107d690610d75565b9182905550905060005b6020811015610867578082901c60011660010361081357826000826020811061080b5761080b610d17565b015550505050565b6000816020811061082657610826610d17565b01546040805160208101929092528101849052606001604051602081830303815290604052805190602001209250808061085f90610d75565b9150506107e0565b50610870610fbd565b505050565b600080600080845160208601878a8af19695505050505050565b6060600061089c8361095b565b600101905060008167ffffffffffffffff8111156108bc576108bc610a3d565b6040519080825280601f01601f1916602001820160405280156108e6576020820181803683370190505b5090508181016020015b7fffffffffffffffffffffffffffffffffffffffffffffffffffffffffffffffff017f3031323334353637383961626364656600000000000000000000000000000000600a86061a8153600a85049450846108f057509392505050565b60f081901b82175b92915050565b6000807a184f03e93ff9f4daa797ed6e38ed64bf6a1f01000000000000000083106109a4577a184f03e93ff9f4daa797ed6e38ed64bf6a1f010000000000000000830492506040015b6d04ee2d6d415b85acef810000000083106109d0576d04ee2d6d415b85acef8100000000830492506020015b662386f26fc1000083106109ee57662386f26fc10000830492506010015b6305f5e1008310610a06576305f5e100830492506008015b6127108310610a1a57612710830492506004015b60648310610a2c576064830492506002015b600a83106109555760010192915050565b7f4e487b7100000000000000000000000000000000000000000000000000000000600052604160045260246000fd5b604051601f82017fffffffffffffffffffffffffffffffffffffffffffffffffffffffffffffffe016810167ffffffffffffffff81118282101715610ab357610ab3610a3d565b604052919050565b6000806000806104608587031215610ad257600080fd5b84359350602086603f870112610ae757600080fd5b604051610400810181811067ffffffffffffffff82111715610b0b57610b0b610a3d565b60405280610420880189811115610b2157600080fd5b8389015b81811015610b3c5780358352918401918401610b25565b509699919850509435956104400135949350505050565b60005b83811015610b6e578181015183820152602001610b56565b8381111561047c5750506000910152565b60008151808452610b97816020860160208601610b53565b601f017fffffffffffffffffffffffffffffffffffffffffffffffffffffffffffffffe0169290920160200192915050565b602081526000610bdc6020830184610b7f565b9392505050565b600060208284031215610bf557600080fd5b5035919050565b600080600060608486031215610c1157600080fd5b833573ffffffffffffffffffffffffffffffffffffffff81168114610c3557600080fd5b92506020848101359250604085013567ffffffffffffffff80821115610c5a57600080fd5b818701915087601f830112610c6e57600080fd5b813581811115610c8057610c80610a3d565b610cb0847fffffffffffffffffffffffffffffffffffffffffffffffffffffffffffffffe0601f84011601610a6c565b91508082528884828501011115610cc657600080fd5b80848401858401376000848284010152508093505050509250925092565b85815284602082015260a060408201526000610d0360a0830186610b7f565b606083019490945250608001529392505050565b7f4e487b7100000000000000000000000000000000000000000000000000000000600052603260045260246000fd5b7f4e487b7100000000000000000000000000000000000000000000000000000000600052601160045260246000fd5b60007fffffffffffffffffffffffffffffffffffffffffffffffffffffffffffffffff8203610da657610da6610d46565b5060010190565b60008451610dbf818460208901610b53565b80830190507f2e000000000000000000000000000000000000000000000000000000000000008082528551610dfb816001850160208a01610b53565b60019201918201528351610e16816002840160208801610b53565b0160020195945050505050565b868152600073ffffffffffffffffffffffffffffffffffffffff808816602084015280871660408401525084606083015283608083015260c060a0830152610e6e60c0830184610b7f565b98975050505050505050565b600181815b80851115610ed357817fffffffffffffffffffffffffffffffffffffffffffffffffffffffffffffffff04821115610eb957610eb9610d46565b80851615610ec657918102915b93841c9390800290610e7f565b509250929050565b600082610eea57506001610955565b81610ef757506000610955565b8160018114610f0d5760028114610f1757610f33565b6001915050610955565b60ff841115610f2857610f28610d46565b50506001821b610955565b5060208310610133831016604e8410600b8410161715610f56575081810a610955565b610f608383610e7a565b807fffffffffffffffffffffffffffffffffffffffffffffffffffffffffffffffff04821115610f9257610f92610d46565b029392505050565b6000610bdc8383610edb565b600082821015610fb857610fb8610d46565b500390565b7f4e487b7100000000000000000000000000000000000000000000000000000000600052600160045260246000fdfea164736f6c634300080f000a",
  "linkReferences": {},
  "deployedLinkReferences": {}
}