{
  "_format": "hh-sol-artifact-1",
  "contractName": "TestLegacyMintableERC20",
  "sourceName": "contracts/MockTest/TestLegacyMintableERC20.sol",
  "abi": [
    {
      "inputs": [
        {
          "internalType": "address",
          "name": "_bridge",
          "type": "address"
        },
        {
          "internalType": "address",
          "name": "_remoteToken",
          "type": "address"
        },
        {
          "internalType": "string",
          "name": "_name",
          "type": "string"
        },
        {
          "internalType": "string",
          "name": "_symbol",
          "type": "string"
        }
      ],
      "stateMutability": "nonpayable",
      "type": "constructor"
    },
    {
      "anonymous": false,
      "inputs": [
        {
          "indexed": true,
          "internalType": "address",
          "name": "owner",
          "type": "address"
        },
        {
          "indexed": true,
          "internalType": "address",
          "name": "spender",
          "type": "address"
        },
        {
          "indexed": false,
          "internalType": "uint256",
          "name": "value",
          "type": "uint256"
        }
      ],
      "name": "Approval",
      "type": "event"
    },
    {
      "anonymous": false,
      "inputs": [
        {
          "indexed": true,
          "internalType": "address",
          "name": "account",
          "type": "address"
        },
        {
          "indexed": false,
          "internalType": "uint256",
          "name": "amount",
          "type": "uint256"
        }
      ],
      "name": "Burn",
      "type": "event"
    },
    {
      "anonymous": false,
      "inputs": [
        {
          "indexed": true,
          "internalType": "address",
          "name": "account",
          "type": "address"
        },
        {
          "indexed": false,
          "internalType": "uint256",
          "name": "amount",
          "type": "uint256"
        }
      ],
      "name": "Mint",
      "type": "event"
    },
    {
      "anonymous": false,
      "inputs": [
        {
          "indexed": true,
          "internalType": "address",
          "name": "from",
          "type": "address"
        },
        {
          "indexed": true,
          "internalType": "address",
          "name": "to",
          "type": "address"
        },
        {
          "indexed": false,
          "internalType": "uint256",
          "name": "value",
          "type": "uint256"
        }
      ],
      "name": "Transfer",
      "type": "event"
    },
    {
      "inputs": [],
      "name": "BRIDGE",
      "outputs": [
        {
          "internalType": "address",
          "name": "",
          "type": "address"
        }
      ],
      "stateMutability": "view",
      "type": "function"
    },
    {
      "inputs": [],
      "name": "REMOTE_TOKEN",
      "outputs": [
        {
          "internalType": "address",
          "name": "",
          "type": "address"
        }
      ],
      "stateMutability": "view",
      "type": "function"
    },
    {
      "inputs": [
        {
          "internalType": "address",
          "name": "owner",
          "type": "address"
        },
        {
          "internalType": "address",
          "name": "spender",
          "type": "address"
        }
      ],
      "name": "allowance",
      "outputs": [
        {
          "internalType": "uint256",
          "name": "",
          "type": "uint256"
        }
      ],
      "stateMutability": "view",
      "type": "function"
    },
    {
      "inputs": [
        {
          "internalType": "address",
          "name": "spender",
          "type": "address"
        },
        {
          "internalType": "uint256",
          "name": "amount",
          "type": "uint256"
        }
      ],
      "name": "approve",
      "outputs": [
        {
          "internalType": "bool",
          "name": "",
          "type": "bool"
        }
      ],
      "stateMutability": "nonpayable",
      "type": "function"
    },
    {
      "inputs": [
        {
          "internalType": "address",
          "name": "account",
          "type": "address"
        }
      ],
      "name": "balanceOf",
      "outputs": [
        {
          "internalType": "uint256",
          "name": "",
          "type": "uint256"
        }
      ],
      "stateMutability": "view",
      "type": "function"
    },
    {
      "inputs": [
        {
          "internalType": "address",
          "name": "_from",
          "type": "address"
        },
        {
          "internalType": "uint256",
          "name": "_amount",
          "type": "uint256"
        }
      ],
      "name": "burn",
      "outputs": [],
      "stateMutability": "nonpayable",
      "type": "function"
    },
    {
      "inputs": [],
      "name": "decimals",
      "outputs": [
        {
          "internalType": "uint8",
          "name": "",
          "type": "uint8"
        }
      ],
      "stateMutability": "view",
      "type": "function"
    },
    {
      "inputs": [
        {
          "internalType": "address",
          "name": "spender",
          "type": "address"
        },
        {
          "internalType": "uint256",
          "name": "subtractedValue",
          "type": "uint256"
        }
      ],
      "name": "decreaseAllowance",
      "outputs": [
        {
          "internalType": "bool",
          "name": "",
          "type": "bool"
        }
      ],
      "stateMutability": "nonpayable",
      "type": "function"
    },
    {
      "inputs": [
        {
          "internalType": "address",
          "name": "spender",
          "type": "address"
        },
        {
          "internalType": "uint256",
          "name": "addedValue",
          "type": "uint256"
        }
      ],
      "name": "increaseAllowance",
      "outputs": [
        {
          "internalType": "bool",
          "name": "",
          "type": "bool"
        }
      ],
      "stateMutability": "nonpayable",
      "type": "function"
    },
    {
      "inputs": [],
      "name": "l1Token",
      "outputs": [
        {
          "internalType": "address",
          "name": "",
          "type": "address"
        }
      ],
      "stateMutability": "view",
      "type": "function"
    },
    {
      "inputs": [
        {
          "internalType": "address",
          "name": "_to",
          "type": "address"
        },
        {
          "internalType": "uint256",
          "name": "_amount",
          "type": "uint256"
        }
      ],
      "name": "mint",
      "outputs": [],
      "stateMutability": "nonpayable",
      "type": "function"
    },
    {
      "inputs": [],
      "name": "name",
      "outputs": [
        {
          "internalType": "string",
          "name": "",
          "type": "string"
        }
      ],
      "stateMutability": "view",
      "type": "function"
    },
    {
      "inputs": [
        {
          "internalType": "bytes4",
          "name": "_interfaceId",
          "type": "bytes4"
        }
      ],
      "name": "supportsInterface",
      "outputs": [
        {
          "internalType": "bool",
          "name": "",
          "type": "bool"
        }
      ],
      "stateMutability": "pure",
      "type": "function"
    },
    {
      "inputs": [],
      "name": "symbol",
      "outputs": [
        {
          "internalType": "string",
          "name": "",
          "type": "string"
        }
      ],
      "stateMutability": "view",
      "type": "function"
    },
    {
      "inputs": [],
      "name": "totalSupply",
      "outputs": [
        {
          "internalType": "uint256",
          "name": "",
          "type": "uint256"
        }
      ],
      "stateMutability": "view",
      "type": "function"
    },
    {
      "inputs": [
        {
          "internalType": "address",
          "name": "to",
          "type": "address"
        },
        {
          "internalType": "uint256",
          "name": "amount",
          "type": "uint256"
        }
      ],
      "name": "transfer",
      "outputs": [
        {
          "internalType": "bool",
          "name": "",
          "type": "bool"
        }
      ],
      "stateMutability": "nonpayable",
      "type": "function"
    },
    {
      "inputs": [
        {
          "internalType": "address",
          "name": "from",
          "type": "address"
        },
        {
          "internalType": "address",
          "name": "to",
          "type": "address"
        },
        {
          "internalType": "uint256",
          "name": "amount",
          "type": "uint256"
        }
      ],
      "name": "transferFrom",
      "outputs": [
        {
          "internalType": "bool",
          "name": "",
          "type": "bool"
        }
      ],
      "stateMutability": "nonpayable",
      "type": "function"
    },
    {
      "inputs": [],
      "name": "version",
      "outputs": [
        {
          "internalType": "string",
          "name": "",
          "type": "string"
        }
      ],
      "stateMutability": "view",
      "type": "function"
    }
  ],
  "bytecode": "0x6101206040523480156200001257600080fd5b50604051620018b2380380620018b283398101604081905262000035916200016d565b6001600080848460036200004a83826200028c565b5060046200005982826200028c565b50505060809290925260a05260c05250506001600160a01b0390811660e052166101005262000358565b80516001600160a01b03811681146200009b57600080fd5b919050565b634e487b7160e01b600052604160045260246000fd5b600082601f830112620000c857600080fd5b81516001600160401b0380821115620000e557620000e5620000a0565b604051601f8301601f19908116603f01168101908282118183101715620001105762000110620000a0565b816040528381526020925086838588010111156200012d57600080fd5b600091505b8382101562000151578582018301518183018401529082019062000132565b83821115620001635760008385830101525b9695505050505050565b600080600080608085870312156200018457600080fd5b6200018f8562000083565b93506200019f6020860162000083565b60408601519093506001600160401b0380821115620001bd57600080fd5b620001cb88838901620000b6565b93506060870151915080821115620001e257600080fd5b50620001f187828801620000b6565b91505092959194509250565b600181811c908216806200021257607f821691505b6020821081036200023357634e487b7160e01b600052602260045260246000fd5b50919050565b601f8211156200028757600081815260208120601f850160051c81016020861015620002625750805b601f850160051c820191505b8181101562000283578281556001016200026e565b5050505b505050565b81516001600160401b03811115620002a857620002a8620000a0565b620002c081620002b98454620001fd565b8462000239565b602080601f831160018114620002f85760008415620002df5750858301515b600019600386901b1c1916600185901b17855562000283565b600085815260208120601f198616915b82811015620003295788860151825594840194600190910190840162000308565b5085821015620003485787850151600019600388901b60f8161c191681555b5050505050600190811b01905550565b60805160a05160c05160e05161010051611500620003b2600039600081816103230152818161051701526106f101526000818161016801526102b401526000610680015260006106570152600061062e01526115006000f3fe608060405234801561001057600080fd5b50600436106101365760003560e01c806354fd4d50116100b2578063a457c2d711610081578063c01e1bd611610066578063c01e1bd6146102b2578063dd62ed3e146102d8578063ee9a31a21461031e57600080fd5b8063a457c2d71461028c578063a9059cbb1461029f57600080fd5b806354fd4d501461023357806370a082311461023b57806395d89b41146102715780639dc29fac1461027957600080fd5b806318160ddd11610109578063313ce567116100ee578063313ce567146101fc578063395093511461020b57806340c10f191461021e57600080fd5b806318160ddd146101d757806323b872dd146101e957600080fd5b806301ffc9a71461013b578063033964be1461016357806306fdde03146101af578063095ea7b3146101c4575b600080fd5b61014e610149366004611219565b610345565b60405190151581526020015b60405180910390f35b61018a7f000000000000000000000000000000000000000000000000000000000000000081565b60405173ffffffffffffffffffffffffffffffffffffffff909116815260200161015a565b6101b76103e5565b60405161015a919061128e565b61014e6101d2366004611308565b610477565b6002545b60405190815260200161015a565b61014e6101f7366004611332565b61048f565b6040516012815260200161015a565b61014e610219366004611308565b6104b3565b61023161022c366004611308565b6104ff565b005b6101b7610627565b6101db61024936600461136e565b73ffffffffffffffffffffffffffffffffffffffff1660009081526020819052604090205490565b6101b76106ca565b610231610287366004611308565b6106d9565b61014e61029a366004611308565b6107f0565b61014e6102ad366004611308565b6108c1565b7f000000000000000000000000000000000000000000000000000000000000000061018a565b6101db6102e6366004611389565b73ffffffffffffffffffffffffffffffffffffffff918216600090815260016020908152604080832093909416825291909152205490565b61018a7f000000000000000000000000000000000000000000000000000000000000000081565b60007f01ffc9a7000000000000000000000000000000000000000000000000000000007f1d1d8b63000000000000000000000000000000000000000000000000000000007fffffffff0000000000000000000000000000000000000000000000000000000084168214806103dd57507fffffffff00000000000000000000000000000000000000000000000000000000848116908216145b949350505050565b6060600380546103f4906113bc565b80601f0160208091040260200160405190810160405280929190818152602001828054610420906113bc565b801561046d5780601f106104425761010080835404028352916020019161046d565b820191906000526020600020905b81548152906001019060200180831161045057829003601f168201915b5050505050905090565b6000336104858185856108cf565b5060019392505050565b60003361049d858285610a83565b6104a8858585610b5a565b506001949350505050565b33600081815260016020908152604080832073ffffffffffffffffffffffffffffffffffffffff8716845290915281205490919061048590829086906104fa90879061140f565b6108cf565b3373ffffffffffffffffffffffffffffffffffffffff7f000000000000000000000000000000000000000000000000000000000000000016146105c9576040517f08c379a000000000000000000000000000000000000000000000000000000000815260206004820152603460248201527f4d6f72706869736d4d696e7461626c6545524332303a206f6e6c79206272696460448201527f67652063616e206d696e7420616e64206275726e00000000000000000000000060648201526084015b60405180910390fd5b6105d38282610dc9565b8173ffffffffffffffffffffffffffffffffffffffff167f0f6798a560793a54c3bcfe86a93cde1e73087d944c0ea20544137d41213968858260405161061b91815260200190565b60405180910390a25050565b60606106527f0000000000000000000000000000000000000000000000000000000000000000610ebc565b61067b7f0000000000000000000000000000000000000000000000000000000000000000610ebc565b6106a47f0000000000000000000000000000000000000000000000000000000000000000610ebc565b6040516020016106b69392919061144e565b604051602081830303815290604052905090565b6060600480546103f4906113bc565b3373ffffffffffffffffffffffffffffffffffffffff7f0000000000000000000000000000000000000000000000000000000000000000161461079e576040517f08c379a000000000000000000000000000000000000000000000000000000000815260206004820152603460248201527f4d6f72706869736d4d696e7461626c6545524332303a206f6e6c79206272696460448201527f67652063616e206d696e7420616e64206275726e00000000000000000000000060648201526084016105c0565b6107a88282610f7a565b8173ffffffffffffffffffffffffffffffffffffffff167fcc16f5dbb4873280815c1ee09dbd06736cffcc184412cf7a71a0fdb75d397ca58260405161061b91815260200190565b33600081815260016020908152604080832073ffffffffffffffffffffffffffffffffffffffff87168452909152812054909190838110156108b4576040517f08c379a000000000000000000000000000000000000000000000000000000000815260206004820152602560248201527f45524332303a2064656372656173656420616c6c6f77616e63652062656c6f7760448201527f207a65726f00000000000000000000000000000000000000000000000000000060648201526084016105c0565b6104a882868684036108cf565b600033610485818585610b5a565b73ffffffffffffffffffffffffffffffffffffffff8316610971576040517f08c379a0000000000000000000000000000000000000000000000000000000008152602060048201526024808201527f45524332303a20617070726f76652066726f6d20746865207a65726f2061646460448201527f726573730000000000000000000000000000000000000000000000000000000060648201526084016105c0565b73ffffffffffffffffffffffffffffffffffffffff8216610a14576040517f08c379a000000000000000000000000000000000000000000000000000000000815260206004820152602260248201527f45524332303a20617070726f766520746f20746865207a65726f20616464726560448201527f737300000000000000000000000000000000000000000000000000000000000060648201526084016105c0565b73ffffffffffffffffffffffffffffffffffffffff83811660008181526001602090815260408083209487168084529482529182902085905590518481527f8c5be1e5ebec7d5bd14f71427d1e84f3dd0314c0f7b2291e5b200ac8c7c3b92591015b60405180910390a3505050565b73ffffffffffffffffffffffffffffffffffffffff8381166000908152600160209081526040808320938616835292905220547fffffffffffffffffffffffffffffffffffffffffffffffffffffffffffffffff8114610b545781811015610b47576040517f08c379a000000000000000000000000000000000000000000000000000000000815260206004820152601d60248201527f45524332303a20696e73756666696369656e7420616c6c6f77616e636500000060448201526064016105c0565b610b5484848484036108cf565b50505050565b73ffffffffffffffffffffffffffffffffffffffff8316610bfd576040517f08c379a000000000000000000000000000000000000000000000000000000000815260206004820152602560248201527f45524332303a207472616e736665722066726f6d20746865207a65726f20616460448201527f647265737300000000000000000000000000000000000000000000000000000060648201526084016105c0565b73ffffffffffffffffffffffffffffffffffffffff8216610ca0576040517f08c379a000000000000000000000000000000000000000000000000000000000815260206004820152602360248201527f45524332303a207472616e7366657220746f20746865207a65726f206164647260448201527f657373000000000000000000000000000000000000000000000000000000000060648201526084016105c0565b73ffffffffffffffffffffffffffffffffffffffff831660009081526020819052604090205481811015610d56576040517f08c379a000000000000000000000000000000000000000000000000000000000815260206004820152602660248201527f45524332303a207472616e7366657220616d6f756e742065786365656473206260448201527f616c616e6365000000000000000000000000000000000000000000000000000060648201526084016105c0565b73ffffffffffffffffffffffffffffffffffffffff848116600081815260208181526040808320878703905593871680835291849020805487019055925185815290927fddf252ad1be2c89b69c2b068fc378daa952ba7f163c4a11628f55a4df523b3ef910160405180910390a3610b54565b73ffffffffffffffffffffffffffffffffffffffff8216610e46576040517f08c379a000000000000000000000000000000000000000000000000000000000815260206004820152601f60248201527f45524332303a206d696e7420746f20746865207a65726f20616464726573730060448201526064016105c0565b8060026000828254610e58919061140f565b909155505073ffffffffffffffffffffffffffffffffffffffff8216600081815260208181526040808320805486019055518481527fddf252ad1be2c89b69c2b068fc378daa952ba7f163c4a11628f55a4df523b3ef910160405180910390a35050565b60606000610ec983611136565b600101905060008167ffffffffffffffff811115610ee957610ee96114c4565b6040519080825280601f01601f191660200182016040528015610f13576020820181803683370190505b5090508181016020015b7fffffffffffffffffffffffffffffffffffffffffffffffffffffffffffffffff017f3031323334353637383961626364656600000000000000000000000000000000600a86061a8153600a8504945084610f1d57509392505050565b73ffffffffffffffffffffffffffffffffffffffff821661101d576040517f08c379a000000000000000000000000000000000000000000000000000000000815260206004820152602160248201527f45524332303a206275726e2066726f6d20746865207a65726f2061646472657360448201527f730000000000000000000000000000000000000000000000000000000000000060648201526084016105c0565b73ffffffffffffffffffffffffffffffffffffffff8216600090815260208190526040902054818110156110d3576040517f08c379a000000000000000000000000000000000000000000000000000000000815260206004820152602260248201527f45524332303a206275726e20616d6f756e7420657863656564732062616c616e60448201527f636500000000000000000000000000000000000000000000000000000000000060648201526084016105c0565b73ffffffffffffffffffffffffffffffffffffffff83166000818152602081815260408083208686039055600280548790039055518581529192917fddf252ad1be2c89b69c2b068fc378daa952ba7f163c4a11628f55a4df523b3ef9101610a76565b6000807a184f03e93ff9f4daa797ed6e38ed64bf6a1f010000000000000000831061117f577a184f03e93ff9f4daa797ed6e38ed64bf6a1f010000000000000000830492506040015b6d04ee2d6d415b85acef810000000083106111ab576d04ee2d6d415b85acef8100000000830492506020015b662386f26fc1000083106111c957662386f26fc10000830492506010015b6305f5e10083106111e1576305f5e100830492506008015b61271083106111f557612710830492506004015b60648310611207576064830492506002015b600a8310611213576001015b92915050565b60006020828403121561122b57600080fd5b81357fffffffff000000000000000000000000000000000000000000000000000000008116811461125b57600080fd5b9392505050565b60005b8381101561127d578181015183820152602001611265565b83811115610b545750506000910152565b60208152600082518060208401526112ad816040850160208701611262565b601f017fffffffffffffffffffffffffffffffffffffffffffffffffffffffffffffffe0169190910160400192915050565b803573ffffffffffffffffffffffffffffffffffffffff8116811461130357600080fd5b919050565b6000806040838503121561131b57600080fd5b611324836112df565b946020939093013593505050565b60008060006060848603121561134757600080fd5b611350846112df565b925061135e602085016112df565b9150604084013590509250925092565b60006020828403121561138057600080fd5b61125b826112df565b6000806040838503121561139c57600080fd5b6113a5836112df565b91506113b3602084016112df565b90509250929050565b600181811c908216806113d057607f821691505b602082108103611409577f4e487b7100000000000000000000000000000000000000000000000000000000600052602260045260246000fd5b50919050565b60008219821115611449577f4e487b7100000000000000000000000000000000000000000000000000000000600052601160045260246000fd5b500190565b60008451611460818460208901611262565b80830190507f2e00000000000000000000000000000000000000000000000000000000000000808252855161149c816001850160208a01611262565b600192019182015283516114b7816002840160208801611262565b0160020195945050505050565b7f4e487b7100000000000000000000000000000000000000000000000000000000600052604160045260246000fdfea164736f6c634300080f000a",
  "linkReferences": {},
  "deployedLinkReferences": {}
}