{
  "_format": "hh-sol-artifact-1",
  "contractName": "L2CustomERC20Gateway",
  "sourceName": "contracts/L2/gateways/L2CustomERC20Gateway.sol",
  "abi": [
    {
      "inputs": [],
      "stateMutability": "nonpayable",
      "type": "constructor"
    },
    {
      "anonymous": false,
      "inputs": [
        {
          "indexed": true,
          "internalType": "address",
          "name": "l1Token",
          "type": "address"
        },
        {
          "indexed": true,
          "internalType": "address",
          "name": "l2Token",
          "type": "address"
        },
        {
          "indexed": true,
          "internalType": "address",
          "name": "from",
          "type": "address"
        },
        {
          "indexed": false,
          "internalType": "address",
          "name": "to",
          "type": "address"
        },
        {
          "indexed": false,
          "internalType": "uint256",
          "name": "amount",
          "type": "uint256"
        },
        {
          "indexed": false,
          "internalType": "bytes",
          "name": "data",
          "type": "bytes"
        }
      ],
      "name": "FinalizeDepositERC20",
      "type": "event"
    },
    {
      "anonymous": false,
      "inputs": [
        {
          "indexed": false,
          "internalType": "uint8",
          "name": "version",
          "type": "uint8"
        }
      ],
      "name": "Initialized",
      "type": "event"
    },
    {
      "anonymous": false,
      "inputs": [
        {
          "indexed": true,
          "internalType": "address",
          "name": "previousOwner",
          "type": "address"
        },
        {
          "indexed": true,
          "internalType": "address",
          "name": "newOwner",
          "type": "address"
        }
      ],
      "name": "OwnershipTransferred",
      "type": "event"
    },
    {
      "anonymous": false,
      "inputs": [
        {
          "indexed": true,
          "internalType": "address",
          "name": "l2Token",
          "type": "address"
        },
        {
          "indexed": true,
          "internalType": "address",
          "name": "oldL1Token",
          "type": "address"
        },
        {
          "indexed": true,
          "internalType": "address",
          "name": "newL1Token",
          "type": "address"
        }
      ],
      "name": "UpdateTokenMapping",
      "type": "event"
    },
    {
      "anonymous": false,
      "inputs": [
        {
          "indexed": true,
          "internalType": "address",
          "name": "l1Token",
          "type": "address"
        },
        {
          "indexed": true,
          "internalType": "address",
          "name": "l2Token",
          "type": "address"
        },
        {
          "indexed": true,
          "internalType": "address",
          "name": "from",
          "type": "address"
        },
        {
          "indexed": false,
          "internalType": "address",
          "name": "to",
          "type": "address"
        },
        {
          "indexed": false,
          "internalType": "uint256",
          "name": "amount",
          "type": "uint256"
        },
        {
          "indexed": false,
          "internalType": "bytes",
          "name": "data",
          "type": "bytes"
        }
      ],
      "name": "WithdrawERC20",
      "type": "event"
    },
    {
      "inputs": [],
      "name": "counterpart",
      "outputs": [
        {
          "internalType": "address",
          "name": "",
          "type": "address"
        }
      ],
      "stateMutability": "view",
      "type": "function"
    },
    {
      "inputs": [
        {
          "internalType": "address",
          "name": "_l1Token",
          "type": "address"
        },
        {
          "internalType": "address",
          "name": "_l2Token",
          "type": "address"
        },
        {
          "internalType": "address",
          "name": "_from",
          "type": "address"
        },
        {
          "internalType": "address",
          "name": "_to",
          "type": "address"
        },
        {
          "internalType": "uint256",
          "name": "_amount",
          "type": "uint256"
        },
        {
          "internalType": "bytes",
          "name": "_data",
          "type": "bytes"
        }
      ],
      "name": "finalizeDepositERC20",
      "outputs": [],
      "stateMutability": "payable",
      "type": "function"
    },
    {
      "inputs": [
        {
          "internalType": "address",
          "name": "_l2Token",
          "type": "address"
        }
      ],
      "name": "getL1ERC20Address",
      "outputs": [
        {
          "internalType": "address",
          "name": "",
          "type": "address"
        }
      ],
      "stateMutability": "view",
      "type": "function"
    },
    {
      "inputs": [
        {
          "internalType": "address",
          "name": "",
          "type": "address"
        }
      ],
      "name": "getL2ERC20Address",
      "outputs": [
        {
          "internalType": "address",
          "name": "",
          "type": "address"
        }
      ],
      "stateMutability": "pure",
      "type": "function"
    },
    {
      "inputs": [
        {
          "internalType": "address",
          "name": "_counterpart",
          "type": "address"
        },
        {
          "internalType": "address",
          "name": "_router",
          "type": "address"
        },
        {
          "internalType": "address",
          "name": "_messenger",
          "type": "address"
        }
      ],
      "name": "initialize",
      "outputs": [],
      "stateMutability": "nonpayable",
      "type": "function"
    },
    {
      "inputs": [],
      "name": "messenger",
      "outputs": [
        {
          "internalType": "address",
          "name": "",
          "type": "address"
        }
      ],
      "stateMutability": "view",
      "type": "function"
    },
    {
      "inputs": [],
      "name": "owner",
      "outputs": [
        {
          "internalType": "address",
          "name": "",
          "type": "address"
        }
      ],
      "stateMutability": "view",
      "type": "function"
    },
    {
      "inputs": [],
      "name": "renounceOwnership",
      "outputs": [],
      "stateMutability": "nonpayable",
      "type": "function"
    },
    {
      "inputs": [],
      "name": "router",
      "outputs": [
        {
          "internalType": "address",
          "name": "",
          "type": "address"
        }
      ],
      "stateMutability": "view",
      "type": "function"
    },
    {
      "inputs": [
        {
          "internalType": "address",
          "name": "",
          "type": "address"
        }
      ],
      "name": "tokenMapping",
      "outputs": [
        {
          "internalType": "address",
          "name": "",
          "type": "address"
        }
      ],
      "stateMutability": "view",
      "type": "function"
    },
    {
      "inputs": [
        {
          "internalType": "address",
          "name": "newOwner",
          "type": "address"
        }
      ],
      "name": "transferOwnership",
      "outputs": [],
      "stateMutability": "nonpayable",
      "type": "function"
    },
    {
      "inputs": [
        {
          "internalType": "address",
          "name": "_l2Token",
          "type": "address"
        },
        {
          "internalType": "address",
          "name": "_l1Token",
          "type": "address"
        }
      ],
      "name": "updateTokenMapping",
      "outputs": [],
      "stateMutability": "nonpayable",
      "type": "function"
    },
    {
      "inputs": [
        {
          "internalType": "address",
          "name": "_token",
          "type": "address"
        },
        {
          "internalType": "uint256",
          "name": "_amount",
          "type": "uint256"
        },
        {
          "internalType": "uint256",
          "name": "_gasLimit",
          "type": "uint256"
        }
      ],
      "name": "withdrawERC20",
      "outputs": [],
      "stateMutability": "payable",
      "type": "function"
    },
    {
      "inputs": [
        {
          "internalType": "address",
          "name": "_token",
          "type": "address"
        },
        {
          "internalType": "address",
          "name": "_to",
          "type": "address"
        },
        {
          "internalType": "uint256",
          "name": "_amount",
          "type": "uint256"
        },
        {
          "internalType": "uint256",
          "name": "_gasLimit",
          "type": "uint256"
        }
      ],
      "name": "withdrawERC20",
      "outputs": [],
      "stateMutability": "payable",
      "type": "function"
    },
    {
      "inputs": [
        {
          "internalType": "address",
          "name": "_token",
          "type": "address"
        },
        {
          "internalType": "address",
          "name": "_to",
          "type": "address"
        },
        {
          "internalType": "uint256",
          "name": "_amount",
          "type": "uint256"
        },
        {
          "internalType": "bytes",
          "name": "_data",
          "type": "bytes"
        },
        {
          "internalType": "uint256",
          "name": "_gasLimit",
          "type": "uint256"
        }
      ],
      "name": "withdrawERC20AndCall",
      "outputs": [],
      "stateMutability": "payable",
      "type": "function"
    }
  ],
  "bytecode": "0x608060405234801561000f575f80fd5b5061001861001d565b6100d9565b5f54610100900460ff16156100885760405162461bcd60e51b815260206004820152602760248201527f496e697469616c697a61626c653a20636f6e747261637420697320696e697469604482015266616c697a696e6760c81b606482015260840160405180910390fd5b5f5460ff908116146100d7575f805460ff191660ff9081179091556040519081527f7f26b83ff96e1f2b6a682f133852f6798a09c465da95921460cefb38474024989060200160405180910390a15b565b61199d806100e65f395ff3fe6080604052600436106100e4575f3560e01c80638da5cb5b11610087578063c676ad2911610057578063c676ad2914610299578063f2fde38b146102b8578063f887ea40146102d7578063fac752eb14610303575f80fd5b80638da5cb5b146101fc578063a93a4af914610226578063ba27f50b14610239578063c0c53b8b1461027a575f80fd5b80636c07ea43116100c25780636c07ea4314610196578063715018a6146101a9578063797594b0146101bd5780638431f5c1146101e9575f80fd5b80633cb747bf146100e857806354bbd59c1461013d578063575361b614610181575b5f80fd5b3480156100f3575f80fd5b506099546101149073ffffffffffffffffffffffffffffffffffffffff1681565b60405173ffffffffffffffffffffffffffffffffffffffff909116815260200160405180910390f35b348015610148575f80fd5b50610114610157366004611417565b73ffffffffffffffffffffffffffffffffffffffff9081165f90815260fb60205260409020541690565b61019461018f36600461147e565b610322565b005b6101946101a43660046114f4565b61036d565b3480156101b4575f80fd5b506101946103ab565b3480156101c8575f80fd5b506097546101149073ffffffffffffffffffffffffffffffffffffffff1681565b6101946101f7366004611526565b6103be565b348015610207575f80fd5b5060655473ffffffffffffffffffffffffffffffffffffffff16610114565b6101946102343660046115b8565b61078a565b348015610244575f80fd5b50610114610253366004611417565b60fb6020525f908152604090205473ffffffffffffffffffffffffffffffffffffffff1681565b348015610285575f80fd5b506101946102943660046115fb565b61079c565b3480156102a4575f80fd5b506101146102b3366004611417565b610976565b3480156102c3575f80fd5b506101946102d2366004611417565b6109c0565b3480156102e2575f80fd5b506098546101149073ffffffffffffffffffffffffffffffffffffffff1681565b34801561030e575f80fd5b5061019461031d366004611643565b610a5d565b61036586868686868080601f0160208091040260200160405190810160405280939291908181526020018383808284375f92019190915250889250610b50915050565b505050505050565b6103a68333845f5b6040519080825280601f01601f19166020018201604052801561039f576020820181803683370190505b5085610b50565b505050565b6103b3610e90565b6103bc5f610ef7565b565b60995473ffffffffffffffffffffffffffffffffffffffff1633811461042b5760405162461bcd60e51b815260206004820152601760248201527f6f6e6c79206d657373656e6765722063616e2063616c6c00000000000000000060448201526064015b60405180910390fd5b8073ffffffffffffffffffffffffffffffffffffffff16636e296e456040518163ffffffff1660e01b8152600401602060405180830381865afa158015610474573d5f803e3d5ffd5b505050506040513d601f19601f8201168201806040525081019061049891906116a7565b60975473ffffffffffffffffffffffffffffffffffffffff9081169116146105025760405162461bcd60e51b815260206004820152601860248201527f6f6e6c792063616c6c20627920636f756e7465727061727400000000000000006044820152606401610422565b61050a610f6d565b34156105585760405162461bcd60e51b815260206004820152601160248201527f6e6f6e7a65726f206d73672e76616c75650000000000000000000000000000006044820152606401610422565b73ffffffffffffffffffffffffffffffffffffffff88166105bb5760405162461bcd60e51b815260206004820152601960248201527f746f6b656e20616464726573732063616e6e6f742062652030000000000000006044820152606401610422565b73ffffffffffffffffffffffffffffffffffffffff8088165f90815260fb60205260409020548982169116146106335760405162461bcd60e51b815260206004820152601160248201527f6c3120746f6b656e206d69736d617463680000000000000000000000000000006044820152606401610422565b6040517f40c10f1900000000000000000000000000000000000000000000000000000000815273ffffffffffffffffffffffffffffffffffffffff8681166004830152602482018690528816906340c10f19906044015f604051808303815f87803b1580156106a0575f80fd5b505af11580156106b2573d5f803e3d5ffd5b505050506106f58584848080601f0160208091040260200160405190810160405280939291908181526020018383808284375f92019190915250610fc692505050565b8573ffffffffffffffffffffffffffffffffffffffff168773ffffffffffffffffffffffffffffffffffffffff168973ffffffffffffffffffffffffffffffffffffffff167f165ba69f6ab40c50cade6f65431801e5f9c7d7830b7545391920db039133ba348888888860405161076f94939291906116c2565b60405180910390a461078060018055565b5050505050505050565b6107968484845f610375565b50505050565b5f54610100900460ff16158080156107ba57505f54600160ff909116105b806107d35750303b1580156107d357505f5460ff166001145b6108455760405162461bcd60e51b815260206004820152602e60248201527f496e697469616c697a61626c653a20636f6e747261637420697320616c72656160448201527f647920696e697469616c697a65640000000000000000000000000000000000006064820152608401610422565b5f80547fffffffffffffffffffffffffffffffffffffffffffffffffffffffffffffff0016600117905580156108a1575f80547fffffffffffffffffffffffffffffffffffffffffffffffffffffffffffff00ff166101001790555b73ffffffffffffffffffffffffffffffffffffffff83166109045760405162461bcd60e51b815260206004820152601360248201527f7a65726f20726f757465722061646472657373000000000000000000000000006044820152606401610422565b61090f848484611076565b8015610796575f80547fffffffffffffffffffffffffffffffffffffffffffffffffffffffffffff00ff169055604051600181527f7f26b83ff96e1f2b6a682f133852f6798a09c465da95921460cefb38474024989060200160405180910390a150505050565b60405162461bcd60e51b815260206004820152600d60248201527f756e696d706c656d656e7465640000000000000000000000000000000000000060448201525f90606401610422565b6109c8610e90565b73ffffffffffffffffffffffffffffffffffffffff8116610a515760405162461bcd60e51b815260206004820152602660248201527f4f776e61626c653a206e6577206f776e657220697320746865207a65726f206160448201527f64647265737300000000000000000000000000000000000000000000000000006064820152608401610422565b610a5a81610ef7565b50565b610a65610e90565b73ffffffffffffffffffffffffffffffffffffffff8116610ac85760405162461bcd60e51b815260206004820152601960248201527f746f6b656e20616464726573732063616e6e6f742062652030000000000000006044820152606401610422565b73ffffffffffffffffffffffffffffffffffffffff8083165f81815260fb602052604080822080548686167fffffffffffffffffffffffff0000000000000000000000000000000000000000821681179092559151919094169392849290917f2069a26c43c36ffaabe0c2d19bf65e55dd03abecdc449f5cc9663491e97f709d9190a4505050565b610b58610f6d565b73ffffffffffffffffffffffffffffffffffffffff8086165f90815260fb60205260409020541680610bcc5760405162461bcd60e51b815260206004820152601960248201527f6e6f20636f72726573706f6e64696e67206c3120746f6b656e000000000000006044820152606401610422565b5f8411610c1b5760405162461bcd60e51b815260206004820152601460248201527f7769746864726177207a65726f20616d6f756e740000000000000000000000006044820152606401610422565b609854339073ffffffffffffffffffffffffffffffffffffffff16819003610c565783806020019051810190610c519190611754565b945090505b6040517f9dc29fac00000000000000000000000000000000000000000000000000000000815273ffffffffffffffffffffffffffffffffffffffff828116600483015260248201879052881690639dc29fac906044015f604051808303815f87803b158015610cc3575f80fd5b505af1158015610cd5573d5f803e3d5ffd5b505050505f828883898989604051602401610cf596959493929190611879565b604080517fffffffffffffffffffffffffffffffffffffffffffffffffffffffffffffffe08184030181529181526020820180517bffffffffffffffffffffffffffffffffffffffffffffffffffffffff167f84bd13b00000000000000000000000000000000000000000000000000000000017905260995460975491517fb2267a7b00000000000000000000000000000000000000000000000000000000815292935073ffffffffffffffffffffffffffffffffffffffff9081169263b2267a7b923492610dcf929116905f9087908b906004016118d3565b5f604051808303818588803b158015610de6575f80fd5b505af1158015610df8573d5f803e3d5ffd5b50505050508173ffffffffffffffffffffffffffffffffffffffff168873ffffffffffffffffffffffffffffffffffffffff168473ffffffffffffffffffffffffffffffffffffffff167fd8d3a3f4ab95694bef40475997598bcf8acd3ed9617a4c1013795429414c27e88a8a8a604051610e7593929190611918565b60405180910390a4505050610e8960018055565b5050505050565b60655473ffffffffffffffffffffffffffffffffffffffff1633146103bc5760405162461bcd60e51b815260206004820181905260248201527f4f776e61626c653a2063616c6c6572206973206e6f7420746865206f776e65726044820152606401610422565b6065805473ffffffffffffffffffffffffffffffffffffffff8381167fffffffffffffffffffffffff0000000000000000000000000000000000000000831681179093556040519116919082907f8be0079c531659141344cd1fd0a4f28419497f9722a3daafe3b4186f6b6457e0905f90a35050565b600260015403610fbf5760405162461bcd60e51b815260206004820152601f60248201527f5265656e7472616e637947756172643a207265656e7472616e742063616c6c006044820152606401610422565b6002600155565b5f8151118015610fec57505f8273ffffffffffffffffffffffffffffffffffffffff163b115b1561106c576040517f444b281f00000000000000000000000000000000000000000000000000000000815273ffffffffffffffffffffffffffffffffffffffff83169063444b281f90611043908490600401611955565b5f604051808303815f87803b15801561105a575f80fd5b505af1158015610365573d5f803e3d5ffd5b5050565b60018055565b73ffffffffffffffffffffffffffffffffffffffff83166110d95760405162461bcd60e51b815260206004820152601860248201527f7a65726f20636f756e74657270617274206164647265737300000000000000006044820152606401610422565b73ffffffffffffffffffffffffffffffffffffffff811661113c5760405162461bcd60e51b815260206004820152601660248201527f7a65726f206d657373656e6765722061646472657373000000000000000000006044820152606401610422565b6111446111ed565b61114c611271565b6097805473ffffffffffffffffffffffffffffffffffffffff8086167fffffffffffffffffffffffff0000000000000000000000000000000000000000928316179092556099805484841692169190911790558216156103a6576098805473ffffffffffffffffffffffffffffffffffffffff84167fffffffffffffffffffffffff0000000000000000000000000000000000000000909116179055505050565b5f54610100900460ff166112695760405162461bcd60e51b815260206004820152602b60248201527f496e697469616c697a61626c653a20636f6e7472616374206973206e6f74206960448201527f6e697469616c697a696e670000000000000000000000000000000000000000006064820152608401610422565b6103bc6112f5565b5f54610100900460ff166112ed5760405162461bcd60e51b815260206004820152602b60248201527f496e697469616c697a61626c653a20636f6e7472616374206973206e6f74206960448201527f6e697469616c697a696e670000000000000000000000000000000000000000006064820152608401610422565b6103bc611371565b5f54610100900460ff166110705760405162461bcd60e51b815260206004820152602b60248201527f496e697469616c697a61626c653a20636f6e7472616374206973206e6f74206960448201527f6e697469616c697a696e670000000000000000000000000000000000000000006064820152608401610422565b5f54610100900460ff166113ed5760405162461bcd60e51b815260206004820152602b60248201527f496e697469616c697a61626c653a20636f6e7472616374206973206e6f74206960448201527f6e697469616c697a696e670000000000000000000000000000000000000000006064820152608401610422565b6103bc33610ef7565b73ffffffffffffffffffffffffffffffffffffffff81168114610a5a575f80fd5b5f60208284031215611427575f80fd5b8135611432816113f6565b9392505050565b5f8083601f840112611449575f80fd5b50813567ffffffffffffffff811115611460575f80fd5b602083019150836020828501011115611477575f80fd5b9250929050565b5f805f805f8060a08789031215611493575f80fd5b863561149e816113f6565b955060208701356114ae816113f6565b945060408701359350606087013567ffffffffffffffff8111156114d0575f80fd5b6114dc89828a01611439565b979a9699509497949695608090950135949350505050565b5f805f60608486031215611506575f80fd5b8335611511816113f6565b95602085013595506040909401359392505050565b5f805f805f805f60c0888a03121561153c575f80fd5b8735611547816113f6565b96506020880135611557816113f6565b95506040880135611567816113f6565b94506060880135611577816113f6565b93506080880135925060a088013567ffffffffffffffff811115611599575f80fd5b6115a58a828b01611439565b989b979a50959850939692959293505050565b5f805f80608085870312156115cb575f80fd5b84356115d6816113f6565b935060208501356115e6816113f6565b93969395505050506040820135916060013590565b5f805f6060848603121561160d575f80fd5b8335611618816113f6565b92506020840135611628816113f6565b91506040840135611638816113f6565b809150509250925092565b5f8060408385031215611654575f80fd5b823561165f816113f6565b9150602083013561166f816113f6565b809150509250929050565b7f4e487b71000000000000000000000000000000000000000000000000000000005f52604160045260245ffd5b5f602082840312156116b7575f80fd5b8151611432816113f6565b73ffffffffffffffffffffffffffffffffffffffff8516815283602082015260606040820152816060820152818360808301375f818301608090810191909152601f9092017fffffffffffffffffffffffffffffffffffffffffffffffffffffffffffffffe01601019392505050565b5f5b8381101561174c578181015183820152602001611734565b50505f910152565b5f8060408385031215611765575f80fd5b8251611770816113f6565b602084015190925067ffffffffffffffff8082111561178d575f80fd5b818501915085601f8301126117a0575f80fd5b8151818111156117b2576117b261167a565b604051601f82017fffffffffffffffffffffffffffffffffffffffffffffffffffffffffffffffe0908116603f011681019083821181831017156117f8576117f861167a565b81604052828152886020848701011115611810575f80fd5b611821836020830160208801611732565b80955050505050509250929050565b5f8151808452611847816020860160208601611732565b601f017fffffffffffffffffffffffffffffffffffffffffffffffffffffffffffffffe0169290920160200192915050565b5f73ffffffffffffffffffffffffffffffffffffffff80891683528088166020840152808716604084015280861660608401525083608083015260c060a08301526118c760c0830184611830565b98975050505050505050565b73ffffffffffffffffffffffffffffffffffffffff85168152836020820152608060408201525f6119076080830185611830565b905082606083015295945050505050565b73ffffffffffffffffffffffffffffffffffffffff84168152826020820152606060408201525f61194c6060830184611830565b95945050505050565b602081525f611432602083018461183056fea2646970667358221220ea3aa7041a75653ecb16ac3dda7a55841c6667c1487e1f3c8b43ecbe65c7795b64736f6c63430008180033",
  "linkReferences": {},
  "deployedLinkReferences": {}
}