{
  "_format": "hh-sol-artifact-1",
  "contractName": "TestGetWithdrawRoot",
  "sourceName": "contracts/MockTest/TestGetWithdrawRoot.sol",
  "abi": [
    {
      "inputs": [
        {
          "internalType": "contract Rollup",
          "name": "_rollup",
          "type": "address"
        }
      ],
      "stateMutability": "nonpayable",
      "type": "constructor"
    },
    {
      "inputs": [
        {
          "internalType": "bytes32",
          "name": "_withdrawalRoot",
          "type": "bytes32"
        }
      ],
      "name": "getPreAndCur",
      "outputs": [
        {
          "internalType": "uint256",
          "name": "",
          "type": "uint256"
        }
      ],
      "stateMutability": "view",
      "type": "function"
    },
    {
      "inputs": [],
      "name": "rollup",
      "outputs": [
        {
          "internalType": "contract Rollup",
          "name": "",
          "type": "address"
        }
      ],
      "stateMutability": "view",
      "type": "function"
    }
  ],
  "bytecode": "0x608060405234801561001057600080fd5b506040516103a53803806103a583398101604081905261002f91610054565b600080546001600160a01b0319166001600160a01b0392909216919091179055610084565b60006020828403121561006657600080fd5b81516001600160a01b038116811461007d57600080fd5b9392505050565b610312806100936000396000f3fe608060405234801561001057600080fd5b50600436106100365760003560e01c8063b162bb5c1461003b578063cb23bcb514610061575b600080fd5b61004e61004936600461025c565b6100a6565b6040519081526020015b60405180910390f35b6000546100819073ffffffffffffffffffffffffffffffffffffffff1681565b60405173ffffffffffffffffffffffffffffffffffffffff9091168152602001610058565b600080546040517f04d77215000000000000000000000000000000000000000000000000000000008152600481018490528291829173ffffffffffffffffffffffffffffffffffffffff909116906304d77215906024016040805180830381865afa158015610119573d6000803e3d6000fd5b505050506040513d601f19601f8201168201806040525081019061013d9190610292565b600080546040517fe291c2f500000000000000000000000000000000000000000000000000000000815267ffffffffffffffff851660048201529395509193509173ffffffffffffffffffffffffffffffffffffffff9091169063e291c2f59060240160a060405180830381865afa1580156101bd573d6000803e3d6000fd5b505050506040513d601f19601f820116820180604052508101906101e191906102be565b945050505050818114610254576040517f08c379a000000000000000000000000000000000000000000000000000000000815260206004820152600e60248201527f54696d65206e6f7420657175616c000000000000000000000000000000000000604482015260640160405180910390fd5b509392505050565b60006020828403121561026e57600080fd5b5035919050565b805167ffffffffffffffff8116811461028d57600080fd5b919050565b600080604083850312156102a557600080fd5b6102ae83610275565b9150602083015190509250929050565b600080600080600060a086880312156102d657600080fd5b6102df86610275565b602087015160408801516060890151608090990151929a9199509796509094509250505056fea164736f6c634300080f000a",
  "linkReferences": {},
  "deployedLinkReferences": {}
}