{
  "_format": "hh-sol-artifact-1",
  "contractName": "Test",
  "sourceName": "contracts/MockTest/Test.sol",
  "abi": [
    {
      "inputs": [
        {
          "internalType": "uint256",
          "name": "_amount",
          "type": "uint256"
        },
        {
          "internalType": "uint256",
          "name": "_test",
          "type": "uint256"
        }
      ],
      "stateMutability": "nonpayable",
      "type": "constructor"
    },
    {
      "inputs": [],
      "name": "AMOUNT",
      "outputs": [
        {
          "internalType": "uint256",
          "name": "",
          "type": "uint256"
        }
      ],
      "stateMutability": "view",
      "type": "function"
    },
    {
      "inputs": [
        {
          "internalType": "bytes",
          "name": "bkWitness",
          "type": "bytes"
        }
      ],
      "name": "extractBlockNumber",
      "outputs": [
        {
          "internalType": "uint64",
          "name": "",
          "type": "uint64"
        }
      ],
      "stateMutability": "pure",
      "type": "function"
    },
    {
      "inputs": [
        {
          "internalType": "uint256",
          "name": "_test",
          "type": "uint256"
        }
      ],
      "name": "initialize",
      "outputs": [],
      "stateMutability": "nonpayable",
      "type": "function"
    },
    {
      "inputs": [],
      "name": "test",
      "outputs": [
        {
          "internalType": "uint256",
          "name": "",
          "type": "uint256"
        }
      ],
      "stateMutability": "view",
      "type": "function"
    }
  ],
  "bytecode": "0x60a060405234801561001057600080fd5b506040516102f53803806102f583398101604081905261002f91610044565b608082905261003d81600055565b5050610068565b6000806040838503121561005757600080fd5b505080516020909101519092909150565b6080516102736100826000396000608701526102736000f3fe608060405234801561001057600080fd5b506004361061004c5760003560e01c80631c2708e714610051578063d178917614610082578063f8a8fd6d146100b7578063fe4b84df146100c0575b600080fd5b61006461005f36600461017e565b6100d5565b60405167ffffffffffffffff90911681526020015b60405180910390f35b6100a97f000000000000000000000000000000000000000000000000000000000000000081565b604051908152602001610079565b6100a960005481565b6100d36100ce36600461024d565b600055565b005b6000602082511015610147576040517f08c379a000000000000000000000000000000000000000000000000000000000815260206004820152601560248201527f44617461206c656e67746820746f6f2073686f72740000000000000000000000604482015260640160405180910390fd5b506020015190565b7f4e487b7100000000000000000000000000000000000000000000000000000000600052604160045260246000fd5b60006020828403121561019057600080fd5b813567ffffffffffffffff808211156101a857600080fd5b818401915084601f8301126101bc57600080fd5b8135818111156101ce576101ce61014f565b604051601f82017fffffffffffffffffffffffffffffffffffffffffffffffffffffffffffffffe0908116603f011681019083821181831017156102145761021461014f565b8160405282815287602084870101111561022d57600080fd5b826020860160208301376000928101602001929092525095945050505050565b60006020828403121561025f57600080fd5b503591905056fea164736f6c634300080f000a",
  "linkReferences": {},
  "deployedLinkReferences": {}
}