{
  "_format": "hh-sol-artifact-1",
  "contractName": "ZkEvmVerifierV1",
  "sourceName": "contracts/libraries/verifier/ZkEvmVerifierV1.sol",
  "abi": [
    {
      "inputs": [
        {
          "internalType": "address",
          "name": "_verifier",
          "type": "address"
        }
      ],
      "stateMutability": "nonpayable",
      "type": "constructor"
    },
    {
      "inputs": [],
      "name": "VerificationFailed",
      "type": "error"
    },
    {
      "inputs": [],
      "name": "plonkVerifier",
      "outputs": [
        {
          "internalType": "address",
          "name": "",
          "type": "address"
        }
      ],
      "stateMutability": "view",
      "type": "function"
    },
    {
      "inputs": [
        {
          "internalType": "bytes",
          "name": "aggrProof",
          "type": "bytes"
        },
        {
          "internalType": "bytes32",
          "name": "publicInputHash",
          "type": "bytes32"
        }
      ],
      "name": "verify",
      "outputs": [],
      "stateMutability": "view",
      "type": "function"
    }
  ],
  "bytecode": "0x60a060405234801561000f575f80fd5b5060405161027f38038061027f83398101604081905261002e9161003f565b6001600160a01b031660805261006c565b5f6020828403121561004f575f80fd5b81516001600160a01b0381168114610065575f80fd5b9392505050565b6080516101f66100895f395f81816052015260a201526101f65ff3fe608060405234801561000f575f80fd5b5060043610610034575f3560e01c80636b40634114610038578063e4886e501461004d575b5f80fd5b61004b61004636600461014f565b61009d565b005b6100747f000000000000000000000000000000000000000000000000000000000000000081565b60405173ffffffffffffffffffffffffffffffffffffffff909116815260200160405180910390f35b6040517f0000000000000000000000000000000000000000000000000000000000000000905f906101808682375f5b6104008110156100f25760ff851661056082900383015260089490941c936020016100cc565b50610180850361018087016105808301375f80610400870183865afa91505080610148576040517f439cc0cd00000000000000000000000000000000000000000000000000000000815260040160405180910390fd5b5050505050565b5f805f60408486031215610161575f80fd5b833567ffffffffffffffff80821115610178575f80fd5b818601915086601f83011261018b575f80fd5b813581811115610199575f80fd5b8760208285010111156101aa575f80fd5b602092830198909750959091013594935050505056fea2646970667358221220ffbe5ac4c12e005a3512e4c18e616281faca17a4e4ef616c60ab4e6c8e4835d364736f6c63430008180033",
  "linkReferences": {},
  "deployedLinkReferences": {}
}