{
  "_format": "hh-sol-artifact-1",
  "contractName": "EnforcedTxGateway",
  "sourceName": "contracts/L1/gateways/EnforcedTxGateway.sol",
  "abi": [
    {
      "inputs": [],
      "stateMutability": "nonpayable",
      "type": "constructor"
    },
    {
      "anonymous": false,
      "inputs": [],
      "name": "EIP712DomainChanged",
      "type": "event"
    },
    {
      "anonymous": false,
      "inputs": [
        {
          "indexed": false,
          "internalType": "uint8",
          "name": "version",
          "type": "uint8"
        }
      ],
      "name": "Initialized",
      "type": "event"
    },
    {
      "anonymous": false,
      "inputs": [
        {
          "indexed": true,
          "internalType": "address",
          "name": "previousOwner",
          "type": "address"
        },
        {
          "indexed": true,
          "internalType": "address",
          "name": "newOwner",
          "type": "address"
        }
      ],
      "name": "OwnershipTransferred",
      "type": "event"
    },
    {
      "anonymous": false,
      "inputs": [
        {
          "indexed": false,
          "internalType": "address",
          "name": "account",
          "type": "address"
        }
      ],
      "name": "Paused",
      "type": "event"
    },
    {
      "anonymous": false,
      "inputs": [
        {
          "indexed": false,
          "internalType": "address",
          "name": "account",
          "type": "address"
        }
      ],
      "name": "Unpaused",
      "type": "event"
    },
    {
      "anonymous": false,
      "inputs": [
        {
          "indexed": false,
          "internalType": "address",
          "name": "_oldFeeVault",
          "type": "address"
        },
        {
          "indexed": false,
          "internalType": "address",
          "name": "_newFeeVault",
          "type": "address"
        }
      ],
      "name": "UpdateFeeVault",
      "type": "event"
    },
    {
      "inputs": [],
      "name": "DOMAIN_SEPARATOR",
      "outputs": [
        {
          "internalType": "bytes32",
          "name": "",
          "type": "bytes32"
        }
      ],
      "stateMutability": "view",
      "type": "function"
    },
    {
      "inputs": [],
      "name": "eip712Domain",
      "outputs": [
        {
          "internalType": "bytes1",
          "name": "fields",
          "type": "bytes1"
        },
        {
          "internalType": "string",
          "name": "name",
          "type": "string"
        },
        {
          "internalType": "string",
          "name": "version",
          "type": "string"
        },
        {
          "internalType": "uint256",
          "name": "chainId",
          "type": "uint256"
        },
        {
          "internalType": "address",
          "name": "verifyingContract",
          "type": "address"
        },
        {
          "internalType": "bytes32",
          "name": "salt",
          "type": "bytes32"
        },
        {
          "internalType": "uint256[]",
          "name": "extensions",
          "type": "uint256[]"
        }
      ],
      "stateMutability": "view",
      "type": "function"
    },
    {
      "inputs": [],
      "name": "feeVault",
      "outputs": [
        {
          "internalType": "address",
          "name": "",
          "type": "address"
        }
      ],
      "stateMutability": "view",
      "type": "function"
    },
    {
      "inputs": [
        {
          "internalType": "address",
          "name": "_queue",
          "type": "address"
        },
        {
          "internalType": "address",
          "name": "_feeVault",
          "type": "address"
        }
      ],
      "name": "initialize",
      "outputs": [],
      "stateMutability": "nonpayable",
      "type": "function"
    },
    {
      "inputs": [],
      "name": "messageQueue",
      "outputs": [
        {
          "internalType": "address",
          "name": "",
          "type": "address"
        }
      ],
      "stateMutability": "view",
      "type": "function"
    },
    {
      "inputs": [
        {
          "internalType": "address",
          "name": "",
          "type": "address"
        }
      ],
      "name": "nonces",
      "outputs": [
        {
          "internalType": "uint256",
          "name": "",
          "type": "uint256"
        }
      ],
      "stateMutability": "view",
      "type": "function"
    },
    {
      "inputs": [],
      "name": "owner",
      "outputs": [
        {
          "internalType": "address",
          "name": "",
          "type": "address"
        }
      ],
      "stateMutability": "view",
      "type": "function"
    },
    {
      "inputs": [],
      "name": "paused",
      "outputs": [
        {
          "internalType": "bool",
          "name": "",
          "type": "bool"
        }
      ],
      "stateMutability": "view",
      "type": "function"
    },
    {
      "inputs": [],
      "name": "renounceOwnership",
      "outputs": [],
      "stateMutability": "nonpayable",
      "type": "function"
    },
    {
      "inputs": [
        {
          "internalType": "address",
          "name": "_target",
          "type": "address"
        },
        {
          "internalType": "uint256",
          "name": "_value",
          "type": "uint256"
        },
        {
          "internalType": "uint256",
          "name": "_gasLimit",
          "type": "uint256"
        },
        {
          "internalType": "bytes",
          "name": "_data",
          "type": "bytes"
        }
      ],
      "name": "sendTransaction",
      "outputs": [],
      "stateMutability": "payable",
      "type": "function"
    },
    {
      "inputs": [
        {
          "internalType": "address",
          "name": "_sender",
          "type": "address"
        },
        {
          "internalType": "address",
          "name": "_target",
          "type": "address"
        },
        {
          "internalType": "uint256",
          "name": "_value",
          "type": "uint256"
        },
        {
          "internalType": "uint256",
          "name": "_gasLimit",
          "type": "uint256"
        },
        {
          "internalType": "bytes",
          "name": "_data",
          "type": "bytes"
        },
        {
          "internalType": "uint256",
          "name": "_deadline",
          "type": "uint256"
        },
        {
          "internalType": "bytes",
          "name": "_signature",
          "type": "bytes"
        },
        {
          "internalType": "address",
          "name": "_refundAddress",
          "type": "address"
        }
      ],
      "name": "sendTransaction",
      "outputs": [],
      "stateMutability": "payable",
      "type": "function"
    },
    {
      "inputs": [
        {
          "internalType": "bool",
          "name": "_status",
          "type": "bool"
        }
      ],
      "name": "setPause",
      "outputs": [],
      "stateMutability": "nonpayable",
      "type": "function"
    },
    {
      "inputs": [
        {
          "internalType": "address",
          "name": "newOwner",
          "type": "address"
        }
      ],
      "name": "transferOwnership",
      "outputs": [],
      "stateMutability": "nonpayable",
      "type": "function"
    },
    {
      "inputs": [
        {
          "internalType": "address",
          "name": "_newFeeVault",
          "type": "address"
        }
      ],
      "name": "updateFeeVault",
      "outputs": [],
      "stateMutability": "nonpayable",
      "type": "function"
    }
  ],
  "bytecode": "0x608060405234801561000f575f80fd5b5061001861001d565b6100d9565b5f54610100900460ff16156100885760405162461bcd60e51b815260206004820152602760248201527f496e697469616c697a61626c653a20636f6e747261637420697320696e697469604482015266616c697a696e6760c81b606482015260840160405180910390fd5b5f5460ff908116146100d7575f805460ff191660ff9081179091556040519081527f7f26b83ff96e1f2b6a682f133852f6798a09c465da95921460cefb38474024989060200160405180910390a15b565b611ea8806100e65f395ff3fe6080604052600436106100d9575f3560e01c8063715018a61161007c5780638da5cb5b116100575780638da5cb5b1461025c578063bedb86fb14610286578063f2fde38b146102a5578063fb403d7c146102c4575f80fd5b8063715018a6146101f65780637ecebe001461020a57806384b0196e14610235575f80fd5b80633b70c18a116100b75780633b70c18a14610138578063478222c214610189578063485cc955146101b55780635c975abb146101d4575f80fd5b80632a6cccb2146100dd5780633644e515146100fe5780633934ce9d14610125575b5f80fd5b3480156100e8575f80fd5b506100fc6100f73660046118c6565b6102d7565b005b348015610109575f80fd5b50610112610365565b6040519081526020015b60405180910390f35b6100fc610133366004611924565b610373565b348015610143575f80fd5b5060fd546101649073ffffffffffffffffffffffffffffffffffffffff1681565b60405173ffffffffffffffffffffffffffffffffffffffff909116815260200161011c565b348015610194575f80fd5b5060fe546101649073ffffffffffffffffffffffffffffffffffffffff1681565b3480156101c0575f80fd5b506100fc6101cf366004611987565b61040b565b3480156101df575f80fd5b5060975460ff16604051901515815260200161011c565b348015610201575f80fd5b506100fc610658565b348015610215575f80fd5b506101126102243660046118c6565b60ff6020525f908152604090205481565b348015610240575f80fd5b5061024961066b565b60405161011c97969594939291906119fb565b348015610267575f80fd5b5060335473ffffffffffffffffffffffffffffffffffffffff16610164565b348015610291575f80fd5b506100fc6102a0366004611abb565b610728565b3480156102b0575f80fd5b506100fc6102bf3660046118c6565b610749565b6100fc6102d2366004611b07565b6107e3565b6102df610a02565b60fe805473ffffffffffffffffffffffffffffffffffffffff8381167fffffffffffffffffffffffff000000000000000000000000000000000000000083168117909355604080519190921680825260208201939093527f4aadc32827849f797733838c61302f7f56d2b6db28caa175eb3f7f8e5aba25f5910160405180910390a15050565b5f61036e610a69565b905090565b61037b610a72565b3332146103f55760405162461bcd60e51b815260206004820152603960248201527f4f6e6c7920454f412073656e646572732061726520616c6c6f77656420746f2060448201527f73656e6420656e666f72636564207472616e73616374696f6e0000000000000060648201526084015b60405180910390fd5b61040433868686868633610ac5565b5050505050565b5f54610100900460ff161580801561042957505f54600160ff909116105b806104425750303b15801561044257505f5460ff166001145b6104b45760405162461bcd60e51b815260206004820152602e60248201527f496e697469616c697a61626c653a20636f6e747261637420697320616c72656160448201527f647920696e697469616c697a656400000000000000000000000000000000000060648201526084016103ec565b5f80547fffffffffffffffffffffffffffffffffffffffffffffffffffffffffffffff001660011790558015610510575f80547fffffffffffffffffffffffffffffffffffffffffffffffffffffffffffff00ff166101001790555b610518610dc1565b610520610e45565b610528610ec9565b61059c6040518060400160405280601181526020017f456e666f726365645478476174657761790000000000000000000000000000008152506040518060400160405280600181526020017f3100000000000000000000000000000000000000000000000000000000000000815250610f4d565b60fd805473ffffffffffffffffffffffffffffffffffffffff8086167fffffffffffffffffffffffff00000000000000000000000000000000000000009283161790925560fe8054928516929091169190911790558015610653575f80547fffffffffffffffffffffffffffffffffffffffffffffffffffffffffffff00ff169055604051600181527f7f26b83ff96e1f2b6a682f133852f6798a09c465da95921460cefb38474024989060200160405180910390a15b505050565b610660610a02565b6106695f610fd7565b565b5f6060805f805f606060c9545f801b148015610687575060ca54155b6106d35760405162461bcd60e51b815260206004820152601560248201527f4549503731323a20556e696e697469616c697a6564000000000000000000000060448201526064016103ec565b6106db61104d565b6106e36110dd565b604080515f808252602082019092527f0f000000000000000000000000000000000000000000000000000000000000009b939a50919850469750309650945092509050565b610730610a02565b80156107415761073e6110ec565b50565b61073e611171565b610751610a02565b73ffffffffffffffffffffffffffffffffffffffff81166107da5760405162461bcd60e51b815260206004820152602660248201527f4f776e61626c653a206e6577206f776e657220697320746865207a65726f206160448201527f646472657373000000000000000000000000000000000000000000000000000060648201526084016103ec565b61073e81610fd7565b6107eb610a72565b8242111561083b5760405162461bcd60e51b815260206004820152601160248201527f7369676e6174757265206578706972656400000000000000000000000000000060448201526064016103ec565b5f60ff5f8b73ffffffffffffffffffffffffffffffffffffffff1673ffffffffffffffffffffffffffffffffffffffff1681526020019081526020015f205490505f7f302d96da71d942dc3052ca041618b37fc929a10d432f3a337b5be0a8385c9afe8b8b8b8b8b8b6040516108b2929190611c26565b60408051918290038220602083019790975273ffffffffffffffffffffffffffffffffffffffff95861690820152939092166060840152608083015260a082015260c081019190915260e0810183905261010081018690526101200160408051601f19818403018152918152815160209283012073ffffffffffffffffffffffffffffffffffffffff8e165f90815260ff909352908220600185019055915061095a826111c8565b90505f6109678287611215565b90508c73ffffffffffffffffffffffffffffffffffffffff168173ffffffffffffffffffffffffffffffffffffffff16146109e45760405162461bcd60e51b815260206004820152601360248201527f496e636f7272656374207369676e61747572650000000000000000000000000060448201526064016103ec565b6109f38d8d8d8d8d8d8b610ac5565b50505050505050505050505050565b60335473ffffffffffffffffffffffffffffffffffffffff1633146106695760405162461bcd60e51b815260206004820181905260248201527f4f776e61626c653a2063616c6c6572206973206e6f7420746865206f776e657260448201526064016103ec565b5f61036e611237565b60975460ff16156106695760405162461bcd60e51b815260206004820152601060248201527f5061757361626c653a207061757365640000000000000000000000000000000060448201526064016103ec565b610acd6112aa565b60fd546040517fd7704bae0000000000000000000000000000000000000000000000000000000081526004810186905273ffffffffffffffffffffffffffffffffffffffff909116905f90829063d7704bae90602401602060405180830381865afa158015610b3e573d5f803e3d5ffd5b505050506040513d601f19601f82011682018060405250810190610b629190611c35565b905080341015610bb45760405162461bcd60e51b815260206004820152601a60248201527f496e73756666696369656e742076616c756520666f722066656500000000000060448201526064016103ec565b8015610c695760fe546040515f9173ffffffffffffffffffffffffffffffffffffffff169083908381818185875af1925050503d805f8114610c11576040519150601f19603f3d011682016040523d82523d5f602084013e610c16565b606091505b5050905080610c675760405162461bcd60e51b815260206004820152601860248201527f4661696c656420746f206465647563742074686520666565000000000000000060448201526064016103ec565b505b6040517fbdc6f0a000000000000000000000000000000000000000000000000000000000815273ffffffffffffffffffffffffffffffffffffffff83169063bdc6f0a090610cc5908c908c908c908c908c908c90600401611c4c565b5f604051808303815f87803b158015610cdc575f80fd5b505af1158015610cee573d5f803e3d5ffd5b5050503482810391508214610dab575f8473ffffffffffffffffffffffffffffffffffffffff16826040515f6040518083038185875af1925050503d805f8114610d53576040519150601f19603f3d011682016040523d82523d5f602084013e610d58565b606091505b5050905080610da95760405162461bcd60e51b815260206004820152601860248201527f4661696c656420746f20726566756e642074686520666565000000000000000060448201526064016103ec565b505b505050610db86001606555565b50505050505050565b5f54610100900460ff16610e3d5760405162461bcd60e51b815260206004820152602b60248201527f496e697469616c697a61626c653a20636f6e7472616374206973206e6f74206960448201527f6e697469616c697a696e6700000000000000000000000000000000000000000060648201526084016103ec565b61066961130a565b5f54610100900460ff16610ec15760405162461bcd60e51b815260206004820152602b60248201527f496e697469616c697a61626c653a20636f6e7472616374206973206e6f74206960448201527f6e697469616c697a696e6700000000000000000000000000000000000000000060648201526084016103ec565b61066961138f565b5f54610100900460ff16610f455760405162461bcd60e51b815260206004820152602b60248201527f496e697469616c697a61626c653a20636f6e7472616374206973206e6f74206960448201527f6e697469616c697a696e6700000000000000000000000000000000000000000060648201526084016103ec565b61066961140b565b5f54610100900460ff16610fc95760405162461bcd60e51b815260206004820152602b60248201527f496e697469616c697a61626c653a20636f6e7472616374206973206e6f74206960448201527f6e697469616c697a696e6700000000000000000000000000000000000000000060648201526084016103ec565b610fd382826114b1565b5050565b6033805473ffffffffffffffffffffffffffffffffffffffff8381167fffffffffffffffffffffffff0000000000000000000000000000000000000000831681179093556040519116919082907f8be0079c531659141344cd1fd0a4f28419497f9722a3daafe3b4186f6b6457e0905f90a35050565b606060cb805461105c90611cb2565b80601f016020809104026020016040519081016040528092919081815260200182805461108890611cb2565b80156110d35780601f106110aa576101008083540402835291602001916110d3565b820191905f5260205f20905b8154815290600101906020018083116110b657829003601f168201915b5050505050905090565b606060cc805461105c90611cb2565b6110f4610a72565b609780547fffffffffffffffffffffffffffffffffffffffffffffffffffffffffffffff001660011790557f62e78cea01bee320cd4e420270b5ea74000d11b0c9f74754ebdbfc544b05a2586111473390565b60405173ffffffffffffffffffffffffffffffffffffffff909116815260200160405180910390a1565b611179611554565b609780547fffffffffffffffffffffffffffffffffffffffffffffffffffffffffffffff001690557f5db9ee0a495bf2e6ff9c91a7834c1ba4fdd244a5e8aa4e537bd38aeae4b073aa33611147565b5f61120f6111d4610a69565b836040517f19010000000000000000000000000000000000000000000000000000000000008152600281019290925260228201526042902090565b92915050565b5f805f61122285856115a6565b9150915061122f816115e8565b509392505050565b5f7f8b73c3c69bb8fe3d512ecc4cf759cc79239f7b179b0ffacaa9a75d522b39400f61126161174c565b6112696117a4565b60408051602081019490945283019190915260608201524660808201523060a082015260c00160405160208183030381529060405280519060200120905090565b6002606554036112fc5760405162461bcd60e51b815260206004820152601f60248201527f5265656e7472616e637947756172643a207265656e7472616e742063616c6c0060448201526064016103ec565b6002606555565b6001606555565b5f54610100900460ff166113865760405162461bcd60e51b815260206004820152602b60248201527f496e697469616c697a61626c653a20636f6e7472616374206973206e6f74206960448201527f6e697469616c697a696e6700000000000000000000000000000000000000000060648201526084016103ec565b61066933610fd7565b5f54610100900460ff166113035760405162461bcd60e51b815260206004820152602b60248201527f496e697469616c697a61626c653a20636f6e7472616374206973206e6f74206960448201527f6e697469616c697a696e6700000000000000000000000000000000000000000060648201526084016103ec565b5f54610100900460ff166114875760405162461bcd60e51b815260206004820152602b60248201527f496e697469616c697a61626c653a20636f6e7472616374206973206e6f74206960448201527f6e697469616c697a696e6700000000000000000000000000000000000000000060648201526084016103ec565b609780547fffffffffffffffffffffffffffffffffffffffffffffffffffffffffffffff00169055565b5f54610100900460ff1661152d5760405162461bcd60e51b815260206004820152602b60248201527f496e697469616c697a61626c653a20636f6e7472616374206973206e6f74206960448201527f6e697469616c697a696e6700000000000000000000000000000000000000000060648201526084016103ec565b60cb6115398382611d47565b5060cc6115468282611d47565b50505f60c981905560ca5550565b60975460ff166106695760405162461bcd60e51b815260206004820152601460248201527f5061757361626c653a206e6f742070617573656400000000000000000000000060448201526064016103ec565b5f8082516041036115da576020830151604084015160608501515f1a6115ce878285856117d4565b945094505050506115e1565b505f905060025b9250929050565b5f8160048111156115fb576115fb611e45565b036116035750565b600181600481111561161757611617611e45565b036116645760405162461bcd60e51b815260206004820152601860248201527f45434453413a20696e76616c6964207369676e6174757265000000000000000060448201526064016103ec565b600281600481111561167857611678611e45565b036116c55760405162461bcd60e51b815260206004820152601f60248201527f45434453413a20696e76616c6964207369676e6174757265206c656e6774680060448201526064016103ec565b60038160048111156116d9576116d9611e45565b0361073e5760405162461bcd60e51b815260206004820152602260248201527f45434453413a20696e76616c6964207369676e6174757265202773272076616c60448201527f756500000000000000000000000000000000000000000000000000000000000060648201526084016103ec565b5f8061175661104d565b80519091501561176d578051602090910120919050565b60c954801561177c5792915050565b7fc5d2460186f7233c927e7db2dcc703c0e500b653ca82273b7bfad8045d85a4709250505090565b5f806117ae6110dd565b8051909150156117c5578051602090910120919050565b60ca54801561177c5792915050565b5f807f7fffffffffffffffffffffffffffffff5d576e7357a4501ddfe92f46681b20a083111561180957505f90506003611895565b604080515f8082526020820180845289905260ff881692820192909252606081018690526080810185905260019060a0016020604051602081039080840390855afa15801561185a573d5f803e3d5ffd5b5050604051601f19015191505073ffffffffffffffffffffffffffffffffffffffff811661188f575f60019250925050611895565b91505f90505b94509492505050565b803573ffffffffffffffffffffffffffffffffffffffff811681146118c1575f80fd5b919050565b5f602082840312156118d6575f80fd5b6118df8261189e565b9392505050565b5f8083601f8401126118f6575f80fd5b50813567ffffffffffffffff81111561190d575f80fd5b6020830191508360208285010111156115e1575f80fd5b5f805f805f60808688031215611938575f80fd5b6119418661189e565b94506020860135935060408601359250606086013567ffffffffffffffff81111561196a575f80fd5b611976888289016118e6565b969995985093965092949392505050565b5f8060408385031215611998575f80fd5b6119a18361189e565b91506119af6020840161189e565b90509250929050565b5f81518084525f5b818110156119dc576020818501810151868301820152016119c0565b505f602082860101526020601f19601f83011685010191505092915050565b7fff00000000000000000000000000000000000000000000000000000000000000881681525f602060e06020840152611a3760e084018a6119b8565b8381036040850152611a49818a6119b8565b6060850189905273ffffffffffffffffffffffffffffffffffffffff8816608086015260a0850187905284810360c0860152855180825260208088019350909101905f5b81811015611aa957835183529284019291840191600101611a8d565b50909c9b505050505050505050505050565b5f60208284031215611acb575f80fd5b813580151581146118df575f80fd5b7f4e487b71000000000000000000000000000000000000000000000000000000005f52604160045260245ffd5b5f805f805f805f805f6101008a8c031215611b20575f80fd5b611b298a61189e565b9850611b3760208b0161189e565b975060408a0135965060608a0135955060808a013567ffffffffffffffff80821115611b61575f80fd5b611b6d8d838e016118e6565b909750955060a08c0135945060c08c0135915080821115611b8c575f80fd5b818c0191508c601f830112611b9f575f80fd5b813581811115611bb157611bb1611ada565b604051601f8201601f19908116603f01168101908382118183101715611bd957611bd9611ada565b816040528281528f6020848701011115611bf1575f80fd5b826020860160208301375f602084830101528096505050505050611c1760e08b0161189e565b90509295985092959850929598565b818382375f9101908152919050565b5f60208284031215611c45575f80fd5b5051919050565b5f73ffffffffffffffffffffffffffffffffffffffff808916835280881660208401525085604083015284606083015260a060808301528260a0830152828460c08401375f60c0848401015260c0601f19601f8501168301019050979650505050505050565b600181811c90821680611cc657607f821691505b602082108103611cfd577f4e487b71000000000000000000000000000000000000000000000000000000005f52602260045260245ffd5b50919050565b601f82111561065357805f5260205f20601f840160051c81016020851015611d285750805b601f840160051c820191505b81811015610404575f8155600101611d34565b815167ffffffffffffffff811115611d6157611d61611ada565b611d7581611d6f8454611cb2565b84611d03565b602080601f831160018114611dc7575f8415611d915750858301515b7fffffffffffffffffffffffffffffffffffffffffffffffffffffffffffffffff600386901b1c1916600185901b178555611e3d565b5f85815260208120601f198616915b82811015611df557888601518255948401946001909101908401611dd6565b5085821015611e3157878501517fffffffffffffffffffffffffffffffffffffffffffffffffffffffffffffffff600388901b60f8161c191681555b505060018460011b0185555b505050505050565b7f4e487b71000000000000000000000000000000000000000000000000000000005f52602160045260245ffdfea2646970667358221220b0bee087c0dfa9beb0d1bb2107f4564fbcc6157e6185ff25e5bc8f5bd653e53e64736f6c63430008180033",
  "linkReferences": {},
  "deployedLinkReferences": {}
}