{
  "_format": "hh-sol-artifact-1",
  "contractName": "Rollup",
  "sourceName": "contracts/L1/Rollup.sol",
  "abi": [
    {
      "inputs": [
        {
          "internalType": "address",
          "name": "_submitter",
          "type": "address"
        },
        {
          "internalType": "address",
          "name": "_challenger",
          "type": "address"
        },
        {
          "internalType": "uint256",
          "name": "_minDeposit",
          "type": "uint256"
        },
        {
          "internalType": "uint256",
          "name": "_finalizationPeriodSeconds",
          "type": "uint256"
        },
        {
          "internalType": "uint256",
          "name": "_proofWindow",
          "type": "uint256"
        },
        {
          "internalType": "uint64",
          "name": "_genesisBlockNumber",
          "type": "uint64"
        },
        {
          "internalType": "bytes32",
          "name": "_genesisStateRoot",
          "type": "bytes32"
        }
      ],
      "stateMutability": "nonpayable",
      "type": "constructor"
    },
    {
      "anonymous": false,
      "inputs": [
        {
          "indexed": true,
          "internalType": "uint64",
          "name": "batchIndex",
          "type": "uint64"
        }
      ],
      "name": "BatchConfirm",
      "type": "event"
    },
    {
      "anonymous": false,
      "inputs": [
        {
          "indexed": true,
          "internalType": "uint64",
          "name": "batchIndex",
          "type": "uint64"
        },
        {
          "indexed": false,
          "internalType": "uint64",
          "name": "blockNumber",
          "type": "uint64"
        },
        {
          "indexed": false,
          "internalType": "bytes32",
          "name": "withdrawalRoot",
          "type": "bytes32"
        },
        {
          "indexed": false,
          "internalType": "bytes32",
          "name": "commitmentHash",
          "type": "bytes32"
        },
        {
          "indexed": false,
          "internalType": "bytes32",
          "name": "stateRoot",
          "type": "bytes32"
        },
        {
          "indexed": false,
          "internalType": "uint256",
          "name": "timestamp",
          "type": "uint256"
        }
      ],
      "name": "BatchStorage",
      "type": "event"
    },
    {
      "anonymous": false,
      "inputs": [
        {
          "indexed": true,
          "internalType": "uint64",
          "name": "batchIndex",
          "type": "uint64"
        },
        {
          "indexed": false,
          "internalType": "address",
          "name": "winner",
          "type": "address"
        },
        {
          "indexed": false,
          "internalType": "string",
          "name": "res",
          "type": "string"
        }
      ],
      "name": "ChallengeRes",
      "type": "event"
    },
    {
      "anonymous": false,
      "inputs": [
        {
          "indexed": true,
          "internalType": "uint64",
          "name": "batchIndex",
          "type": "uint64"
        },
        {
          "indexed": false,
          "internalType": "address",
          "name": "challenger",
          "type": "address"
        },
        {
          "indexed": false,
          "internalType": "uint256",
          "name": "challengeDeposit",
          "type": "uint256"
        }
      ],
      "name": "ChallengeState",
      "type": "event"
    },
    {
      "anonymous": false,
      "inputs": [
        {
          "indexed": false,
          "internalType": "uint8",
          "name": "version",
          "type": "uint8"
        }
      ],
      "name": "Initialized",
      "type": "event"
    },
    {
      "anonymous": false,
      "inputs": [
        {
          "indexed": true,
          "internalType": "address",
          "name": "previousOwner",
          "type": "address"
        },
        {
          "indexed": true,
          "internalType": "address",
          "name": "newOwner",
          "type": "address"
        }
      ],
      "name": "OwnershipTransferred",
      "type": "event"
    },
    {
      "anonymous": false,
      "inputs": [
        {
          "indexed": true,
          "internalType": "uint64",
          "name": "numBatch",
          "type": "uint64"
        },
        {
          "indexed": false,
          "internalType": "uint64",
          "name": "l2Num",
          "type": "uint64"
        }
      ],
      "name": "SubmitBatches",
      "type": "event"
    },
    {
      "inputs": [],
      "name": "FINALIZATION_PERIOD_SECONDS",
      "outputs": [
        {
          "internalType": "uint256",
          "name": "",
          "type": "uint256"
        }
      ],
      "stateMutability": "view",
      "type": "function"
    },
    {
      "inputs": [],
      "name": "MIN_DEPOSIT",
      "outputs": [
        {
          "internalType": "uint256",
          "name": "",
          "type": "uint256"
        }
      ],
      "stateMutability": "view",
      "type": "function"
    },
    {
      "inputs": [],
      "name": "PORTAL",
      "outputs": [
        {
          "internalType": "contract MorphismPortal",
          "name": "",
          "type": "address"
        }
      ],
      "stateMutability": "view",
      "type": "function"
    },
    {
      "inputs": [],
      "name": "PROOF_WINDOW",
      "outputs": [
        {
          "internalType": "uint256",
          "name": "",
          "type": "uint256"
        }
      ],
      "stateMutability": "view",
      "type": "function"
    },
    {
      "inputs": [
        {
          "internalType": "uint64",
          "name": "batchIndex",
          "type": "uint64"
        }
      ],
      "name": "batchInChallenge",
      "outputs": [
        {
          "internalType": "bool",
          "name": "",
          "type": "bool"
        }
      ],
      "stateMutability": "view",
      "type": "function"
    },
    {
      "inputs": [
        {
          "internalType": "uint64",
          "name": "batchIndex",
          "type": "uint64"
        }
      ],
      "name": "batchInsideChallengeWindow",
      "outputs": [
        {
          "internalType": "bool",
          "name": "",
          "type": "bool"
        }
      ],
      "stateMutability": "view",
      "type": "function"
    },
    {
      "inputs": [
        {
          "internalType": "uint64",
          "name": "batchIndex",
          "type": "uint64"
        }
      ],
      "name": "challengeState",
      "outputs": [],
      "stateMutability": "payable",
      "type": "function"
    },
    {
      "inputs": [],
      "name": "challenger",
      "outputs": [
        {
          "internalType": "address",
          "name": "",
          "type": "address"
        }
      ],
      "stateMutability": "view",
      "type": "function"
    },
    {
      "inputs": [
        {
          "internalType": "uint64",
          "name": "",
          "type": "uint64"
        }
      ],
      "name": "challenges",
      "outputs": [
        {
          "internalType": "uint64",
          "name": "batchIndex",
          "type": "uint64"
        },
        {
          "internalType": "address",
          "name": "challenger",
          "type": "address"
        },
        {
          "internalType": "uint256",
          "name": "challengeDeposit",
          "type": "uint256"
        },
        {
          "internalType": "uint256",
          "name": "startTime",
          "type": "uint256"
        },
        {
          "internalType": "bool",
          "name": "finished",
          "type": "bool"
        }
      ],
      "stateMutability": "view",
      "type": "function"
    },
    {
      "inputs": [],
      "name": "confirmBatchs",
      "outputs": [],
      "stateMutability": "nonpayable",
      "type": "function"
    },
    {
      "inputs": [
        {
          "internalType": "address",
          "name": "",
          "type": "address"
        }
      ],
      "name": "deposits",
      "outputs": [
        {
          "internalType": "uint256",
          "name": "",
          "type": "uint256"
        }
      ],
      "stateMutability": "view",
      "type": "function"
    },
    {
      "inputs": [
        {
          "internalType": "bytes",
          "name": "bkWitness",
          "type": "bytes"
        }
      ],
      "name": "extractBlockNumber",
      "outputs": [
        {
          "internalType": "uint64",
          "name": "",
          "type": "uint64"
        }
      ],
      "stateMutability": "pure",
      "type": "function"
    },
    {
      "inputs": [
        {
          "internalType": "address",
          "name": "_submitter",
          "type": "address"
        },
        {
          "internalType": "address",
          "name": "_challenger",
          "type": "address"
        },
        {
          "internalType": "uint256",
          "name": "_minDeposit",
          "type": "uint256"
        },
        {
          "internalType": "uint256",
          "name": "_finalizationPeriodSeconds",
          "type": "uint256"
        },
        {
          "internalType": "uint256",
          "name": "_proofWindow",
          "type": "uint256"
        },
        {
          "internalType": "uint64",
          "name": "_genesisBlockNumber",
          "type": "uint64"
        },
        {
          "internalType": "bytes32",
          "name": "_genesisStateRoot",
          "type": "bytes32"
        }
      ],
      "name": "initialize",
      "outputs": [],
      "stateMutability": "payable",
      "type": "function"
    },
    {
      "inputs": [
        {
          "internalType": "address",
          "name": "addr",
          "type": "address"
        }
      ],
      "name": "isStaked",
      "outputs": [
        {
          "internalType": "bool",
          "name": "",
          "type": "bool"
        }
      ],
      "stateMutability": "view",
      "type": "function"
    },
    {
      "inputs": [],
      "name": "lastBatchSequenced",
      "outputs": [
        {
          "internalType": "uint64",
          "name": "",
          "type": "uint64"
        }
      ],
      "stateMutability": "view",
      "type": "function"
    },
    {
      "inputs": [],
      "name": "lastConfirmBatchIndex",
      "outputs": [
        {
          "internalType": "uint64",
          "name": "",
          "type": "uint64"
        }
      ],
      "stateMutability": "view",
      "type": "function"
    },
    {
      "inputs": [],
      "name": "lastL2BlockNumber",
      "outputs": [
        {
          "internalType": "uint64",
          "name": "",
          "type": "uint64"
        }
      ],
      "stateMutability": "view",
      "type": "function"
    },
    {
      "inputs": [],
      "name": "latestBlockNumber",
      "outputs": [
        {
          "internalType": "uint256",
          "name": "",
          "type": "uint256"
        }
      ],
      "stateMutability": "view",
      "type": "function"
    },
    {
      "inputs": [],
      "name": "nextBlockNumber",
      "outputs": [
        {
          "internalType": "uint256",
          "name": "",
          "type": "uint256"
        }
      ],
      "stateMutability": "view",
      "type": "function"
    },
    {
      "inputs": [],
      "name": "owner",
      "outputs": [
        {
          "internalType": "address",
          "name": "",
          "type": "address"
        }
      ],
      "stateMutability": "view",
      "type": "function"
    },
    {
      "inputs": [
        {
          "internalType": "uint64",
          "name": "batchIndex",
          "type": "uint64"
        },
        {
          "internalType": "bytes",
          "name": "proof",
          "type": "bytes"
        }
      ],
      "name": "proveState",
      "outputs": [],
      "stateMutability": "nonpayable",
      "type": "function"
    },
    {
      "inputs": [],
      "name": "renounceOwnership",
      "outputs": [],
      "stateMutability": "nonpayable",
      "type": "function"
    },
    {
      "inputs": [
        {
          "internalType": "contract MorphismPortal",
          "name": "_portal",
          "type": "address"
        }
      ],
      "name": "setPortal",
      "outputs": [],
      "stateMutability": "nonpayable",
      "type": "function"
    },
    {
      "inputs": [],
      "name": "stake",
      "outputs": [],
      "stateMutability": "payable",
      "type": "function"
    },
    {
      "inputs": [],
      "name": "startingBlockNumber",
      "outputs": [
        {
          "internalType": "uint256",
          "name": "",
          "type": "uint256"
        }
      ],
      "stateMutability": "view",
      "type": "function"
    },
    {
      "inputs": [
        {
          "internalType": "uint64",
          "name": "",
          "type": "uint64"
        }
      ],
      "name": "storageBatchs",
      "outputs": [
        {
          "internalType": "uint64",
          "name": "blockNumber",
          "type": "uint64"
        },
        {
          "internalType": "bytes32",
          "name": "withdrawalRoot",
          "type": "bytes32"
        },
        {
          "internalType": "bytes32",
          "name": "commitment",
          "type": "bytes32"
        },
        {
          "internalType": "bytes32",
          "name": "stateRoot",
          "type": "bytes32"
        },
        {
          "internalType": "uint256",
          "name": "originTimestamp",
          "type": "uint256"
        }
      ],
      "stateMutability": "view",
      "type": "function"
    },
    {
      "inputs": [
        {
          "components": [
            {
              "internalType": "uint64",
              "name": "blockNumber",
              "type": "uint64"
            },
            {
              "internalType": "bytes",
              "name": "transactions",
              "type": "bytes"
            },
            {
              "internalType": "bytes",
              "name": "blockWitness",
              "type": "bytes"
            },
            {
              "internalType": "bytes32",
              "name": "preStateRoot",
              "type": "bytes32"
            },
            {
              "internalType": "bytes32",
              "name": "postStateRoot",
              "type": "bytes32"
            },
            {
              "internalType": "bytes32",
              "name": "withdrawalRoot",
              "type": "bytes32"
            },
            {
              "components": [
                {
                  "internalType": "uint256",
                  "name": "version",
                  "type": "uint256"
                },
                {
                  "internalType": "uint256[]",
                  "name": "signers",
                  "type": "uint256[]"
                },
                {
                  "internalType": "bytes",
                  "name": "signature",
                  "type": "bytes"
                }
              ],
              "internalType": "struct Rollup.BatchSignature",
              "name": "signature",
              "type": "tuple"
            }
          ],
          "internalType": "struct Rollup.BatchData[]",
          "name": "batches",
          "type": "tuple[]"
        }
      ],
      "name": "submitBatches",
      "outputs": [],
      "stateMutability": "nonpayable",
      "type": "function"
    },
    {
      "inputs": [],
      "name": "submitter",
      "outputs": [
        {
          "internalType": "address",
          "name": "",
          "type": "address"
        }
      ],
      "stateMutability": "view",
      "type": "function"
    },
    {
      "inputs": [
        {
          "internalType": "address",
          "name": "newOwner",
          "type": "address"
        }
      ],
      "name": "transferOwnership",
      "outputs": [],
      "stateMutability": "nonpayable",
      "type": "function"
    },
    {
      "inputs": [
        {
          "internalType": "address",
          "name": "user",
          "type": "address"
        }
      ],
      "name": "userInChallenge",
      "outputs": [
        {
          "internalType": "bool",
          "name": "",
          "type": "bool"
        }
      ],
      "stateMutability": "view",
      "type": "function"
    },
    {
      "inputs": [],
      "name": "version",
      "outputs": [
        {
          "internalType": "string",
          "name": "",
          "type": "string"
        }
      ],
      "stateMutability": "view",
      "type": "function"
    },
    {
      "inputs": [
        {
          "internalType": "uint256",
          "name": "amount",
          "type": "uint256"
        }
      ],
      "name": "withdraw",
      "outputs": [],
      "stateMutability": "nonpayable",
      "type": "function"
    },
    {
      "inputs": [
        {
          "internalType": "bytes32",
          "name": "",
          "type": "bytes32"
        }
      ],
      "name": "withdrawalRoots",
      "outputs": [
        {
          "internalType": "uint64",
          "name": "batchIndex",
          "type": "uint64"
        },
        {
          "internalType": "uint256",
          "name": "timestamp",
          "type": "uint256"
        }
      ],
      "stateMutability": "view",
      "type": "function"
    }
  ],
  "bytecode": "0x60e06040523480156200001157600080fd5b50604051620037c4380380620037c483398101604081905262000034916200049e565b6001608052600060a081905260c052620000548787878787878762000061565b5050505050505062000547565b600054610100900460ff1615808015620000825750600054600160ff909116105b80620000b257506200009f306200035760201b620024f31760201c565b158015620000b2575060005460ff166001145b6200011b5760405162461bcd60e51b815260206004820152602e60248201527f496e697469616c697a61626c653a20636f6e747261637420697320616c72656160448201526d191e481a5b9a5d1a585b1a5e995960921b60648201526084015b60405180910390fd5b6000805460ff1916600117905580156200013f576000805461ff0019166101001790555b6200014962000366565b6067859055606684905560688690556001600160401b038316606555606b8054606c8054600160401b600160801b0319169055606a80546001600160a01b0319166001600160a01b038c81169182179092556001600160e01b0319909216908a16179091556000908152606d602052604081208054349290620001ce90849062000520565b90915550506040805160a0810182526001600160401b03808616808352600060208085018281527f27ae5ba08d7291c96c8cbddcc148bf48a6d68c7974b94356f53754ef6171d757968601968752606086018981524260808801908152938052606f90925294517fd0170a6220fef73a7dd2c1e9984b0b3831956884ac33b7728dde627780a65be58054919095166001600160401b03199182161790945593517fd0170a6220fef73a7dd2c1e9984b0b3831956884ac33b7728dde627780a65be65593517fd0170a6220fef73a7dd2c1e9984b0b3831956884ac33b7728dde627780a65be75591517fd0170a6220fef73a7dd2c1e9984b0b3831956884ac33b7728dde627780a65be85591517fd0170a6220fef73a7dd2c1e9984b0b3831956884ac33b7728dde627780a65be955606c805490921617905580156200034d576000805461ff0019169055604051600181527f7f26b83ff96e1f2b6a682f133852f6798a09c465da95921460cefb38474024989060200160405180910390a15b5050505050505050565b6001600160a01b03163b151590565b600054610100900460ff16620003c25760405162461bcd60e51b815260206004820152602b6024820152600080516020620037a483398151915260448201526a6e697469616c697a696e6760a81b606482015260840162000112565b620003cc620003ce565b565b600054610100900460ff166200042a5760405162461bcd60e51b815260206004820152602b6024820152600080516020620037a483398151915260448201526a6e697469616c697a696e6760a81b606482015260840162000112565b620003cc33603380546001600160a01b038381166001600160a01b0319831681179093556040519116919082907f8be0079c531659141344cd1fd0a4f28419497f9722a3daafe3b4186f6b6457e090600090a35050565b80516001600160a01b03811681146200049957600080fd5b919050565b600080600080600080600060e0888a031215620004ba57600080fd5b620004c58862000481565b9650620004d56020890162000481565b604089015160608a015160808b015160a08c0151939950919750955093506001600160401b03811681146200050957600080fd5b8092505060c0880151905092959891949750929550565b600082198211156200054257634e487b7160e01b600052601160045260246000fd5b500190565b60805160a05160c05161322d620005776000396000611ba401526000611b7b01526000611b52015261322d6000f3fe6080604052600436106101fe5760003560e01c806359ef11201161011d578063dcec3348116100b0578063f02deda11161007f578063f3ccc5ba11610064578063f3ccc5ba1461076f578063f4daa2911461078f578063fc7e286d146107a557600080fd5b8063f02deda11461072e578063f2fde38b1461074f57600080fd5b8063dcec334814610665578063e1e158a51461067a578063e291c2f514610690578063eb1ec18f1461071857600080fd5b80638d644bb7116100ec5780638d644bb71461053e5780638da5cb5b146105515780638dc45d9a1461057c578063c7ab2039146105a957600080fd5b806359ef1120146104ae5780636177fd18146104ce57806370872aa514610513578063715018a61461052957600080fd5b8063428702b0116101955780634ff56192116101645780634ff561921461041f57806351f2db881461043f578063534db0e21461045f57806354fd4d501461048c57600080fd5b8063428702b0146103a457806344832e26146103b75780634599c788146103e757806345bff1781461040a57600080fd5b80632e1a7d4d116101d15780632e1a7d4d146103215780633a4b66f1146103435780633b34a9c91461034b578063423fa8561461036b57600080fd5b806304d77215146102035780630ff754ea146102695780631c2708e7146102bb5780631efc1b53146102f4575b600080fd5b34801561020f57600080fd5b5061024461021e366004612c34565b606e602052600090815260409020805460019091015467ffffffffffffffff9091169082565b6040805167ffffffffffffffff90931683526020830191909152015b60405180910390f35b34801561027557600080fd5b506069546102969073ffffffffffffffffffffffffffffffffffffffff1681565b60405173ffffffffffffffffffffffffffffffffffffffff9091168152602001610260565b3480156102c757600080fd5b506102db6102d6366004612c7c565b6107d2565b60405167ffffffffffffffff9091168152602001610260565b34801561030057600080fd5b50606c546102db9068010000000000000000900467ffffffffffffffff1681565b34801561032d57600080fd5b5061034161033c366004612c34565b61084d565b005b610341610a4f565b34801561035757600080fd5b50610341610366366004612d4b565b610c2b565b34801561037757600080fd5b50606b546102db9074010000000000000000000000000000000000000000900467ffffffffffffffff1681565b6103416103b2366004612dff565b61141e565b3480156103c357600080fd5b506103d76103d2366004612e6d565b6117de565b6040519015158152602001610260565b3480156103f357600080fd5b506103fc61193b565b604051908152602001610260565b34801561041657600080fd5b5061034161196a565b34801561042b57600080fd5b5061034161043a366004612e6d565b611a8f565b34801561044b57600080fd5b506103d761045a366004612e8a565b611ade565b34801561046b57600080fd5b50606b546102969073ffffffffffffffffffffffffffffffffffffffff1681565b34801561049857600080fd5b506104a1611b4b565b6040516102609190612f1b565b3480156104ba57600080fd5b506103416104c9366004612f2e565b611bee565b3480156104da57600080fd5b506103d76104e9366004612e6d565b73ffffffffffffffffffffffffffffffffffffffff166000908152606d6020526040902054151590565b34801561051f57600080fd5b506103fc60655481565b34801561053557600080fd5b50610341611f10565b61034161054c366004612e8a565b611f24565b34801561055d57600080fd5b5060335473ffffffffffffffffffffffffffffffffffffffff16610296565b34801561058857600080fd5b50606a546102969073ffffffffffffffffffffffffffffffffffffffff1681565b3480156105b557600080fd5b5061061b6105c4366004612e8a565b607060205260009081526040902080546001820154600283015460039093015467ffffffffffffffff8316936801000000000000000090930473ffffffffffffffffffffffffffffffffffffffff16929060ff1685565b6040805167ffffffffffffffff909616865273ffffffffffffffffffffffffffffffffffffffff90941660208601529284019190915260608301521515608082015260a001610260565b34801561067157600080fd5b506103fc6123f5565b34801561068657600080fd5b506103fc60685481565b34801561069c57600080fd5b506106e56106ab366004612e8a565b606f602052600090815260409020805460018201546002830154600384015460049094015467ffffffffffffffff90931693919290919085565b6040805167ffffffffffffffff90961686526020860194909452928401919091526060830152608082015260a001610260565b34801561072457600080fd5b506103fc60665481565b34801561073a57600080fd5b50606c546102db9067ffffffffffffffff1681565b34801561075b57600080fd5b5061034161076a366004612e6d565b61240a565b34801561077b57600080fd5b506103d761078a366004612e8a565b6124be565b34801561079b57600080fd5b506103fc60675481565b3480156107b157600080fd5b506103fc6107c0366004612e6d565b606d6020526000908152604090205481565b6000600882511015610845576040517f08c379a000000000000000000000000000000000000000000000000000000000815260206004820152601a60248201527f626b5769746e657373206c656e67746820746f6f2073686f727400000000000060448201526064015b60405180910390fd5b506008015190565b610856336117de565b156108bd576040517f08c379a000000000000000000000000000000000000000000000000000000000815260206004820152601460248201527f5573657220697320696e206368616c6c656e6765000000000000000000000000604482015260640161083c565b336000908152606d6020526040902054816108d757600080fd5b606854829082906108e89083612fe0565b1115610a1057606a5473ffffffffffffffffffffffffffffffffffffffff16331480156109385750606b5474010000000000000000000000000000000000000000900467ffffffffffffffff1615155b15610a1057606754606b5474010000000000000000000000000000000000000000900467ffffffffffffffff166000908152606f6020526040902060040154429161098291612fe0565b1115610a10576040517f08c379a000000000000000000000000000000000000000000000000000000000815260206004820152602960248201527f7375626d69747465722073686f756c64207761697420626174636820746f206260448201527f6520636f6e6669726d0000000000000000000000000000000000000000000000606482015260840161083c565b81831115610a1b5750805b336000908152606d602052604081208054859290610a3a908490612ff8565b90915550610a4a9050338261250f565b505050565b606a5473ffffffffffffffffffffffffffffffffffffffff16610ace576040517f08c379a000000000000000000000000000000000000000000000000000000000815260206004820152601e60248201527f5375626d69747465722063616e6e6f7420626520616464726573732830290000604482015260640161083c565b606a5473ffffffffffffffffffffffffffffffffffffffff163314610b4f576040517f08c379a000000000000000000000000000000000000000000000000000000000815260206004820152601460248201527f43616c6c6572206e6f74207375626d6974746572000000000000000000000000604482015260640161083c565b606854606a5473ffffffffffffffffffffffffffffffffffffffff166000908152606d6020526040902054610b85903490612fe0565b1015610bed576040517f08c379a000000000000000000000000000000000000000000000000000000000815260206004820152601a60248201527f446f206e6f74206861766520656e6f756768206465706f736974000000000000604482015260640161083c565b606a5473ffffffffffffffffffffffffffffffffffffffff166000908152606d602052604081208054349290610c24908490612fe0565b9091555050565b606a5473ffffffffffffffffffffffffffffffffffffffff16610caa576040517f08c379a000000000000000000000000000000000000000000000000000000000815260206004820152601e60248201527f5375626d69747465722063616e6e6f7420626520616464726573732830290000604482015260640161083c565b606a5473ffffffffffffffffffffffffffffffffffffffff163314610d2b576040517f08c379a000000000000000000000000000000000000000000000000000000000815260206004820152601460248201527f43616c6c6572206e6f74207375626d6974746572000000000000000000000000604482015260640161083c565b606854606a5473ffffffffffffffffffffffffffffffffffffffff166000908152606d60205260409020541015610dbe576040517f08c379a000000000000000000000000000000000000000000000000000000000815260206004820152601b60248201527f496e73756666696369656e74207374616b696e6720616d6f756e740000000000604482015260640161083c565b606b54819074010000000000000000000000000000000000000000900467ffffffffffffffff1660005b828110156112fe57610e5f858583818110610e0557610e0561300f565b9050602002810190610e17919061303e565b610e2590604081019061307c565b8080601f0160208091040260200160405190810160405280939291908181526020018383808284376000920191909152506107d292505050565b67ffffffffffffffff8381166000908152606f602052604090205491811691610e8a911660016130e8565b67ffffffffffffffff1614610efb576040517f08c379a000000000000000000000000000000000000000000000000000000000815260206004820152601360248201527f426c6f636b20646973636f6e74696e7569747900000000000000000000000000604482015260640161083c565b848482818110610f0d57610f0d61300f565b9050602002810190610f1f919061303e565b67ffffffffffffffff83166000908152606f60205260409020600301546060919091013514610faa576040517f08c379a000000000000000000000000000000000000000000000000000000000815260206004820152601860248201527f50726520737461746520726f6f74206e6f74206d617463680000000000000000604482015260640161083c565b606361f618600080610fbb83612595565b9150915060006110048383878d8d8b818110610fd957610fd961300f565b9050602002810190610feb919061303e565b610ff990604081019061307c565b506060949350505050565b905060008a8a8881811061101a5761101a61300f565b905060200281019061102c919061303e565b8251602090810290840120608091909101359150428961104b81613114565b9a5050606e60008e8e8c8181106110645761106461300f565b9050602002810190611076919061303e565b60a001358152602081019190915260400160009081205467ffffffffffffffff1690036111385760405180604001604052808b67ffffffffffffffff16815260200182815250606e60008f8f8d8181106110d2576110d261300f565b90506020028101906110e4919061303e565b60a001358152602080820192909252604001600020825181547fffffffffffffffffffffffffffffffffffffffffffffffff00000000000000001667ffffffffffffffff9091161781559101516001909101555b6040518060a001604052808e8e8c8181106111555761115561300f565b9050602002810190611167919061303e565b611175906020810190612e8a565b67ffffffffffffffff1681526020018e8e8c8181106111965761119661300f565b90506020028101906111a8919061303e565b60a00135815260208082018590526040808301879052606092830185905267ffffffffffffffff8e81166000818152606f8552839020865181547fffffffffffffffffffffffffffffffffffffffffffffffff00000000000000001693169290921782559285015160018201559084015160028201559183015160038301556080909201516004909101557f8ffbdb59c97c5d2c21139fe65d9e837dfb67d1b94c95f6ded94187c95e7def548e8e8c8181106112665761126661300f565b9050602002810190611278919061303e565b611286906020810190612e8a565b8f8f8d8181106112985761129861300f565b90506020028101906112aa919061303e565b6040805167ffffffffffffffff909316835260a0918201356020840152820186905260608201879052608082018590520160405180910390a2505050505050505080806112f69061313b565b915050610de8565b50606b80547fffffffff0000000000000000ffffffffffffffffffffffffffffffffffffffff167401000000000000000000000000000000000000000067ffffffffffffffff8416021790558383611357600185612ff8565b8181106113665761136661300f565b9050602002810190611378919061303e565b611386906020810190612e8a565b606c80547fffffffffffffffffffffffffffffffffffffffffffffffff00000000000000001667ffffffffffffffff928316908117909155606b54604051918252740100000000000000000000000000000000000000009004909116907faff2dd67e4faff27d6d11dbdc2eda3379b944ad1b67b973265a60efd9cd08ac99060200160405180910390a261141861196a565b50505050565b600054610100900460ff161580801561143e5750600054600160ff909116105b806114585750303b158015611458575060005460ff166001145b6114e4576040517f08c379a000000000000000000000000000000000000000000000000000000000815260206004820152602e60248201527f496e697469616c697a61626c653a20636f6e747261637420697320616c72656160448201527f647920696e697469616c697a6564000000000000000000000000000000000000606482015260840161083c565b600080547fffffffffffffffffffffffffffffffffffffffffffffffffffffffffffffff00166001179055801561154257600080547fffffffffffffffffffffffffffffffffffffffffffffffffffffffffffff00ff166101001790555b61154a612628565b60678590556066849055606886905567ffffffffffffffff8316606555606b8054606c80547fffffffffffffffffffffffffffffffff0000000000000000ffffffffffffffff169055606a80547fffffffffffffffffffffffff00000000000000000000000000000000000000001673ffffffffffffffffffffffffffffffffffffffff8c81169182179092557fffffffff00000000000000000000000000000000000000000000000000000000909216908a16179091556000908152606d602052604081208054349290611620908490612fe0565b90915550506040805160a08101825267ffffffffffffffff808616808352600060208085018281527f27ae5ba08d7291c96c8cbddcc148bf48a6d68c7974b94356f53754ef6171d757968601968752606086018981524260808801908152938052606f90925294517fd0170a6220fef73a7dd2c1e9984b0b3831956884ac33b7728dde627780a65be58054919095167fffffffffffffffffffffffffffffffffffffffffffffffff00000000000000009182161790945593517fd0170a6220fef73a7dd2c1e9984b0b3831956884ac33b7728dde627780a65be65593517fd0170a6220fef73a7dd2c1e9984b0b3831956884ac33b7728dde627780a65be75591517fd0170a6220fef73a7dd2c1e9984b0b3831956884ac33b7728dde627780a65be85591517fd0170a6220fef73a7dd2c1e9984b0b3831956884ac33b7728dde627780a65be955606c805490921617905580156117d457600080547fffffffffffffffffffffffffffffffffffffffffffffffffffffffffffff00ff169055604051600181527f7f26b83ff96e1f2b6a682f133852f6798a09c465da95921460cefb38474024989060200160405180910390a15b5050505050505050565b606b5460009074010000000000000000000000000000000000000000900467ffffffffffffffff16810361181457506000919050565b606a5473ffffffffffffffffffffffffffffffffffffffff90811690831603611876575050606c54606b546801000000000000000090910467ffffffffffffffff90811674010000000000000000000000000000000000000000909204161190565b60005b606b5467ffffffffffffffff740100000000000000000000000000000000000000009091048116908216116119325767ffffffffffffffff811660009081526070602052604090205473ffffffffffffffffffffffffffffffffffffffff8481166801000000000000000090920416148015611912575067ffffffffffffffff811660009081526070602052604090206003015460ff16155b156119205750600192915050565b8061192a81613114565b915050611879565b50506000919050565b606c5460009067ffffffffffffffff16156119615750606c5467ffffffffffffffff1690565b6065545b905090565b606c5468010000000000000000900467ffffffffffffffff1660006119908260016130e8565b90505b606b5467ffffffffffffffff740100000000000000000000000000000000000000009091048116908216116119f3576119cb81611ade565b806119da57506119da816124be565b6119f357905080806119eb81613114565b915050611993565b50606c5467ffffffffffffffff6801000000000000000090910481169082161115611a8c57606c80547fffffffffffffffffffffffffffffffff0000000000000000ffffffffffffffff166801000000000000000067ffffffffffffffff84811682029290921792839055604051920416907f0e768c8acf3b65d5bbe59b2f7ae275cb1109c7832317fbea12507a4ef589d81990600090a25b50565b611a976126c7565b606980547fffffffffffffffffffffffff00000000000000000000000000000000000000001673ffffffffffffffffffffffffffffffffffffffff92909216919091179055565b67ffffffffffffffff811660009081526070602052604081205468010000000000000000900473ffffffffffffffffffffffffffffffffffffffff1615801590611b45575067ffffffffffffffff821660009081526070602052604090206003015460ff16155b92915050565b6060611b767f0000000000000000000000000000000000000000000000000000000000000000612748565b611b9f7f0000000000000000000000000000000000000000000000000000000000000000612748565b611bc87f0000000000000000000000000000000000000000000000000000000000000000612748565b604051602001611bda93929190613173565b604051602081830303815290604052905090565b67ffffffffffffffff831660009081526070602052604090205468010000000000000000900473ffffffffffffffffffffffffffffffffffffffff16611c90576040517f08c379a000000000000000000000000000000000000000000000000000000000815260206004820152601360248201527f6368616c6c656e6765206e6f7420657869737400000000000000000000000000604482015260640161083c565b67ffffffffffffffff831660009081526070602052604090206003015460ff1615611d17576040517f08c379a000000000000000000000000000000000000000000000000000000000815260206004820152601a60248201527f6368616c6c656e676520616c72656164792066696e6973686564000000000000604482015260640161083c565b60665467ffffffffffffffff841660009081526070602052604081206002015490914291611d459190612fe0565b11905080611d9157611d8c846040518060400160405280600781526020017f74696d656f757400000000000000000000000000000000000000000000000000815250612806565b611ec7565b81611df8576040517f08c379a000000000000000000000000000000000000000000000000000000000815260206004820152600d60248201527f496e76616c69642070726f6f6600000000000000000000000000000000000000604482015260640161083c565b67ffffffffffffffff84166000908152606f6020526040902060020154611e2290849084906128fa565b611e88576040517f08c379a000000000000000000000000000000000000000000000000000000000815260206004820152600c60248201527f50726f7665206661696c65640000000000000000000000000000000000000000604482015260640161083c565b611ec7846040518060400160405280600d81526020017f70726f7665207375636365737300000000000000000000000000000000000000815250612916565b50505067ffffffffffffffff16600090815260706020526040902060030180547fffffffffffffffffffffffffffffffffffffffffffffffffffffffffffffff00166001179055565b611f186126c7565b611f226000612a21565b565b606b5473ffffffffffffffffffffffffffffffffffffffff16611fa3576040517f08c379a000000000000000000000000000000000000000000000000000000000815260206004820152601f60248201527f4368616c6c656e6765722063616e6e6f74206265206164647265737328302900604482015260640161083c565b606b5473ffffffffffffffffffffffffffffffffffffffff163314612024576040517f08c379a000000000000000000000000000000000000000000000000000000000815260206004820152601560248201527f43616c6c6572206e6f74206368616c6c656e6765720000000000000000000000604482015260640161083c565b606c5467ffffffffffffffff8083166801000000000000000090920416106120a8576040517f08c379a000000000000000000000000000000000000000000000000000000000815260206004820152601760248201527f426174636820616c726561647920636f6e6669726d6564000000000000000000604482015260640161083c565b67ffffffffffffffff81166000908152606f6020526040812060040154900361212d576040517f08c379a000000000000000000000000000000000000000000000000000000000815260206004820152600f60248201527f4261746368206e6f742065786973740000000000000000000000000000000000604482015260640161083c565b67ffffffffffffffff811660009081526070602052604090205468010000000000000000900473ffffffffffffffffffffffffffffffffffffffff16156121d0576040517f08c379a000000000000000000000000000000000000000000000000000000000815260206004820152601560248201527f416c726561647920686173206368616c6c656e67650000000000000000000000604482015260640161083c565b60675467ffffffffffffffff82166000908152606f6020526040812060040154909142916121fe9190612fe0565b1190508061228e576040517f08c379a000000000000000000000000000000000000000000000000000000000815260206004820152603360248201527f43616e6e6f74206368616c6c656e6765206261746368206f757473696465207460448201527f6865206368616c6c656e67652077696e646f7700000000000000000000000000606482015260840161083c565b60685434101561229d57600080fd5b606b5473ffffffffffffffffffffffffffffffffffffffff166000908152606d6020526040812080543492906122d4908490612fe0565b90915550506040805160a08101825267ffffffffffffffff848116808352336020808501828152348688018181524260608901908152600060808a0181815288825260708752908b902099518a54955173ffffffffffffffffffffffffffffffffffffffff1668010000000000000000027fffffffff00000000000000000000000000000000000000000000000000000000909616991698909817939093178855516001880155905160028701559351600390950180549515157fffffffffffffffffffffffffffffffffffffffffffffffffffffffffffffff0090961695909517909455845190815292830191909152917f3a6ea19df25b49e7624e313ce7c1ab23984238e93727260db56a81735b1b9976910160405180910390a25050565b60006123ff61193b565b611965906001612fe0565b6124126126c7565b73ffffffffffffffffffffffffffffffffffffffff81166124b5576040517f08c379a000000000000000000000000000000000000000000000000000000000815260206004820152602660248201527f4f776e61626c653a206e6577206f776e657220697320746865207a65726f206160448201527f6464726573730000000000000000000000000000000000000000000000000000606482015260840161083c565b611a8c81612a21565b60675467ffffffffffffffff82166000908152606f6020526040812060040154909142916124ec9190612fe0565b1192915050565b73ffffffffffffffffffffffffffffffffffffffff163b151590565b600061252c835a8460405180602001604052806000815250612a98565b905080610a4a576040517f08c379a000000000000000000000000000000000000000000000000000000000815260206004820152601b60248201527f526f6c6c75703a20455448207472616e73666572206661696c65640000000000604482015260640161083c565b60008061f61883116125ae575060039261290492509050565b620493e083116125c65750600e926201107692509050565b6040517f08c379a000000000000000000000000000000000000000000000000000000000815260206004820152600e60248201527f434952435549545f434f4e464947000000000000000000000000000000000000604482015260640161083c565b600054610100900460ff166126bf576040517f08c379a000000000000000000000000000000000000000000000000000000000815260206004820152602b60248201527f496e697469616c697a61626c653a20636f6e7472616374206973206e6f74206960448201527f6e697469616c697a696e67000000000000000000000000000000000000000000606482015260840161083c565b611f22612ab2565b60335473ffffffffffffffffffffffffffffffffffffffff163314611f22576040517f08c379a000000000000000000000000000000000000000000000000000000000815260206004820181905260248201527f4f776e61626c653a2063616c6c6572206973206e6f7420746865206f776e6572604482015260640161083c565b6060600061275583612b52565b600101905060008167ffffffffffffffff81111561277557612775612c4d565b6040519080825280601f01601f19166020018201604052801561279f576020820181803683370190505b5090508181016020015b7fffffffffffffffffffffffffffffffffffffffffffffffffffffffffffffffff017f3031323334353637383961626364656600000000000000000000000000000000600a86061a8153600a85049450846127a957509392505050565b67ffffffffffffffff8216600090815260706020908152604080832054606854606a5473ffffffffffffffffffffffffffffffffffffffff9081168652606d909452918420805468010000000000000000909204909316939192919061286d908490612ff8565b909155505060685473ffffffffffffffffffffffffffffffffffffffff82166000908152606d6020526040812080549091906128aa908490612fe0565b925050819055508267ffffffffffffffff167f1e66d5dca70bf28588ef2f5cb3c299e65e2e7bdef2767823d3ae47a9caff95c682846040516128ed9291906131e9565b60405180910390a2505050565b600082810361290b5750600061290f565b5060015b9392505050565b67ffffffffffffffff8216600090815260706020908152604080832080546001909101546801000000000000000090910473ffffffffffffffffffffffffffffffffffffffff16808552606d90935290832080549293919283929061297c908490612ff8565b9091555050606a5473ffffffffffffffffffffffffffffffffffffffff166000908152606d6020526040812080548392906129b8908490612fe0565b9091555050606a5460405167ffffffffffffffff8616917f1e66d5dca70bf28588ef2f5cb3c299e65e2e7bdef2767823d3ae47a9caff95c691612a139173ffffffffffffffffffffffffffffffffffffffff169087906131e9565b60405180910390a250505050565b6033805473ffffffffffffffffffffffffffffffffffffffff8381167fffffffffffffffffffffffff0000000000000000000000000000000000000000831681179093556040519116919082907f8be0079c531659141344cd1fd0a4f28419497f9722a3daafe3b4186f6b6457e090600090a35050565b600080600080845160208601878a8af19695505050505050565b600054610100900460ff16612b49576040517f08c379a000000000000000000000000000000000000000000000000000000000815260206004820152602b60248201527f496e697469616c697a61626c653a20636f6e7472616374206973206e6f74206960448201527f6e697469616c697a696e67000000000000000000000000000000000000000000606482015260840161083c565b611f2233612a21565b6000807a184f03e93ff9f4daa797ed6e38ed64bf6a1f0100000000000000008310612b9b577a184f03e93ff9f4daa797ed6e38ed64bf6a1f010000000000000000830492506040015b6d04ee2d6d415b85acef81000000008310612bc7576d04ee2d6d415b85acef8100000000830492506020015b662386f26fc100008310612be557662386f26fc10000830492506010015b6305f5e1008310612bfd576305f5e100830492506008015b6127108310612c1157612710830492506004015b60648310612c23576064830492506002015b600a8310611b455760010192915050565b600060208284031215612c4657600080fd5b5035919050565b7f4e487b7100000000000000000000000000000000000000000000000000000000600052604160045260246000fd5b600060208284031215612c8e57600080fd5b813567ffffffffffffffff80821115612ca657600080fd5b818401915084601f830112612cba57600080fd5b813581811115612ccc57612ccc612c4d565b604051601f82017fffffffffffffffffffffffffffffffffffffffffffffffffffffffffffffffe0908116603f01168101908382118183101715612d1257612d12612c4d565b81604052828152876020848701011115612d2b57600080fd5b826020860160208301376000928101602001929092525095945050505050565b60008060208385031215612d5e57600080fd5b823567ffffffffffffffff80821115612d7657600080fd5b818501915085601f830112612d8a57600080fd5b813581811115612d9957600080fd5b8660208260051b8501011115612dae57600080fd5b60209290920196919550909350505050565b73ffffffffffffffffffffffffffffffffffffffff81168114611a8c57600080fd5b803567ffffffffffffffff81168114612dfa57600080fd5b919050565b600080600080600080600060e0888a031215612e1a57600080fd5b8735612e2581612dc0565b96506020880135612e3581612dc0565b9550604088013594506060880135935060808801359250612e5860a08901612de2565b915060c0880135905092959891949750929550565b600060208284031215612e7f57600080fd5b813561290f81612dc0565b600060208284031215612e9c57600080fd5b61290f82612de2565b60005b83811015612ec0578181015183820152602001612ea8565b838111156114185750506000910152565b60008151808452612ee9816020860160208601612ea5565b601f017fffffffffffffffffffffffffffffffffffffffffffffffffffffffffffffffe0169290920160200192915050565b60208152600061290f6020830184612ed1565b600080600060408486031215612f4357600080fd5b612f4c84612de2565b9250602084013567ffffffffffffffff80821115612f6957600080fd5b818601915086601f830112612f7d57600080fd5b813581811115612f8c57600080fd5b876020828501011115612f9e57600080fd5b6020830194508093505050509250925092565b7f4e487b7100000000000000000000000000000000000000000000000000000000600052601160045260246000fd5b60008219821115612ff357612ff3612fb1565b500190565b60008282101561300a5761300a612fb1565b500390565b7f4e487b7100000000000000000000000000000000000000000000000000000000600052603260045260246000fd5b600082357fffffffffffffffffffffffffffffffffffffffffffffffffffffffffffffff2183360301811261307257600080fd5b9190910192915050565b60008083357fffffffffffffffffffffffffffffffffffffffffffffffffffffffffffffffe18436030181126130b157600080fd5b83018035915067ffffffffffffffff8211156130cc57600080fd5b6020019150368190038213156130e157600080fd5b9250929050565b600067ffffffffffffffff80831681851680830382111561310b5761310b612fb1565b01949350505050565b600067ffffffffffffffff80831681810361313157613131612fb1565b6001019392505050565b60007fffffffffffffffffffffffffffffffffffffffffffffffffffffffffffffffff820361316c5761316c612fb1565b5060010190565b60008451613185818460208901612ea5565b80830190507f2e0000000000000000000000000000000000000000000000000000000000000080825285516131c1816001850160208a01612ea5565b600192019182015283516131dc816002840160208801612ea5565b0160020195945050505050565b73ffffffffffffffffffffffffffffffffffffffff831681526040602082015260006132186040830184612ed1565b94935050505056fea164736f6c634300080f000a496e697469616c697a61626c653a20636f6e7472616374206973206e6f742069",
  "linkReferences": {},
  "deployedLinkReferences": {}
}