{
  "_format": "hh-sol-artifact-1",
  "contractName": "MockCall",
  "sourceName": "contracts/MockTest/MockCall.sol",
  "abi": [
    {
      "inputs": [
        {
          "internalType": "address",
          "name": "addr",
          "type": "address"
        },
        {
          "internalType": "bytes",
          "name": "_message",
          "type": "bytes"
        }
      ],
      "name": "callContract",
      "outputs": [],
      "stateMutability": "nonpayable",
      "type": "function"
    }
  ],
  "bytecode": "0x608060405234801561001057600080fd5b50610217806100206000396000f3fe608060405234801561001057600080fd5b506004361061002b5760003560e01c80630371066814610030575b600080fd5b61004361003e36600461010f565b610045565b005b6000610054835a6000856100c6565b9050806100c1576040517f08c379a000000000000000000000000000000000000000000000000000000000815260206004820152600b60248201527f63616c6c206661696c6564000000000000000000000000000000000000000000604482015260640160405180910390fd5b505050565b600080600080845160208601878a8af19695505050505050565b7f4e487b7100000000000000000000000000000000000000000000000000000000600052604160045260246000fd5b6000806040838503121561012257600080fd5b823573ffffffffffffffffffffffffffffffffffffffff8116811461014657600080fd5b9150602083013567ffffffffffffffff8082111561016357600080fd5b818501915085601f83011261017757600080fd5b813581811115610189576101896100e0565b604051601f82017fffffffffffffffffffffffffffffffffffffffffffffffffffffffffffffffe0908116603f011681019083821181831017156101cf576101cf6100e0565b816040528281528860208487010111156101e857600080fd5b826020860160208301376000602084830101528095505050505050925092905056fea164736f6c634300080f000a",
  "linkReferences": {},
  "deployedLinkReferences": {}
}