{
  "_format": "hh-sol-artifact-1",
  "contractName": "L2ToL1MessagePasser",
  "sourceName": "contracts/L2/system/L2ToL1MessagePasser.sol",
  "abi": [
    {
      "inputs": [],
      "stateMutability": "nonpayable",
      "type": "constructor"
    },
    {
      "inputs": [],
      "name": "MerkleTreeFull",
      "type": "error"
    },
    {
      "anonymous": false,
      "inputs": [
        {
          "indexed": false,
          "internalType": "uint256",
          "name": "index",
          "type": "uint256"
        },
        {
          "indexed": false,
          "internalType": "bytes32",
          "name": "messageHash",
          "type": "bytes32"
        },
        {
          "indexed": false,
          "internalType": "bytes32",
          "name": "rootHash",
          "type": "bytes32"
        }
      ],
      "name": "AppendMessage",
      "type": "event"
    },
    {
      "inputs": [
        {
          "internalType": "bytes32",
          "name": "_messageHash",
          "type": "bytes32"
        }
      ],
      "name": "appendMessage",
      "outputs": [
        {
          "internalType": "bytes32",
          "name": "",
          "type": "bytes32"
        }
      ],
      "stateMutability": "nonpayable",
      "type": "function"
    },
    {
      "inputs": [],
      "name": "getTreeRoot",
      "outputs": [
        {
          "internalType": "bytes32",
          "name": "",
          "type": "bytes32"
        }
      ],
      "stateMutability": "view",
      "type": "function"
    },
    {
      "inputs": [],
      "name": "leafNodesCount",
      "outputs": [
        {
          "internalType": "uint256",
          "name": "",
          "type": "uint256"
        }
      ],
      "stateMutability": "view",
      "type": "function"
    },
    {
      "inputs": [],
      "name": "messageRoot",
      "outputs": [
        {
          "internalType": "bytes32",
          "name": "",
          "type": "bytes32"
        }
      ],
      "stateMutability": "view",
      "type": "function"
    },
    {
      "inputs": [
        {
          "internalType": "bytes32",
          "name": "leafHash",
          "type": "bytes32"
        },
        {
          "internalType": "bytes32[32]",
          "name": "smtProof",
          "type": "bytes32[32]"
        },
        {
          "internalType": "uint256",
          "name": "index",
          "type": "uint256"
        },
        {
          "internalType": "bytes32",
          "name": "root",
          "type": "bytes32"
        }
      ],
      "name": "verifyMerkleProof",
      "outputs": [
        {
          "internalType": "bool",
          "name": "",
          "type": "bool"
        }
      ],
      "stateMutability": "pure",
      "type": "function"
    }
  ],
  "bytecode": "0x608060405234801561000f575f80fd5b50610018610020565b602155610106565b6020545f90819081805b60208110156100e9578083901c600116600103610086575f8160208110610053576100536100f2565b015460408051602081019290925281018590526060016040516020818303038152906040528051906020012093506100b3565b60408051602081018690529081018390526060016040516020818303038152906040528051906020012093505b604080516020810184905290810183905260600160408051601f198184030181529190528051602090910120915060010161002a565b50919392505050565b634e487b7160e01b5f52603260045260245ffd5b61079a806101135f395ff3fe608060405234801561000f575f80fd5b5060043610610064575f3560e01c806389c09d381161004d57806389c09d38146100b1578063b58343bb146100b9578063d4b9f4fa146100c2575f80fd5b8063340735f714610068578063600a2e7714610090575b5f80fd5b61007b6100763660046104b2565b6100cb565b60405190151581526020015b60405180910390f35b6100a361009e366004610546565b610194565b604051908152602001610087565b6100a3610282565b6100a360205481565b6100a360215481565b5f84815b6020811015610188578085901c600116600103610135578581602081106100f8576100f861055d565b602002015182604051602001610118929190918252602082015260400190565b604051602081830303815290604052805190602001209150610180565b818682602081106101485761014861055d565b6020020151604051602001610167929190918252602082015260400190565b6040516020818303038152906040528051906020012091505b6001016100cf565b50909114949350505050565b5f3373530000000000000000000000000000000000000714610216576040517f08c379a000000000000000000000000000000000000000000000000000000000815260206004820152600e60248201527f6f6e6c79206d657373656e676572000000000000000000000000000000000000604482015260640160405180910390fd5b61021f82610372565b610227610282565b6021556020547f509758f52fb5e05d2e0d4379024275cbab7c27923c22777fcdb7e12a4d9499639061025b906001906105b7565b602154604080519283526020830186905282015260600160405180910390a1505060215490565b6020545f90819081805b6020811015610369578083901c6001166001036102e8575f81602081106102b5576102b561055d565b01546040805160208101929092528101859052606001604051602081830303815290604052805190602001209350610315565b60408051602081018690529081018390526060016040516020818303038152906040528051906020012093505b6040805160208101849052908101839052606001604080517fffffffffffffffffffffffffffffffffffffffffffffffffffffffffffffffe08184030181529190528051602090910120915060010161028c565b50919392505050565b806001610381602060026106ee565b61038b91906105b7565b602054106103c5576040517fef5ccf6600000000000000000000000000000000000000000000000000000000815260040160405180910390fd5b5f60205f81546103d490610700565b918290555090505f5b6020811015610477578082901c60011660010361040f57825f82602081106104075761040761055d565b015550505050565b5f81602081106104215761042161055d565b01546040805160208101929092528101849052606001604080517fffffffffffffffffffffffffffffffffffffffffffffffffffffffffffffffe0818403018152919052805160209091012092506001016103dd565b50610480610737565b505050565b7f4e487b71000000000000000000000000000000000000000000000000000000005f52604160045260245ffd5b5f805f8061046085870312156104c6575f80fd5b84359350602086603f8701126104da575f80fd5b604051610400810181811067ffffffffffffffff821117156104fe576104fe610485565b60405280610420880189811115610513575f80fd5b602089015b8181101561052f5780358352918401918401610518565b509699919850509435956104400135949350505050565b5f60208284031215610556575f80fd5b5035919050565b7f4e487b71000000000000000000000000000000000000000000000000000000005f52603260045260245ffd5b7f4e487b71000000000000000000000000000000000000000000000000000000005f52601160045260245ffd5b818103818111156105ca576105ca61058a565b92915050565b600181815b8085111561062957817fffffffffffffffffffffffffffffffffffffffffffffffffffffffffffffffff0482111561060f5761060f61058a565b8085161561061c57918102915b93841c93908002906105d5565b509250929050565b5f8261063f575060016105ca565b8161064b57505f6105ca565b8160018114610661576002811461066b57610687565b60019150506105ca565b60ff84111561067c5761067c61058a565b50506001821b6105ca565b5060208310610133831016604e8410600b84101617156106aa575081810a6105ca565b6106b483836105d0565b807fffffffffffffffffffffffffffffffffffffffffffffffffffffffffffffffff048211156106e6576106e661058a565b029392505050565b5f6106f98383610631565b9392505050565b5f7fffffffffffffffffffffffffffffffffffffffffffffffffffffffffffffffff82036107305761073061058a565b5060010190565b7f4e487b71000000000000000000000000000000000000000000000000000000005f52600160045260245ffdfea26469706673582212201190362c750811d932b39d6e1b3e3837fa34d08516cc60223773202a60dfa63a64736f6c63430008180033",
  "linkReferences": {},
  "deployedLinkReferences": {}
}