{
  "_format": "hh-sol-artifact-1",
  "contractName": "Gov",
  "sourceName": "contracts/L2/Gov.sol",
  "abi": [
    {
      "inputs": [],
      "stateMutability": "nonpayable",
      "type": "constructor"
    },
    {
      "anonymous": false,
      "inputs": [
        {
          "indexed": false,
          "internalType": "uint8",
          "name": "version",
          "type": "uint8"
        }
      ],
      "name": "Initialized",
      "type": "event"
    },
    {
      "inputs": [],
      "name": "L2_SEQUENCER_CONTRACT",
      "outputs": [
        {
          "internalType": "address",
          "name": "",
          "type": "address"
        }
      ],
      "stateMutability": "view",
      "type": "function"
    },
    {
      "inputs": [],
      "name": "batchBlockInterval",
      "outputs": [
        {
          "internalType": "uint256",
          "name": "",
          "type": "uint256"
        }
      ],
      "stateMutability": "view",
      "type": "function"
    },
    {
      "inputs": [],
      "name": "batchMaxBytes",
      "outputs": [
        {
          "internalType": "uint256",
          "name": "",
          "type": "uint256"
        }
      ],
      "stateMutability": "view",
      "type": "function"
    },
    {
      "inputs": [],
      "name": "batchTimeout",
      "outputs": [
        {
          "internalType": "uint256",
          "name": "",
          "type": "uint256"
        }
      ],
      "stateMutability": "view",
      "type": "function"
    },
    {
      "inputs": [
        {
          "internalType": "uint256",
          "name": "_proposalInterval",
          "type": "uint256"
        },
        {
          "internalType": "uint256",
          "name": "_batchBlockInterval",
          "type": "uint256"
        },
        {
          "internalType": "uint256",
          "name": "_batchMaxBytes",
          "type": "uint256"
        },
        {
          "internalType": "uint256",
          "name": "_batchTimeout",
          "type": "uint256"
        }
      ],
      "name": "initialize",
      "outputs": [],
      "stateMutability": "nonpayable",
      "type": "function"
    },
    {
      "inputs": [],
      "name": "l2Sequencer",
      "outputs": [
        {
          "internalType": "address",
          "name": "",
          "type": "address"
        }
      ],
      "stateMutability": "view",
      "type": "function"
    },
    {
      "inputs": [
        {
          "internalType": "uint256",
          "name": "",
          "type": "uint256"
        }
      ],
      "name": "proposalData",
      "outputs": [
        {
          "internalType": "uint256",
          "name": "batchBlockInterval",
          "type": "uint256"
        },
        {
          "internalType": "uint256",
          "name": "batchMaxBytes",
          "type": "uint256"
        },
        {
          "internalType": "uint256",
          "name": "batchTimeout",
          "type": "uint256"
        }
      ],
      "stateMutability": "view",
      "type": "function"
    },
    {
      "inputs": [
        {
          "internalType": "uint256",
          "name": "",
          "type": "uint256"
        }
      ],
      "name": "proposalInfos",
      "outputs": [
        {
          "internalType": "bool",
          "name": "active",
          "type": "bool"
        },
        {
          "internalType": "uint256",
          "name": "endTime",
          "type": "uint256"
        },
        {
          "internalType": "uint256",
          "name": "seqsVersion",
          "type": "uint256"
        },
        {
          "internalType": "uint256",
          "name": "votes",
          "type": "uint256"
        }
      ],
      "stateMutability": "view",
      "type": "function"
    },
    {
      "inputs": [],
      "name": "proposalInterval",
      "outputs": [
        {
          "internalType": "uint256",
          "name": "",
          "type": "uint256"
        }
      ],
      "stateMutability": "view",
      "type": "function"
    },
    {
      "inputs": [],
      "name": "proposalNumbers",
      "outputs": [
        {
          "internalType": "uint256",
          "name": "",
          "type": "uint256"
        }
      ],
      "stateMutability": "view",
      "type": "function"
    },
    {
      "inputs": [
        {
          "components": [
            {
              "internalType": "uint256",
              "name": "batchBlockInterval",
              "type": "uint256"
            },
            {
              "internalType": "uint256",
              "name": "batchMaxBytes",
              "type": "uint256"
            },
            {
              "internalType": "uint256",
              "name": "batchTimeout",
              "type": "uint256"
            }
          ],
          "internalType": "struct Gov.ProposalData",
          "name": "proposal",
          "type": "tuple"
        }
      ],
      "name": "propose",
      "outputs": [],
      "stateMutability": "nonpayable",
      "type": "function"
    },
    {
      "inputs": [],
      "name": "sequencersVersion",
      "outputs": [
        {
          "internalType": "uint256",
          "name": "",
          "type": "uint256"
        }
      ],
      "stateMutability": "view",
      "type": "function"
    },
    {
      "inputs": [
        {
          "internalType": "uint256",
          "name": "propID",
          "type": "uint256"
        }
      ],
      "name": "vote",
      "outputs": [],
      "stateMutability": "nonpayable",
      "type": "function"
    },
    {
      "inputs": [
        {
          "internalType": "uint256",
          "name": "",
          "type": "uint256"
        },
        {
          "internalType": "uint256",
          "name": "",
          "type": "uint256"
        }
      ],
      "name": "votes",
      "outputs": [
        {
          "internalType": "bool",
          "name": "",
          "type": "bool"
        }
      ],
      "stateMutability": "view",
      "type": "function"
    }
  ],
  "bytecode": "0x60a06040526000600155600060025560006003556000600455600060055534801561002957600080fd5b50735300000000000000000000000000000000000003608052608051611036610087600039600081816101060152818161017f015281816102f5015281816104a30152818161071f01528181610af00152610c6301526110366000f3fe608060405234801561001057600080fd5b50600436106100ea5760003560e01c8063929a9cbe1161008c578063c6e36a3211610066578063c6e36a3214610261578063d441a1681461029f578063e4cbe85a146102a8578063f59993a4146102bb57600080fd5b8063929a9cbe146101b357806396dea936146101bc578063b511328d1461020657600080fd5b806360a2da44116100c857806360a2da44146101675780636cb237071461017a57806377c79380146101a157806385963052146101aa57600080fd5b80630121b93f146100ef5780630c3f3517146101045780634063a84e14610150575b600080fd5b6101026100fd366004610dd2565b6102c4565b005b7f00000000000000000000000000000000000000000000000000000000000000005b60405173ffffffffffffffffffffffffffffffffffffffff90911681526020015b60405180910390f35b61015960095481565b604051908152602001610147565b610102610175366004610deb565b610837565b6101267f000000000000000000000000000000000000000000000000000000000000000081565b61015960045481565b61015960025481565b61015960035481565b6101eb6101ca366004610dd2565b60076020526000908152604090208054600182015460029092015490919083565b60408051938452602084019290925290820152606001610147565b61023f610214366004610dd2565b600860205260009081526040902080546001820154600283015460039093015460ff90921692909184565b6040805194151585526020850193909352918301526060820152608001610147565b61028f61026f366004610e1d565b600660209081526000928352604080842090915290825290205460ff1681565b6040519015158152602001610147565b61015960015481565b6101026102b6366004610e3f565b610abf565b61015960055481565b6040517fad44737e0000000000000000000000000000000000000000000000000000000081523360048201526000907f000000000000000000000000000000000000000000000000000000000000000073ffffffffffffffffffffffffffffffffffffffff169063ad44737e906024016040805180830381865afa158015610350573d6000803e3d6000fd5b505050506040513d601f19601f820116820180604052508101906103749190610ec2565b509050806103e3576040517f08c379a000000000000000000000000000000000000000000000000000000000815260206004820152601a60248201527f6f6e6c792073657175656e6365722063616e2070726f706f736500000000000060448201526064015b60405180910390fd5b60008281526008602052604090205460ff1661045b576040517f08c379a000000000000000000000000000000000000000000000000000000000815260206004820152601160248201527f70726f706f73616c20696e61637469766500000000000000000000000000000060448201526064016103da565b6040517f64964006000000000000000000000000000000000000000000000000000000008152336004820152600090819073ffffffffffffffffffffffffffffffffffffffff7f000000000000000000000000000000000000000000000000000000000000000016906364964006906024016040805180830381865afa1580156104e9573d6000803e3d6000fd5b505050506040513d601f19601f8201168201806040525081019061050d9190610ef5565b6000868152600660209081526040808320858452909152902054919350915060ff16156105bc576040517f08c379a000000000000000000000000000000000000000000000000000000000815260206004820152602860248201527f73657175656e63657220616c726561647920766f746520666f7220746869732060448201527f70726f706f73616c00000000000000000000000000000000000000000000000060648201526084016103da565b6000848152600860205260409020600201548114610636576040517f08c379a000000000000000000000000000000000000000000000000000000000815260206004820152601060248201527f76657273696f6e206d69736d617463680000000000000000000000000000000060448201526064016103da565b6000848152600860205260409020600101544211156106b1576040517f08c379a000000000000000000000000000000000000000000000000000000000815260206004820152600860248201527f74696d6520656e6400000000000000000000000000000000000000000000000060448201526064016103da565b6000848152600660209081526040808320858452825280832080547fffffffffffffffffffffffffffffffffffffffffffffffffffffffffffffff0016600190811790915587845260089092528220600301805491929091610714908490610f48565b9250508190555060007f000000000000000000000000000000000000000000000000000000000000000073ffffffffffffffffffffffffffffffffffffffff166305b8cc676040518163ffffffff1660e01b81526004016040805180830381865afa158015610787573d6000803e3d6000fd5b505050506040513d601f19601f820116820180604052508101906107ab9190610ef5565b50905060036107bb826002610f60565b6107c59190610f9d565b600086815260086020526040902060030154111561083057600085815260076020908152604080832080546002908155600182015460035501546004556008909152902080547fffffffffffffffffffffffffffffffffffffffffffffffffffffffffffffff001690555b5050505050565b600054610100900460ff16158080156108575750600054600160ff909116105b806108715750303b158015610871575060005460ff166001145b6108fd576040517f08c379a000000000000000000000000000000000000000000000000000000000815260206004820152602e60248201527f496e697469616c697a61626c653a20636f6e747261637420697320616c72656160448201527f647920696e697469616c697a656400000000000000000000000000000000000060648201526084016103da565b600080547fffffffffffffffffffffffffffffffffffffffffffffffffffffffffffffff00166001179055801561095b57600080547fffffffffffffffffffffffffffffffffffffffffffffffffffffffffffff00ff166101001790555b600085116109c5576040517f08c379a000000000000000000000000000000000000000000000000000000000815260206004820152601960248201527f696e76616c69642070726f706f73616c20696e74657276616c0000000000000060448201526064016103da565b831515806109d257508215155b806109dc57508115155b610a42576040517f08c379a000000000000000000000000000000000000000000000000000000000815260206004820152601460248201527f696e76616c696420626174636820706172616d7300000000000000000000000060448201526064016103da565b6009859055600284905560038390556004829055801561083057600080547fffffffffffffffffffffffffffffffffffffffffffffffffffffffffffff00ff169055604051600181527f7f26b83ff96e1f2b6a682f133852f6798a09c465da95921460cefb38474024989060200160405180910390a15050505050565b6040517fad44737e0000000000000000000000000000000000000000000000000000000081523360048201526000907f000000000000000000000000000000000000000000000000000000000000000073ffffffffffffffffffffffffffffffffffffffff169063ad44737e906024016040805180830381865afa158015610b4b573d6000803e3d6000fd5b505050506040513d601f19601f82011682018060405250810190610b6f9190610ec2565b50905080610bd9576040517f08c379a000000000000000000000000000000000000000000000000000000000815260206004820152601a60248201527f6f6e6c792073657175656e6365722063616e2070726f706f736500000000000060448201526064016103da565b8151151580610beb5750602082015115155b80610bf95750604082015115155b610c5f576040517f08c379a000000000000000000000000000000000000000000000000000000000815260206004820152601460248201527f696e76616c696420626174636820706172616d7300000000000000000000000060448201526064016103da565b60007f000000000000000000000000000000000000000000000000000000000000000073ffffffffffffffffffffffffffffffffffffffff16639d888e866040518163ffffffff1660e01b8152600401602060405180830381865afa158015610ccc573d6000803e3d6000fd5b505050506040513d601f19601f82011682018060405250810190610cf09190610fd8565b9050600154811115610d025760018190555b60058054906000610d1283610ff1565b9091555050600554600090815260076020908152604091829020855181558186015160018083019190915583870151600290920191909155825160808101909352825260095490820190610d669042610f48565b815260208082019390935260006040918201819052600554815260088452819020825181547fffffffffffffffffffffffffffffffffffffffffffffffffffffffffffffff00169015151781559282015160018401558101516002830155606001516003909101555050565b600060208284031215610de457600080fd5b5035919050565b60008060008060808587031215610e0157600080fd5b5050823594602084013594506040840135936060013592509050565b60008060408385031215610e3057600080fd5b50508035926020909101359150565b600060608284031215610e5157600080fd5b6040516060810181811067ffffffffffffffff82111715610e9b577f4e487b7100000000000000000000000000000000000000000000000000000000600052604160045260246000fd5b80604052508235815260208301356020820152604083013560408201528091505092915050565b60008060408385031215610ed557600080fd5b82518015158114610ee557600080fd5b6020939093015192949293505050565b60008060408385031215610f0857600080fd5b505080516020909101519092909150565b7f4e487b7100000000000000000000000000000000000000000000000000000000600052601160045260246000fd5b60008219821115610f5b57610f5b610f19565b500190565b6000817fffffffffffffffffffffffffffffffffffffffffffffffffffffffffffffffff0483118215151615610f9857610f98610f19565b500290565b600082610fd3577f4e487b7100000000000000000000000000000000000000000000000000000000600052601260045260246000fd5b500490565b600060208284031215610fea57600080fd5b5051919050565b60007fffffffffffffffffffffffffffffffffffffffffffffffffffffffffffffffff820361102257611022610f19565b506001019056fea164736f6c634300080f000a",
  "linkReferences": {},
  "deployedLinkReferences": {}
}