{
  "_format": "hh-sol-artifact-1",
  "contractName": "TestL1Multiple",
  "sourceName": "contracts/MockTest/TestL1Multiple.sol",
  "abi": [
    {
      "inputs": [
        {
          "internalType": "address payable",
          "name": "_messenger",
          "type": "address"
        },
        {
          "internalType": "address payable",
          "name": "_bridge",
          "type": "address"
        },
        {
          "internalType": "uint256",
          "name": "_erc20Amount",
          "type": "uint256"
        },
        {
          "internalType": "address",
          "name": "_to",
          "type": "address"
        }
      ],
      "stateMutability": "nonpayable",
      "type": "constructor"
    },
    {
      "inputs": [],
      "name": "BRIDGE",
      "outputs": [
        {
          "internalType": "contract StandardBridge",
          "name": "",
          "type": "address"
        }
      ],
      "stateMutability": "view",
      "type": "function"
    },
    {
      "inputs": [],
      "name": "ERC20DepositAmount",
      "outputs": [
        {
          "internalType": "uint256",
          "name": "",
          "type": "uint256"
        }
      ],
      "stateMutability": "view",
      "type": "function"
    },
    {
      "inputs": [],
      "name": "MESSENGER",
      "outputs": [
        {
          "internalType": "contract CrossDomainMessenger",
          "name": "",
          "type": "address"
        }
      ],
      "stateMutability": "view",
      "type": "function"
    },
    {
      "inputs": [
        {
          "internalType": "address[]",
          "name": "l1tokens",
          "type": "address[]"
        },
        {
          "internalType": "address[]",
          "name": "l2tokens",
          "type": "address[]"
        },
        {
          "internalType": "uint256",
          "name": "ethAmount",
          "type": "uint256"
        },
        {
          "internalType": "uint32",
          "name": "minGasLimit",
          "type": "uint32"
        },
        {
          "internalType": "bytes",
          "name": "extraData",
          "type": "bytes"
        }
      ],
      "name": "sendDeposit",
      "outputs": [],
      "stateMutability": "payable",
      "type": "function"
    },
    {
      "inputs": [],
      "name": "to",
      "outputs": [
        {
          "internalType": "address",
          "name": "",
          "type": "address"
        }
      ],
      "stateMutability": "view",
      "type": "function"
    }
  ],
  "bytecode": "0x60e060405234801561001057600080fd5b50604051610adc380380610adc83398101604081905261002f91610078565b6001600160a01b0393841660805291831660a05260c052600080546001600160a01b031916919092161790556100cd565b6001600160a01b038116811461007557600080fd5b50565b6000806000806080858703121561008e57600080fd5b845161009981610060565b60208601519094506100aa81610060565b6040860151606087015191945092506100c281610060565b939692955090935050565b60805160a05160c0516109b76101256000396000818160dd0152818161027201526103a80152600081816101530152818161024a015281816102e9015261046201526000818161011f015261052801526109b76000f3fe60806040526004361061005a5760003560e01c80634c6d92f9116100435780634c6d92f9146100cb578063927ede2d1461010d578063ee9a31a21461014157600080fd5b8063131519811461005f5780631697e681146100b6575b600080fd5b34801561006b57600080fd5b5060005461008c9073ffffffffffffffffffffffffffffffffffffffff1681565b60405173ffffffffffffffffffffffffffffffffffffffff90911681526020015b60405180910390f35b6100c96100c43660046106bb565b610175565b005b3480156100d757600080fd5b506100ff7f000000000000000000000000000000000000000000000000000000000000000081565b6040519081526020016100ad565b34801561011957600080fd5b5061008c7f000000000000000000000000000000000000000000000000000000000000000081565b34801561014d57600080fd5b5061008c7f000000000000000000000000000000000000000000000000000000000000000081565b84518651146101e4576040517f08c379a000000000000000000000000000000000000000000000000000000000815260206004820152601060248201527f6c656e677468206e6f7420657175616c00000000000000000000000000000000604482015260640160405180910390fd5b60005b865181101561041b578681815181106102025761020261079d565b60209081029190910101516040517f095ea7b300000000000000000000000000000000000000000000000000000000815273ffffffffffffffffffffffffffffffffffffffff7f0000000000000000000000000000000000000000000000000000000000000000811660048301527f000000000000000000000000000000000000000000000000000000000000000060248301529091169063095ea7b3906044016020604051808303816000875af11580156102c2573d6000803e3d6000fd5b505050506040513d601f19601f820116820180604052508101906102e691906107cc565b507f000000000000000000000000000000000000000000000000000000000000000073ffffffffffffffffffffffffffffffffffffffff1663540abf738883815181106103355761033561079d565b602002602001015188848151811061034f5761034f61079d565b60209081029190910101516000546040517fffffffff0000000000000000000000000000000000000000000000000000000060e086901b1681526103d693929173ffffffffffffffffffffffffffffffffffffffff16907f0000000000000000000000000000000000000000000000000000000000000000908b908b908b9060040161083e565b600060405180830381600087803b1580156103f057600080fd5b505af1158015610404573d6000803e3d6000fd5b505050508080610413906108ce565b9150506101e7565b5083156104d3576000546040517fe11013dd00000000000000000000000000000000000000000000000000000000815273ffffffffffffffffffffffffffffffffffffffff7f000000000000000000000000000000000000000000000000000000000000000081169263e11013dd9288926104a0921690889088908890600401610906565b6000604051808303818588803b1580156104b957600080fd5b505af11580156104cd573d6000803e3d6000fd5b50505050505b341561059b5760006104e5853461094c565b6000546040517f3dbb202b00000000000000000000000000000000000000000000000000000000815291925073ffffffffffffffffffffffffffffffffffffffff7f0000000000000000000000000000000000000000000000000000000000000000811692633dbb202b92859261056792911690889088908b90600401610963565b6000604051808303818588803b15801561058057600080fd5b505af1158015610594573d6000803e3d6000fd5b5050505050505b505050505050565b7f4e487b7100000000000000000000000000000000000000000000000000000000600052604160045260246000fd5b803573ffffffffffffffffffffffffffffffffffffffff811681146105f657600080fd5b919050565b600082601f83011261060c57600080fd5b8135602067ffffffffffffffff80831115610629576106296105a3565b8260051b6040517fffffffffffffffffffffffffffffffffffffffffffffffffffffffffffffffe0603f8301168101818110848211171561066c5761066c6105a3565b60405293845285810183019383810192508785111561068a57600080fd5b83870191505b848210156106b0576106a1826105d2565b83529183019190830190610690565b979650505050505050565b60008060008060008060a087890312156106d457600080fd5b863567ffffffffffffffff808211156106ec57600080fd5b6106f88a838b016105fb565b9750602089013591508082111561070e57600080fd5b61071a8a838b016105fb565b9650604089013595506060890135915063ffffffff8216821461073c57600080fd5b9093506080880135908082111561075257600080fd5b818901915089601f83011261076657600080fd5b81358181111561077557600080fd5b8a602082850101111561078757600080fd5b6020830194508093505050509295509295509295565b7f4e487b7100000000000000000000000000000000000000000000000000000000600052603260045260246000fd5b6000602082840312156107de57600080fd5b815180151581146107ee57600080fd5b9392505050565b8183528181602085013750600060208284010152600060207fffffffffffffffffffffffffffffffffffffffffffffffffffffffffffffffe0601f840116840101905092915050565b600073ffffffffffffffffffffffffffffffffffffffff808a168352808916602084015280881660408401525085606083015263ffffffff8516608083015260c060a083015261089260c0830184866107f5565b9998505050505050505050565b7f4e487b7100000000000000000000000000000000000000000000000000000000600052601160045260246000fd5b60007fffffffffffffffffffffffffffffffffffffffffffffffffffffffffffffffff82036108ff576108ff61089f565b5060010190565b73ffffffffffffffffffffffffffffffffffffffff8516815263ffffffff841660208201526060604082015260006109426060830184866107f5565b9695505050505050565b60008282101561095e5761095e61089f565b500390565b73ffffffffffffffffffffffffffffffffffffffff851681526060602082015260006109936060830185876107f5565b905063ffffffff831660408301529594505050505056fea164736f6c634300080f000a",
  "linkReferences": {},
  "deployedLinkReferences": {}
}