{
  "_format": "hh-sol-artifact-1",
  "contractName": "L2Sequencer",
  "sourceName": "contracts/L2/L2Sequencer.sol",
  "abi": [
    {
      "inputs": [
        {
          "internalType": "address payable",
          "name": "_otherSequencer",
          "type": "address"
        }
      ],
      "stateMutability": "nonpayable",
      "type": "constructor"
    },
    {
      "anonymous": false,
      "inputs": [
        {
          "indexed": false,
          "internalType": "uint8",
          "name": "version",
          "type": "uint8"
        }
      ],
      "name": "Initialized",
      "type": "event"
    },
    {
      "inputs": [],
      "name": "MESSENGER",
      "outputs": [
        {
          "internalType": "contract CrossDomainMessenger",
          "name": "",
          "type": "address"
        }
      ],
      "stateMutability": "view",
      "type": "function"
    },
    {
      "inputs": [],
      "name": "OTHER_SEQUENCER",
      "outputs": [
        {
          "internalType": "contract Sequencer",
          "name": "",
          "type": "address"
        }
      ],
      "stateMutability": "view",
      "type": "function"
    },
    {
      "inputs": [],
      "name": "currentVersion",
      "outputs": [
        {
          "internalType": "uint256",
          "name": "",
          "type": "uint256"
        }
      ],
      "stateMutability": "view",
      "type": "function"
    },
    {
      "inputs": [],
      "name": "getSequencerAddresses",
      "outputs": [
        {
          "internalType": "address[]",
          "name": "",
          "type": "address[]"
        }
      ],
      "stateMutability": "view",
      "type": "function"
    },
    {
      "inputs": [],
      "name": "getSequencerInfos",
      "outputs": [
        {
          "components": [
            {
              "internalType": "address",
              "name": "addr",
              "type": "address"
            },
            {
              "internalType": "bytes32",
              "name": "tmKey",
              "type": "bytes32"
            },
            {
              "internalType": "bytes",
              "name": "blsKey",
              "type": "bytes"
            }
          ],
          "internalType": "struct Types.SequencerInfo[]",
          "name": "",
          "type": "tuple[]"
        }
      ],
      "stateMutability": "view",
      "type": "function"
    },
    {
      "inputs": [
        {
          "internalType": "address",
          "name": "checkAddr",
          "type": "address"
        }
      ],
      "name": "inSequencersSet",
      "outputs": [
        {
          "internalType": "bool",
          "name": "",
          "type": "bool"
        },
        {
          "internalType": "uint256",
          "name": "",
          "type": "uint256"
        }
      ],
      "stateMutability": "view",
      "type": "function"
    },
    {
      "inputs": [
        {
          "components": [
            {
              "internalType": "address",
              "name": "addr",
              "type": "address"
            },
            {
              "internalType": "bytes32",
              "name": "tmKey",
              "type": "bytes32"
            },
            {
              "internalType": "bytes",
              "name": "blsKey",
              "type": "bytes"
            }
          ],
          "internalType": "struct Types.SequencerInfo[]",
          "name": "_sequencers",
          "type": "tuple[]"
        }
      ],
      "name": "initialize",
      "outputs": [],
      "stateMutability": "nonpayable",
      "type": "function"
    },
    {
      "inputs": [],
      "name": "messenger",
      "outputs": [
        {
          "internalType": "contract CrossDomainMessenger",
          "name": "",
          "type": "address"
        }
      ],
      "stateMutability": "view",
      "type": "function"
    },
    {
      "inputs": [
        {
          "internalType": "uint256",
          "name": "",
          "type": "uint256"
        }
      ],
      "name": "sequencerAddresses",
      "outputs": [
        {
          "internalType": "address",
          "name": "",
          "type": "address"
        }
      ],
      "stateMutability": "view",
      "type": "function"
    },
    {
      "inputs": [
        {
          "internalType": "address",
          "name": "checkAddr",
          "type": "address"
        }
      ],
      "name": "sequencerIndex",
      "outputs": [
        {
          "internalType": "uint256",
          "name": "",
          "type": "uint256"
        },
        {
          "internalType": "uint256",
          "name": "",
          "type": "uint256"
        }
      ],
      "stateMutability": "view",
      "type": "function"
    },
    {
      "inputs": [
        {
          "internalType": "uint256",
          "name": "",
          "type": "uint256"
        }
      ],
      "name": "sequencerInfos",
      "outputs": [
        {
          "internalType": "address",
          "name": "addr",
          "type": "address"
        },
        {
          "internalType": "bytes32",
          "name": "tmKey",
          "type": "bytes32"
        },
        {
          "internalType": "bytes",
          "name": "blsKey",
          "type": "bytes"
        }
      ],
      "stateMutability": "view",
      "type": "function"
    },
    {
      "inputs": [],
      "name": "sequencersLen",
      "outputs": [
        {
          "internalType": "uint256",
          "name": "",
          "type": "uint256"
        },
        {
          "internalType": "uint256",
          "name": "",
          "type": "uint256"
        }
      ],
      "stateMutability": "view",
      "type": "function"
    },
    {
      "inputs": [
        {
          "internalType": "uint256",
          "name": "version",
          "type": "uint256"
        },
        {
          "components": [
            {
              "internalType": "address",
              "name": "addr",
              "type": "address"
            },
            {
              "internalType": "bytes32",
              "name": "tmKey",
              "type": "bytes32"
            },
            {
              "internalType": "bytes",
              "name": "blsKey",
              "type": "bytes"
            }
          ],
          "internalType": "struct Types.SequencerInfo[]",
          "name": "_sequencers",
          "type": "tuple[]"
        }
      ],
      "name": "updateSequencers",
      "outputs": [],
      "stateMutability": "nonpayable",
      "type": "function"
    },
    {
      "inputs": [],
      "name": "version",
      "outputs": [
        {
          "internalType": "string",
          "name": "",
          "type": "string"
        }
      ],
      "stateMutability": "view",
      "type": "function"
    }
  ],
  "bytecode": "0x610120604052600060015534801561001657600080fd5b5060405161181c38038061181c8339810160408190526100359161006e565b6001608081905260a052600060c05273420000000000000000000000000000000000000760e0526001600160a01b03166101005261009e565b60006020828403121561008057600080fd5b81516001600160a01b038116811461009757600080fd5b9392505050565b60805160a05160c05160e0516101005161171e6100fe60003960008181610273015261089e015260008181610127015281816101c30152818161087401526108d50152600061047b0152600061045201526000610429015261171e6000f3fe608060405234801561001057600080fd5b50600436106100ea5760003560e01c8063927ede2d1161008c578063ad44737e11610066578063ad44737e1461020f578063aeaf9f4114610239578063c9406b1a1461024c578063f81e02a71461026e57600080fd5b8063927ede2d146101be5780639d888e86146101e5578063ad01732f146101fc57600080fd5b80634ab3c518116100c85780634ab3c5181461016c57806354fd4d50146101815780635942e7c71461019657806364964006146101ab57600080fd5b806305b8cc67146100ef5780632e4810f4146101105780633cb747bf14610125575b600080fd5b6002546001545b604080519283526020830191909152015b60405180910390f35b610118610295565b6040516101079190610fe5565b7f00000000000000000000000000000000000000000000000000000000000000005b60405173ffffffffffffffffffffffffffffffffffffffff9091168152602001610107565b6101746103b3565b6040516101079190611098565b610189610422565b60405161010791906110f2565b6101a96101a436600461133d565b6104c5565b005b6100f66101b936600461137a565b61078b565b6101477f000000000000000000000000000000000000000000000000000000000000000081565b6101ee60015481565b604051908152602001610107565b6101a961020a366004611397565b61085c565b61022261021d36600461137a565b610b5d565b604080519215158352602083019190915201610107565b6101476102473660046113de565b610bdb565b61025f61025a3660046113de565b610c12565b604051610107939291906113f7565b6101477f000000000000000000000000000000000000000000000000000000000000000081565b60606003805480602002602001604051908101604052809291908181526020016000905b828210156103aa5760008481526020908190206040805160608101825260038602909201805473ffffffffffffffffffffffffffffffffffffffff1683526001810154938301939093526002830180549293929184019161031990611435565b80601f016020809104026020016040519081016040528092919081815260200182805461034590611435565b80156103925780601f1061036757610100808354040283529160200191610392565b820191906000526020600020905b81548152906001019060200180831161037557829003601f168201915b505050505081525050815260200190600101906102b9565b50505050905090565b6060600280548060200260200160405190810160405280929190818152602001828054801561041857602002820191906000526020600020905b815473ffffffffffffffffffffffffffffffffffffffff1681526001909101906020018083116103ed575b5050505050905090565b606061044d7f0000000000000000000000000000000000000000000000000000000000000000610ce8565b6104767f0000000000000000000000000000000000000000000000000000000000000000610ce8565b61049f7f0000000000000000000000000000000000000000000000000000000000000000610ce8565b6040516020016104b193929190611488565b604051602081830303815290604052905090565b600054610100900460ff16158080156104e55750600054600160ff909116105b806104ff5750303b1580156104ff575060005460ff166001145b610590576040517f08c379a000000000000000000000000000000000000000000000000000000000815260206004820152602e60248201527f496e697469616c697a61626c653a20636f6e747261637420697320616c72656160448201527f647920696e697469616c697a656400000000000000000000000000000000000060648201526084015b60405180910390fd5b600080547fffffffffffffffffffffffffffffffffffffffffffffffffffffffffffffff0016600117905580156105ee57600080547fffffffffffffffffffffffffffffffffffffffffffffffffffffffffffff00ff166101001790555b60005b825181101561072357600283828151811061060e5761060e6114fe565b6020908102919091018101515182546001810184556000938452919092200180547fffffffffffffffffffffffff00000000000000000000000000000000000000001673ffffffffffffffffffffffffffffffffffffffff9092169190911790558251600390849083908110610686576106866114fe565b602090810291909101810151825460018082018555600094855293839020825160039092020180547fffffffffffffffffffffffff00000000000000000000000000000000000000001673ffffffffffffffffffffffffffffffffffffffff90921691909117815591810151928201929092556040820151600282019061070d908261157b565b505050808061071b90611695565b9150506105f1565b50801561078757600080547fffffffffffffffffffffffffffffffffffffffffffffffffffffffffffff00ff169055604051600181527f7f26b83ff96e1f2b6a682f133852f6798a09c465da95921460cefb38474024989060200160405180910390a15b5050565b60008060005b6002548110156107f957600281815481106107ae576107ae6114fe565b60009182526020909120015473ffffffffffffffffffffffffffffffffffffffff908116908516036107e7576001549094909350915050565b806107f181611695565b915050610791565b506040517f08c379a000000000000000000000000000000000000000000000000000000000815260206004820152601360248201527f73657175656e636572206e6f74206578697374000000000000000000000000006044820152606401610587565b3373ffffffffffffffffffffffffffffffffffffffff7f00000000000000000000000000000000000000000000000000000000000000001614801561097a57507f000000000000000000000000000000000000000000000000000000000000000073ffffffffffffffffffffffffffffffffffffffff167f000000000000000000000000000000000000000000000000000000000000000073ffffffffffffffffffffffffffffffffffffffff16636e296e456040518163ffffffff1660e01b8152600401602060405180830381865afa15801561093e573d6000803e3d6000fd5b505050506040513d601f19601f8201168201806040525081019061096291906116f4565b73ffffffffffffffffffffffffffffffffffffffff16145b610a06576040517f08c379a000000000000000000000000000000000000000000000000000000000815260206004820152603f60248201527f53657175656e6365723a2066756e6374696f6e2063616e206f6e6c792062652060448201527f63616c6c65642066726f6d20746865206f746865722073657175656e636572006064820152608401610587565b6001829055610a1760036000610e89565b610a2360026000610ead565b60005b8151811015610b58576002828281518110610a4357610a436114fe565b6020908102919091018101515182546001810184556000938452919092200180547fffffffffffffffffffffffff00000000000000000000000000000000000000001673ffffffffffffffffffffffffffffffffffffffff9092169190911790558151600390839083908110610abb57610abb6114fe565b602090810291909101810151825460018082018555600094855293839020825160039092020180547fffffffffffffffffffffffff00000000000000000000000000000000000000001673ffffffffffffffffffffffffffffffffffffffff909216919091178155918101519282019290925560408201516002820190610b42908261157b565b5050508080610b5090611695565b915050610a26565b505050565b60008060005b600254811015610bcc5760028181548110610b8057610b806114fe565b60009182526020909120015473ffffffffffffffffffffffffffffffffffffffff90811690851603610bba57600180549250925050915091565b80610bc481611695565b915050610b63565b50600060015491509150915091565b60028181548110610beb57600080fd5b60009182526020909120015473ffffffffffffffffffffffffffffffffffffffff16905081565b60038181548110610c2257600080fd5b600091825260209091206003909102018054600182015460028301805473ffffffffffffffffffffffffffffffffffffffff9093169450909291610c6590611435565b80601f0160208091040260200160405190810160405280929190818152602001828054610c9190611435565b8015610cde5780601f10610cb357610100808354040283529160200191610cde565b820191906000526020600020905b815481529060010190602001808311610cc157829003601f168201915b5050505050905083565b60606000610cf583610da6565b600101905060008167ffffffffffffffff811115610d1557610d1561110c565b6040519080825280601f01601f191660200182016040528015610d3f576020820181803683370190505b5090508181016020015b7fffffffffffffffffffffffffffffffffffffffffffffffffffffffffffffffff017f3031323334353637383961626364656600000000000000000000000000000000600a86061a8153600a8504945084610d4957509392505050565b6000807a184f03e93ff9f4daa797ed6e38ed64bf6a1f0100000000000000008310610def577a184f03e93ff9f4daa797ed6e38ed64bf6a1f010000000000000000830492506040015b6d04ee2d6d415b85acef81000000008310610e1b576d04ee2d6d415b85acef8100000000830492506020015b662386f26fc100008310610e3957662386f26fc10000830492506010015b6305f5e1008310610e51576305f5e100830492506008015b6127108310610e6557612710830492506004015b60648310610e77576064830492506002015b600a8310610e83576001015b92915050565b5080546000825560030290600052602060002090810190610eaa9190610ecb565b50565b5080546000825590600052602060002090810190610eaa9190610f1c565b80821115610f185780547fffffffffffffffffffffffff0000000000000000000000000000000000000000168155600060018201819055610f0f6002830182610f31565b50600301610ecb565b5090565b5b80821115610f185760008155600101610f1d565b508054610f3d90611435565b6000825580601f10610f4d575050565b601f016020900490600052602060002090810190610eaa9190610f1c565b60005b83811015610f86578181015183820152602001610f6e565b83811115610f95576000848401525b50505050565b60008151808452610fb3816020860160208601610f6b565b601f017fffffffffffffffffffffffffffffffffffffffffffffffffffffffffffffffe0169290920160200192915050565b60006020808301818452808551808352604092508286019150828160051b87010184880160005b8381101561108a578883037fffffffffffffffffffffffffffffffffffffffffffffffffffffffffffffffc00185528151805173ffffffffffffffffffffffffffffffffffffffff1684528781015188850152860151606087850181905261107681860183610f9b565b96890196945050509086019060010161100c565b509098975050505050505050565b6020808252825182820181905260009190848201906040850190845b818110156110e657835173ffffffffffffffffffffffffffffffffffffffff16835292840192918401916001016110b4565b50909695505050505050565b6020815260006111056020830184610f9b565b9392505050565b7f4e487b7100000000000000000000000000000000000000000000000000000000600052604160045260246000fd5b6040516060810167ffffffffffffffff8111828210171561115e5761115e61110c565b60405290565b604051601f82017fffffffffffffffffffffffffffffffffffffffffffffffffffffffffffffffe016810167ffffffffffffffff811182821017156111ab576111ab61110c565b604052919050565b73ffffffffffffffffffffffffffffffffffffffff81168114610eaa57600080fd5b6000601f83818401126111e757600080fd5b8235602067ffffffffffffffff808311156112045761120461110c565b8260051b611213838201611164565b938452868101830193838101908986111561122d57600080fd5b84890192505b858310156113305782358481111561124b5760008081fd5b890160607fffffffffffffffffffffffffffffffffffffffffffffffffffffffffffffffe0828d0381018213156112825760008081fd5b61128a61113b565b88840135611297816111b3565b81526040848101358a8301529284013592888411156112b65760008081fd5b83850194508e603f8601126112cd57600093508384fd5b898501359350888411156112e3576112e361110c565b6112f28a848e87011601611164565b92508383528e818587010111156113095760008081fd5b838186018b85013760009383018a0193909352918201528352509184019190840190611233565b9998505050505050505050565b60006020828403121561134f57600080fd5b813567ffffffffffffffff81111561136657600080fd5b611372848285016111d5565b949350505050565b60006020828403121561138c57600080fd5b8135611105816111b3565b600080604083850312156113aa57600080fd5b82359150602083013567ffffffffffffffff8111156113c857600080fd5b6113d4858286016111d5565b9150509250929050565b6000602082840312156113f057600080fd5b5035919050565b73ffffffffffffffffffffffffffffffffffffffff8416815282602082015260606040820152600061142c6060830184610f9b565b95945050505050565b600181811c9082168061144957607f821691505b602082108103611482577f4e487b7100000000000000000000000000000000000000000000000000000000600052602260045260246000fd5b50919050565b6000845161149a818460208901610f6b565b80830190507f2e0000000000000000000000000000000000000000000000000000000000000080825285516114d6816001850160208a01610f6b565b600192019182015283516114f1816002840160208801610f6b565b0160020195945050505050565b7f4e487b7100000000000000000000000000000000000000000000000000000000600052603260045260246000fd5b601f821115610b5857600081815260208120601f850160051c810160208610156115545750805b601f850160051c820191505b8181101561157357828155600101611560565b505050505050565b815167ffffffffffffffff8111156115955761159561110c565b6115a9816115a38454611435565b8461152d565b602080601f8311600181146115fc57600084156115c65750858301515b7fffffffffffffffffffffffffffffffffffffffffffffffffffffffffffffffff600386901b1c1916600185901b178555611573565b6000858152602081207fffffffffffffffffffffffffffffffffffffffffffffffffffffffffffffffe08616915b828110156116495788860151825594840194600190910190840161162a565b508582101561168557878501517fffffffffffffffffffffffffffffffffffffffffffffffffffffffffffffffff600388901b60f8161c191681555b5050505050600190811b01905550565b60007fffffffffffffffffffffffffffffffffffffffffffffffffffffffffffffffff82036116ed577f4e487b7100000000000000000000000000000000000000000000000000000000600052601160045260246000fd5b5060010190565b60006020828403121561170657600080fd5b8151611105816111b356fea164736f6c634300080f000a",
  "linkReferences": {},
  "deployedLinkReferences": {}
}