{
  "_format": "hh-sol-artifact-1",
  "contractName": "L1Sequencer",
  "sourceName": "contracts/L1/staking/L1Sequencer.sol",
  "abi": [
    {
      "inputs": [
        {
          "internalType": "address payable",
          "name": "_messenger",
          "type": "address"
        }
      ],
      "stateMutability": "nonpayable",
      "type": "constructor"
    },
    {
      "anonymous": false,
      "inputs": [
        {
          "indexed": false,
          "internalType": "uint8",
          "name": "version",
          "type": "uint8"
        }
      ],
      "name": "Initialized",
      "type": "event"
    },
    {
      "anonymous": false,
      "inputs": [
        {
          "indexed": false,
          "internalType": "address",
          "name": "account",
          "type": "address"
        }
      ],
      "name": "Paused",
      "type": "event"
    },
    {
      "anonymous": false,
      "inputs": [
        {
          "indexed": false,
          "internalType": "address[]",
          "name": "sequencers",
          "type": "address[]"
        },
        {
          "indexed": false,
          "internalType": "uint256",
          "name": "version",
          "type": "uint256"
        }
      ],
      "name": "SequencerConfirmed",
      "type": "event"
    },
    {
      "anonymous": false,
      "inputs": [
        {
          "indexed": false,
          "internalType": "address",
          "name": "account",
          "type": "address"
        }
      ],
      "name": "Unpaused",
      "type": "event"
    },
    {
      "inputs": [],
      "name": "MESSENGER",
      "outputs": [
        {
          "internalType": "contract CrossDomainMessenger",
          "name": "",
          "type": "address"
        }
      ],
      "stateMutability": "view",
      "type": "function"
    },
    {
      "inputs": [],
      "name": "OTHER_SEQUENCER",
      "outputs": [
        {
          "internalType": "contract Sequencer",
          "name": "",
          "type": "address"
        }
      ],
      "stateMutability": "view",
      "type": "function"
    },
    {
      "inputs": [],
      "name": "currentVersion",
      "outputs": [
        {
          "internalType": "uint256",
          "name": "",
          "type": "uint256"
        }
      ],
      "stateMutability": "view",
      "type": "function"
    },
    {
      "inputs": [
        {
          "internalType": "uint256",
          "name": "version",
          "type": "uint256"
        },
        {
          "internalType": "uint256",
          "name": "index",
          "type": "uint256"
        }
      ],
      "name": "getSequencerBLSKeys",
      "outputs": [
        {
          "internalType": "bytes",
          "name": "",
          "type": "bytes"
        }
      ],
      "stateMutability": "view",
      "type": "function"
    },
    {
      "inputs": [
        {
          "internalType": "uint256",
          "name": "version",
          "type": "uint256"
        }
      ],
      "name": "getSequencerBLSKeysLength",
      "outputs": [
        {
          "internalType": "uint256",
          "name": "",
          "type": "uint256"
        }
      ],
      "stateMutability": "view",
      "type": "function"
    },
    {
      "inputs": [
        {
          "internalType": "address",
          "name": "_stakingContract",
          "type": "address"
        },
        {
          "internalType": "address",
          "name": "_rollupContract",
          "type": "address"
        }
      ],
      "name": "initialize",
      "outputs": [],
      "stateMutability": "nonpayable",
      "type": "function"
    },
    {
      "inputs": [],
      "name": "messenger",
      "outputs": [
        {
          "internalType": "contract CrossDomainMessenger",
          "name": "",
          "type": "address"
        }
      ],
      "stateMutability": "view",
      "type": "function"
    },
    {
      "inputs": [],
      "name": "newestVersion",
      "outputs": [
        {
          "internalType": "uint256",
          "name": "",
          "type": "uint256"
        }
      ],
      "stateMutability": "view",
      "type": "function"
    },
    {
      "inputs": [],
      "name": "pause",
      "outputs": [],
      "stateMutability": "nonpayable",
      "type": "function"
    },
    {
      "inputs": [],
      "name": "paused",
      "outputs": [
        {
          "internalType": "bool",
          "name": "",
          "type": "bool"
        }
      ],
      "stateMutability": "view",
      "type": "function"
    },
    {
      "inputs": [],
      "name": "rollupContract",
      "outputs": [
        {
          "internalType": "address",
          "name": "",
          "type": "address"
        }
      ],
      "stateMutability": "view",
      "type": "function"
    },
    {
      "inputs": [
        {
          "internalType": "uint256",
          "name": "",
          "type": "uint256"
        },
        {
          "internalType": "uint256",
          "name": "",
          "type": "uint256"
        }
      ],
      "name": "sequencerBLSKeys",
      "outputs": [
        {
          "internalType": "bytes",
          "name": "",
          "type": "bytes"
        }
      ],
      "stateMutability": "view",
      "type": "function"
    },
    {
      "inputs": [],
      "name": "stakingContract",
      "outputs": [
        {
          "internalType": "address",
          "name": "",
          "type": "address"
        }
      ],
      "stateMutability": "view",
      "type": "function"
    },
    {
      "inputs": [
        {
          "internalType": "bytes",
          "name": "_sequencerBytes",
          "type": "bytes"
        },
        {
          "internalType": "bytes[]",
          "name": "_sequencerBLSKeys",
          "type": "bytes[]"
        },
        {
          "internalType": "uint32",
          "name": "_minGasLimit",
          "type": "uint32"
        }
      ],
      "name": "updateAndSendSequencerSet",
      "outputs": [],
      "stateMutability": "nonpayable",
      "type": "function"
    },
    {
      "inputs": [
        {
          "internalType": "uint256",
          "name": "version",
          "type": "uint256"
        },
        {
          "internalType": "uint256[]",
          "name": "indexs",
          "type": "uint256[]"
        },
        {
          "internalType": "bytes",
          "name": "signature",
          "type": "bytes"
        }
      ],
      "name": "verifySignature",
      "outputs": [],
      "stateMutability": "nonpayable",
      "type": "function"
    },
    {
      "inputs": [],
      "name": "version",
      "outputs": [
        {
          "internalType": "string",
          "name": "",
          "type": "string"
        }
      ],
      "stateMutability": "view",
      "type": "function"
    },
    {
      "stateMutability": "payable",
      "type": "receive"
    }
  ],
  "bytecode": "0x610120604052600060025560006003553480156200001c57600080fd5b5060405162001ad738038062001ad78339810160408190526200003f916200014c565b6001600160a01b03811660805273530000000000000000000000000000000000000360a052600160c081905260e0526000610100819052805462ff0000191690556200008a62000091565b506200017e565b6200009b620000f2565b6000805462ff00001916620100001790557f62e78cea01bee320cd4e420270b5ea74000d11b0c9f74754ebdbfc544b05a258620000d53390565b6040516001600160a01b03909116815260200160405180910390a1565b6200010560005462010000900460ff1690565b156200014a5760405162461bcd60e51b815260206004820152601060248201526f14185d5cd8589b194e881c185d5cd95960821b604482015260640160405180910390fd5b565b6000602082840312156200015f57600080fd5b81516001600160a01b03811681146200017757600080fd5b9392505050565b60805160a05160c05160e051610100516118ff620001d860003960006108cb015260006108a20152600061087901526000818161036f01526105040152600081816101370152818161025701526104d701526118ff6000f3fe6080604052600436106100f75760003560e01c8063927ede2d1161008a578063bfa02ba911610059578063bfa02ba9146102dc578063e4821eb414610309578063ee99205c14610329578063f81e02a71461035d57600080fd5b8063927ede2d1461024557806396091ba1146102795780639d888e8614610299578063b00f376d146102af57600080fd5b806356002467116100c657806356002467146101c35780635c975abb146101e357806373452a921461020c5780638456cb591461023057600080fd5b80633135cb9a146101085780633cb747bf14610128578063485cc9551461018157806354fd4d50146101a157600080fd5b3661010357600080fd5b005b600080fd5b34801561011457600080fd5b506101016101233660046112fa565b610391565b34801561013457600080fd5b507f00000000000000000000000000000000000000000000000000000000000000005b60405173ffffffffffffffffffffffffffffffffffffffff90911681526020015b60405180910390f35b34801561018d57600080fd5b5061010161019c366004611408565b610567565b3480156101ad57600080fd5b506101b6610872565b60405161017891906114b5565b3480156101cf57600080fd5b506101b66101de3660046114cf565b610915565b3480156101ef57600080fd5b5060005462010000900460ff166040519015158152602001610178565b34801561021857600080fd5b5061022260035481565b604051908152602001610178565b34801561023c57600080fd5b50610101610a18565b34801561025157600080fd5b506101577f000000000000000000000000000000000000000000000000000000000000000081565b34801561028557600080fd5b506101b66102943660046114cf565b610ab2565b3480156102a557600080fd5b5061022260025481565b3480156102bb57600080fd5b506102226102ca3660046114f1565b60009081526004602052604090205490565b3480156102e857600080fd5b506001546101579073ffffffffffffffffffffffffffffffffffffffff1681565b34801561031557600080fd5b5061010161032436600461150a565b610b6b565b34801561033557600080fd5b50600054610157906301000000900473ffffffffffffffffffffffffffffffffffffffff1681565b34801561036957600080fd5b506101577f000000000000000000000000000000000000000000000000000000000000000081565b6000546301000000900473ffffffffffffffffffffffffffffffffffffffff16331461041e576040517f08c379a000000000000000000000000000000000000000000000000000000000815260206004820152601560248201527f6f6e6c79207374616b696e6720636f6e7472616374000000000000000000000060448201526064015b60405180910390fd5b61042782610bfd565b60005462010000900460ff161561049a576040517f08c379a000000000000000000000000000000000000000000000000000000000815260206004820152601a60248201527f73656e64206d657373616765207768656e20756e7061757365640000000000006044820152606401610415565b6040517f3dbb202b00000000000000000000000000000000000000000000000000000000815273ffffffffffffffffffffffffffffffffffffffff7f00000000000000000000000000000000000000000000000000000000000000001690633dbb202b90610530907f000000000000000000000000000000000000000000000000000000000000000090879086906004016115ce565b600060405180830381600087803b15801561054a57600080fd5b505af115801561055e573d6000803e3d6000fd5b50505050505050565b600054610100900460ff16158080156105875750600054600160ff909116105b806105a15750303b1580156105a1575060005460ff166001145b61062d576040517f08c379a000000000000000000000000000000000000000000000000000000000815260206004820152602e60248201527f496e697469616c697a61626c653a20636f6e747261637420697320616c72656160448201527f647920696e697469616c697a65640000000000000000000000000000000000006064820152608401610415565b600080547fffffffffffffffffffffffffffffffffffffffffffffffffffffffffffffff00166001179055801561068b57600080547fffffffffffffffffffffffffffffffffffffffffffffffffffffffffffff00ff166101001790555b73ffffffffffffffffffffffffffffffffffffffff8316610708576040517f08c379a000000000000000000000000000000000000000000000000000000000815260206004820152601860248201527f696e76616c6964207374616b696e6720636f6e747261637400000000000000006044820152606401610415565b73ffffffffffffffffffffffffffffffffffffffff8216610785576040517f08c379a000000000000000000000000000000000000000000000000000000000815260206004820152601760248201527f696e76616c696420726f6c6c757020636f6e74726163740000000000000000006044820152606401610415565b600080547fffffffffffffffffff0000000000000000000000000000000000000000ffffff16630100000073ffffffffffffffffffffffffffffffffffffffff8681169190910291909117909155600180547fffffffffffffffffffffffff00000000000000000000000000000000000000001691841691909117905561080a610cbd565b801561086d57600080547fffffffffffffffffffffffffffffffffffffffffffffffffffffffffffff00ff169055604051600181527f7f26b83ff96e1f2b6a682f133852f6798a09c465da95921460cefb38474024989060200160405180910390a15b505050565b606061089d7f0000000000000000000000000000000000000000000000000000000000000000610d44565b6108c67f0000000000000000000000000000000000000000000000000000000000000000610d44565b6108ef7f0000000000000000000000000000000000000000000000000000000000000000610d44565b60405160200161090193929190611613565b604051602081830303815290604052905090565b600082815260046020526040902054606090801580159061094057508061093d8460016116b8565b11155b15610a00576000848152600460205260409020805484908110610965576109656116d0565b90600052602060002001805461097a906116ff565b80601f01602080910402602001604051908101604052809291908181526020018280546109a6906116ff565b80156109f35780601f106109c8576101008083540402835291602001916109f3565b820191906000526020600020905b8154815290600101906020018083116109d657829003601f168201915b5050505050915050610a12565b50506040805160208101909152600081525b92915050565b6000546301000000900473ffffffffffffffffffffffffffffffffffffffff163314610aa0576040517f08c379a000000000000000000000000000000000000000000000000000000000815260206004820152601560248201527f6f6e6c79207374616b696e6720636f6e747261637400000000000000000000006044820152606401610415565b610aa8610e02565b610ab0610cbd565b565b60046020528160005260406000208181548110610ace57600080fd5b90600052602060002001600091509150508054610aea906116ff565b80601f0160208091040260200160405190810160405280929190818152602001828054610b16906116ff565b8015610b635780601f10610b3857610100808354040283529160200191610b63565b820191906000526020600020905b815481529060010190602001808311610b4657829003601f168201915b505050505081565b60015473ffffffffffffffffffffffffffffffffffffffff163314610bec576040517f08c379a000000000000000000000000000000000000000000000000000000000815260206004820152601460248201527f6f6e6c7920726f6c6c757020636f6e74726163740000000000000000000000006044820152606401610415565b610bf4610e02565b61086d83610e75565b600354600003610c0f57610c0f610f28565b60005462010000900460ff1615610c82576040517f08c379a000000000000000000000000000000000000000000000000000000000815260206004820152601a60248201527f73656e64206d657373616765207768656e20756e7061757365640000000000006044820152606401610415565b60038054906000610c9283611752565b909155505060035460009081526004602090815260409091208251610cb9928401906110d3565b5050565b610cc5610e02565b600080547fffffffffffffffffffffffffffffffffffffffffffffffffffffffffff00ffff16620100001790557f62e78cea01bee320cd4e420270b5ea74000d11b0c9f74754ebdbfc544b05a258610d1a3390565b60405173ffffffffffffffffffffffffffffffffffffffff909116815260200160405180910390a1565b60606000610d5183610f7f565b600101905060008167ffffffffffffffff811115610d7157610d716111b1565b6040519080825280601f01601f191660200182016040528015610d9b576020820181803683370190505b5090508181016020015b7fffffffffffffffffffffffffffffffffffffffffffffffffffffffffffffffff017f3031323334353637383961626364656600000000000000000000000000000000600a86061a8153600a8504945084610da557509392505050565b60005462010000900460ff1615610ab0576040517f08c379a000000000000000000000000000000000000000000000000000000000815260206004820152601060248201527f5061757361626c653a20706175736564000000000000000000000000000000006044820152606401610415565b6002548110158015610e8957506003548111155b610eef576040517f08c379a000000000000000000000000000000000000000000000000000000000815260206004820152600f60248201527f696e76616c69642076657273696f6e00000000000000000000000000000000006044820152606401610415565b60015b818111610f22576000818152600460205260408120610f1091611129565b80610f1a81611752565b915050610ef2565b50600255565b610f30611061565b600080547fffffffffffffffffffffffffffffffffffffffffffffffffffffffffff00ffff1690557f5db9ee0a495bf2e6ff9c91a7834c1ba4fdd244a5e8aa4e537bd38aeae4b073aa33610d1a565b6000807a184f03e93ff9f4daa797ed6e38ed64bf6a1f0100000000000000008310610fc8577a184f03e93ff9f4daa797ed6e38ed64bf6a1f010000000000000000830492506040015b6d04ee2d6d415b85acef81000000008310610ff4576d04ee2d6d415b85acef8100000000830492506020015b662386f26fc10000831061101257662386f26fc10000830492506010015b6305f5e100831061102a576305f5e100830492506008015b612710831061103e57612710830492506004015b60648310611050576064830492506002015b600a8310610a125760010192915050565b60005462010000900460ff16610ab0576040517f08c379a000000000000000000000000000000000000000000000000000000000815260206004820152601460248201527f5061757361626c653a206e6f74207061757365640000000000000000000000006044820152606401610415565b828054828255906000526020600020908101928215611119579160200282015b82811115611119578251829061110990826117d8565b50916020019190600101906110f3565b5061112592915061114a565b5090565b5080546000825590600052602060002090810190611147919061114a565b50565b8082111561112557600061115e8282611167565b5060010161114a565b508054611173906116ff565b6000825580601f10611183575050565b601f01602090049060005260206000209081019061114791905b80821115611125576000815560010161119d565b7f4e487b7100000000000000000000000000000000000000000000000000000000600052604160045260246000fd5b604051601f82017fffffffffffffffffffffffffffffffffffffffffffffffffffffffffffffffe016810167ffffffffffffffff81118282101715611227576112276111b1565b604052919050565b600082601f83011261124057600080fd5b813567ffffffffffffffff81111561125a5761125a6111b1565b61128b60207fffffffffffffffffffffffffffffffffffffffffffffffffffffffffffffffe0601f840116016111e0565b8181528460208386010111156112a057600080fd5b816020850160208301376000918101602001919091529392505050565b600067ffffffffffffffff8211156112d7576112d76111b1565b5060051b60200190565b803563ffffffff811681146112f557600080fd5b919050565b60008060006060848603121561130f57600080fd5b833567ffffffffffffffff8082111561132757600080fd5b6113338783880161122f565b945060209150818601358181111561134a57600080fd5b8601601f8101881361135b57600080fd5b803561136e611369826112bd565b6111e0565b81815260059190911b8201840190848101908a83111561138d57600080fd5b8584015b838110156113c5578035868111156113a95760008081fd5b6113b78d898389010161122f565b845250918601918601611391565b508097505050505050506113db604085016112e1565b90509250925092565b803573ffffffffffffffffffffffffffffffffffffffff811681146112f557600080fd5b6000806040838503121561141b57600080fd5b611424836113e4565b9150611432602084016113e4565b90509250929050565b60005b8381101561145657818101518382015260200161143e565b83811115611465576000848401525b50505050565b6000815180845261148381602086016020860161143b565b601f017fffffffffffffffffffffffffffffffffffffffffffffffffffffffffffffffe0169290920160200192915050565b6020815260006114c8602083018461146b565b9392505050565b600080604083850312156114e257600080fd5b50508035926020909101359150565b60006020828403121561150357600080fd5b5035919050565b60008060006060848603121561151f57600080fd5b8335925060208085013567ffffffffffffffff8082111561153f57600080fd5b818701915087601f83011261155357600080fd5b8135611561611369826112bd565b81815260059190911b8301840190848101908a83111561158057600080fd5b938501935b8285101561159e57843582529385019390850190611585565b9650505060408701359250808311156115b657600080fd5b50506115c48682870161122f565b9150509250925092565b73ffffffffffffffffffffffffffffffffffffffff841681526060602082015260006115fd606083018561146b565b905063ffffffff83166040830152949350505050565b6000845161162581846020890161143b565b80830190507f2e000000000000000000000000000000000000000000000000000000000000008082528551611661816001850160208a0161143b565b6001920191820152835161167c81600284016020880161143b565b0160020195945050505050565b7f4e487b7100000000000000000000000000000000000000000000000000000000600052601160045260246000fd5b600082198211156116cb576116cb611689565b500190565b7f4e487b7100000000000000000000000000000000000000000000000000000000600052603260045260246000fd5b600181811c9082168061171357607f821691505b60208210810361174c577f4e487b7100000000000000000000000000000000000000000000000000000000600052602260045260246000fd5b50919050565b60007fffffffffffffffffffffffffffffffffffffffffffffffffffffffffffffffff820361178357611783611689565b5060010190565b601f82111561086d57600081815260208120601f850160051c810160208610156117b15750805b601f850160051c820191505b818110156117d0578281556001016117bd565b505050505050565b815167ffffffffffffffff8111156117f2576117f26111b1565b6118068161180084546116ff565b8461178a565b602080601f83116001811461185957600084156118235750858301515b7fffffffffffffffffffffffffffffffffffffffffffffffffffffffffffffffff600386901b1c1916600185901b1785556117d0565b6000858152602081207fffffffffffffffffffffffffffffffffffffffffffffffffffffffffffffffe08616915b828110156118a657888601518255948401946001909101908401611887565b50858210156118e257878501517fffffffffffffffffffffffffffffffffffffffffffffffffffffffffffffffff600388901b60f8161c191681555b5050505050600190811b0190555056fea164736f6c634300080f000a",
  "linkReferences": {},
  "deployedLinkReferences": {}
}