{
  "_format": "hh-sol-artifact-1",
  "contractName": "MorphismPortal",
  "sourceName": "contracts/L1/MorphismPortal.sol",
  "abi": [
    {
      "inputs": [
        {
          "internalType": "address",
          "name": "_guardian",
          "type": "address"
        },
        {
          "internalType": "bool",
          "name": "_paused",
          "type": "bool"
        },
        {
          "internalType": "contract SystemConfig",
          "name": "_config",
          "type": "address"
        },
        {
          "internalType": "contract Rollup",
          "name": "_rollup",
          "type": "address"
        },
        {
          "internalType": "address",
          "name": "_l1Messenger",
          "type": "address"
        }
      ],
      "stateMutability": "nonpayable",
      "type": "constructor"
    },
    {
      "anonymous": false,
      "inputs": [
        {
          "indexed": false,
          "internalType": "uint256",
          "name": "startIndex",
          "type": "uint256"
        },
        {
          "indexed": false,
          "internalType": "uint256",
          "name": "count",
          "type": "uint256"
        },
        {
          "indexed": false,
          "internalType": "uint256",
          "name": "skippedBitmap",
          "type": "uint256"
        }
      ],
      "name": "DequeueTransaction",
      "type": "event"
    },
    {
      "anonymous": false,
      "inputs": [
        {
          "indexed": false,
          "internalType": "uint256",
          "name": "index",
          "type": "uint256"
        }
      ],
      "name": "DropTransaction",
      "type": "event"
    },
    {
      "anonymous": false,
      "inputs": [
        {
          "indexed": false,
          "internalType": "uint8",
          "name": "version",
          "type": "uint8"
        }
      ],
      "name": "Initialized",
      "type": "event"
    },
    {
      "anonymous": false,
      "inputs": [
        {
          "indexed": false,
          "internalType": "address",
          "name": "account",
          "type": "address"
        }
      ],
      "name": "Paused",
      "type": "event"
    },
    {
      "anonymous": false,
      "inputs": [
        {
          "indexed": true,
          "internalType": "address",
          "name": "sender",
          "type": "address"
        },
        {
          "indexed": true,
          "internalType": "address",
          "name": "target",
          "type": "address"
        },
        {
          "indexed": false,
          "internalType": "uint256",
          "name": "value",
          "type": "uint256"
        },
        {
          "indexed": false,
          "internalType": "uint64",
          "name": "queueIndex",
          "type": "uint64"
        },
        {
          "indexed": false,
          "internalType": "uint256",
          "name": "gasLimit",
          "type": "uint256"
        },
        {
          "indexed": false,
          "internalType": "bytes",
          "name": "data",
          "type": "bytes"
        }
      ],
      "name": "QueueTransaction",
      "type": "event"
    },
    {
      "anonymous": false,
      "inputs": [
        {
          "indexed": true,
          "internalType": "address",
          "name": "from",
          "type": "address"
        },
        {
          "indexed": true,
          "internalType": "address",
          "name": "to",
          "type": "address"
        },
        {
          "indexed": true,
          "internalType": "uint256",
          "name": "version",
          "type": "uint256"
        },
        {
          "indexed": false,
          "internalType": "bytes",
          "name": "opaqueData",
          "type": "bytes"
        }
      ],
      "name": "TransactionDeposited",
      "type": "event"
    },
    {
      "anonymous": false,
      "inputs": [
        {
          "indexed": false,
          "internalType": "address",
          "name": "account",
          "type": "address"
        }
      ],
      "name": "Unpaused",
      "type": "event"
    },
    {
      "anonymous": false,
      "inputs": [
        {
          "indexed": true,
          "internalType": "bytes32",
          "name": "withdrawalHash",
          "type": "bytes32"
        },
        {
          "indexed": false,
          "internalType": "bool",
          "name": "success",
          "type": "bool"
        }
      ],
      "name": "WithdrawalFinalized",
      "type": "event"
    },
    {
      "anonymous": false,
      "inputs": [
        {
          "indexed": true,
          "internalType": "bytes32",
          "name": "withdrawalHash",
          "type": "bytes32"
        },
        {
          "indexed": true,
          "internalType": "address",
          "name": "from",
          "type": "address"
        },
        {
          "indexed": true,
          "internalType": "address",
          "name": "to",
          "type": "address"
        }
      ],
      "name": "WithdrawalProven",
      "type": "event"
    },
    {
      "inputs": [],
      "name": "GUARDIAN",
      "outputs": [
        {
          "internalType": "address",
          "name": "",
          "type": "address"
        }
      ],
      "stateMutability": "view",
      "type": "function"
    },
    {
      "inputs": [],
      "name": "SYSTEM_CONFIG",
      "outputs": [
        {
          "internalType": "contract SystemConfig",
          "name": "",
          "type": "address"
        }
      ],
      "stateMutability": "view",
      "type": "function"
    },
    {
      "inputs": [
        {
          "internalType": "address",
          "name": "_sender",
          "type": "address"
        },
        {
          "internalType": "uint256",
          "name": "_queueIndex",
          "type": "uint256"
        },
        {
          "internalType": "uint256",
          "name": "_value",
          "type": "uint256"
        },
        {
          "internalType": "address",
          "name": "_target",
          "type": "address"
        },
        {
          "internalType": "uint256",
          "name": "_gasLimit",
          "type": "uint256"
        },
        {
          "internalType": "bytes",
          "name": "_data",
          "type": "bytes"
        }
      ],
      "name": "computeTransactionHash",
      "outputs": [
        {
          "internalType": "bytes32",
          "name": "",
          "type": "bytes32"
        }
      ],
      "stateMutability": "pure",
      "type": "function"
    },
    {
      "inputs": [
        {
          "internalType": "address",
          "name": "_to",
          "type": "address"
        },
        {
          "internalType": "uint256",
          "name": "_value",
          "type": "uint256"
        },
        {
          "internalType": "uint64",
          "name": "_gasLimit",
          "type": "uint64"
        },
        {
          "internalType": "bool",
          "name": "_isCreation",
          "type": "bool"
        },
        {
          "internalType": "bytes",
          "name": "_data",
          "type": "bytes"
        }
      ],
      "name": "depositTransaction",
      "outputs": [],
      "stateMutability": "payable",
      "type": "function"
    },
    {
      "inputs": [
        {
          "components": [
            {
              "internalType": "uint256",
              "name": "nonce",
              "type": "uint256"
            },
            {
              "internalType": "address",
              "name": "sender",
              "type": "address"
            },
            {
              "internalType": "address",
              "name": "target",
              "type": "address"
            },
            {
              "internalType": "uint256",
              "name": "value",
              "type": "uint256"
            },
            {
              "internalType": "uint256",
              "name": "gasLimit",
              "type": "uint256"
            },
            {
              "internalType": "bytes",
              "name": "data",
              "type": "bytes"
            }
          ],
          "internalType": "struct Types.WithdrawalTransaction",
          "name": "_tx",
          "type": "tuple"
        }
      ],
      "name": "finalizeWithdrawalTransaction",
      "outputs": [],
      "stateMutability": "nonpayable",
      "type": "function"
    },
    {
      "inputs": [
        {
          "internalType": "bytes32",
          "name": "",
          "type": "bytes32"
        }
      ],
      "name": "finalizedWithdrawals",
      "outputs": [
        {
          "internalType": "bool",
          "name": "",
          "type": "bool"
        }
      ],
      "stateMutability": "view",
      "type": "function"
    },
    {
      "inputs": [
        {
          "internalType": "uint256",
          "name": "_queueIndex",
          "type": "uint256"
        }
      ],
      "name": "getCrossDomainMessage",
      "outputs": [
        {
          "internalType": "bytes32",
          "name": "",
          "type": "bytes32"
        }
      ],
      "stateMutability": "view",
      "type": "function"
    },
    {
      "inputs": [
        {
          "internalType": "bool",
          "name": "_paused",
          "type": "bool"
        },
        {
          "internalType": "address",
          "name": "_l1Messenger",
          "type": "address"
        }
      ],
      "name": "initialize",
      "outputs": [],
      "stateMutability": "nonpayable",
      "type": "function"
    },
    {
      "inputs": [
        {
          "internalType": "uint256",
          "name": "_queueIndex",
          "type": "uint256"
        }
      ],
      "name": "isMessageDropped",
      "outputs": [
        {
          "internalType": "bool",
          "name": "",
          "type": "bool"
        }
      ],
      "stateMutability": "view",
      "type": "function"
    },
    {
      "inputs": [
        {
          "internalType": "uint256",
          "name": "_queueIndex",
          "type": "uint256"
        }
      ],
      "name": "isMessageSkipped",
      "outputs": [
        {
          "internalType": "bool",
          "name": "",
          "type": "bool"
        }
      ],
      "stateMutability": "view",
      "type": "function"
    },
    {
      "inputs": [],
      "name": "l1Messenger",
      "outputs": [
        {
          "internalType": "address",
          "name": "",
          "type": "address"
        }
      ],
      "stateMutability": "view",
      "type": "function"
    },
    {
      "inputs": [],
      "name": "l2Sender",
      "outputs": [
        {
          "internalType": "address",
          "name": "",
          "type": "address"
        }
      ],
      "stateMutability": "view",
      "type": "function"
    },
    {
      "inputs": [
        {
          "internalType": "uint256",
          "name": "",
          "type": "uint256"
        }
      ],
      "name": "messageQueue",
      "outputs": [
        {
          "internalType": "bytes32",
          "name": "",
          "type": "bytes32"
        }
      ],
      "stateMutability": "view",
      "type": "function"
    },
    {
      "inputs": [
        {
          "internalType": "uint64",
          "name": "_byteCount",
          "type": "uint64"
        }
      ],
      "name": "minimumGasLimit",
      "outputs": [
        {
          "internalType": "uint64",
          "name": "",
          "type": "uint64"
        }
      ],
      "stateMutability": "pure",
      "type": "function"
    },
    {
      "inputs": [],
      "name": "nextCrossDomainMessageIndex",
      "outputs": [
        {
          "internalType": "uint256",
          "name": "",
          "type": "uint256"
        }
      ],
      "stateMutability": "view",
      "type": "function"
    },
    {
      "inputs": [],
      "name": "params",
      "outputs": [
        {
          "internalType": "uint128",
          "name": "prevBaseFee",
          "type": "uint128"
        },
        {
          "internalType": "uint64",
          "name": "prevBoughtGas",
          "type": "uint64"
        },
        {
          "internalType": "uint64",
          "name": "prevBlockNum",
          "type": "uint64"
        }
      ],
      "stateMutability": "view",
      "type": "function"
    },
    {
      "inputs": [],
      "name": "pause",
      "outputs": [],
      "stateMutability": "nonpayable",
      "type": "function"
    },
    {
      "inputs": [],
      "name": "paused",
      "outputs": [
        {
          "internalType": "bool",
          "name": "",
          "type": "bool"
        }
      ],
      "stateMutability": "view",
      "type": "function"
    },
    {
      "inputs": [],
      "name": "pendingQueueIndex",
      "outputs": [
        {
          "internalType": "uint256",
          "name": "",
          "type": "uint256"
        }
      ],
      "stateMutability": "view",
      "type": "function"
    },
    {
      "inputs": [
        {
          "components": [
            {
              "internalType": "uint256",
              "name": "nonce",
              "type": "uint256"
            },
            {
              "internalType": "address",
              "name": "sender",
              "type": "address"
            },
            {
              "internalType": "address",
              "name": "target",
              "type": "address"
            },
            {
              "internalType": "uint256",
              "name": "value",
              "type": "uint256"
            },
            {
              "internalType": "uint256",
              "name": "gasLimit",
              "type": "uint256"
            },
            {
              "internalType": "bytes",
              "name": "data",
              "type": "bytes"
            }
          ],
          "internalType": "struct Types.WithdrawalTransaction",
          "name": "_tx",
          "type": "tuple"
        },
        {
          "internalType": "bytes32[32]",
          "name": "_withdrawalProof",
          "type": "bytes32[32]"
        },
        {
          "internalType": "bytes32",
          "name": "_withdrawalRoot",
          "type": "bytes32"
        }
      ],
      "name": "proveWithdrawalTransaction",
      "outputs": [],
      "stateMutability": "nonpayable",
      "type": "function"
    },
    {
      "inputs": [
        {
          "internalType": "bytes32",
          "name": "",
          "type": "bytes32"
        }
      ],
      "name": "provenWithdrawals",
      "outputs": [
        {
          "internalType": "bytes32",
          "name": "withdrawalRoot",
          "type": "bytes32"
        },
        {
          "internalType": "uint256",
          "name": "timestamp",
          "type": "uint256"
        },
        {
          "internalType": "uint256",
          "name": "withdrawalIndex",
          "type": "uint256"
        }
      ],
      "stateMutability": "view",
      "type": "function"
    },
    {
      "inputs": [],
      "name": "rollup",
      "outputs": [
        {
          "internalType": "contract Rollup",
          "name": "",
          "type": "address"
        }
      ],
      "stateMutability": "view",
      "type": "function"
    },
    {
      "inputs": [],
      "name": "unpause",
      "outputs": [],
      "stateMutability": "nonpayable",
      "type": "function"
    },
    {
      "inputs": [
        {
          "internalType": "bytes32",
          "name": "leafHash",
          "type": "bytes32"
        },
        {
          "internalType": "bytes32[32]",
          "name": "smtProof",
          "type": "bytes32[32]"
        },
        {
          "internalType": "uint256",
          "name": "index",
          "type": "uint256"
        },
        {
          "internalType": "bytes32",
          "name": "root",
          "type": "bytes32"
        }
      ],
      "name": "verifyMerkleProof",
      "outputs": [
        {
          "internalType": "bool",
          "name": "",
          "type": "bool"
        }
      ],
      "stateMutability": "pure",
      "type": "function"
    },
    {
      "inputs": [],
      "name": "version",
      "outputs": [
        {
          "internalType": "string",
          "name": "",
          "type": "string"
        }
      ],
      "stateMutability": "view",
      "type": "function"
    }
  ],
  "bytecode": "0x6101406040523480156200001257600080fd5b5060405162003d5538038062003d558339810160408190526200003591620002ae565b6001608052600660a052600060c0526001600160a01b038086166101005283811660e0528216610120526200006b848262000076565b505050505062000332565b600054610100900460ff1615808015620000975750600054600160ff909116105b80620000c75750620000b430620001e360201b62001eb21760201c565b158015620000c7575060005460ff166001145b620001305760405162461bcd60e51b815260206004820152602e60248201527f496e697469616c697a61626c653a20636f6e747261637420697320616c72656160448201526d191e481a5b9a5d1a585b1a5e995960921b60648201526084015b60405180910390fd5b6000805460ff19166001179055801562000154576000805461ff0019166101001790555b6036805461dead6001600160a01b031991821617909155603a805460ff1916851515179055603780549091166001600160a01b03841617905562000197620001f2565b8015620001de576000805461ff0019169055604051600181527f7f26b83ff96e1f2b6a682f133852f6798a09c465da95921460cefb38474024989060200160405180910390a15b505050565b6001600160a01b03163b151590565b600054610100900460ff166200025f5760405162461bcd60e51b815260206004820152602b60248201527f496e697469616c697a61626c653a20636f6e7472616374206973206e6f74206960448201526a6e697469616c697a696e6760a81b606482015260840162000127565b60408051606081018252633b9aca0080825260006020830152436001600160401b031691909201819052600160c01b0217600155565b6001600160a01b0381168114620002ab57600080fd5b50565b600080600080600060a08688031215620002c757600080fd5b8551620002d48162000295565b60208701519095508015158114620002eb57600080fd5b6040870151909450620002fe8162000295565b6060870151909350620003118162000295565b6080870151909250620003248162000295565b809150509295509295909350565b60805160a05160c05160e051610100516101205161399b620003ba6000396000818161048a01528181611142015281816112570152818161181f015281816118de01526120c00152600081816102f5015281816107570152610b4d0152600081816105c901526126c7015260006108c0015260006108970152600061086e015261399b6000f3fe6080604052600436106101965760003560e01c80638c3152e9116100e1578063ae453cd51161008a578063e965084c11610064578063e965084c1461054d578063e9e05c42146105a4578063f0498750146105b7578063fd0ad31e146105eb57600080fd5b8063ae453cd514610458578063cb23bcb514610478578063cff0ab96146104ac57600080fd5b8063a14238e7116100bb578063a14238e7146103d9578063a35d99df14610409578063a85006ca1461044257600080fd5b80638c3152e91461036c57806394aeecd51461038c5780639bf62d82146103ac57600080fd5b80635c975abb116101435780637d82191a1161011d5780637d82191a146103175780638456cb591461033757806385ee7ba61461034c57600080fd5b80635c975abb146102775780636140e0e614610291578063724c184c146102e357600080fd5b80633f4ba83a116101745780633f4ba83a1461021e57806354fd4d50146102355780635ad9945a1461025757600080fd5b806329aa604b1461019b578063340735f7146101ce5780633e6dada1146101fe575b600080fd5b3480156101a757600080fd5b506101bb6101b6366004612db4565b610600565b6040519081526020015b60405180910390f35b3480156101da57600080fd5b506101ee6101e9366004612ddf565b610621565b60405190151581526020016101c5565b34801561020a57600080fd5b506101ee610219366004612db4565b6106f5565b34801561022a57600080fd5b5061023361073f565b005b34801561024157600080fd5b5061024a610867565b6040516101c59190612e98565b34801561026357600080fd5b506101bb610272366004612f18565b61090a565b34801561028357600080fd5b50603a546101ee9060ff1681565b34801561029d57600080fd5b506037546102be9073ffffffffffffffffffffffffffffffffffffffff1681565b60405173ffffffffffffffffffffffffffffffffffffffff90911681526020016101c5565b3480156102ef57600080fd5b506102be7f000000000000000000000000000000000000000000000000000000000000000081565b34801561032357600080fd5b506101ee610332366004612db4565b610aff565b34801561034357600080fd5b50610233610b35565b34801561035857600080fd5b50610233610367366004612faa565b610c55565b34801561037857600080fd5b50610233610387366004613181565b610e65565b34801561039857600080fd5b506102336103a73660046131b6565b6115d8565b3480156103b857600080fd5b506036546102be9073ffffffffffffffffffffffffffffffffffffffff1681565b3480156103e557600080fd5b506101ee6103f4366004612db4565b60386020526000908152604090205460ff1681565b34801561041557600080fd5b50610429610424366004613229565b611b1b565b60405167ffffffffffffffff90911681526020016101c5565b34801561044e57600080fd5b506101bb60335481565b34801561046457600080fd5b506101bb610473366004612db4565b611b34565b34801561048457600080fd5b506102be7f000000000000000000000000000000000000000000000000000000000000000081565b3480156104b857600080fd5b50600154610514906fffffffffffffffffffffffffffffffff81169067ffffffffffffffff7001000000000000000000000000000000008204811691780100000000000000000000000000000000000000000000000090041683565b604080516fffffffffffffffffffffffffffffffff909416845267ffffffffffffffff92831660208501529116908201526060016101c5565b34801561055957600080fd5b50610589610568366004612db4565b60396020526000908152604090208054600182015460029092015490919083565b604080519384526020840192909252908201526060016101c5565b6102336105b2366004613246565b611b5b565b3480156105c357600080fd5b506102be7f000000000000000000000000000000000000000000000000000000000000000081565b3480156105f757600080fd5b506032546101bb565b6032818154811061061057600080fd5b600091825260209091200154905081565b600084815b60208110156106e9578085901c60011660010361068c5785816020811061064f5761064f6132c7565b60200201358260405160200161066f929190918252602082015260400190565b6040516020818303038152906040528051906020012091506106d7565b8186826020811061069f5761069f6132c7565b60200201356040516020016106be929190918252602082015260400190565b6040516020818303038152906040528051906020012091505b806106e181613325565b915050610626565b50909114949350505050565b600881901c600090815260356020526040812054600160ff84161b16151580156107395750600882901c600090815260346020526040902054600160ff84161b1615155b92915050565b3373ffffffffffffffffffffffffffffffffffffffff7f00000000000000000000000000000000000000000000000000000000000000001614610809576040517f08c379a000000000000000000000000000000000000000000000000000000000815260206004820152602960248201527f4d6f72706869736d506f7274616c3a206f6e6c7920677561726469616e20636160448201527f6e20756e7061757365000000000000000000000000000000000000000000000060648201526084015b60405180910390fd5b603a80547fffffffffffffffffffffffffffffffffffffffffffffffffffffffffffffff001690556040513381527f5db9ee0a495bf2e6ff9c91a7834c1ba4fdd244a5e8aa4e537bd38aeae4b073aa906020015b60405180910390a1565b60606108927f0000000000000000000000000000000000000000000000000000000000000000611ece565b6108bb7f0000000000000000000000000000000000000000000000000000000000000000611ece565b6108e47f0000000000000000000000000000000000000000000000000000000000000000611ece565b6040516020016108f69392919061335d565b604051602081830303815290604052905090565b6000607e816109b6565b60008161092357506001919050565b5b81156109395760089190911c90600101610924565b919050565b8060808310600181146109765761095484610914565b60808101835360018301925084816020036008021b8352808301925050610997565b848415166001811461098a5784835361098f565b608083535b506001820191505b509392505050565b806094815360609290921b60018301525060150190565b600560405101806109c960018c8361093e565b90506109d76001898361093e565b90506109e3898261099f565b90506109f160018b8361093e565b90506001861460018114610a59576038871060018114610a3e57610a1488610914565b8060b701845360018401935088816020036008021b84528084019350508789843791870191610a53565b87608001835360018301925087898437918701915b50610a6c565b610a696000893560001a8461093e565b91505b50610a778c8261099f565b90508181036000806038831060018114610aab57610a9484610914565b60f78101600882021b851793506001019150610ab6565b8360c0019250600191505b5086816008021b821791506001810190508060080292508451831c8284610100031b17915080850394505080845250508181038220925050508092505050979650505050505050565b60006033548210610b1257506000919050565b600882901c600090815260356020526040902054600160ff84161b161515610739565b3373ffffffffffffffffffffffffffffffffffffffff7f00000000000000000000000000000000000000000000000000000000000000001614610bfa576040517f08c379a000000000000000000000000000000000000000000000000000000000815260206004820152602760248201527f4d6f72706869736d506f7274616c3a206f6e6c7920677561726469616e20636160448201527f6e207061757365000000000000000000000000000000000000000000000000006064820152608401610800565b603a80547fffffffffffffffffffffffffffffffffffffffffffffffffffffffffffffff001660011790556040513381527f62e78cea01bee320cd4e420270b5ea74000d11b0c9f74754ebdbfc544b05a2589060200161085d565b600054610100900460ff1615808015610c755750600054600160ff909116105b80610c8f5750303b158015610c8f575060005460ff166001145b610d1b576040517f08c379a000000000000000000000000000000000000000000000000000000000815260206004820152602e60248201527f496e697469616c697a61626c653a20636f6e747261637420697320616c72656160448201527f647920696e697469616c697a65640000000000000000000000000000000000006064820152608401610800565b600080547fffffffffffffffffffffffffffffffffffffffffffffffffffffffffffffff001660011790558015610d7957600080547fffffffffffffffffffffffffffffffffffffffffffffffffffffffffffff00ff166101001790555b6036805461dead7fffffffffffffffffffffffff000000000000000000000000000000000000000091821617909155603a80547fffffffffffffffffffffffffffffffffffffffffffffffffffffffffffffff00168515151790556037805490911673ffffffffffffffffffffffffffffffffffffffff8416179055610dfd611f8c565b8015610e6057600080547fffffffffffffffffffffffffffffffffffffffffffffffffffffffffffff00ff169055604051600181527f7f26b83ff96e1f2b6a682f133852f6798a09c465da95921460cefb38474024989060200160405180910390a15b505050565b603a5460ff1615610ed2576040517f08c379a000000000000000000000000000000000000000000000000000000000815260206004820152601660248201527f4d6f72706869736d506f7274616c3a20706175736564000000000000000000006044820152606401610800565b60365473ffffffffffffffffffffffffffffffffffffffff1661dead14610f7b576040517f08c379a000000000000000000000000000000000000000000000000000000000815260206004820152603f60248201527f4d6f72706869736d506f7274616c3a2063616e206f6e6c79207472696767657260448201527f206f6e65207769746864726177616c20706572207472616e73616374696f6e006064820152608401610800565b6000610f868261206f565b6000818152603960209081526040808320815160608101835281548152600182015493810184905260029091015491810191909152929350900361104c576040517f08c379a000000000000000000000000000000000000000000000000000000000815260206004820152603260248201527f4d6f72706869736d506f7274616c3a207769746864726177616c20686173206e60448201527f6f74206265656e2070726f76656e2079657400000000000000000000000000006064820152608401610800565b61105981602001516120bc565b61110b576040517f08c379a000000000000000000000000000000000000000000000000000000000815260206004820152604560248201527f4d6f72706869736d506f7274616c3a2070726f76656e2077697468647261776160448201527f6c2066696e616c697a6174696f6e20706572696f6420686173206e6f7420656c60648201527f6170736564000000000000000000000000000000000000000000000000000000608482015260a401610800565b80516040517f04d77215000000000000000000000000000000000000000000000000000000008152600481019190915260009081907f000000000000000000000000000000000000000000000000000000000000000073ffffffffffffffffffffffffffffffffffffffff16906304d77215906024016040805180830381865afa15801561119d573d6000803e3d6000fd5b505050506040513d601f19601f820116820180604052508101906111c191906133d3565b9150915060008111611255576040517f08c379a000000000000000000000000000000000000000000000000000000000815260206004820152602c60248201527f4d6f72706869736d506f7274616c3a20646f206e6f74207375626d697420776960448201527f746864726177616c526f6f7400000000000000000000000000000000000000006064820152608401610800565b7f000000000000000000000000000000000000000000000000000000000000000073ffffffffffffffffffffffffffffffffffffffff16631efc1b536040518163ffffffff1660e01b8152600401602060405180830381865afa1580156112c0573d6000803e3d6000fd5b505050506040513d601f19601f820116820180604052508101906112e49190613401565b67ffffffffffffffff168267ffffffffffffffff161115611387576040517f08c379a000000000000000000000000000000000000000000000000000000000815260206004820152603960248201527f4d6f72706869736d506f7274616c3a2062617463682066696e616c697a61746960448201527f6f6e20706572696f6420686173206e6f7420656c6170736564000000000000006064820152608401610800565b60008481526038602052604090205460ff1615611426576040517f08c379a000000000000000000000000000000000000000000000000000000000815260206004820152603560248201527f4d6f72706869736d506f7274616c3a207769746864726177616c20686173206160448201527f6c7265616479206265656e2066696e616c697a656400000000000000000000006064820152608401610800565b600084815260386020908152604080832080547fffffffffffffffffffffffffffffffffffffffffffffffffffffffffffffff00166001179055908701516036805473ffffffffffffffffffffffffffffffffffffffff9092167fffffffffffffffffffffffff00000000000000000000000000000000000000009092169190911790558601516080870151606088015160a08901516114c89392919061215f565b603680547fffffffffffffffffffffffff00000000000000000000000000000000000000001661dead17905560405190915085907fdb5c7652857aa163daadd670e116628fb42e869d8ac4251ef8971d9e5727df1b9061152d90841515815260200190565b60405180910390a2801580156115435750326001145b156115d0576040517f08c379a000000000000000000000000000000000000000000000000000000000815260206004820152602160248201527f4d6f72706869736d506f7274616c3a207769746864726177616c206661696c6560448201527f64000000000000000000000000000000000000000000000000000000000000006064820152608401610800565b505050505050565b603a5460ff1615611645576040517f08c379a000000000000000000000000000000000000000000000000000000000815260206004820152601660248201527f4d6f72706869736d506f7274616c3a20706175736564000000000000000000006044820152606401610800565b3073ffffffffffffffffffffffffffffffffffffffff16836040015173ffffffffffffffffffffffffffffffffffffffff1603611704576040517f08c379a000000000000000000000000000000000000000000000000000000000815260206004820152603f60248201527f4d6f72706869736d506f7274616c3a20796f752063616e6e6f742073656e642060448201527f6d6573736167657320746f2074686520706f7274616c20636f6e7472616374006064820152608401610800565b600061170f8461206f565b60008181526039602090815260409182902082516060810184528154815260018201549281018390526002909101549281019290925291925090156117d6576040517f08c379a000000000000000000000000000000000000000000000000000000000815260206004820152603760248201527f4d6f72706869736d506f7274616c3a207769746864726177616c20686173682060448201527f68617320616c7265616479206265656e2070726f76656e0000000000000000006064820152608401610800565b6040517f04d7721500000000000000000000000000000000000000000000000000000000815260048101849052600090819073ffffffffffffffffffffffffffffffffffffffff7f000000000000000000000000000000000000000000000000000000000000000016906304d77215906024016040805180830381865afa158015611865573d6000803e3d6000fd5b505050506040513d601f19601f8201168201806040525081019061188991906133d3565b6040517fe291c2f500000000000000000000000000000000000000000000000000000000815267ffffffffffffffff83166004820152919350915060009073ffffffffffffffffffffffffffffffffffffffff7f0000000000000000000000000000000000000000000000000000000000000000169063e291c2f59060240160a060405180830381865afa158015611925573d6000803e3d6000fd5b505050506040513d601f19601f82011682018060405250810190611949919061341e565b945050505050818114801561195e5750600082115b6119ea576040517f08c379a000000000000000000000000000000000000000000000000000000000815260206004820152602c60248201527f4d6f72706869736d506f7274616c3a20646f206e6f74207375626d697420776960448201527f746864726177616c526f6f7400000000000000000000000000000000000000006064820152608401610800565b6119fa85888a6000015189610621565b611a86576040517f08c379a000000000000000000000000000000000000000000000000000000000815260206004820152603260248201527f4d6f72706869736d506f7274616c3a20696e76616c696420776974686472617760448201527f616c20696e636c7573696f6e2070726f6f6600000000000000000000000000006064820152608401610800565b604080516060810182528781524260208083019182528b5183850190815260008a8152603983528581209451855592516001850155516002909301929092558a830151918b0151925173ffffffffffffffffffffffffffffffffffffffff928316939092169188917f67a6208cfcc0801d50f6cbe764733f4fddf66ac0b04442061a8a8c0cb6b63f6291a45050505050505050565b6000611b28826010613467565b61073990615208613497565b600060328281548110611b4957611b496132c7565b90600052602060002001549050919050565b8360005a60375490915073ffffffffffffffffffffffffffffffffffffffff163314611c09576040517f08c379a000000000000000000000000000000000000000000000000000000000815260206004820152602260248201527f6d657373656e67657220636f6e747261637420756e61757468656e746963617460448201527f65640000000000000000000000000000000000000000000000000000000000006064820152608401610800565b8415611cb55773ffffffffffffffffffffffffffffffffffffffff881615611cb557604080517f08c379a00000000000000000000000000000000000000000000000000000000081526020600482015260248101919091527f4d6f72706869736d506f7274616c3a206d7573742073656e6420746f2061646460448201527f72657373283029207768656e206372656174696e67206120636f6e74726163746064820152608401610800565b611cbe83611b1b565b67ffffffffffffffff168667ffffffffffffffff161015611d61576040517f08c379a000000000000000000000000000000000000000000000000000000000815260206004820152602360248201527f4d6f72706869736d506f7274616c3a20676173206c696d697420746f6f20736d60448201527f616c6c00000000000000000000000000000000000000000000000000000000006064820152608401610800565b6201d4c0831115611dce576040517f08c379a000000000000000000000000000000000000000000000000000000000815260206004820152601e60248201527f4d6f72706869736d506f7274616c3a206461746120746f6f206c6172676500006044820152606401610800565b33328114611def575033731111000000000000000000000000000000001111015b611e07818a8a8a67ffffffffffffffff1689896121bd565b6000348989898989604051602001611e24969594939291906134c3565b604051602081830303815290604052905060008a73ffffffffffffffffffffffffffffffffffffffff168373ffffffffffffffffffffffffffffffffffffffff167fb3813568d9991fc951961fcb4c784893574240a28925604d09fc577c55bb7c3284604051611e949190612e98565b60405180910390a45050611ea88282612270565b5050505050505050565b73ffffffffffffffffffffffffffffffffffffffff163b151590565b60606000611edb83612593565b600101905060008167ffffffffffffffff811115611efb57611efb612fdd565b6040519080825280601f01601f191660200182016040528015611f25576020820181803683370190505b5090508181016020015b7fffffffffffffffffffffffffffffffffffffffffffffffffffffffffffffffff017f3031323334353637383961626364656600000000000000000000000000000000600a86061a8153600a8504945084611f2f57509392505050565b600054610100900460ff16612023576040517f08c379a000000000000000000000000000000000000000000000000000000000815260206004820152602b60248201527f496e697469616c697a61626c653a20636f6e7472616374206973206e6f74206960448201527f6e697469616c697a696e670000000000000000000000000000000000000000006064820152608401610800565b60408051606081018252633b9aca00808252600060208301524367ffffffffffffffff169190920181905278010000000000000000000000000000000000000000000000000217600155565b80516020808301516040808501516060860151608087015160a0880151935160009761209f97909695910161354b565b604051602081830303815290604052805190602001209050919050565b60007f000000000000000000000000000000000000000000000000000000000000000073ffffffffffffffffffffffffffffffffffffffff1663f4daa2916040518163ffffffff1660e01b8152600401602060405180830381865afa158015612129573d6000803e3d6000fd5b505050506040513d601f19601f8201168201806040525081019061214d91906135a2565b61215790836135bb565b421192915050565b600080600061216f866000612675565b9050806121a5576308c379a06000526020805278185361666543616c6c3a204e6f7420656e6f756768206761736058526064601cfd5b600080855160208701888b5af1979650505050505050565b60325460006121d18883888a89898961090a565b603280546001810182556000919091527f11df491316f14931039edfd4f8964c9a443b862f02d4c7611d18c2bc4e6ff6970181905560405190915073ffffffffffffffffffffffffffffffffffffffff80891691908a16907f69cfcb8e6d4192b8aba9902243912587f37e550d75c1fa801491fce26717f37e9061225e908a9087908b908b908b906135d3565b60405180910390a35050505050505050565b6001546000906122a6907801000000000000000000000000000000000000000000000000900467ffffffffffffffff164361363f565b905060006122b2612693565b90506000816020015160ff16826000015163ffffffff166122d39190613656565b9050821561240a5760015460009061230a908390700100000000000000000000000000000000900467ffffffffffffffff166136be565b90506000836040015160ff16836123219190613732565b6001546123419084906fffffffffffffffffffffffffffffffff16613732565b61234b9190613656565b60015490915060009061239c906123759084906fffffffffffffffffffffffffffffffff166137ee565b866060015163ffffffff168760a001516fffffffffffffffffffffffffffffffff16612759565b905060018611156123cb576123c861237582876040015160ff1660018a6123c3919061363f565b612776565b90505b6fffffffffffffffffffffffffffffffff16780100000000000000000000000000000000000000000000000067ffffffffffffffff4316021760015550505b6001805486919060109061243d908490700100000000000000000000000000000000900467ffffffffffffffff16613497565b92506101000a81548167ffffffffffffffff021916908367ffffffffffffffff160217905550816000015163ffffffff16600160000160109054906101000a900467ffffffffffffffff1667ffffffffffffffff161315612520576040517f08c379a000000000000000000000000000000000000000000000000000000000815260206004820152603e60248201527f5265736f757263654d65746572696e673a2063616e6e6f7420627579206d6f7260448201527f6520676173207468616e20617661696c61626c6520676173206c696d697400006064820152608401610800565b60015460009061254c906fffffffffffffffffffffffffffffffff1667ffffffffffffffff8816613862565b9050600061255e48633b9aca006127cb565b612568908361389f565b905060005a612577908861363f565b905080821115611ea857611ea861258e828461363f565b6127e3565b6000807a184f03e93ff9f4daa797ed6e38ed64bf6a1f01000000000000000083106125dc577a184f03e93ff9f4daa797ed6e38ed64bf6a1f010000000000000000830492506040015b6d04ee2d6d415b85acef81000000008310612608576d04ee2d6d415b85acef8100000000830492506020015b662386f26fc10000831061262657662386f26fc10000830492506010015b6305f5e100831061263e576305f5e100830492506008015b612710831061265257612710830492506004015b60648310612664576064830492506002015b600a83106107395760010192915050565b600080603f83619c4001026040850201603f5a021015949350505050565b6040805160c081018252600080825260208201819052918101829052606081018290526080810182905260a08101919091527f000000000000000000000000000000000000000000000000000000000000000073ffffffffffffffffffffffffffffffffffffffff1663cc731b026040518163ffffffff1660e01b815260040160c060405180830381865afa158015612730573d6000803e3d6000fd5b505050506040513d601f19601f8201168201806040525081019061275491906138d8565b905090565b600061276e612768858561280c565b8361281b565b949350505050565b6000670de0b6b3a76400006127b761278e8583613656565b6127a090670de0b6b3a76400006136be565b6127b285670de0b6b3a7640000613732565b61282a565b6127c19086613732565b61276e9190613656565b60008183116127da57816127dc565b825b9392505050565b6000805a90505b825a6127f6908361363f565b1015610e605761280582613325565b91506127ea565b60008183136127da57816127dc565b60008183126127da57816127dc565b60006127dc670de0b6b3a7640000836128428661285b565b61284c9190613732565b6128569190613656565b612a9f565b60008082136128c6576040517f08c379a000000000000000000000000000000000000000000000000000000000815260206004820152600960248201527f554e444546494e454400000000000000000000000000000000000000000000006044820152606401610800565b600060606128d384612cde565b03609f8181039490941b90931c6c465772b2bbbb5f824b15207a3081018102606090811d6d0388eaa27412d5aca026815d636e018202811d6d0df99ac502031bf953eff472fdcc018202811d6d13cdffb29d51d99322bdff5f2211018202811d6d0a0f742023def783a307a986912e018202811d6d01920d8043ca89b5239253284e42018202811d6c0b7a86d7375468fac667a0a527016c29508e458543d8aa4df2abee7883018302821d6d0139601a2efabe717e604cbb4894018302821d6d02247f7a7b6594320649aa03aba1018302821d7fffffffffffffffffffffffffffffffffffffff73c0c716a594e00d54e3c4cbc9018302821d7ffffffffffffffffffffffffffffffffffffffdc7b88c420e53a9890533129f6f01830290911d7fffffffffffffffffffffffffffffffffffffff465fda27eb4d63ded474e5f832019091027ffffffffffffffff5f6af8f7b3396644f18e157960000000000000000000000000105711340daa0d5f769dba1915cef59f0815a5506027d0267a36c0c95b3975ab3ee5b203a7614a3f75373f047d803ae7b6687f2b393909302929092017d57115e47018c7177eebf7cd370a3356a1b7863008a5ae8028c72b88642840160ae1d92915050565b60007ffffffffffffffffffffffffffffffffffffffffffffffffdb731c958f34d94c18213612ad057506000919050565b680755bf798b4a1bf1e58212612b42576040517f08c379a000000000000000000000000000000000000000000000000000000000815260206004820152600c60248201527f4558505f4f564552464c4f5700000000000000000000000000000000000000006044820152606401610800565b6503782dace9d9604e83901b059150600060606bb17217f7d1cf79abc9e3b39884821b056b80000000000000000000000001901d6bb17217f7d1cf79abc9e3b39881029093037fffffffffffffffffffffffffffffffffffffffdbf3ccf1604d263450f02a550481018102606090811d6d0277594991cfc85f6e2461837cd9018202811d7fffffffffffffffffffffffffffffffffffffe5adedaa1cb095af9e4da10e363c018202811d6db1bbb201f443cf962f1a1d3db4a5018202811d7ffffffffffffffffffffffffffffffffffffd38dc772608b0ae56cce01296c0eb018202811d6e05180bb14799ab47a8a8cb2a527d57016d02d16720577bd19bf614176fe9ea6c10fe68e7fd37d0007b713f765084018402831d9081019084017ffffffffffffffffffffffffffffffffffffffe2c69812cf03b0763fd454a8f7e010290911d6e0587f503bb6ea29d25fcb7401964500190910279d835ebba824c98fb31b83b2ca45c000000000000000000000000010574029d9dc38563c32e5c2f6dc192ee70ef65f9978af30260c3939093039290921c92915050565b6000808211612d49576040517f08c379a000000000000000000000000000000000000000000000000000000000815260206004820152600960248201527f554e444546494e454400000000000000000000000000000000000000000000006044820152606401610800565b5060016fffffffffffffffffffffffffffffffff821160071b82811c67ffffffffffffffff1060061b1782811c63ffffffff1060051b1782811c61ffff1060041b1782811c60ff10600390811b90911783811c600f1060021b1783811c909110821b1791821c111790565b600060208284031215612dc657600080fd5b5035919050565b80610400810183101561073957600080fd5b6000806000806104608587031215612df657600080fd5b84359350612e078660208701612dcd565b939693955050505061042082013591610440013590565b60005b83811015612e39578181015183820152602001612e21565b83811115612e48576000848401525b50505050565b60008151808452612e66816020860160208601612e1e565b601f017fffffffffffffffffffffffffffffffffffffffffffffffffffffffffffffffe0169290920160200192915050565b6020815260006127dc6020830184612e4e565b803573ffffffffffffffffffffffffffffffffffffffff8116811461093957600080fd5b60008083601f840112612ee157600080fd5b50813567ffffffffffffffff811115612ef957600080fd5b602083019150836020828501011115612f1157600080fd5b9250929050565b600080600080600080600060c0888a031215612f3357600080fd5b612f3c88612eab565b96506020880135955060408801359450612f5860608901612eab565b93506080880135925060a088013567ffffffffffffffff811115612f7b57600080fd5b612f878a828b01612ecf565b989b979a50959850939692959293505050565b8035801515811461093957600080fd5b60008060408385031215612fbd57600080fd5b612fc683612f9a565b9150612fd460208401612eab565b90509250929050565b7f4e487b7100000000000000000000000000000000000000000000000000000000600052604160045260246000fd5b60405160c0810167ffffffffffffffff8111828210171561302f5761302f612fdd565b60405290565b604051601f82017fffffffffffffffffffffffffffffffffffffffffffffffffffffffffffffffe016810167ffffffffffffffff8111828210171561307c5761307c612fdd565b604052919050565b600060c0828403121561309657600080fd5b61309e61300c565b90508135815260206130b1818401612eab565b818301526130c160408401612eab565b6040830152606083013560608301526080830135608083015260a083013567ffffffffffffffff808211156130f557600080fd5b818501915085601f83011261310957600080fd5b81358181111561311b5761311b612fdd565b61314b847fffffffffffffffffffffffffffffffffffffffffffffffffffffffffffffffe0601f84011601613035565b9150808252868482850101111561316157600080fd5b80848401858401376000848284010152508060a085015250505092915050565b60006020828403121561319357600080fd5b813567ffffffffffffffff8111156131aa57600080fd5b61276e84828501613084565b600080600061044084860312156131cc57600080fd5b833567ffffffffffffffff8111156131e357600080fd5b6131ef86828701613084565b9350506131ff8560208601612dcd565b915061042084013590509250925092565b67ffffffffffffffff8116811461322657600080fd5b50565b60006020828403121561323b57600080fd5b81356127dc81613210565b60008060008060008060a0878903121561325f57600080fd5b61326887612eab565b955060208701359450604087013561327f81613210565b935061328d60608801612f9a565b9250608087013567ffffffffffffffff8111156132a957600080fd5b6132b589828a01612ecf565b979a9699509497509295939492505050565b7f4e487b7100000000000000000000000000000000000000000000000000000000600052603260045260246000fd5b7f4e487b7100000000000000000000000000000000000000000000000000000000600052601160045260246000fd5b60007fffffffffffffffffffffffffffffffffffffffffffffffffffffffffffffffff8203613356576133566132f6565b5060010190565b6000845161336f818460208901612e1e565b80830190507f2e0000000000000000000000000000000000000000000000000000000000000080825285516133ab816001850160208a01612e1e565b600192019182015283516133c6816002840160208801612e1e565b0160020195945050505050565b600080604083850312156133e657600080fd5b82516133f181613210565b6020939093015192949293505050565b60006020828403121561341357600080fd5b81516127dc81613210565b600080600080600060a0868803121561343657600080fd5b855161344181613210565b602087015160408801516060890151608090990151929a91995097965090945092505050565b600067ffffffffffffffff8083168185168183048111821515161561348e5761348e6132f6565b02949350505050565b600067ffffffffffffffff8083168185168083038211156134ba576134ba6132f6565b01949350505050565b8681528560208201527fffffffffffffffff0000000000000000000000000000000000000000000000008560c01b16604082015283151560f81b6048820152818360498301376000910160490190815295945050505050565b7f4e487b7100000000000000000000000000000000000000000000000000000000600052601260045260246000fd5b868152600073ffffffffffffffffffffffffffffffffffffffff808816602084015280871660408401525084606083015283608083015260c060a083015261359660c0830184612e4e565b98975050505050505050565b6000602082840312156135b457600080fd5b5051919050565b600082198211156135ce576135ce6132f6565b500190565b85815267ffffffffffffffff8516602082015283604082015260806060820152816080820152818360a0830137600081830160a090810191909152601f9092017fffffffffffffffffffffffffffffffffffffffffffffffffffffffffffffffe0160101949350505050565b600082821015613651576136516132f6565b500390565b6000826136655761366561351c565b7fffffffffffffffffffffffffffffffffffffffffffffffffffffffffffffffff83147f8000000000000000000000000000000000000000000000000000000000000000831416156136b9576136b96132f6565b500590565b6000808312837f8000000000000000000000000000000000000000000000000000000000000000018312811516156136f8576136f86132f6565b837f7fffffffffffffffffffffffffffffffffffffffffffffffffffffffffffffff01831381161561372c5761372c6132f6565b50500390565b60007f7fffffffffffffffffffffffffffffffffffffffffffffffffffffffffffffff600084136000841385830485118282161615613773576137736132f6565b7f800000000000000000000000000000000000000000000000000000000000000060008712868205881281841616156137ae576137ae6132f6565b600087129250878205871284841616156137ca576137ca6132f6565b878505871281841616156137e0576137e06132f6565b505050929093029392505050565b6000808212827f7fffffffffffffffffffffffffffffffffffffffffffffffffffffffffffffff03841381151615613828576138286132f6565b827f800000000000000000000000000000000000000000000000000000000000000003841281161561385c5761385c6132f6565b50500190565b6000817fffffffffffffffffffffffffffffffffffffffffffffffffffffffffffffffff048311821515161561389a5761389a6132f6565b500290565b6000826138ae576138ae61351c565b500490565b805163ffffffff8116811461093957600080fd5b805160ff8116811461093957600080fd5b600060c082840312156138ea57600080fd5b60405160c0810181811067ffffffffffffffff8211171561390d5761390d612fdd565b604052613919836138b3565b8152613927602084016138c7565b6020820152613938604084016138c7565b6040820152613949606084016138b3565b606082015261395a608084016138b3565b608082015260a08301516fffffffffffffffffffffffffffffffff8116811461398257600080fd5b60a0820152939250505056fea164736f6c634300080f000a",
  "linkReferences": {},
  "deployedLinkReferences": {}
}