{
  "_format": "hh-sol-artifact-1",
  "contractName": "Tree",
  "sourceName": "contracts/universal/Tree.sol",
  "abi": [
    {
      "inputs": [],
      "name": "MerkleTreeFull",
      "type": "error"
    },
    {
      "inputs": [],
      "name": "getTreeRoot",
      "outputs": [
        {
          "internalType": "bytes32",
          "name": "",
          "type": "bytes32"
        }
      ],
      "stateMutability": "view",
      "type": "function"
    },
    {
      "inputs": [],
      "name": "leafNodesCount",
      "outputs": [
        {
          "internalType": "uint256",
          "name": "",
          "type": "uint256"
        }
      ],
      "stateMutability": "view",
      "type": "function"
    },
    {
      "inputs": [
        {
          "internalType": "bytes32",
          "name": "leafHash",
          "type": "bytes32"
        },
        {
          "internalType": "bytes32[32]",
          "name": "smtProof",
          "type": "bytes32[32]"
        },
        {
          "internalType": "uint256",
          "name": "index",
          "type": "uint256"
        },
        {
          "internalType": "bytes32",
          "name": "root",
          "type": "bytes32"
        }
      ],
      "name": "verifyMerkleProof",
      "outputs": [
        {
          "internalType": "bool",
          "name": "",
          "type": "bool"
        }
      ],
      "stateMutability": "pure",
      "type": "function"
    }
  ],
  "bytecode": "0x608060405234801561001057600080fd5b506103a0806100206000396000f3fe608060405234801561001057600080fd5b50600436106100415760003560e01c8063340735f71461004657806389c09d381461006e578063b58343bb14610084575b600080fd5b61005961005436600461026d565b61008d565b60405190151581526020015b60405180910390f35b610076610161565b604051908152602001610065565b61007660205481565b600084815b6020811015610155578085901c6001166001036100f8578581602081106100bb576100bb610305565b6020020151826040516020016100db929190918252602082015260400190565b604051602081830303815290604052805190602001209150610143565b8186826020811061010b5761010b610305565b602002015160405160200161012a929190918252602082015260400190565b6040516020818303038152906040528051906020012091505b8061014d81610334565b915050610092565b50909114949350505050565b602054600090819081805b6020811015610235578083901c6001166001036101c9576000816020811061019657610196610305565b015460408051602081019290925281018590526060016040516020818303038152906040528051906020012093506101f6565b60408051602081018690529081018390526060016040516020818303038152906040528051906020012093505b6040805160208101849052908101839052606001604051602081830303815290604052805190602001209150808061022d90610334565b91505061016c565b50919392505050565b7f4e487b7100000000000000000000000000000000000000000000000000000000600052604160045260246000fd5b600080600080610460858703121561028457600080fd5b84359350602086603f87011261029957600080fd5b604051610400810181811067ffffffffffffffff821117156102bd576102bd61023e565b604052806104208801898111156102d357600080fd5b8389015b818110156102ee57803583529184019184016102d7565b509699919850509435956104400135949350505050565b7f4e487b7100000000000000000000000000000000000000000000000000000000600052603260045260246000fd5b60007fffffffffffffffffffffffffffffffffffffffffffffffffffffffffffffffff820361038c577f4e487b7100000000000000000000000000000000000000000000000000000000600052601160045260246000fd5b506001019056fea164736f6c634300080f000a",
  "linkReferences": {},
  "deployedLinkReferences": {}
}