{
  "_format": "hh-sol-artifact-1",
  "contractName": "Verify",
  "sourceName": "contracts/universal/Tree.sol",
  "abi": [
    {
      "inputs": [
        {
          "internalType": "bytes32",
          "name": "leafHash",
          "type": "bytes32"
        },
        {
          "internalType": "bytes32[32]",
          "name": "smtProof",
          "type": "bytes32[32]"
        },
        {
          "internalType": "uint256",
          "name": "index",
          "type": "uint256"
        },
        {
          "internalType": "bytes32",
          "name": "root",
          "type": "bytes32"
        }
      ],
      "name": "verifyMerkleProof",
      "outputs": [
        {
          "internalType": "bool",
          "name": "",
          "type": "bool"
        }
      ],
      "stateMutability": "pure",
      "type": "function"
    }
  ],
  "bytecode": "0x608060405234801561001057600080fd5b5061020a806100206000396000f3fe608060405234801561001057600080fd5b506004361061002b5760003560e01c8063340735f714610030575b600080fd5b61004361003e36600461012b565b610057565b604051901515815260200160405180910390f35b600084815b602081101561011f578085901c6001166001036100c2578581602081106100855761008561016f565b6020020135826040516020016100a5929190918252602082015260400190565b60405160208183030381529060405280519060200120915061010d565b818682602081106100d5576100d561016f565b60200201356040516020016100f4929190918252602082015260400190565b6040516020818303038152906040528051906020012091505b806101178161019e565b91505061005c565b50909114949350505050565b600080600080610460858703121561014257600080fd5b8435935061042085018681111561015857600080fd5b939660208601965093359461044001359392505050565b7f4e487b7100000000000000000000000000000000000000000000000000000000600052603260045260246000fd5b60007fffffffffffffffffffffffffffffffffffffffffffffffffffffffffffffffff82036101f6577f4e487b7100000000000000000000000000000000000000000000000000000000600052601160045260246000fd5b506001019056fea164736f6c634300080f000a",
  "linkReferences": {},
  "deployedLinkReferences": {}
}