{
  "_format": "hh-sol-artifact-1",
  "contractName": "Staking",
  "sourceName": "contracts/L1/staking/Staking.sol",
  "abi": [
    {
      "anonymous": false,
      "inputs": [
        {
          "indexed": false,
          "internalType": "address",
          "name": "addr",
          "type": "address"
        },
        {
          "indexed": false,
          "internalType": "uint256",
          "name": "balance",
          "type": "uint256"
        }
      ],
      "name": "Claimed",
      "type": "event"
    },
    {
      "anonymous": false,
      "inputs": [
        {
          "indexed": false,
          "internalType": "uint8",
          "name": "version",
          "type": "uint8"
        }
      ],
      "name": "Initialized",
      "type": "event"
    },
    {
      "anonymous": false,
      "inputs": [
        {
          "indexed": false,
          "internalType": "address",
          "name": "addr",
          "type": "address"
        },
        {
          "indexed": false,
          "internalType": "bytes32",
          "name": "tmKey",
          "type": "bytes32"
        },
        {
          "indexed": false,
          "internalType": "bytes",
          "name": "blsKey",
          "type": "bytes"
        },
        {
          "indexed": false,
          "internalType": "uint256",
          "name": "balance",
          "type": "uint256"
        }
      ],
      "name": "Registered",
      "type": "event"
    },
    {
      "anonymous": false,
      "inputs": [
        {
          "indexed": false,
          "internalType": "bytes[]",
          "name": "sequencers",
          "type": "bytes[]"
        },
        {
          "indexed": false,
          "internalType": "uint256",
          "name": "version",
          "type": "uint256"
        }
      ],
      "name": "SequencerUpdated",
      "type": "event"
    },
    {
      "anonymous": false,
      "inputs": [
        {
          "indexed": false,
          "internalType": "address",
          "name": "addr",
          "type": "address"
        },
        {
          "indexed": false,
          "internalType": "uint256",
          "name": "balance",
          "type": "uint256"
        }
      ],
      "name": "Staked",
      "type": "event"
    },
    {
      "anonymous": false,
      "inputs": [
        {
          "indexed": false,
          "internalType": "address",
          "name": "addr",
          "type": "address"
        },
        {
          "indexed": false,
          "internalType": "uint256",
          "name": "balance",
          "type": "uint256"
        }
      ],
      "name": "Withdrawed",
      "type": "event"
    },
    {
      "inputs": [],
      "name": "claimETH",
      "outputs": [],
      "stateMutability": "nonpayable",
      "type": "function"
    },
    {
      "inputs": [
        {
          "internalType": "address",
          "name": "_sequencerContract",
          "type": "address"
        },
        {
          "internalType": "uint256",
          "name": "_sequencersSize",
          "type": "uint256"
        },
        {
          "internalType": "uint256",
          "name": "_limit",
          "type": "uint256"
        },
        {
          "internalType": "uint256",
          "name": "_lock",
          "type": "uint256"
        }
      ],
      "name": "initialize",
      "outputs": [],
      "stateMutability": "nonpayable",
      "type": "function"
    },
    {
      "inputs": [],
      "name": "limit",
      "outputs": [
        {
          "internalType": "uint256",
          "name": "",
          "type": "uint256"
        }
      ],
      "stateMutability": "view",
      "type": "function"
    },
    {
      "inputs": [],
      "name": "lock",
      "outputs": [
        {
          "internalType": "uint256",
          "name": "",
          "type": "uint256"
        }
      ],
      "stateMutability": "view",
      "type": "function"
    },
    {
      "inputs": [
        {
          "internalType": "bytes32",
          "name": "tmKey",
          "type": "bytes32"
        },
        {
          "internalType": "bytes",
          "name": "blsKey",
          "type": "bytes"
        },
        {
          "internalType": "uint32",
          "name": "_minGasLimit",
          "type": "uint32"
        }
      ],
      "name": "register",
      "outputs": [],
      "stateMutability": "payable",
      "type": "function"
    },
    {
      "inputs": [],
      "name": "sequencerContract",
      "outputs": [
        {
          "internalType": "address",
          "name": "",
          "type": "address"
        }
      ],
      "stateMutability": "view",
      "type": "function"
    },
    {
      "inputs": [
        {
          "internalType": "uint256",
          "name": "",
          "type": "uint256"
        }
      ],
      "name": "sequencers",
      "outputs": [
        {
          "internalType": "bytes",
          "name": "",
          "type": "bytes"
        }
      ],
      "stateMutability": "view",
      "type": "function"
    },
    {
      "inputs": [],
      "name": "sequencersSize",
      "outputs": [
        {
          "internalType": "uint256",
          "name": "",
          "type": "uint256"
        }
      ],
      "stateMutability": "view",
      "type": "function"
    },
    {
      "inputs": [
        {
          "internalType": "uint32",
          "name": "_minGasLimit",
          "type": "uint32"
        }
      ],
      "name": "stakeETH",
      "outputs": [],
      "stateMutability": "payable",
      "type": "function"
    },
    {
      "inputs": [
        {
          "internalType": "uint256",
          "name": "",
          "type": "uint256"
        }
      ],
      "name": "stakers",
      "outputs": [
        {
          "internalType": "address",
          "name": "",
          "type": "address"
        }
      ],
      "stateMutability": "view",
      "type": "function"
    },
    {
      "inputs": [],
      "name": "stakersNumber",
      "outputs": [
        {
          "internalType": "uint256",
          "name": "",
          "type": "uint256"
        }
      ],
      "stateMutability": "view",
      "type": "function"
    },
    {
      "inputs": [
        {
          "internalType": "address",
          "name": "",
          "type": "address"
        }
      ],
      "name": "stakings",
      "outputs": [
        {
          "internalType": "address",
          "name": "addr",
          "type": "address"
        },
        {
          "internalType": "bytes32",
          "name": "tmKey",
          "type": "bytes32"
        },
        {
          "internalType": "bytes",
          "name": "blsKey",
          "type": "bytes"
        },
        {
          "internalType": "uint256",
          "name": "balance",
          "type": "uint256"
        }
      ],
      "stateMutability": "view",
      "type": "function"
    },
    {
      "inputs": [
        {
          "internalType": "uint32",
          "name": "_minGasLimit",
          "type": "uint32"
        }
      ],
      "name": "withdrawETH",
      "outputs": [],
      "stateMutability": "payable",
      "type": "function"
    },
    {
      "inputs": [
        {
          "internalType": "address",
          "name": "",
          "type": "address"
        }
      ],
      "name": "withdrawals",
      "outputs": [
        {
          "internalType": "uint256",
          "name": "balance",
          "type": "uint256"
        },
        {
          "internalType": "uint256",
          "name": "unlock",
          "type": "uint256"
        },
        {
          "internalType": "bool",
          "name": "exit",
          "type": "bool"
        }
      ],
      "stateMutability": "view",
      "type": "function"
    }
  ],
  "bytecode": "0x6080604052600060065534801561001557600080fd5b506128ac806100256000396000f3fe6080604052600436106100dd5760003560e01c8063b21452801161007f578063dc6e13e111610059578063dc6e13e114610278578063f83d08ba146102a8578063fc15799d146102be578063fd5e6dd1146102d157600080fd5b8063b21452801461023a578063cbd679cb14610250578063d702d8aa1461026557600080fd5b80637a9262a2116100bb5780637a9262a21461014f578063a16e0674146101ab578063a4d66daf146101be578063a7044836146101e257600080fd5b80634ec81af1146100e257806367272999146101045780636ba7ccff14610119575b600080fd5b3480156100ee57600080fd5b506101026100fd366004612003565b6102f1565b005b34801561011057600080fd5b50610102610675565b34801561012557600080fd5b5061013961013436600461203c565b6107ed565b60405161014691906120c0565b60405180910390f35b34801561015b57600080fd5b5061018e61016a3660046120da565b60056020526000908152604090208054600182015460029092015490919060ff1683565b604080519384526020840192909252151590820152606001610146565b6101026101b9366004612109565b610899565b3480156101ca57600080fd5b506101d460015481565b604051908152602001610146565b3480156101ee57600080fd5b506000546102159062010000900473ffffffffffffffffffffffffffffffffffffffff1681565b60405173ffffffffffffffffffffffffffffffffffffffff9091168152602001610146565b34801561024657600080fd5b506101d460065481565b34801561025c57600080fd5b506003546101d4565b610102610273366004612109565b610cf9565b34801561028457600080fd5b506102986102933660046120da565b611164565b6040516101469493929190612124565b3480156102b457600080fd5b506101d460025481565b6101026102cc366004612199565b61122c565b3480156102dd57600080fd5b506102156102ec36600461203c565b611927565b600054610100900460ff16158080156103115750600054600160ff909116105b8061032b5750303b15801561032b575060005460ff166001145b6103bc576040517f08c379a000000000000000000000000000000000000000000000000000000000815260206004820152602e60248201527f496e697469616c697a61626c653a20636f6e747261637420697320616c72656160448201527f647920696e697469616c697a656400000000000000000000000000000000000060648201526084015b60405180910390fd5b600080547fffffffffffffffffffffffffffffffffffffffffffffffffffffffffffffff00166001179055801561041a57600080547fffffffffffffffffffffffffffffffffffffffffffffffffffffffffffff00ff166101001790555b73ffffffffffffffffffffffffffffffffffffffff8516610497576040517f08c379a000000000000000000000000000000000000000000000000000000000815260206004820152601a60248201527f696e76616c69642073657175656e63657220636f6e747261637400000000000060448201526064016103b3565b60008411610527576040517f08c379a000000000000000000000000000000000000000000000000000000000815260206004820152602260248201527f73657175656e6365727353697a65206d7573742067726561746572207468616e60448201527f203000000000000000000000000000000000000000000000000000000000000060648201526084016103b3565b600083116105b7576040517f08c379a000000000000000000000000000000000000000000000000000000000815260206004820152602160248201527f7374616b696e67206c696d6974206d7573742067726561746572207468616e2060448201527f300000000000000000000000000000000000000000000000000000000000000060648201526084016103b3565b600080547fffffffffffffffffffff0000000000000000000000000000000000000000ffff166201000073ffffffffffffffffffffffffffffffffffffffff881602179055600684905560018390556002829055801561066e57600080547fffffffffffffffffffffffffffffffffffffffffffffffffffffffffffff00ff169055604051600181527f7f26b83ff96e1f2b6a682f133852f6798a09c465da95921460cefb38474024989060200160405180910390a15b5050505050565b3360009081526005602052604090206002015460ff1680156106a557503360009081526005602052604090205415155b80156106c257503360009081526005602052604090206001015443115b610728576040517f08c379a000000000000000000000000000000000000000000000000000000000815260206004820152601260248201527f696e76616c6964207769746864726177616c000000000000000000000000000060448201526064016103b3565b3360008181526005602052604080822054905181156108fc0292818181858888f1935050505015801561075f573d6000803e3d6000fd5b5033600081815260056020908152604091829020548251938452908301527fd8138f8a3f377c5259ca548e70e4c2de94f129f5a11036a15b69513cba2b426a910160405180910390a1336000908152600560205260408120818155600181019190915560020180547fffffffffffffffffffffffffffffffffffffffffffffffffffffffffffffff00169055565b600781815481106107fd57600080fd5b90600052602060002001600091509050805461081890612282565b80601f016020809104026020016040519081016040528092919081815260200182805461084490612282565b80156108915780601f1061086657610100808354040283529160200191610891565b820191906000526020600020905b81548152906001019060200180831161087457829003601f168201915b505050505081565b3360009081526005602052604090206002015460ff1615610916576040517f08c379a000000000000000000000000000000000000000000000000000000000815260206004820152601060248201527f7374616b6572206973206578697465640000000000000000000000000000000060448201526064016103b3565b600080805b600354811015610994573373ffffffffffffffffffffffffffffffffffffffff166003828154811061094f5761094f6122d5565b60009182526020909120015473ffffffffffffffffffffffffffffffffffffffff16036109825760019250809150610994565b8061098c81612333565b91505061091b565b50816109fc576040517f08c379a000000000000000000000000000000000000000000000000000000000815260206004820152601660248201527f6f6e207374616b65722063616e2077697468647261770000000000000000000060448201526064016103b3565b60408051606081018252336000908152600460209081529290206003015481526002549091820190610a2e904361236b565b815260016020918201819052336000818152600584526040908190208551808255868601519482019490945594810151600290950180547fffffffffffffffffffffffffffffffffffffffffffffffffffffffffffffff0016951515959095179094558351908152918201527f6cca423c6ffc06e62a0acc433965e074b11c28479b0449250ce3ff65ac9e39fe910160405180910390a1805b600354610ad690600190612383565b811015610b93576003610aea82600161236b565b81548110610afa57610afa6122d5565b6000918252602090912001546003805473ffffffffffffffffffffffffffffffffffffffff9092169183908110610b3357610b336122d5565b600091825260209091200180547fffffffffffffffffffffffff00000000000000000000000000000000000000001673ffffffffffffffffffffffffffffffffffffffff9290921691909117905580610b8b81612333565b915050610ac7565b506003805480610ba557610ba561239a565b6000828152602080822083017fffffffffffffffffffffffffffffffffffffffffffffffffffffffffffffffff90810180547fffffffffffffffffffffffff00000000000000000000000000000000000000009081169091559301909355338152600490925260408220805490911681556001810182905590610c2b6002830182611f4c565b50600060039182015560065490541015610ce3576003546006819055600003610cd557600060029054906101000a900473ffffffffffffffffffffffffffffffffffffffff1673ffffffffffffffffffffffffffffffffffffffff16638456cb596040518163ffffffff1660e01b8152600401600060405180830381600087803b158015610cb857600080fd5b505af1158015610ccc573d6000803e3d6000fd5b50505050505050565b610cde8361195e565b505050565b600654811015610cde57610cde8361195e565b50565b6000805b600354811015610d73573373ffffffffffffffffffffffffffffffffffffffff1660038281548110610d3157610d316122d5565b60009182526020909120015473ffffffffffffffffffffffffffffffffffffffff1603610d615760019150610d73565b80610d6b81612333565b915050610cfd565b5080610ddb576040517f08c379a000000000000000000000000000000000000000000000000000000000815260206004820152601060248201527f7374616b6572206e6f742065786973740000000000000000000000000000000060448201526064016103b3565b600034118015610e09575060015433600090815260046020526040902060030154610e0790349061236b565b115b610e6f576040517f08c379a000000000000000000000000000000000000000000000000000000000815260206004820152601860248201527f7374616b696e672076616c7565206e6f7420656e6f756768000000000000000060448201526064016103b3565b3360009081526004602052604081206003018054349290610e9190849061236b565b90915550506003546000908190610eaa90600190612383565b90505b80156110f957600460006003610ec4600185612383565b81548110610ed457610ed46122d5565b9060005260206000200160009054906101000a900473ffffffffffffffffffffffffffffffffffffffff1673ffffffffffffffffffffffffffffffffffffffff1673ffffffffffffffffffffffffffffffffffffffff168152602001908152602001600020600301546004600060038481548110610f5457610f546122d5565b600091825260208083209091015473ffffffffffffffffffffffffffffffffffffffff16835282019290925260400190206003015411156110e757600654610f9d600183612383565b1015610fa857600191505b60006003610fb7600184612383565b81548110610fc757610fc76122d5565b6000918252602090912001546003805473ffffffffffffffffffffffffffffffffffffffff90921692509083908110611002576110026122d5565b60009182526020909120015473ffffffffffffffffffffffffffffffffffffffff166003611031600185612383565b81548110611041576110416122d5565b9060005260206000200160006101000a81548173ffffffffffffffffffffffffffffffffffffffff021916908373ffffffffffffffffffffffffffffffffffffffff160217905550806003838154811061109d5761109d6122d5565b9060005260206000200160006101000a81548173ffffffffffffffffffffffffffffffffffffffff021916908373ffffffffffffffffffffffffffffffffffffffff160217905550505b806110f1816123c9565b915050610ead565b50600654600354101561110a575060005b33600081815260046020908152604091829020600301548251938452908301527f9e71bc8eea02a63969f509818f2dafb9254532904319f9dbda79b67bd34a5f3d910160405180910390a18015610cde57610cde8361195e565b60046020526000908152604090208054600182015460028301805473ffffffffffffffffffffffffffffffffffffffff9093169391926111a390612282565b80601f01602080910402602001604051908101604052809291908181526020018280546111cf90612282565b801561121c5780601f106111f15761010080835404028352916020019161121c565b820191906000526020600020905b8154815290600101906020018083116111ff57829003601f168201915b5050505050908060030154905084565b6000805b6003548110156112a6573373ffffffffffffffffffffffffffffffffffffffff1660038281548110611264576112646122d5565b60009182526020909120015473ffffffffffffffffffffffffffffffffffffffff160361129457600191506112a6565b8061129e81612333565b915050611230565b50801561130f576040517f08c379a000000000000000000000000000000000000000000000000000000000815260206004820152601260248201527f616c72656164792072656769737465726564000000000000000000000000000060448201526064016103b3565b3360009081526005602052604090206002015460ff161561138c576040517f08c379a000000000000000000000000000000000000000000000000000000000815260206004820152601060248201527f7374616b6572206973206578697465640000000000000000000000000000000060448201526064016103b3565b60006006541161141e576040517f08c379a000000000000000000000000000000000000000000000000000000000815260206004820152602260248201527f73657175656e6365727353697a65206d7573742067726561746572207468616e60448201527f203000000000000000000000000000000000000000000000000000000000000060648201526084016103b3565b6000849003611489576040517f08c379a000000000000000000000000000000000000000000000000000000000815260206004820152601960248201527f696e76616c69642074656e6465726d696e74207075626b65790000000000000060448201526064016103b3565b8251610100146114f5576040517f08c379a000000000000000000000000000000000000000000000000000000000815260206004820152601260248201527f696e76616c696420626c73207075626b6579000000000000000000000000000060448201526064016103b3565b6001543411611560576040517f08c379a000000000000000000000000000000000000000000000000000000000815260206004820152601b60248201527f7374616b696e672076616c7565206973206e6f7420656e6f756768000000000060448201526064016103b3565b604080516080810182523380825260208083018881528385018881523460608601526000938452600490925293909120825181547fffffffffffffffffffffffff00000000000000000000000000000000000000001673ffffffffffffffffffffffffffffffffffffffff909116178155925160018401555190919060028201906115eb908261244c565b506060919091015160039182015580546001818101835560008381527fc2575a0e9e593c00f959f8c92f12db2869c3395a3b0502d05e2516446f71f85b90920180547fffffffffffffffffffffffff000000000000000000000000000000000000000016331790559154909182916116639190612383565b90505b80156118cb5760046000600361167d600185612383565b8154811061168d5761168d6122d5565b9060005260206000200160009054906101000a900473ffffffffffffffffffffffffffffffffffffffff1673ffffffffffffffffffffffffffffffffffffffff1673ffffffffffffffffffffffffffffffffffffffff16815260200190815260200160002060030154600460006003848154811061170d5761170d6122d5565b600091825260208083209091015473ffffffffffffffffffffffffffffffffffffffff16835282019290925260400190206003015411156118b457600654611756600183612383565b108015611767575060065460035410155b1561177157600191505b60006003611780600184612383565b81548110611790576117906122d5565b6000918252602090912001546003805473ffffffffffffffffffffffffffffffffffffffff909216925090839081106117cb576117cb6122d5565b60009182526020909120015473ffffffffffffffffffffffffffffffffffffffff1660036117fa600185612383565b8154811061180a5761180a6122d5565b9060005260206000200160006101000a81548173ffffffffffffffffffffffffffffffffffffffff021916908373ffffffffffffffffffffffffffffffffffffffff1602179055508060038381548110611866576118666122d5565b9060005260206000200160006101000a81548173ffffffffffffffffffffffffffffffffffffffff021916908373ffffffffffffffffffffffffffffffffffffffff160217905550506118b9565b6118cb565b806118c3816123c9565b915050611666565b50600654600354036118db575060015b7fb7f230b53b0f914ccf820ab0618ac8320e984eeb0fb6a740785cf7fdc3b5cee3338686346040516119109493929190612124565b60405180910390a1801561066e5761066e8361195e565b6003818154811061193757600080fd5b60009182526020909120015473ffffffffffffffffffffffffffffffffffffffff16905081565b61196a60076000611f86565b60065460035410156119d8576040517f08c379a000000000000000000000000000000000000000000000000000000000815260206004820152601560248201527f7374616b6572206e756d62657220696e76616c6964000000000000000000000060448201526064016103b3565b600060065467ffffffffffffffff8111156119f5576119f561216a565b604051908082528060200260200182016040528015611a4257816020015b60408051606080820183526000808352602083015291810191909152815260200190600190039081611a135790505b50905060005b600654811015611cb05760076004600060038481548110611a6b57611a6b6122d5565b600091825260208083209091015473ffffffffffffffffffffffffffffffffffffffff1683528281019390935260409091018120835460018101855593825291902090910190611abe9060020182612566565b5060405180606001604052806004600060038581548110611ae157611ae16122d5565b600091825260208083209091015473ffffffffffffffffffffffffffffffffffffffff90811684528382019490945260409092018120549092168352600380549390910192600492919086908110611b3b57611b3b6122d5565b9060005260206000200160009054906101000a900473ffffffffffffffffffffffffffffffffffffffff1673ffffffffffffffffffffffffffffffffffffffff1673ffffffffffffffffffffffffffffffffffffffff1681526020019081526020016000206001015481526020016004600060038581548110611bc057611bc06122d5565b600091825260208083209091015473ffffffffffffffffffffffffffffffffffffffff16835282019290925260400190206002018054611bff90612282565b80601f0160208091040260200160405190810160405280929190818152602001828054611c2b90612282565b8015611c785780601f10611c4d57610100808354040283529160200191611c78565b820191906000526020600020905b815481529060010190602001808311611c5b57829003601f168201915b5050505050815250828281518110611c9257611c926122d5565b60200260200101819052508080611ca890612333565b915050611a48565b50600063ad01732f60e01b600060029054906101000a900473ffffffffffffffffffffffffffffffffffffffff1673ffffffffffffffffffffffffffffffffffffffff166373452a926040518163ffffffff1660e01b8152600401602060405180830381865afa158015611d28573d6000803e3d6000fd5b505050506040513d601f19601f82011682018060405250810190611d4c9190612693565b611d5790600161236b565b83604051602401611d699291906126ac565b604080517fffffffffffffffffffffffffffffffffffffffffffffffffffffffffffffffe08184030181529181526020820180517bffffffffffffffffffffffffffffffffffffffffffffffffffffffff167fffffffff000000000000000000000000000000000000000000000000000000009094169390931790925260005491517f3135cb9a00000000000000000000000000000000000000000000000000000000815290925073ffffffffffffffffffffffffffffffffffffffff620100009092049190911690633135cb9a90611e4b9084906007908890600401612841565b600060405180830381600087803b158015611e6557600080fd5b505af1158015611e79573d6000803e3d6000fd5b505050507ffccf12f2113375dab7436466a54baaa4c4e5eb61ea2b6964e6716dec4cb8c1986007600060029054906101000a900473ffffffffffffffffffffffffffffffffffffffff1673ffffffffffffffffffffffffffffffffffffffff166373452a926040518163ffffffff1660e01b8152600401602060405180830381865afa158015611f0d573d6000803e3d6000fd5b505050506040513d601f19601f82011682018060405250810190611f319190612693565b604051611f3f92919061287d565b60405180910390a1505050565b508054611f5890612282565b6000825580601f10611f68575050565b601f016020900490600052602060002090810190610cf69190611fa4565b5080546000825590600052602060002090810190610cf69190611fbd565b5b80821115611fb95760008155600101611fa5565b5090565b80821115611fb9576000611fd18282611f4c565b50600101611fbd565b803573ffffffffffffffffffffffffffffffffffffffff81168114611ffe57600080fd5b919050565b6000806000806080858703121561201957600080fd5b61202285611fda565b966020860135965060408601359560600135945092505050565b60006020828403121561204e57600080fd5b5035919050565b6000815180845260005b8181101561207b5760208185018101518683018201520161205f565b8181111561208d576000602083870101525b50601f017fffffffffffffffffffffffffffffffffffffffffffffffffffffffffffffffe0169290920160200192915050565b6020815260006120d36020830184612055565b9392505050565b6000602082840312156120ec57600080fd5b6120d382611fda565b803563ffffffff81168114611ffe57600080fd5b60006020828403121561211b57600080fd5b6120d3826120f5565b73ffffffffffffffffffffffffffffffffffffffff851681528360208201526080604082015260006121596080830185612055565b905082606083015295945050505050565b7f4e487b7100000000000000000000000000000000000000000000000000000000600052604160045260246000fd5b6000806000606084860312156121ae57600080fd5b83359250602084013567ffffffffffffffff808211156121cd57600080fd5b818601915086601f8301126121e157600080fd5b8135818111156121f3576121f361216a565b604051601f82017fffffffffffffffffffffffffffffffffffffffffffffffffffffffffffffffe0908116603f011681019083821181831017156122395761223961216a565b8160405282815289602084870101111561225257600080fd5b826020860160208301376000602084830101528096505050505050612279604085016120f5565b90509250925092565b600181811c9082168061229657607f821691505b6020821081036122cf577f4e487b7100000000000000000000000000000000000000000000000000000000600052602260045260246000fd5b50919050565b7f4e487b7100000000000000000000000000000000000000000000000000000000600052603260045260246000fd5b7f4e487b7100000000000000000000000000000000000000000000000000000000600052601160045260246000fd5b60007fffffffffffffffffffffffffffffffffffffffffffffffffffffffffffffffff820361236457612364612304565b5060010190565b6000821982111561237e5761237e612304565b500190565b60008282101561239557612395612304565b500390565b7f4e487b7100000000000000000000000000000000000000000000000000000000600052603160045260246000fd5b6000816123d8576123d8612304565b507fffffffffffffffffffffffffffffffffffffffffffffffffffffffffffffffff0190565b601f821115610cde57600081815260208120601f850160051c810160208610156124255750805b601f850160051c820191505b8181101561244457828155600101612431565b505050505050565b815167ffffffffffffffff8111156124665761246661216a565b61247a816124748454612282565b846123fe565b602080601f8311600181146124cd57600084156124975750858301515b7fffffffffffffffffffffffffffffffffffffffffffffffffffffffffffffffff600386901b1c1916600185901b178555612444565b6000858152602081207fffffffffffffffffffffffffffffffffffffffffffffffffffffffffffffffe08616915b8281101561251a578886015182559484019460019091019084016124fb565b508582101561255657878501517fffffffffffffffffffffffffffffffffffffffffffffffffffffffffffffffff600388901b60f8161c191681555b5050505050600190811b01905550565b818103612571575050565b61257b8254612282565b67ffffffffffffffff8111156125935761259361216a565b6125a1816124748454612282565b6000601f8211600181146125f357600083156125bd5750848201545b7fffffffffffffffffffffffffffffffffffffffffffffffffffffffffffffffff600385901b1c1916600184901b17845561066e565b6000858152602090207fffffffffffffffffffffffffffffffffffffffffffffffffffffffffffffffe0841690600086815260209020845b8381101561264b578286015482556001958601959091019060200161262b565b5085831015612556579301547fffffffffffffffffffffffffffffffffffffffffffffffffffffffffffffffff60f8600387901b161c19169092555050600190811b01905550565b6000602082840312156126a557600080fd5b5051919050565b6000604080830185845260208281860152818651808452606093508387019150838160051b88010183890160005b83811015612755578983037fffffffffffffffffffffffffffffffffffffffffffffffffffffffffffffffa00185528151805173ffffffffffffffffffffffffffffffffffffffff168452868101518785015288015188840188905261274288850182612055565b95870195935050908501906001016126da565b50909a9950505050505050505050565b600081548084526020808501945084600583811b87016000878152848120815b87811015612832578584038b5282825461279e81612282565b808752600182811680156127b957600181146127f05761281b565b7fffffffffffffffffffffffffffffffffffffffffffffffffffffffffffffff0084168c8a01528b8315158b1b8a0101945061281b565b8688528b8820885b848110156128135781548b82018f0152908301908d016127f8565b8a018d019550505b509d8a019d92965050509190910190600101612785565b50919998505050505050505050565b6060815260006128546060830186612055565b82810360208401526128668186612765565b91505063ffffffff83166040830152949350505050565b6040815260006128906040830185612765565b9050826020830152939250505056fea164736f6c634300080f000a",
  "linkReferences": {},
  "deployedLinkReferences": {}
}