{
  "_format": "hh-sol-artifact-1",
  "contractName": "L1ERC721Bridge",
  "sourceName": "contracts/L1/L1ERC721Bridge.sol",
  "abi": [
    {
      "inputs": [
        {
          "internalType": "address",
          "name": "_messenger",
          "type": "address"
        },
        {
          "internalType": "address",
          "name": "_otherBridge",
          "type": "address"
        }
      ],
      "stateMutability": "nonpayable",
      "type": "constructor"
    },
    {
      "anonymous": false,
      "inputs": [
        {
          "indexed": true,
          "internalType": "address",
          "name": "localToken",
          "type": "address"
        },
        {
          "indexed": true,
          "internalType": "address",
          "name": "remoteToken",
          "type": "address"
        },
        {
          "indexed": true,
          "internalType": "address",
          "name": "from",
          "type": "address"
        },
        {
          "indexed": false,
          "internalType": "address",
          "name": "to",
          "type": "address"
        },
        {
          "indexed": false,
          "internalType": "uint256",
          "name": "tokenId",
          "type": "uint256"
        },
        {
          "indexed": false,
          "internalType": "bytes",
          "name": "extraData",
          "type": "bytes"
        }
      ],
      "name": "ERC721BridgeFinalized",
      "type": "event"
    },
    {
      "anonymous": false,
      "inputs": [
        {
          "indexed": true,
          "internalType": "address",
          "name": "localToken",
          "type": "address"
        },
        {
          "indexed": true,
          "internalType": "address",
          "name": "remoteToken",
          "type": "address"
        },
        {
          "indexed": true,
          "internalType": "address",
          "name": "from",
          "type": "address"
        },
        {
          "indexed": false,
          "internalType": "address",
          "name": "to",
          "type": "address"
        },
        {
          "indexed": false,
          "internalType": "uint256",
          "name": "tokenId",
          "type": "uint256"
        },
        {
          "indexed": false,
          "internalType": "bytes",
          "name": "extraData",
          "type": "bytes"
        }
      ],
      "name": "ERC721BridgeInitiated",
      "type": "event"
    },
    {
      "anonymous": false,
      "inputs": [
        {
          "indexed": false,
          "internalType": "uint8",
          "name": "version",
          "type": "uint8"
        }
      ],
      "name": "Initialized",
      "type": "event"
    },
    {
      "inputs": [],
      "name": "MESSENGER",
      "outputs": [
        {
          "internalType": "contract CrossDomainMessenger",
          "name": "",
          "type": "address"
        }
      ],
      "stateMutability": "view",
      "type": "function"
    },
    {
      "inputs": [],
      "name": "OTHER_BRIDGE",
      "outputs": [
        {
          "internalType": "address",
          "name": "",
          "type": "address"
        }
      ],
      "stateMutability": "view",
      "type": "function"
    },
    {
      "inputs": [
        {
          "internalType": "address",
          "name": "_localToken",
          "type": "address"
        },
        {
          "internalType": "address",
          "name": "_remoteToken",
          "type": "address"
        },
        {
          "internalType": "uint256",
          "name": "_tokenId",
          "type": "uint256"
        },
        {
          "internalType": "uint32",
          "name": "_minGasLimit",
          "type": "uint32"
        },
        {
          "internalType": "bytes",
          "name": "_extraData",
          "type": "bytes"
        }
      ],
      "name": "bridgeERC721",
      "outputs": [],
      "stateMutability": "nonpayable",
      "type": "function"
    },
    {
      "inputs": [
        {
          "internalType": "address",
          "name": "_localToken",
          "type": "address"
        },
        {
          "internalType": "address",
          "name": "_remoteToken",
          "type": "address"
        },
        {
          "internalType": "address",
          "name": "_to",
          "type": "address"
        },
        {
          "internalType": "uint256",
          "name": "_tokenId",
          "type": "uint256"
        },
        {
          "internalType": "uint32",
          "name": "_minGasLimit",
          "type": "uint32"
        },
        {
          "internalType": "bytes",
          "name": "_extraData",
          "type": "bytes"
        }
      ],
      "name": "bridgeERC721To",
      "outputs": [],
      "stateMutability": "nonpayable",
      "type": "function"
    },
    {
      "inputs": [
        {
          "internalType": "address",
          "name": "",
          "type": "address"
        },
        {
          "internalType": "address",
          "name": "",
          "type": "address"
        },
        {
          "internalType": "uint256",
          "name": "",
          "type": "uint256"
        }
      ],
      "name": "deposits",
      "outputs": [
        {
          "internalType": "bool",
          "name": "",
          "type": "bool"
        }
      ],
      "stateMutability": "view",
      "type": "function"
    },
    {
      "inputs": [
        {
          "internalType": "address",
          "name": "_localToken",
          "type": "address"
        },
        {
          "internalType": "address",
          "name": "_remoteToken",
          "type": "address"
        },
        {
          "internalType": "address",
          "name": "_from",
          "type": "address"
        },
        {
          "internalType": "address",
          "name": "_to",
          "type": "address"
        },
        {
          "internalType": "uint256",
          "name": "_tokenId",
          "type": "uint256"
        },
        {
          "internalType": "bytes",
          "name": "_extraData",
          "type": "bytes"
        }
      ],
      "name": "finalizeBridgeERC721",
      "outputs": [],
      "stateMutability": "nonpayable",
      "type": "function"
    },
    {
      "inputs": [],
      "name": "initialize",
      "outputs": [],
      "stateMutability": "nonpayable",
      "type": "function"
    },
    {
      "inputs": [],
      "name": "messenger",
      "outputs": [
        {
          "internalType": "contract CrossDomainMessenger",
          "name": "",
          "type": "address"
        }
      ],
      "stateMutability": "view",
      "type": "function"
    },
    {
      "inputs": [],
      "name": "otherBridge",
      "outputs": [
        {
          "internalType": "address",
          "name": "",
          "type": "address"
        }
      ],
      "stateMutability": "view",
      "type": "function"
    },
    {
      "inputs": [],
      "name": "version",
      "outputs": [
        {
          "internalType": "string",
          "name": "",
          "type": "string"
        }
      ],
      "stateMutability": "view",
      "type": "function"
    }
  ],
  "bytecode": "0x6101206040523480156200001257600080fd5b506040516200164038038062001640833981016040819052620000359162000161565b6001808084846001600160a01b038216620000ac5760405162461bcd60e51b815260206004820152602c60248201527f4552433732314272696467653a206d657373656e6765722063616e6e6f74206260448201526b65206164647265737328302960a01b60648201526084015b60405180910390fd5b6001600160a01b0381166200011c5760405162461bcd60e51b815260206004820152602f60248201527f4552433732314272696467653a206f74686572206272696467652063616e6e6f60448201526e74206265206164647265737328302960881b6064820152608401620000a3565b6001600160a01b039182166080521660a05260c09290925260e0526101005250620001999050565b80516001600160a01b03811681146200015c57600080fd5b919050565b600080604083850312156200017557600080fd5b620001808362000144565b9150620001906020840162000144565b90509250929050565b60805160a05160c05160e051610100516114326200020e6000396000610324015260006102fb015260006102d2015260008181610195015281816101fb015281816103b00152610cc101526000818160da015281816101c401528181610386015281816103e70152610c9201526114326000f3fe608060405234801561001057600080fd5b50600436106100be5760003560e01c80637f46ddb211610076578063927ede2d1161005b578063927ede2d146101bf578063aa557452146101e6578063c89701a2146101f957600080fd5b80637f46ddb2146101905780638129fc1c146101b757600080fd5b806354fd4d50116100a757806354fd4d50146101245780635d93a3fc14610139578063761f44931461017d57600080fd5b80633687011a146100c35780633cb747bf146100d8575b600080fd5b6100d66100d1366004610fd1565b61021f565b005b7f00000000000000000000000000000000000000000000000000000000000000005b60405173ffffffffffffffffffffffffffffffffffffffff90911681526020015b60405180910390f35b61012c6102cb565b60405161011b91906110ce565b61016d6101473660046110e8565b603260209081526000938452604080852082529284528284209052825290205460ff1681565b604051901515815260200161011b565b6100d661018b366004611129565b61036e565b6100fa7f000000000000000000000000000000000000000000000000000000000000000081565b6100d66107ef565b6100fa7f000000000000000000000000000000000000000000000000000000000000000081565b6100d66101f43660046111c1565b610979565b7f00000000000000000000000000000000000000000000000000000000000000006100fa565b333b156102b3576040517f08c379a000000000000000000000000000000000000000000000000000000000815260206004820152602d60248201527f4552433732314272696467653a206163636f756e74206973206e6f742065787460448201527f65726e616c6c79206f776e65640000000000000000000000000000000000000060648201526084015b60405180910390fd5b6102c38686333388888888610a35565b505050505050565b60606102f67f0000000000000000000000000000000000000000000000000000000000000000610dac565b61031f7f0000000000000000000000000000000000000000000000000000000000000000610dac565b6103487f0000000000000000000000000000000000000000000000000000000000000000610dac565b60405160200161035a93929190611238565b604051602081830303815290604052905090565b3373ffffffffffffffffffffffffffffffffffffffff7f00000000000000000000000000000000000000000000000000000000000000001614801561048c57507f000000000000000000000000000000000000000000000000000000000000000073ffffffffffffffffffffffffffffffffffffffff167f000000000000000000000000000000000000000000000000000000000000000073ffffffffffffffffffffffffffffffffffffffff16636e296e456040518163ffffffff1660e01b8152600401602060405180830381865afa158015610450573d6000803e3d6000fd5b505050506040513d601f19601f8201168201806040525081019061047491906112ae565b73ffffffffffffffffffffffffffffffffffffffff16145b610518576040517f08c379a000000000000000000000000000000000000000000000000000000000815260206004820152603f60248201527f4552433732314272696467653a2066756e6374696f6e2063616e206f6e6c792060448201527f62652063616c6c65642066726f6d20746865206f74686572206272696467650060648201526084016102aa565b3073ffffffffffffffffffffffffffffffffffffffff8816036105bd576040517f08c379a000000000000000000000000000000000000000000000000000000000815260206004820152602a60248201527f4c314552433732314272696467653a206c6f63616c20746f6b656e2063616e6e60448201527f6f742062652073656c660000000000000000000000000000000000000000000060648201526084016102aa565b73ffffffffffffffffffffffffffffffffffffffff8088166000908152603260209081526040808320938a1683529281528282208683529052205460ff16151560011461068c576040517f08c379a000000000000000000000000000000000000000000000000000000000815260206004820152603960248201527f4c314552433732314272696467653a20546f6b656e204944206973206e6f742060448201527f657363726f77656420696e20746865204c31204272696467650000000000000060648201526084016102aa565b73ffffffffffffffffffffffffffffffffffffffff87811660008181526032602090815260408083208b8616845282528083208884529091529081902080547fffffffffffffffffffffffffffffffffffffffffffffffffffffffffffffff00169055517f42842e0e000000000000000000000000000000000000000000000000000000008152306004820152918616602483015260448201859052906342842e0e90606401600060405180830381600087803b15801561074c57600080fd5b505af1158015610760573d6000803e3d6000fd5b505050508473ffffffffffffffffffffffffffffffffffffffff168673ffffffffffffffffffffffffffffffffffffffff168873ffffffffffffffffffffffffffffffffffffffff167f1f39bf6707b5d608453e0ae4c067b562bcc4c85c0f562ef5d2c774d2e7f131ac878787876040516107de9493929190611314565b60405180910390a450505050505050565b603154610100900460ff161580801561080f5750603154600160ff909116105b806108295750303b158015610829575060315460ff166001145b6108b5576040517f08c379a000000000000000000000000000000000000000000000000000000000815260206004820152602e60248201527f496e697469616c697a61626c653a20636f6e747261637420697320616c72656160448201527f647920696e697469616c697a656400000000000000000000000000000000000060648201526084016102aa565b603180547fffffffffffffffffffffffffffffffffffffffffffffffffffffffffffffff00166001179055801561091357603180547fffffffffffffffffffffffffffffffffffffffffffffffffffffffffffff00ff166101001790555b801561097657603180547fffffffffffffffffffffffffffffffffffffffffffffffffffffffffffff00ff169055604051600181527f7f26b83ff96e1f2b6a682f133852f6798a09c465da95921460cefb38474024989060200160405180910390a15b50565b73ffffffffffffffffffffffffffffffffffffffff8516610a1c576040517f08c379a000000000000000000000000000000000000000000000000000000000815260206004820152603060248201527f4552433732314272696467653a206e667420726563697069656e742063616e6e60448201527f6f7420626520616464726573732830290000000000000000000000000000000060648201526084016102aa565b610a2c8787338888888888610a35565b50505050505050565b73ffffffffffffffffffffffffffffffffffffffff8716610ad8576040517f08c379a000000000000000000000000000000000000000000000000000000000815260206004820152603160248201527f4c314552433732314272696467653a2072656d6f746520746f6b656e2063616e60448201527f6e6f74206265206164647265737328302900000000000000000000000000000060648201526084016102aa565b600063761f449360e01b888a8989898888604051602401610aff9796959493929190611354565b604080517fffffffffffffffffffffffffffffffffffffffffffffffffffffffffffffffe0818403018152918152602080830180517bffffffffffffffffffffffffffffffffffffffffffffffffffffffff167fffffffff00000000000000000000000000000000000000000000000000000000959095169490941790935273ffffffffffffffffffffffffffffffffffffffff8c81166000818152603286528381208e8416825286528381208b82529095529382902080547fffffffffffffffffffffffffffffffffffffffffffffffffffffffffffffff0016600117905590517f23b872dd000000000000000000000000000000000000000000000000000000008152908a166004820152306024820152604481018890529092506323b872dd90606401600060405180830381600087803b158015610c3f57600080fd5b505af1158015610c53573d6000803e3d6000fd5b50506040517f3dbb202b00000000000000000000000000000000000000000000000000000000815273ffffffffffffffffffffffffffffffffffffffff7f0000000000000000000000000000000000000000000000000000000000000000169250633dbb202b9150610ced907f000000000000000000000000000000000000000000000000000000000000000090859089906004016113b1565b600060405180830381600087803b158015610d0757600080fd5b505af1158015610d1b573d6000803e3d6000fd5b505050508673ffffffffffffffffffffffffffffffffffffffff168873ffffffffffffffffffffffffffffffffffffffff168a73ffffffffffffffffffffffffffffffffffffffff167fb7460e2a880f256ebef3406116ff3eee0cee51ebccdc2a40698f87ebb2e9c1a589898888604051610d999493929190611314565b60405180910390a4505050505050505050565b60606000610db983610e6a565b600101905060008167ffffffffffffffff811115610dd957610dd96113f6565b6040519080825280601f01601f191660200182016040528015610e03576020820181803683370190505b5090508181016020015b7fffffffffffffffffffffffffffffffffffffffffffffffffffffffffffffffff017f3031323334353637383961626364656600000000000000000000000000000000600a86061a8153600a8504945084610e0d57509392505050565b6000807a184f03e93ff9f4daa797ed6e38ed64bf6a1f0100000000000000008310610eb3577a184f03e93ff9f4daa797ed6e38ed64bf6a1f010000000000000000830492506040015b6d04ee2d6d415b85acef81000000008310610edf576d04ee2d6d415b85acef8100000000830492506020015b662386f26fc100008310610efd57662386f26fc10000830492506010015b6305f5e1008310610f15576305f5e100830492506008015b6127108310610f2957612710830492506004015b60648310610f3b576064830492506002015b600a8310610f47576001015b92915050565b73ffffffffffffffffffffffffffffffffffffffff8116811461097657600080fd5b803563ffffffff81168114610f8357600080fd5b919050565b60008083601f840112610f9a57600080fd5b50813567ffffffffffffffff811115610fb257600080fd5b602083019150836020828501011115610fca57600080fd5b9250929050565b60008060008060008060a08789031215610fea57600080fd5b8635610ff581610f4d565b9550602087013561100581610f4d565b94506040870135935061101a60608801610f6f565b9250608087013567ffffffffffffffff81111561103657600080fd5b61104289828a01610f88565b979a9699509497509295939492505050565b60005b8381101561106f578181015183820152602001611057565b8381111561107e576000848401525b50505050565b6000815180845261109c816020860160208601611054565b601f017fffffffffffffffffffffffffffffffffffffffffffffffffffffffffffffffe0169290920160200192915050565b6020815260006110e16020830184611084565b9392505050565b6000806000606084860312156110fd57600080fd5b833561110881610f4d565b9250602084013561111881610f4d565b929592945050506040919091013590565b600080600080600080600060c0888a03121561114457600080fd5b873561114f81610f4d565b9650602088013561115f81610f4d565b9550604088013561116f81610f4d565b9450606088013561117f81610f4d565b93506080880135925060a088013567ffffffffffffffff8111156111a257600080fd5b6111ae8a828b01610f88565b989b979a50959850939692959293505050565b600080600080600080600060c0888a0312156111dc57600080fd5b87356111e781610f4d565b965060208801356111f781610f4d565b9550604088013561120781610f4d565b94506060880135935061121c60808901610f6f565b925060a088013567ffffffffffffffff8111156111a257600080fd5b6000845161124a818460208901611054565b80830190507f2e000000000000000000000000000000000000000000000000000000000000008082528551611286816001850160208a01611054565b600192019182015283516112a1816002840160208801611054565b0160020195945050505050565b6000602082840312156112c057600080fd5b81516110e181610f4d565b8183528181602085013750600060208284010152600060207fffffffffffffffffffffffffffffffffffffffffffffffffffffffffffffffe0601f840116840101905092915050565b73ffffffffffffffffffffffffffffffffffffffff8516815283602082015260606040820152600061134a6060830184866112cb565b9695505050505050565b600073ffffffffffffffffffffffffffffffffffffffff808a1683528089166020840152808816604084015280871660608401525084608083015260c060a08301526113a460c0830184866112cb565b9998505050505050505050565b73ffffffffffffffffffffffffffffffffffffffff841681526060602082015260006113e06060830185611084565b905063ffffffff83166040830152949350505050565b7f4e487b7100000000000000000000000000000000000000000000000000000000600052604160045260246000fdfea164736f6c634300080f000a",
  "linkReferences": {},
  "deployedLinkReferences": {}
}