{
  "_format": "hh-sol-artifact-1",
  "contractName": "L1StandardBridge",
  "sourceName": "contracts/L1/L1StandardBridge.sol",
  "abi": [
    {
      "inputs": [
        {
          "internalType": "address payable",
          "name": "_messenger",
          "type": "address"
        }
      ],
      "stateMutability": "nonpayable",
      "type": "constructor"
    },
    {
      "anonymous": false,
      "inputs": [
        {
          "indexed": true,
          "internalType": "address",
          "name": "localToken",
          "type": "address"
        },
        {
          "indexed": true,
          "internalType": "address",
          "name": "remoteToken",
          "type": "address"
        },
        {
          "indexed": true,
          "internalType": "address",
          "name": "from",
          "type": "address"
        },
        {
          "indexed": false,
          "internalType": "address",
          "name": "to",
          "type": "address"
        },
        {
          "indexed": false,
          "internalType": "uint256",
          "name": "amount",
          "type": "uint256"
        },
        {
          "indexed": false,
          "internalType": "bytes",
          "name": "extraData",
          "type": "bytes"
        }
      ],
      "name": "ERC20BridgeFinalized",
      "type": "event"
    },
    {
      "anonymous": false,
      "inputs": [
        {
          "indexed": true,
          "internalType": "address",
          "name": "localToken",
          "type": "address"
        },
        {
          "indexed": true,
          "internalType": "address",
          "name": "remoteToken",
          "type": "address"
        },
        {
          "indexed": true,
          "internalType": "address",
          "name": "from",
          "type": "address"
        },
        {
          "indexed": false,
          "internalType": "address",
          "name": "to",
          "type": "address"
        },
        {
          "indexed": false,
          "internalType": "uint256",
          "name": "amount",
          "type": "uint256"
        },
        {
          "indexed": false,
          "internalType": "bytes",
          "name": "extraData",
          "type": "bytes"
        }
      ],
      "name": "ERC20BridgeInitiated",
      "type": "event"
    },
    {
      "anonymous": false,
      "inputs": [
        {
          "indexed": true,
          "internalType": "address",
          "name": "l1Token",
          "type": "address"
        },
        {
          "indexed": true,
          "internalType": "address",
          "name": "l2Token",
          "type": "address"
        },
        {
          "indexed": true,
          "internalType": "address",
          "name": "from",
          "type": "address"
        },
        {
          "indexed": false,
          "internalType": "address",
          "name": "to",
          "type": "address"
        },
        {
          "indexed": false,
          "internalType": "uint256",
          "name": "amount",
          "type": "uint256"
        },
        {
          "indexed": false,
          "internalType": "bytes",
          "name": "extraData",
          "type": "bytes"
        }
      ],
      "name": "ERC20DepositInitiated",
      "type": "event"
    },
    {
      "anonymous": false,
      "inputs": [
        {
          "indexed": true,
          "internalType": "address",
          "name": "l1Token",
          "type": "address"
        },
        {
          "indexed": true,
          "internalType": "address",
          "name": "l2Token",
          "type": "address"
        },
        {
          "indexed": true,
          "internalType": "address",
          "name": "from",
          "type": "address"
        },
        {
          "indexed": false,
          "internalType": "address",
          "name": "to",
          "type": "address"
        },
        {
          "indexed": false,
          "internalType": "uint256",
          "name": "amount",
          "type": "uint256"
        },
        {
          "indexed": false,
          "internalType": "bytes",
          "name": "extraData",
          "type": "bytes"
        }
      ],
      "name": "ERC20WithdrawalFinalized",
      "type": "event"
    },
    {
      "anonymous": false,
      "inputs": [
        {
          "indexed": true,
          "internalType": "address",
          "name": "from",
          "type": "address"
        },
        {
          "indexed": true,
          "internalType": "address",
          "name": "to",
          "type": "address"
        },
        {
          "indexed": false,
          "internalType": "uint256",
          "name": "amount",
          "type": "uint256"
        },
        {
          "indexed": false,
          "internalType": "bytes",
          "name": "extraData",
          "type": "bytes"
        }
      ],
      "name": "ETHBridgeFinalized",
      "type": "event"
    },
    {
      "anonymous": false,
      "inputs": [
        {
          "indexed": true,
          "internalType": "address",
          "name": "from",
          "type": "address"
        },
        {
          "indexed": true,
          "internalType": "address",
          "name": "to",
          "type": "address"
        },
        {
          "indexed": false,
          "internalType": "uint256",
          "name": "amount",
          "type": "uint256"
        },
        {
          "indexed": false,
          "internalType": "bytes",
          "name": "extraData",
          "type": "bytes"
        }
      ],
      "name": "ETHBridgeInitiated",
      "type": "event"
    },
    {
      "anonymous": false,
      "inputs": [
        {
          "indexed": true,
          "internalType": "address",
          "name": "from",
          "type": "address"
        },
        {
          "indexed": true,
          "internalType": "address",
          "name": "to",
          "type": "address"
        },
        {
          "indexed": false,
          "internalType": "uint256",
          "name": "amount",
          "type": "uint256"
        },
        {
          "indexed": false,
          "internalType": "bytes",
          "name": "extraData",
          "type": "bytes"
        }
      ],
      "name": "ETHDepositInitiated",
      "type": "event"
    },
    {
      "anonymous": false,
      "inputs": [
        {
          "indexed": true,
          "internalType": "address",
          "name": "from",
          "type": "address"
        },
        {
          "indexed": true,
          "internalType": "address",
          "name": "to",
          "type": "address"
        },
        {
          "indexed": false,
          "internalType": "uint256",
          "name": "amount",
          "type": "uint256"
        },
        {
          "indexed": false,
          "internalType": "bytes",
          "name": "extraData",
          "type": "bytes"
        }
      ],
      "name": "ETHWithdrawalFinalized",
      "type": "event"
    },
    {
      "anonymous": false,
      "inputs": [
        {
          "indexed": false,
          "internalType": "uint8",
          "name": "version",
          "type": "uint8"
        }
      ],
      "name": "Initialized",
      "type": "event"
    },
    {
      "inputs": [],
      "name": "MESSENGER",
      "outputs": [
        {
          "internalType": "contract CrossDomainMessenger",
          "name": "",
          "type": "address"
        }
      ],
      "stateMutability": "view",
      "type": "function"
    },
    {
      "inputs": [],
      "name": "OTHER_BRIDGE",
      "outputs": [
        {
          "internalType": "contract StandardBridge",
          "name": "",
          "type": "address"
        }
      ],
      "stateMutability": "view",
      "type": "function"
    },
    {
      "inputs": [
        {
          "internalType": "address",
          "name": "_localToken",
          "type": "address"
        },
        {
          "internalType": "address",
          "name": "_remoteToken",
          "type": "address"
        },
        {
          "internalType": "uint256",
          "name": "_amount",
          "type": "uint256"
        },
        {
          "internalType": "uint32",
          "name": "_minGasLimit",
          "type": "uint32"
        },
        {
          "internalType": "bytes",
          "name": "_extraData",
          "type": "bytes"
        }
      ],
      "name": "bridgeERC20",
      "outputs": [],
      "stateMutability": "nonpayable",
      "type": "function"
    },
    {
      "inputs": [
        {
          "internalType": "address",
          "name": "_localToken",
          "type": "address"
        },
        {
          "internalType": "address",
          "name": "_remoteToken",
          "type": "address"
        },
        {
          "internalType": "address",
          "name": "_to",
          "type": "address"
        },
        {
          "internalType": "uint256",
          "name": "_amount",
          "type": "uint256"
        },
        {
          "internalType": "uint32",
          "name": "_minGasLimit",
          "type": "uint32"
        },
        {
          "internalType": "bytes",
          "name": "_extraData",
          "type": "bytes"
        }
      ],
      "name": "bridgeERC20To",
      "outputs": [],
      "stateMutability": "nonpayable",
      "type": "function"
    },
    {
      "inputs": [
        {
          "internalType": "uint32",
          "name": "_minGasLimit",
          "type": "uint32"
        },
        {
          "internalType": "bytes",
          "name": "_extraData",
          "type": "bytes"
        }
      ],
      "name": "bridgeETH",
      "outputs": [],
      "stateMutability": "payable",
      "type": "function"
    },
    {
      "inputs": [
        {
          "internalType": "address",
          "name": "_to",
          "type": "address"
        },
        {
          "internalType": "uint32",
          "name": "_minGasLimit",
          "type": "uint32"
        },
        {
          "internalType": "bytes",
          "name": "_extraData",
          "type": "bytes"
        }
      ],
      "name": "bridgeETHTo",
      "outputs": [],
      "stateMutability": "payable",
      "type": "function"
    },
    {
      "inputs": [
        {
          "internalType": "address",
          "name": "_l1Token",
          "type": "address"
        },
        {
          "internalType": "address",
          "name": "_l2Token",
          "type": "address"
        },
        {
          "internalType": "uint256",
          "name": "_amount",
          "type": "uint256"
        },
        {
          "internalType": "uint32",
          "name": "_minGasLimit",
          "type": "uint32"
        },
        {
          "internalType": "bytes",
          "name": "_extraData",
          "type": "bytes"
        }
      ],
      "name": "depositERC20",
      "outputs": [],
      "stateMutability": "nonpayable",
      "type": "function"
    },
    {
      "inputs": [
        {
          "internalType": "address",
          "name": "_l1Token",
          "type": "address"
        },
        {
          "internalType": "address",
          "name": "_l2Token",
          "type": "address"
        },
        {
          "internalType": "address",
          "name": "_to",
          "type": "address"
        },
        {
          "internalType": "uint256",
          "name": "_amount",
          "type": "uint256"
        },
        {
          "internalType": "uint32",
          "name": "_minGasLimit",
          "type": "uint32"
        },
        {
          "internalType": "bytes",
          "name": "_extraData",
          "type": "bytes"
        }
      ],
      "name": "depositERC20To",
      "outputs": [],
      "stateMutability": "nonpayable",
      "type": "function"
    },
    {
      "inputs": [
        {
          "internalType": "uint32",
          "name": "_minGasLimit",
          "type": "uint32"
        },
        {
          "internalType": "bytes",
          "name": "_extraData",
          "type": "bytes"
        }
      ],
      "name": "depositETH",
      "outputs": [],
      "stateMutability": "payable",
      "type": "function"
    },
    {
      "inputs": [
        {
          "internalType": "address",
          "name": "_to",
          "type": "address"
        },
        {
          "internalType": "uint32",
          "name": "_minGasLimit",
          "type": "uint32"
        },
        {
          "internalType": "bytes",
          "name": "_extraData",
          "type": "bytes"
        }
      ],
      "name": "depositETHTo",
      "outputs": [],
      "stateMutability": "payable",
      "type": "function"
    },
    {
      "inputs": [
        {
          "internalType": "address",
          "name": "",
          "type": "address"
        },
        {
          "internalType": "address",
          "name": "",
          "type": "address"
        }
      ],
      "name": "deposits",
      "outputs": [
        {
          "internalType": "uint256",
          "name": "",
          "type": "uint256"
        }
      ],
      "stateMutability": "view",
      "type": "function"
    },
    {
      "inputs": [
        {
          "internalType": "address",
          "name": "_localToken",
          "type": "address"
        },
        {
          "internalType": "address",
          "name": "_remoteToken",
          "type": "address"
        },
        {
          "internalType": "address",
          "name": "_from",
          "type": "address"
        },
        {
          "internalType": "address",
          "name": "_to",
          "type": "address"
        },
        {
          "internalType": "uint256",
          "name": "_amount",
          "type": "uint256"
        },
        {
          "internalType": "bytes",
          "name": "_extraData",
          "type": "bytes"
        }
      ],
      "name": "finalizeBridgeERC20",
      "outputs": [],
      "stateMutability": "nonpayable",
      "type": "function"
    },
    {
      "inputs": [
        {
          "internalType": "address",
          "name": "_from",
          "type": "address"
        },
        {
          "internalType": "address",
          "name": "_to",
          "type": "address"
        },
        {
          "internalType": "uint256",
          "name": "_amount",
          "type": "uint256"
        },
        {
          "internalType": "bytes",
          "name": "_extraData",
          "type": "bytes"
        }
      ],
      "name": "finalizeBridgeETH",
      "outputs": [],
      "stateMutability": "payable",
      "type": "function"
    },
    {
      "inputs": [
        {
          "internalType": "address",
          "name": "_l1Token",
          "type": "address"
        },
        {
          "internalType": "address",
          "name": "_l2Token",
          "type": "address"
        },
        {
          "internalType": "address",
          "name": "_from",
          "type": "address"
        },
        {
          "internalType": "address",
          "name": "_to",
          "type": "address"
        },
        {
          "internalType": "uint256",
          "name": "_amount",
          "type": "uint256"
        },
        {
          "internalType": "bytes",
          "name": "_extraData",
          "type": "bytes"
        }
      ],
      "name": "finalizeERC20Withdrawal",
      "outputs": [],
      "stateMutability": "nonpayable",
      "type": "function"
    },
    {
      "inputs": [
        {
          "internalType": "address",
          "name": "_from",
          "type": "address"
        },
        {
          "internalType": "address",
          "name": "_to",
          "type": "address"
        },
        {
          "internalType": "uint256",
          "name": "_amount",
          "type": "uint256"
        },
        {
          "internalType": "bytes",
          "name": "_extraData",
          "type": "bytes"
        }
      ],
      "name": "finalizeETHWithdrawal",
      "outputs": [],
      "stateMutability": "payable",
      "type": "function"
    },
    {
      "inputs": [],
      "name": "initialize",
      "outputs": [],
      "stateMutability": "nonpayable",
      "type": "function"
    },
    {
      "inputs": [],
      "name": "l2TokenBridge",
      "outputs": [
        {
          "internalType": "address",
          "name": "",
          "type": "address"
        }
      ],
      "stateMutability": "view",
      "type": "function"
    },
    {
      "inputs": [],
      "name": "messenger",
      "outputs": [
        {
          "internalType": "contract CrossDomainMessenger",
          "name": "",
          "type": "address"
        }
      ],
      "stateMutability": "view",
      "type": "function"
    },
    {
      "inputs": [],
      "name": "version",
      "outputs": [
        {
          "internalType": "string",
          "name": "",
          "type": "string"
        }
      ],
      "stateMutability": "view",
      "type": "function"
    },
    {
      "stateMutability": "payable",
      "type": "receive"
    }
  ],
  "bytecode": "0x6101206040523480156200001257600080fd5b5060405162002d6838038062002d6883398101604081905262000035916200006f565b6001600160a01b031660805273420000000000000000000000000000000000001060a052600160c081905260e052600061010052620000a1565b6000602082840312156200008257600080fd5b81516001600160a01b03811681146200009a57600080fd5b9392505050565b60805160a05160c05160e05161010051612c27620001416000396000610e8101526000610e5801526000610e2f01526000818161032c015281816103f8015281816104fe015281816109df015281816114810152611b3501526000818161026e0152818161042e015281816104d401528181610535015281816109b501528181610a1601528181610c14015281816114440152611af90152612c276000f3fe6080604052600436106101485760003560e01c80638129fc1c116100c0578063927ede2d11610074578063a9f9e67511610059578063a9f9e67514610463578063b1a1a88214610483578063e11013dd1461049657600080fd5b8063927ede2d1461041c5780639a2ac6d51461045057600080fd5b806387087623116100a557806387087623146103835780638f601f66146103a357806391c49bf8146103e957600080fd5b80638129fc1c1461034e578063838b25201461036357600080fd5b80633cb747bf1161011757806354fd4d50116100fc57806354fd4d50146102d857806358a997f6146102fa5780637f46ddb21461031a57600080fd5b80633cb747bf1461025f578063540abf73146102b857600080fd5b80630166a07a1461020657806309fc8843146102265780631532ec34146102395780631635f5fd1461024c57600080fd5b3661020157333b156101e1576040517f08c379a000000000000000000000000000000000000000000000000000000000815260206004820152603760248201527f5374616e646172644272696467653a2066756e6374696f6e2063616e206f6e6c60448201527f792062652063616c6c65642066726f6d20616e20454f4100000000000000000060648201526084015b60405180910390fd5b6101ff333362030d40604051806020016040528060008152506104a9565b005b600080fd5b34801561021257600080fd5b506101ff6102213660046125e6565b6104bc565b6101ff610234366004612697565b6108b2565b6101ff6102473660046126ea565b610989565b6101ff61025a3660046126ea565b61099d565b34801561026b57600080fd5b507f00000000000000000000000000000000000000000000000000000000000000005b60405173ffffffffffffffffffffffffffffffffffffffff90911681526020015b60405180910390f35b3480156102c457600080fd5b506101ff6102d336600461275d565b610de3565b3480156102e457600080fd5b506102ed610e28565b6040516102af919061284a565b34801561030657600080fd5b506101ff61031536600461285d565b610ecb565b34801561032657600080fd5b5061028e7f000000000000000000000000000000000000000000000000000000000000000081565b34801561035a57600080fd5b506101ff610f9f565b34801561036f57600080fd5b506101ff61037e36600461275d565b611129565b34801561038f57600080fd5b506101ff61039e36600461285d565b61116e565b3480156103af57600080fd5b506103db6103be3660046128e0565b600260209081526000928352604080842090915290825290205481565b6040519081526020016102af565b3480156103f557600080fd5b507f000000000000000000000000000000000000000000000000000000000000000061028e565b34801561042857600080fd5b5061028e7f000000000000000000000000000000000000000000000000000000000000000081565b6101ff61045e366004612919565b611242565b34801561046f57600080fd5b506101ff61047e3660046125e6565b611284565b6101ff610491366004612697565b611293565b6101ff6104a4366004612919565b611364565b6104b684843485856113a7565b50505050565b3373ffffffffffffffffffffffffffffffffffffffff7f0000000000000000000000000000000000000000000000000000000000000000161480156105da57507f000000000000000000000000000000000000000000000000000000000000000073ffffffffffffffffffffffffffffffffffffffff167f000000000000000000000000000000000000000000000000000000000000000073ffffffffffffffffffffffffffffffffffffffff16636e296e456040518163ffffffff1660e01b8152600401602060405180830381865afa15801561059e573d6000803e3d6000fd5b505050506040513d601f19601f820116820180604052508101906105c2919061297c565b73ffffffffffffffffffffffffffffffffffffffff16145b61068c576040517f08c379a000000000000000000000000000000000000000000000000000000000815260206004820152604160248201527f5374616e646172644272696467653a2066756e6374696f6e2063616e206f6e6c60448201527f792062652063616c6c65642066726f6d20746865206f7468657220627269646760648201527f6500000000000000000000000000000000000000000000000000000000000000608482015260a4016101d8565b6106958761158b565b156107e3576106a487876115ed565b610756576040517f08c379a000000000000000000000000000000000000000000000000000000000815260206004820152604a60248201527f5374616e646172644272696467653a2077726f6e672072656d6f746520746f6b60448201527f656e20666f72204d6f72706869736d204d696e7461626c65204552433230206c60648201527f6f63616c20746f6b656e00000000000000000000000000000000000000000000608482015260a4016101d8565b6040517f40c10f1900000000000000000000000000000000000000000000000000000000815273ffffffffffffffffffffffffffffffffffffffff8581166004830152602482018590528816906340c10f1990604401600060405180830381600087803b1580156107c657600080fd5b505af11580156107da573d6000803e3d6000fd5b50505050610865565b73ffffffffffffffffffffffffffffffffffffffff8088166000908152600260209081526040808320938a16835292905220546108219084906129c8565b73ffffffffffffffffffffffffffffffffffffffff8089166000818152600260209081526040808320948c168352939052919091209190915561086590858561170d565b6108a9878787878787878080601f0160208091040260200160405190810160405280939291908181526020018383808284376000920191909152506117e192505050565b50505050505050565b333b15610941576040517f08c379a000000000000000000000000000000000000000000000000000000000815260206004820152603760248201527f5374616e646172644272696467653a2066756e6374696f6e2063616e206f6e6c60448201527f792062652063616c6c65642066726f6d20616e20454f4100000000000000000060648201526084016101d8565b6109843333348686868080601f0160208091040260200160405190810160405280939291908181526020018383808284376000920191909152506113a792505050565b505050565b610996858585858561099d565b5050505050565b3373ffffffffffffffffffffffffffffffffffffffff7f000000000000000000000000000000000000000000000000000000000000000016148015610abb57507f000000000000000000000000000000000000000000000000000000000000000073ffffffffffffffffffffffffffffffffffffffff167f000000000000000000000000000000000000000000000000000000000000000073ffffffffffffffffffffffffffffffffffffffff16636e296e456040518163ffffffff1660e01b8152600401602060405180830381865afa158015610a7f573d6000803e3d6000fd5b505050506040513d601f19601f82011682018060405250810190610aa3919061297c565b73ffffffffffffffffffffffffffffffffffffffff16145b610b6d576040517f08c379a000000000000000000000000000000000000000000000000000000000815260206004820152604160248201527f5374616e646172644272696467653a2066756e6374696f6e2063616e206f6e6c60448201527f792062652063616c6c65642066726f6d20746865206f7468657220627269646760648201527f6500000000000000000000000000000000000000000000000000000000000000608482015260a4016101d8565b3073ffffffffffffffffffffffffffffffffffffffff851603610c12576040517f08c379a000000000000000000000000000000000000000000000000000000000815260206004820152602360248201527f5374616e646172644272696467653a2063616e6e6f742073656e6420746f207360448201527f656c66000000000000000000000000000000000000000000000000000000000060648201526084016101d8565b7f000000000000000000000000000000000000000000000000000000000000000073ffffffffffffffffffffffffffffffffffffffff168473ffffffffffffffffffffffffffffffffffffffff1603610ced576040517f08c379a000000000000000000000000000000000000000000000000000000000815260206004820152602860248201527f5374616e646172644272696467653a2063616e6e6f742073656e6420746f206d60448201527f657373656e67657200000000000000000000000000000000000000000000000060648201526084016101d8565b610d2f85858585858080601f01602080910402602001604051908101604052809392919081815260200183838082843760009201919091525061186f92505050565b6000610d4c855a86604051806020016040528060008152506118e2565b905080610ddb576040517f08c379a000000000000000000000000000000000000000000000000000000000815260206004820152602360248201527f5374616e646172644272696467653a20455448207472616e736665722066616960448201527f6c6564000000000000000000000000000000000000000000000000000000000060648201526084016101d8565b505050505050565b6108a987873388888888888080601f0160208091040260200160405190810160405280939291908181526020018383808284376000920191909152506118fe92505050565b6060610e537f0000000000000000000000000000000000000000000000000000000000000000611c45565b610e7c7f0000000000000000000000000000000000000000000000000000000000000000611c45565b610ea57f0000000000000000000000000000000000000000000000000000000000000000611c45565b604051602001610eb7939291906129df565b604051602081830303815290604052905090565b333b15610f5a576040517f08c379a000000000000000000000000000000000000000000000000000000000815260206004820152603760248201527f5374616e646172644272696467653a2066756e6374696f6e2063616e206f6e6c60448201527f792062652063616c6c65642066726f6d20616e20454f4100000000000000000060648201526084016101d8565b610ddb86863333888888888080601f016020809104026020016040519081016040528093929190818152602001838380828437600092019190915250611d0392505050565b603254610100900460ff1615808015610fbf5750603254600160ff909116105b80610fd95750303b158015610fd9575060325460ff166001145b611065576040517f08c379a000000000000000000000000000000000000000000000000000000000815260206004820152602e60248201527f496e697469616c697a61626c653a20636f6e747261637420697320616c72656160448201527f647920696e697469616c697a656400000000000000000000000000000000000060648201526084016101d8565b603280547fffffffffffffffffffffffffffffffffffffffffffffffffffffffffffffff0016600117905580156110c357603280547fffffffffffffffffffffffffffffffffffffffffffffffffffffffffffff00ff166101001790555b801561112657603280547fffffffffffffffffffffffffffffffffffffffffffffffffffffffffffff00ff169055604051600181527f7f26b83ff96e1f2b6a682f133852f6798a09c465da95921460cefb38474024989060200160405180910390a15b50565b6108a987873388888888888080601f016020809104026020016040519081016040528093929190818152602001838380828437600092019190915250611d0392505050565b333b156111fd576040517f08c379a000000000000000000000000000000000000000000000000000000000815260206004820152603760248201527f5374616e646172644272696467653a2066756e6374696f6e2063616e206f6e6c60448201527f792062652063616c6c65642066726f6d20616e20454f4100000000000000000060648201526084016101d8565b610ddb86863333888888888080601f0160208091040260200160405190810160405280939291908181526020018383808284376000920191909152506118fe92505050565b6104b633858585858080601f0160208091040260200160405190810160405280939291908181526020018383808284376000920191909152506104a992505050565b6108a9878787878787876104bc565b333b15611322576040517f08c379a000000000000000000000000000000000000000000000000000000000815260206004820152603760248201527f5374616e646172644272696467653a2066756e6374696f6e2063616e206f6e6c60448201527f792062652063616c6c65642066726f6d20616e20454f4100000000000000000060648201526084016101d8565b61098433338585858080601f0160208091040260200160405190810160405280939291908181526020018383808284376000920191909152506104a992505050565b6104b63385348686868080601f0160208091040260200160405190810160405280939291908181526020018383808284376000920191909152506113a792505050565b823414611436576040517f08c379a000000000000000000000000000000000000000000000000000000000815260206004820152603e60248201527f5374616e646172644272696467653a206272696467696e6720455448206d757360448201527f7420696e636c7564652073756666696369656e74204554482076616c7565000060648201526084016101d8565b61144285858584611d12565b7f000000000000000000000000000000000000000000000000000000000000000073ffffffffffffffffffffffffffffffffffffffff16633dbb202b847f0000000000000000000000000000000000000000000000000000000000000000631635f5fd60e01b898989886040516024016114bf9493929190612a55565b604080517fffffffffffffffffffffffffffffffffffffffffffffffffffffffffffffffe08184030181529181526020820180517bffffffffffffffffffffffffffffffffffffffffffffffffffffffff167fffffffff000000000000000000000000000000000000000000000000000000009485161790525160e086901b909216825261155292918890600401612a9e565b6000604051808303818588803b15801561156b57600080fd5b505af115801561157f573d6000803e3d6000fd5b50505050505050505050565b60006115b7827f1d1d8b6300000000000000000000000000000000000000000000000000000000611d85565b806115e757506115e7827fec4fc8e300000000000000000000000000000000000000000000000000000000611d85565b92915050565b6000611619837f1d1d8b6300000000000000000000000000000000000000000000000000000000611d85565b156116c2578273ffffffffffffffffffffffffffffffffffffffff1663c01e1bd66040518163ffffffff1660e01b8152600401602060405180830381865afa158015611669573d6000803e3d6000fd5b505050506040513d601f19601f8201168201806040525081019061168d919061297c565b73ffffffffffffffffffffffffffffffffffffffff168273ffffffffffffffffffffffffffffffffffffffff161490506115e7565b8273ffffffffffffffffffffffffffffffffffffffff1663d6c0b2c46040518163ffffffff1660e01b8152600401602060405180830381865afa158015611669573d6000803e3d6000fd5b60405173ffffffffffffffffffffffffffffffffffffffff83166024820152604481018290526109849084907fa9059cbb00000000000000000000000000000000000000000000000000000000906064015b604080517fffffffffffffffffffffffffffffffffffffffffffffffffffffffffffffffe08184030181529190526020810180517bffffffffffffffffffffffffffffffffffffffffffffffffffffffff167fffffffff0000000000000000000000000000000000000000000000000000000090931692909217909152611da8565b8373ffffffffffffffffffffffffffffffffffffffff168573ffffffffffffffffffffffffffffffffffffffff168773ffffffffffffffffffffffffffffffffffffffff167f3ceee06c1e37648fcbb6ed52e17b3e1f275a1f8c7b22a84b2b84732431e046b386868660405161185993929190612ae3565b60405180910390a4610ddb868686868686611eb7565b8273ffffffffffffffffffffffffffffffffffffffff168473ffffffffffffffffffffffffffffffffffffffff167f2ac69ee804d9a7a0984249f508dfab7cb2534b465b6ce1580f99a38ba9c5e63184846040516118ce929190612b21565b60405180910390a36104b684848484611f3f565b600080600080845160208601878a8af19150505b949350505050565b6119078761158b565b15611a555761191687876115ed565b6119c8576040517f08c379a000000000000000000000000000000000000000000000000000000000815260206004820152604a60248201527f5374616e646172644272696467653a2077726f6e672072656d6f746520746f6b60448201527f656e20666f72204d6f72706869736d204d696e7461626c65204552433230206c60648201527f6f63616c20746f6b656e00000000000000000000000000000000000000000000608482015260a4016101d8565b6040517f9dc29fac00000000000000000000000000000000000000000000000000000000815273ffffffffffffffffffffffffffffffffffffffff868116600483015260248201859052881690639dc29fac90604401600060405180830381600087803b158015611a3857600080fd5b505af1158015611a4c573d6000803e3d6000fd5b50505050611ae9565b611a7773ffffffffffffffffffffffffffffffffffffffff8816863086611fac565b73ffffffffffffffffffffffffffffffffffffffff8088166000908152600260209081526040808320938a1683529290522054611ab5908490612b3a565b73ffffffffffffffffffffffffffffffffffffffff8089166000908152600260209081526040808320938b16835292905220555b611af787878787878661200a565b7f000000000000000000000000000000000000000000000000000000000000000073ffffffffffffffffffffffffffffffffffffffff16633dbb202b7f0000000000000000000000000000000000000000000000000000000000000000630166a07a60e01b898b8a8a8a89604051602401611b7796959493929190612b52565b604080517fffffffffffffffffffffffffffffffffffffffffffffffffffffffffffffffe08184030181529181526020820180517bffffffffffffffffffffffffffffffffffffffffffffffffffffffff167fffffffff000000000000000000000000000000000000000000000000000000009485161790525160e085901b9092168252611c0a92918790600401612a9e565b600060405180830381600087803b158015611c2457600080fd5b505af1158015611c38573d6000803e3d6000fd5b5050505050505050505050565b60606000611c5283612098565b600101905060008167ffffffffffffffff811115611c7257611c72612bad565b6040519080825280601f01601f191660200182016040528015611c9c576020820181803683370190505b5090508181016020015b7fffffffffffffffffffffffffffffffffffffffffffffffffffffffffffffffff017f3031323334353637383961626364656600000000000000000000000000000000600a86061a8153600a8504945084611ca657509392505050565b6108a9878787878787876118fe565b8273ffffffffffffffffffffffffffffffffffffffff168473ffffffffffffffffffffffffffffffffffffffff167f35d79ab81f2b2017e19afb5c5571778877782d7a8786f5907f93b0f4702f4f238484604051611d71929190612b21565b60405180910390a36104b68484848461217a565b6000611d90836121d9565b8015611da15750611da1838361223d565b9392505050565b6000611e0a826040518060400160405280602081526020017f5361666545524332303a206c6f772d6c6576656c2063616c6c206661696c65648152508573ffffffffffffffffffffffffffffffffffffffff1661230c9092919063ffffffff16565b9050805160001480611e2b575080806020019051810190611e2b9190612bdc565b610984576040517f08c379a000000000000000000000000000000000000000000000000000000000815260206004820152602a60248201527f5361666545524332303a204552433230206f7065726174696f6e20646964206e60448201527f6f7420737563636565640000000000000000000000000000000000000000000060648201526084016101d8565b8373ffffffffffffffffffffffffffffffffffffffff168573ffffffffffffffffffffffffffffffffffffffff168773ffffffffffffffffffffffffffffffffffffffff167fd59c65b35445225835c83f50b6ede06a7be047d22e357073e250d9af537518cd868686604051611f2f93929190612ae3565b60405180910390a4505050505050565b8273ffffffffffffffffffffffffffffffffffffffff168473ffffffffffffffffffffffffffffffffffffffff167f31b2166ff604fc5672ea5df08a78081d2bc6d746cadce880747f3643d819e83d8484604051611f9e929190612b21565b60405180910390a350505050565b60405173ffffffffffffffffffffffffffffffffffffffff808516602483015283166044820152606481018290526104b69085907f23b872dd000000000000000000000000000000000000000000000000000000009060840161175f565b8373ffffffffffffffffffffffffffffffffffffffff168573ffffffffffffffffffffffffffffffffffffffff168773ffffffffffffffffffffffffffffffffffffffff167f718594027abd4eaed59f95162563e0cc6d0e8d5b86b1c7be8b1b0ac3343d039686868660405161208293929190612ae3565b60405180910390a4610ddb86868686868661231b565b6000807a184f03e93ff9f4daa797ed6e38ed64bf6a1f01000000000000000083106120e1577a184f03e93ff9f4daa797ed6e38ed64bf6a1f010000000000000000830492506040015b6d04ee2d6d415b85acef8100000000831061210d576d04ee2d6d415b85acef8100000000830492506020015b662386f26fc10000831061212b57662386f26fc10000830492506010015b6305f5e1008310612143576305f5e100830492506008015b612710831061215757612710830492506004015b60648310612169576064830492506002015b600a83106115e75760010192915050565b8273ffffffffffffffffffffffffffffffffffffffff168473ffffffffffffffffffffffffffffffffffffffff167f2849b43074093a05396b6f2a937dee8565b15a48a7b3d4bffb732a5017380af58484604051611f9e929190612b21565b6000612205827f01ffc9a70000000000000000000000000000000000000000000000000000000061223d565b80156115e75750612236827fffffffff0000000000000000000000000000000000000000000000000000000061223d565b1592915050565b604080517fffffffff000000000000000000000000000000000000000000000000000000008316602480830191909152825180830390910181526044909101909152602080820180517bffffffffffffffffffffffffffffffffffffffffffffffffffffffff167f01ffc9a700000000000000000000000000000000000000000000000000000000178152825160009392849283928392918391908a617530fa92503d915060005190508280156122f5575060208210155b80156123015750600081115b979650505050505050565b60606118f68484600085612393565b8373ffffffffffffffffffffffffffffffffffffffff168573ffffffffffffffffffffffffffffffffffffffff168773ffffffffffffffffffffffffffffffffffffffff167f7ff126db8024424bbfd9826e8ab82ff59136289ea440b04b39a0df1b03b9cabf868686604051611f2f93929190612ae3565b606082471015612425576040517f08c379a000000000000000000000000000000000000000000000000000000000815260206004820152602660248201527f416464726573733a20696e73756666696369656e742062616c616e636520666f60448201527f722063616c6c000000000000000000000000000000000000000000000000000060648201526084016101d8565b6000808673ffffffffffffffffffffffffffffffffffffffff16858760405161244e9190612bfe565b60006040518083038185875af1925050503d806000811461248b576040519150601f19603f3d011682016040523d82523d6000602084013e612490565b606091505b5091509150612301878383876060831561253257825160000361252b5773ffffffffffffffffffffffffffffffffffffffff85163b61252b576040517f08c379a000000000000000000000000000000000000000000000000000000000815260206004820152601d60248201527f416464726573733a2063616c6c20746f206e6f6e2d636f6e747261637400000060448201526064016101d8565b50816118f6565b6118f683838151156125475781518083602001fd5b806040517f08c379a00000000000000000000000000000000000000000000000000000000081526004016101d8919061284a565b73ffffffffffffffffffffffffffffffffffffffff8116811461112657600080fd5b60008083601f8401126125af57600080fd5b50813567ffffffffffffffff8111156125c757600080fd5b6020830191508360208285010111156125df57600080fd5b9250929050565b600080600080600080600060c0888a03121561260157600080fd5b873561260c8161257b565b9650602088013561261c8161257b565b9550604088013561262c8161257b565b9450606088013561263c8161257b565b93506080880135925060a088013567ffffffffffffffff81111561265f57600080fd5b61266b8a828b0161259d565b989b979a50959850939692959293505050565b803563ffffffff8116811461269257600080fd5b919050565b6000806000604084860312156126ac57600080fd5b6126b58461267e565b9250602084013567ffffffffffffffff8111156126d157600080fd5b6126dd8682870161259d565b9497909650939450505050565b60008060008060006080868803121561270257600080fd5b853561270d8161257b565b9450602086013561271d8161257b565b935060408601359250606086013567ffffffffffffffff81111561274057600080fd5b61274c8882890161259d565b969995985093965092949392505050565b600080600080600080600060c0888a03121561277857600080fd5b87356127838161257b565b965060208801356127938161257b565b955060408801356127a38161257b565b9450606088013593506127b86080890161267e565b925060a088013567ffffffffffffffff81111561265f57600080fd5b60005b838110156127ef5781810151838201526020016127d7565b838111156104b65750506000910152565b600081518084526128188160208601602086016127d4565b601f017fffffffffffffffffffffffffffffffffffffffffffffffffffffffffffffffe0169290920160200192915050565b602081526000611da16020830184612800565b60008060008060008060a0878903121561287657600080fd5b86356128818161257b565b955060208701356128918161257b565b9450604087013593506128a66060880161267e565b9250608087013567ffffffffffffffff8111156128c257600080fd5b6128ce89828a0161259d565b979a9699509497509295939492505050565b600080604083850312156128f357600080fd5b82356128fe8161257b565b9150602083013561290e8161257b565b809150509250929050565b6000806000806060858703121561292f57600080fd5b843561293a8161257b565b93506129486020860161267e565b9250604085013567ffffffffffffffff81111561296457600080fd5b6129708782880161259d565b95989497509550505050565b60006020828403121561298e57600080fd5b8151611da18161257b565b7f4e487b7100000000000000000000000000000000000000000000000000000000600052601160045260246000fd5b6000828210156129da576129da612999565b500390565b600084516129f18184602089016127d4565b80830190507f2e000000000000000000000000000000000000000000000000000000000000008082528551612a2d816001850160208a016127d4565b60019201918201528351612a488160028401602088016127d4565b0160020195945050505050565b600073ffffffffffffffffffffffffffffffffffffffff808716835280861660208401525083604083015260806060830152612a946080830184612800565b9695505050505050565b73ffffffffffffffffffffffffffffffffffffffff84168152606060208201526000612acd6060830185612800565b905063ffffffff83166040830152949350505050565b73ffffffffffffffffffffffffffffffffffffffff84168152826020820152606060408201526000612b186060830184612800565b95945050505050565b8281526040602082015260006118f66040830184612800565b60008219821115612b4d57612b4d612999565b500190565b600073ffffffffffffffffffffffffffffffffffffffff80891683528088166020840152808716604084015280861660608401525083608083015260c060a0830152612ba160c0830184612800565b98975050505050505050565b7f4e487b7100000000000000000000000000000000000000000000000000000000600052604160045260246000fd5b600060208284031215612bee57600080fd5b81518015158114611da157600080fd5b60008251612c108184602087016127d4565b919091019291505056fea164736f6c634300080f000a",
  "linkReferences": {},
  "deployedLinkReferences": {}
}