{
  "_format": "hh-sol-artifact-1",
  "contractName": "TestWithdrawTree",
  "sourceName": "contracts/MockTest/TestWithdrawTree.sol",
  "abi": [
    {
      "inputs": [],
      "name": "MerkleTreeFull",
      "type": "error"
    },
    {
      "inputs": [
        {
          "components": [
            {
              "internalType": "uint256",
              "name": "nonce",
              "type": "uint256"
            },
            {
              "internalType": "address",
              "name": "sender",
              "type": "address"
            },
            {
              "internalType": "address",
              "name": "target",
              "type": "address"
            },
            {
              "internalType": "uint256",
              "name": "value",
              "type": "uint256"
            },
            {
              "internalType": "uint256",
              "name": "gasLimit",
              "type": "uint256"
            },
            {
              "internalType": "bytes",
              "name": "data",
              "type": "bytes"
            }
          ],
          "internalType": "struct Types.WithdrawalTransaction",
          "name": "_tx",
          "type": "tuple"
        }
      ],
      "name": "appendMessageHash",
      "outputs": [],
      "stateMutability": "nonpayable",
      "type": "function"
    },
    {
      "inputs": [],
      "name": "getTreeRoot",
      "outputs": [
        {
          "internalType": "bytes32",
          "name": "",
          "type": "bytes32"
        }
      ],
      "stateMutability": "view",
      "type": "function"
    },
    {
      "inputs": [
        {
          "internalType": "uint256",
          "name": "_nonce",
          "type": "uint256"
        },
        {
          "internalType": "address",
          "name": "_sender",
          "type": "address"
        },
        {
          "internalType": "address",
          "name": "_target",
          "type": "address"
        },
        {
          "internalType": "uint256",
          "name": "_value",
          "type": "uint256"
        },
        {
          "internalType": "uint256",
          "name": "_minGasLimit",
          "type": "uint256"
        },
        {
          "internalType": "bytes",
          "name": "_message",
          "type": "bytes"
        }
      ],
      "name": "hashCrossDomainMessageV1",
      "outputs": [
        {
          "internalType": "bytes32",
          "name": "",
          "type": "bytes32"
        }
      ],
      "stateMutability": "pure",
      "type": "function"
    },
    {
      "inputs": [
        {
          "components": [
            {
              "internalType": "uint64",
              "name": "queueIndex",
              "type": "uint64"
            },
            {
              "internalType": "uint64",
              "name": "gas",
              "type": "uint64"
            },
            {
              "internalType": "address",
              "name": "to",
              "type": "address"
            },
            {
              "internalType": "uint256",
              "name": "value",
              "type": "uint256"
            },
            {
              "internalType": "bytes",
              "name": "data",
              "type": "bytes"
            },
            {
              "internalType": "address",
              "name": "sender",
              "type": "address"
            }
          ],
          "internalType": "struct Types.L1MessageTx",
          "name": "_tx",
          "type": "tuple"
        }
      ],
      "name": "hashL1MessageTx",
      "outputs": [
        {
          "internalType": "bytes32",
          "name": "",
          "type": "bytes32"
        }
      ],
      "stateMutability": "pure",
      "type": "function"
    },
    {
      "inputs": [
        {
          "components": [
            {
              "internalType": "uint256",
              "name": "nonce",
              "type": "uint256"
            },
            {
              "internalType": "address",
              "name": "sender",
              "type": "address"
            },
            {
              "internalType": "address",
              "name": "target",
              "type": "address"
            },
            {
              "internalType": "uint256",
              "name": "value",
              "type": "uint256"
            },
            {
              "internalType": "uint256",
              "name": "gasLimit",
              "type": "uint256"
            },
            {
              "internalType": "bytes",
              "name": "data",
              "type": "bytes"
            }
          ],
          "internalType": "struct Types.WithdrawalTransaction",
          "name": "_tx",
          "type": "tuple"
        }
      ],
      "name": "hashWithdrawal",
      "outputs": [
        {
          "internalType": "bytes32",
          "name": "",
          "type": "bytes32"
        }
      ],
      "stateMutability": "pure",
      "type": "function"
    },
    {
      "inputs": [],
      "name": "leafNodesCount",
      "outputs": [
        {
          "internalType": "uint256",
          "name": "",
          "type": "uint256"
        }
      ],
      "stateMutability": "view",
      "type": "function"
    },
    {
      "inputs": [
        {
          "internalType": "bytes32",
          "name": "leafHash",
          "type": "bytes32"
        },
        {
          "internalType": "bytes32[32]",
          "name": "smtProof",
          "type": "bytes32[32]"
        },
        {
          "internalType": "uint256",
          "name": "index",
          "type": "uint256"
        },
        {
          "internalType": "bytes32",
          "name": "root",
          "type": "bytes32"
        }
      ],
      "name": "verifyMerkleProof",
      "outputs": [
        {
          "internalType": "bool",
          "name": "",
          "type": "bool"
        }
      ],
      "stateMutability": "pure",
      "type": "function"
    }
  ],
  "bytecode": "0x608060405234801561001057600080fd5b506115af806100206000396000f3fe608060405234801561001057600080fd5b506004361061007d5760003560e01c806389c09d381161005b57806389c09d38146100de578063b58343bb146100e6578063b9fb9f7e146100ef578063f22a77e81461010257600080fd5b80632aaac00414610082578063340735f7146100a85780637d4395ac146100cb575b600080fd5b610095610090366004610f34565b610117565b6040519081526020015b60405180910390f35b6100bb6100b6366004610fef565b6101ae565b604051901515815260200161009f565b6100956100d9366004611033565b610282565b6100956102fe565b61009560205481565b6100956100fd3660046110e0565b6103db565b610115610110366004611033565b61042d565b005b6000806101a76040518060c00160405280856000015167ffffffffffffffff168152602001856020015167ffffffffffffffff168152602001856040015173ffffffffffffffffffffffffffffffffffffffff16815260200185606001518152602001856080015181526020018560a0015173ffffffffffffffffffffffffffffffffffffffff16815250610447565b9392505050565b600084815b6020811015610276578085901c600116600103610219578581602081106101dc576101dc611191565b6020020135826040516020016101fc929190918252602082015260400190565b604051602081830303815290604052805190602001209150610264565b8186826020811061022c5761022c611191565b602002013560405160200161024b929190918252602082015260400190565b6040516020818303038152906040528051906020012091505b8061026e816111ef565b9150506101b3565b50909114949350505050565b6000806101a76040518060c0016040528085600001518152602001856020015173ffffffffffffffffffffffffffffffffffffffff168152602001856040015173ffffffffffffffffffffffffffffffffffffffff16815260200185606001518152602001856080015181526020018560a00151815250610460565b602054600090819081805b60208110156103d2578083901c600116600103610366576000816020811061033357610333611191565b01546040805160208101929092528101859052606001604051602081830303815290604052805190602001209350610393565b60408051602081018690529081018390526060016040516020818303038152906040528051906020012093505b604080516020810184905290810183905260600160405160208183030381529060405280519060200120915080806103ca906111ef565b915050610309565b50919392505050565b6000610421888888888888888080601f0160208091040260200160405190810160405280939291908181526020018383808284376000920191909152506104ad92505050565b98975050505050505050565b600061043882610282565b9050610443816104d0565b5050565b6000610452826105d3565b805190602001209050919050565b80516020808301516040808501516060860151608087015160a08801519351600097610490979096959101611257565b604051602081830303815290604052805190602001209050919050565b60006104bd87878787878761074d565b8051906020012090509695505050505050565b8060016104df60206002611405565b6104e99190611411565b60205410610523576040517fef5ccf6600000000000000000000000000000000000000000000000000000000815260040160405180910390fd5b6000602060008154610534906111ef565b9182905550905060005b60208110156105c5578082901c60011660010361057157826000826020811061056957610569611191565b015550505050565b6000816020811061058457610584611191565b0154604080516020810192909252810184905260600160405160208183030381529060405280519060200120925080806105bd906111ef565b91505061053e565b506105ce611428565b505050565b60408051600680825260e0820190925260609160009190816020015b60608152602001906001900390816105ef575050835190915061061b9067ffffffffffffffff166107ec565b8160008151811061062e5761062e611191565b6020026020010181905250610650836020015167ffffffffffffffff166107ec565b8160018151811061066357610663611191565b602002602001018190525061067b8360400151610805565b8160028151811061068e5761068e611191565b60200260200101819052506106a683606001516107ec565b816003815181106106b9576106b9611191565b60200260200101819052506106d1836080015161084c565b816004815181106106e4576106e4611191565b60200260200101819052506106fc8360a00151610805565b8160058151811061070f5761070f611191565b6020026020010181905250607e610725826108bb565b604051602001610736929190611457565b604051602081830303815290604052915050919050565b606086868686868660405160240161076a96959493929190611257565b604080517fffffffffffffffffffffffffffffffffffffffffffffffffffffffffffffffe08184030181529190526020810180517bffffffffffffffffffffffffffffffffffffffffffffffffffffffff167fd764ad0b0000000000000000000000000000000000000000000000000000000017905290509695505050505050565b60606107ff6107fa836108e8565b61084c565b92915050565b604051606082811b7fffffffffffffffffffffffffffffffffffffffff000000000000000000000000166020830152906107ff906034016040516020818303038152906040525b6060808251600114801561087a575060808360008151811061087057610870611191565b016020015160f81c105b156108865750816107ff565b61089283516080610a50565b836040516020016108a49291906114a2565b604051602081830303815290604052905092915050565b606060006108c883610c46565b90506108d6815160c0610a50565b816040516020016107369291906114a2565b60606000826040516020016108ff91815260200190565b604051602081830303815290604052905060005b602081101561096e5781818151811061092e5761092e611191565b01602001517fff000000000000000000000000000000000000000000000000000000000000001660000361096e5780610966816111ef565b915050610913565b600061097b826020611411565b67ffffffffffffffff81111561099357610993610df0565b6040519080825280601f01601f1916602001820160405280156109bd576020820181803683370190505b50905060005b8151811015610a475783836109d7816111ef565b9450815181106109e9576109e9611191565b602001015160f81c60f81b828281518110610a0657610a06611191565b60200101907effffffffffffffffffffffffffffffffffffffffffffffffffffffffffffff1916908160001a90535080610a3f816111ef565b9150506109c3565b50949350505050565b6060806038841015610acf5760408051600180825281830190925290602082018180368337019050509050610a8583856114d1565b60f81b81600081518110610a9b57610a9b611191565b60200101907effffffffffffffffffffffffffffffffffffffffffffffffffffffffffffff1916908160001a9053506101a7565b600060015b610ade8187611525565b15610b045781610aed816111ef565b9250610afd905061010082611539565b9050610ad4565b610b0f826001611576565b67ffffffffffffffff811115610b2757610b27610df0565b6040519080825280601f01601f191660200182016040528015610b51576020820181803683370190505b509250610b5e85836114d1565b610b699060376114d1565b60f81b83600081518110610b7f57610b7f611191565b60200101907effffffffffffffffffffffffffffffffffffffffffffffffffffffffffffff1916908160001a905350600190505b818111610c3d57610100610bc78284611411565b610bd390610100611405565b610bdd9088611525565b610be7919061158e565b60f81b838281518110610bfc57610bfc611191565b60200101907effffffffffffffffffffffffffffffffffffffffffffffffffffffffffffff1916908160001a90535080610c35816111ef565b915050610bb3565b50509392505050565b60608151600003610c6557505060408051600081526020810190915290565b6000805b8351811015610cac57838181518110610c8457610c84611191565b60200260200101515182610c989190611576565b915080610ca4816111ef565b915050610c69565b60008267ffffffffffffffff811115610cc757610cc7610df0565b6040519080825280601f01601f191660200182016040528015610cf1576020820181803683370190505b50600092509050602081015b8551831015610a47576000868481518110610d1a57610d1a611191565b602002602001015190506000602082019050610d3883828451610d75565b878581518110610d4a57610d4a611191565b60200260200101515183610d5e9190611576565b925050508280610d6d906111ef565b935050610cfd565b8282825b60208110610db15781518352610d90602084611576565b9250610d9d602083611576565b9150610daa602082611411565b9050610d79565b905182516020929092036101000a7fffffffffffffffffffffffffffffffffffffffffffffffffffffffffffffffff0180199091169116179052505050565b7f4e487b7100000000000000000000000000000000000000000000000000000000600052604160045260246000fd5b60405160c0810167ffffffffffffffff81118282101715610e4257610e42610df0565b60405290565b803567ffffffffffffffff81168114610e6057600080fd5b919050565b803573ffffffffffffffffffffffffffffffffffffffff81168114610e6057600080fd5b600082601f830112610e9a57600080fd5b813567ffffffffffffffff80821115610eb557610eb5610df0565b604051601f83017fffffffffffffffffffffffffffffffffffffffffffffffffffffffffffffffe0908116603f01168101908282118183101715610efb57610efb610df0565b81604052838152866020858801011115610f1457600080fd5b836020870160208301376000602085830101528094505050505092915050565b600060208284031215610f4657600080fd5b813567ffffffffffffffff80821115610f5e57600080fd5b9083019060c08286031215610f7257600080fd5b610f7a610e1f565b610f8383610e48565b8152610f9160208401610e48565b6020820152610fa260408401610e65565b604082015260608301356060820152608083013582811115610fc357600080fd5b610fcf87828601610e89565b608083015250610fe160a08401610e65565b60a082015295945050505050565b600080600080610460858703121561100657600080fd5b8435935061042085018681111561101c57600080fd5b939660208601965093359461044001359392505050565b60006020828403121561104557600080fd5b813567ffffffffffffffff8082111561105d57600080fd5b9083019060c0828603121561107157600080fd5b611079610e1f565b8235815261108960208401610e65565b602082015261109a60408401610e65565b6040820152606083013560608201526080830135608082015260a0830135828111156110c557600080fd5b6110d187828601610e89565b60a08301525095945050505050565b600080600080600080600060c0888a0312156110fb57600080fd5b8735965061110b60208901610e65565b955061111960408901610e65565b9450606088013593506080880135925060a088013567ffffffffffffffff8082111561114457600080fd5b818a0191508a601f83011261115857600080fd5b81358181111561116757600080fd5b8b602082850101111561117957600080fd5b60208301945080935050505092959891949750929550565b7f4e487b7100000000000000000000000000000000000000000000000000000000600052603260045260246000fd5b7f4e487b7100000000000000000000000000000000000000000000000000000000600052601160045260246000fd5b60007fffffffffffffffffffffffffffffffffffffffffffffffffffffffffffffffff8203611220576112206111c0565b5060010190565b60005b8381101561124257818101518382015260200161122a565b83811115611251576000848401525b50505050565b868152600073ffffffffffffffffffffffffffffffffffffffff808816602084015280871660408401525084606083015283608083015260c060a083015282518060c08401526112ae8160e0850160208701611227565b601f017fffffffffffffffffffffffffffffffffffffffffffffffffffffffffffffffe0169190910160e001979650505050505050565b600181815b8085111561133e57817fffffffffffffffffffffffffffffffffffffffffffffffffffffffffffffffff04821115611324576113246111c0565b8085161561133157918102915b93841c93908002906112ea565b509250929050565b600082611355575060016107ff565b81611362575060006107ff565b816001811461137857600281146113825761139e565b60019150506107ff565b60ff841115611393576113936111c0565b50506001821b6107ff565b5060208310610133831016604e8410600b84101617156113c1575081810a6107ff565b6113cb83836112e5565b807fffffffffffffffffffffffffffffffffffffffffffffffffffffffffffffffff048211156113fd576113fd6111c0565b029392505050565b60006101a78383611346565b600082821015611423576114236111c0565b500390565b7f4e487b7100000000000000000000000000000000000000000000000000000000600052600160045260246000fd5b7fff000000000000000000000000000000000000000000000000000000000000008360f81b16815260008251611494816001850160208701611227565b919091016001019392505050565b600083516114b4818460208801611227565b8351908301906114c8818360208801611227565b01949350505050565b600060ff821660ff84168060ff038211156114ee576114ee6111c0565b019392505050565b7f4e487b7100000000000000000000000000000000000000000000000000000000600052601260045260246000fd5b600082611534576115346114f6565b500490565b6000817fffffffffffffffffffffffffffffffffffffffffffffffffffffffffffffffff0483118215151615611571576115716111c0565b500290565b60008219821115611589576115896111c0565b500190565b60008261159d5761159d6114f6565b50069056fea164736f6c634300080f000a",
  "linkReferences": {},
  "deployedLinkReferences": {}
}