{
  "_format": "hh-sol-artifact-1",
  "contractName": "MultipleVersionRollupVerifier",
  "sourceName": "contracts/L1/rollup/MultipleVersionRollupVerifier.sol",
  "abi": [
    {
      "inputs": [
        {
          "internalType": "address",
          "name": "_verifier",
          "type": "address"
        }
      ],
      "stateMutability": "nonpayable",
      "type": "constructor"
    },
    {
      "anonymous": false,
      "inputs": [
        {
          "indexed": true,
          "internalType": "address",
          "name": "previousOwner",
          "type": "address"
        },
        {
          "indexed": true,
          "internalType": "address",
          "name": "newOwner",
          "type": "address"
        }
      ],
      "name": "OwnershipTransferred",
      "type": "event"
    },
    {
      "anonymous": false,
      "inputs": [
        {
          "indexed": false,
          "internalType": "uint256",
          "name": "startBatchIndex",
          "type": "uint256"
        },
        {
          "indexed": false,
          "internalType": "address",
          "name": "verifier",
          "type": "address"
        }
      ],
      "name": "UpdateVerifier",
      "type": "event"
    },
    {
      "inputs": [
        {
          "internalType": "uint256",
          "name": "_batchIndex",
          "type": "uint256"
        }
      ],
      "name": "getVerifier",
      "outputs": [
        {
          "internalType": "address",
          "name": "",
          "type": "address"
        }
      ],
      "stateMutability": "view",
      "type": "function"
    },
    {
      "inputs": [
        {
          "internalType": "address",
          "name": "_rollup",
          "type": "address"
        }
      ],
      "name": "initialize",
      "outputs": [],
      "stateMutability": "nonpayable",
      "type": "function"
    },
    {
      "inputs": [],
      "name": "latestVerifier",
      "outputs": [
        {
          "internalType": "uint64",
          "name": "startBatchIndex",
          "type": "uint64"
        },
        {
          "internalType": "address",
          "name": "verifier",
          "type": "address"
        }
      ],
      "stateMutability": "view",
      "type": "function"
    },
    {
      "inputs": [
        {
          "internalType": "uint256",
          "name": "",
          "type": "uint256"
        }
      ],
      "name": "legacyVerifiers",
      "outputs": [
        {
          "internalType": "uint64",
          "name": "startBatchIndex",
          "type": "uint64"
        },
        {
          "internalType": "address",
          "name": "verifier",
          "type": "address"
        }
      ],
      "stateMutability": "view",
      "type": "function"
    },
    {
      "inputs": [],
      "name": "legacyVerifiersLength",
      "outputs": [
        {
          "internalType": "uint256",
          "name": "",
          "type": "uint256"
        }
      ],
      "stateMutability": "view",
      "type": "function"
    },
    {
      "inputs": [],
      "name": "owner",
      "outputs": [
        {
          "internalType": "address",
          "name": "",
          "type": "address"
        }
      ],
      "stateMutability": "view",
      "type": "function"
    },
    {
      "inputs": [],
      "name": "renounceOwnership",
      "outputs": [],
      "stateMutability": "nonpayable",
      "type": "function"
    },
    {
      "inputs": [],
      "name": "rollup",
      "outputs": [
        {
          "internalType": "address",
          "name": "",
          "type": "address"
        }
      ],
      "stateMutability": "view",
      "type": "function"
    },
    {
      "inputs": [
        {
          "internalType": "address",
          "name": "newOwner",
          "type": "address"
        }
      ],
      "name": "transferOwnership",
      "outputs": [],
      "stateMutability": "nonpayable",
      "type": "function"
    },
    {
      "inputs": [
        {
          "internalType": "uint64",
          "name": "_startBatchIndex",
          "type": "uint64"
        },
        {
          "internalType": "address",
          "name": "_verifier",
          "type": "address"
        }
      ],
      "name": "updateVerifier",
      "outputs": [],
      "stateMutability": "nonpayable",
      "type": "function"
    },
    {
      "inputs": [
        {
          "internalType": "uint256",
          "name": "_batchIndex",
          "type": "uint256"
        },
        {
          "internalType": "bytes",
          "name": "_aggrProof",
          "type": "bytes"
        },
        {
          "internalType": "bytes32",
          "name": "_publicInputHash",
          "type": "bytes32"
        }
      ],
      "name": "verifyAggregateProof",
      "outputs": [],
      "stateMutability": "view",
      "type": "function"
    }
  ],
  "bytecode": "0x608060405234801561000f575f80fd5b50604051610d4f380380610d4f83398101604081905261002e91610114565b610037336100c5565b6001600160a01b0381166100915760405162461bcd60e51b815260206004820152601560248201527f7a65726f20766572696669657220616464726573730000000000000000000000604482015260640160405180910390fd5b600280546001600160a01b039092166801000000000000000002600160401b600160e01b0319909216919091179055610141565b5f80546001600160a01b038381166001600160a01b0319831681178455604051919092169283917f8be0079c531659141344cd1fd0a4f28419497f9722a3daafe3b4186f6b6457e09190a35050565b5f60208284031215610124575f80fd5b81516001600160a01b038116811461013a575f80fd5b9392505050565b610c018061014e5f395ff3fe608060405234801561000f575f80fd5b50600436106100c4575f3560e01c8063b57919e81161007d578063cc780aa111610058578063cc780aa1146101f0578063ef4b522714610203578063f2fde38b14610216575f80fd5b8063b57919e8146101ac578063c4d66de8146101bd578063cb23bcb5146101d0575f80fd5b80634cf536b3116100ad5780634cf536b31461014d578063715018a6146101855780638da5cb5b1461018f575f80fd5b80631a2c3cde146100c85780633561bc2714610115575b5f80fd5b6100db6100d6366004610a19565b610229565b6040805167ffffffffffffffff909316835273ffffffffffffffffffffffffffffffffffffffff9091166020830152015b60405180910390f35b610128610123366004610a19565b610275565b60405173ffffffffffffffffffffffffffffffffffffffff909116815260200161010c565b6002546100db9067ffffffffffffffff81169068010000000000000000900473ffffffffffffffffffffffffffffffffffffffff1682565b61018d61036e565b005b5f5473ffffffffffffffffffffffffffffffffffffffff16610128565b60015460405190815260200161010c565b61018d6101cb366004610a58565b610381565b6003546101289073ffffffffffffffffffffffffffffffffffffffff1681565b61018d6101fe366004610a78565b610455565b61018d610211366004610af3565b6104eb565b61018d610224366004610a58565b61086e565b60018181548110610238575f80fd5b5f9182526020909120015467ffffffffffffffff8116915068010000000000000000900473ffffffffffffffffffffffffffffffffffffffff1682565b6040805180820190915260025467ffffffffffffffff81168083526801000000000000000090910473ffffffffffffffffffffffffffffffffffffffff1660208301525f919083101561036457600154805b8015610361576001808203815481106102e2576102e2610b32565b5f9182526020918290206040805180820190915291015467ffffffffffffffff81168083526801000000000000000090910473ffffffffffffffffffffffffffffffffffffffff16928201929092529350851015610361577fffffffffffffffffffffffffffffffffffffffffffffffffffffffffffffffff016102c7565b50505b6020015192915050565b610376610925565b61037f5f6109a5565b565b610389610925565b60035473ffffffffffffffffffffffffffffffffffffffff161561040e576040517f08c379a000000000000000000000000000000000000000000000000000000000815260206004820152600b60248201527f696e697469616c697a656400000000000000000000000000000000000000000060448201526064015b60405180910390fd5b600380547fffffffffffffffffffffffff00000000000000000000000000000000000000001673ffffffffffffffffffffffffffffffffffffffff92909216919091179055565b5f61045f85610275565b6040517f6b40634100000000000000000000000000000000000000000000000000000000815290915073ffffffffffffffffffffffffffffffffffffffff821690636b406341906104b890879087908790600401610b5f565b5f6040518083038186803b1580156104ce575f80fd5b505afa1580156104e0573d5f803e3d5ffd5b505050505050505050565b6104f3610925565b60035f9054906101000a900473ffffffffffffffffffffffffffffffffffffffff1673ffffffffffffffffffffffffffffffffffffffff1663059def616040518163ffffffff1660e01b8152600401602060405180830381865afa15801561055d573d5f803e3d5ffd5b505050506040513d601f19601f820116820180604052508101906105819190610bb4565b8267ffffffffffffffff16116105f3576040517f08c379a000000000000000000000000000000000000000000000000000000000815260206004820152601b60248201527f737461727420626174636820696e6465782066696e616c697a656400000000006044820152606401610405565b6040805180820190915260025467ffffffffffffffff8082168084526801000000000000000090920473ffffffffffffffffffffffffffffffffffffffff166020840152841610156106a1576040517f08c379a000000000000000000000000000000000000000000000000000000000815260206004820152601b60248201527f737461727420626174636820696e64657820746f6f20736d616c6c00000000006044820152606401610405565b73ffffffffffffffffffffffffffffffffffffffff821661071e576040517f08c379a000000000000000000000000000000000000000000000000000000000815260206004820152601560248201527f7a65726f207665726966696572206164647265737300000000000000000000006044820152606401610405565b805167ffffffffffffffff808516911610156107c9576001805480820182555f9190915281517fb10e2d527612073b26eecdfd717e6a320cf44b4afac2b0732d9fcbe2b7fa0cf69091018054602084015173ffffffffffffffffffffffffffffffffffffffff1668010000000000000000027fffffffff0000000000000000000000000000000000000000000000000000000090911667ffffffffffffffff93841617179055831681525b73ffffffffffffffffffffffffffffffffffffffff8216602082810182905282516002805467ffffffffffffffff9283167fffffffff0000000000000000000000000000000000000000000000000000000090911617680100000000000000008502179055604080519187168252918101929092527f1363b06925d4266686ad6ab546259321a7ed3cc0bcc55ada2c6431a754b3b4e2910160405180910390a1505050565b610876610925565b73ffffffffffffffffffffffffffffffffffffffff8116610919576040517f08c379a000000000000000000000000000000000000000000000000000000000815260206004820152602660248201527f4f776e61626c653a206e6577206f776e657220697320746865207a65726f206160448201527f64647265737300000000000000000000000000000000000000000000000000006064820152608401610405565b610922816109a5565b50565b5f5473ffffffffffffffffffffffffffffffffffffffff16331461037f576040517f08c379a000000000000000000000000000000000000000000000000000000000815260206004820181905260248201527f4f776e61626c653a2063616c6c6572206973206e6f7420746865206f776e65726044820152606401610405565b5f805473ffffffffffffffffffffffffffffffffffffffff8381167fffffffffffffffffffffffff0000000000000000000000000000000000000000831681178455604051919092169283917f8be0079c531659141344cd1fd0a4f28419497f9722a3daafe3b4186f6b6457e09190a35050565b5f60208284031215610a29575f80fd5b5035919050565b803573ffffffffffffffffffffffffffffffffffffffff81168114610a53575f80fd5b919050565b5f60208284031215610a68575f80fd5b610a7182610a30565b9392505050565b5f805f8060608587031215610a8b575f80fd5b84359350602085013567ffffffffffffffff80821115610aa9575f80fd5b818701915087601f830112610abc575f80fd5b813581811115610aca575f80fd5b886020828501011115610adb575f80fd5b95986020929092019750949560400135945092505050565b5f8060408385031215610b04575f80fd5b823567ffffffffffffffff81168114610b1b575f80fd5b9150610b2960208401610a30565b90509250929050565b7f4e487b71000000000000000000000000000000000000000000000000000000005f52603260045260245ffd5b60408152826040820152828460608301375f606084830101525f60607fffffffffffffffffffffffffffffffffffffffffffffffffffffffffffffffe0601f8601168301019050826020830152949350505050565b5f60208284031215610bc4575f80fd5b505191905056fea2646970667358221220eb8cb37d7b48c8c3984e2bbc78d3d03602435a8f8666840b5e8575ea08c5094264736f6c63430008180033",
  "linkReferences": {},
  "deployedLinkReferences": {}
}